{
  "address": "0xfddbEb53227C2CB1729C3C35c6480c79603EC373",
  "abi": [
    {
      "inputs": [
        {
          "internalType": "contract SharedNFTLogic",
          "name": "sharedNFTLogic",
          "type": "address"
        }
      ],
      "stateMutability": "nonpayable",
      "type": "constructor"
    },
    {
      "anonymous": false,
      "inputs": [
        {
          "indexed": true,
          "internalType": "address",
          "name": "owner",
          "type": "address"
        },
        {
          "indexed": true,
          "internalType": "address",
          "name": "approved",
          "type": "address"
        },
        {
          "indexed": true,
          "internalType": "uint256",
          "name": "tokenId",
          "type": "uint256"
        }
      ],
      "name": "Approval",
      "type": "event"
    },
    {
      "anonymous": false,
      "inputs": [
        {
          "indexed": true,
          "internalType": "address",
          "name": "owner",
          "type": "address"
        },
        {
          "indexed": true,
          "internalType": "address",
          "name": "operator",
          "type": "address"
        },
        {
          "indexed": false,
          "internalType": "bool",
          "name": "approved",
          "type": "bool"
        }
      ],
      "name": "ApprovalForAll",
      "type": "event"
    },
    {
      "anonymous": false,
      "inputs": [
        {
          "indexed": false,
          "internalType": "uint256",
          "name": "tokenId",
          "type": "uint256"
        }
      ],
      "name": "DeliveryAccepted",
      "type": "event"
    },
    {
      "anonymous": false,
      "inputs": [
        {
          "indexed": false,
          "internalType": "uint256",
          "name": "price",
          "type": "uint256"
        },
        {
          "indexed": false,
          "internalType": "address",
          "name": "owner",
          "type": "address"
        }
      ],
      "name": "EditionSold",
      "type": "event"
    },
    {
      "anonymous": false,
      "inputs": [
        {
          "indexed": false,
          "internalType": "uint8",
          "name": "version",
          "type": "uint8"
        }
      ],
      "name": "Initialized",
      "type": "event"
    },
    {
      "anonymous": false,
      "inputs": [
        {
          "indexed": false,
          "internalType": "uint256",
          "name": "tokenId",
          "type": "uint256"
        }
      ],
      "name": "OfferAccepted",
      "type": "event"
    },
    {
      "anonymous": false,
      "inputs": [
        {
          "indexed": false,
          "internalType": "uint256",
          "name": "tokenId",
          "type": "uint256"
        }
      ],
      "name": "OfferRejected",
      "type": "event"
    },
    {
      "anonymous": false,
      "inputs": [
        {
          "indexed": false,
          "internalType": "uint256",
          "name": "tokenId",
          "type": "uint256"
        }
      ],
      "name": "OfferTermsSet",
      "type": "event"
    },
    {
      "anonymous": false,
      "inputs": [
        {
          "indexed": true,
          "internalType": "address",
          "name": "previousOwner",
          "type": "address"
        },
        {
          "indexed": true,
          "internalType": "address",
          "name": "newOwner",
          "type": "address"
        }
      ],
      "name": "OwnershipTransferred",
      "type": "event"
    },
    {
      "anonymous": false,
      "inputs": [
        {
          "indexed": false,
          "internalType": "uint256",
          "name": "amount",
          "type": "uint256"
        }
      ],
      "name": "PriceChanged",
      "type": "event"
    },
    {
      "anonymous": false,
      "inputs": [
        {
          "indexed": false,
          "internalType": "uint256",
          "name": "tokenId",
          "type": "uint256"
        }
      ],
      "name": "ProductionComplete",
      "type": "event"
    },
    {
      "anonymous": false,
      "inputs": [
        {
          "indexed": false,
          "internalType": "uint256",
          "name": "tokenId",
          "type": "uint256"
        },
        {
          "indexed": false,
          "internalType": "address",
          "name": "owner",
          "type": "address"
        }
      ],
      "name": "RedeemAborted",
      "type": "event"
    },
    {
      "anonymous": false,
      "inputs": [
        {
          "indexed": false,
          "internalType": "uint256",
          "name": "tokenId",
          "type": "uint256"
        },
        {
          "indexed": false,
          "internalType": "address",
          "name": "owner",
          "type": "address"
        }
      ],
      "name": "RedeemStarted",
      "type": "event"
    },
    {
      "anonymous": false,
      "inputs": [
        {
          "indexed": true,
          "internalType": "address",
          "name": "from",
          "type": "address"
        },
        {
          "indexed": true,
          "internalType": "address",
          "name": "to",
          "type": "address"
        },
        {
          "indexed": true,
          "internalType": "uint256",
          "name": "tokenId",
          "type": "uint256"
        }
      ],
      "name": "Transfer",
      "type": "event"
    },
    {
      "anonymous": false,
      "inputs": [
        {
          "indexed": false,
          "internalType": "enum ExpandedNFT.WhoCanMint",
          "name": "minters",
          "type": "uint8"
        }
      ],
      "name": "WhoCanMintChanged",
      "type": "event"
    },
    {
      "inputs": [
        {
          "internalType": "uint256",
          "name": "tokenId",
          "type": "uint256"
        }
      ],
      "name": "abortRedemption",
      "outputs": [],
      "stateMutability": "nonpayable",
      "type": "function"
    },
    {
      "inputs": [
        {
          "internalType": "uint256",
          "name": "tokenId",
          "type": "uint256"
        }
      ],
      "name": "acceptDelivery",
      "outputs": [],
      "stateMutability": "nonpayable",
      "type": "function"
    },
    {
      "inputs": [
        {
          "internalType": "uint256",
          "name": "tokenId",
          "type": "uint256"
        },
        {
          "internalType": "uint256",
          "name": "paymentAmount",
          "type": "uint256"
        }
      ],
      "name": "acceptOfferTerms",
      "outputs": [],
      "stateMutability": "nonpayable",
      "type": "function"
    },
    {
      "inputs": [
        {
          "internalType": "address",
          "name": "to",
          "type": "address"
        },
        {
          "internalType": "uint256",
          "name": "tokenId",
          "type": "uint256"
        }
      ],
      "name": "approve",
      "outputs": [],
      "stateMutability": "nonpayable",
      "type": "function"
    },
    {
      "inputs": [
        {
          "internalType": "address",
          "name": "owner",
          "type": "address"
        }
      ],
      "name": "balanceOf",
      "outputs": [
        {
          "internalType": "uint256",
          "name": "",
          "type": "uint256"
        }
      ],
      "stateMutability": "view",
      "type": "function"
    },
    {
      "inputs": [
        {
          "internalType": "uint256",
          "name": "tokenId",
          "type": "uint256"
        }
      ],
      "name": "burn",
      "outputs": [],
      "stateMutability": "nonpayable",
      "type": "function"
    },
    {
      "inputs": [],
      "name": "description",
      "outputs": [
        {
          "internalType": "string",
          "name": "",
          "type": "string"
        }
      ],
      "stateMutability": "view",
      "type": "function"
    },
    {
      "inputs": [],
      "name": "dropSize",
      "outputs": [
        {
          "internalType": "uint256",
          "name": "",
          "type": "uint256"
        }
      ],
      "stateMutability": "view",
      "type": "function"
    },
    {
      "inputs": [],
      "name": "getAllowedMinter",
      "outputs": [
        {
          "internalType": "enum ExpandedNFT.WhoCanMint",
          "name": "",
          "type": "uint8"
        }
      ],
      "stateMutability": "view",
      "type": "function"
    },
    {
      "inputs": [
        {
          "internalType": "uint256",
          "name": "tokenId",
          "type": "uint256"
        }
      ],
      "name": "getApproved",
      "outputs": [
        {
          "internalType": "address",
          "name": "",
          "type": "address"
        }
      ],
      "stateMutability": "view",
      "type": "function"
    },
    {
      "inputs": [],
      "name": "getArtistWallet",
      "outputs": [
        {
          "internalType": "address",
          "name": "",
          "type": "address"
        }
      ],
      "stateMutability": "view",
      "type": "function"
    },
    {
      "inputs": [
        {
          "internalType": "uint256",
          "name": "tokenId",
          "type": "uint256"
        }
      ],
      "name": "getConditionReport",
      "outputs": [
        {
          "internalType": "string",
          "name": "",
          "type": "string"
        },
        {
          "internalType": "bytes32",
          "name": "",
          "type": "bytes32"
        }
      ],
      "stateMutability": "view",
      "type": "function"
    },
    {
      "inputs": [],
      "name": "getGeneralMintLimit",
      "outputs": [
        {
          "internalType": "uint256",
          "name": "",
          "type": "uint256"
        }
      ],
      "stateMutability": "view",
      "type": "function"
    },
    {
      "inputs": [],
      "name": "getMembersMintLimit",
      "outputs": [
        {
          "internalType": "uint256",
          "name": "",
          "type": "uint256"
        }
      ],
      "stateMutability": "view",
      "type": "function"
    },
    {
      "inputs": [],
      "name": "getMembersSalePrice",
      "outputs": [
        {
          "internalType": "uint256",
          "name": "",
          "type": "uint256"
        }
      ],
      "stateMutability": "view",
      "type": "function"
    },
    {
      "inputs": [],
      "name": "getPaymentToken",
      "outputs": [
        {
          "internalType": "address",
          "name": "",
          "type": "address"
        }
      ],
      "stateMutability": "view",
      "type": "function"
    },
    {
      "inputs": [],
      "name": "getRoyaltyBPS",
      "outputs": [
        {
          "internalType": "uint256",
          "name": "",
          "type": "uint256"
        }
      ],
      "stateMutability": "view",
      "type": "function"
    },
    {
      "inputs": [],
      "name": "getSplitBPS",
      "outputs": [
        {
          "internalType": "uint256",
          "name": "",
          "type": "uint256"
        }
      ],
      "stateMutability": "view",
      "type": "function"
    },
    {
      "inputs": [
        {
          "internalType": "uint256",
          "name": "tokenId",
          "type": "uint256"
        }
      ],
      "name": "getURIs",
      "outputs": [
        {
          "internalType": "string",
          "name": "",
          "type": "string"
        },
        {
          "internalType": "bytes32",
          "name": "",
          "type": "bytes32"
        },
        {
          "internalType": "string",
          "name": "",
          "type": "string"
        },
        {
          "internalType": "bytes32",
          "name": "",
          "type": "bytes32"
        }
      ],
      "stateMutability": "view",
      "type": "function"
    },
    {
      "inputs": [],
      "name": "getVIPMintLimit",
      "outputs": [
        {
          "internalType": "uint256",
          "name": "",
          "type": "uint256"
        }
      ],
      "stateMutability": "view",
      "type": "function"
    },
    {
      "inputs": [],
      "name": "getVIPSalePrice",
      "outputs": [
        {
          "internalType": "uint256",
          "name": "",
          "type": "uint256"
        }
      ],
      "stateMutability": "view",
      "type": "function"
    },
    {
      "inputs": [],
      "name": "getWhoCanMint",
      "outputs": [
        {
          "internalType": "uint256",
          "name": "",
          "type": "uint256"
        }
      ],
      "stateMutability": "view",
      "type": "function"
    },
    {
      "inputs": [
        {
          "internalType": "address",
          "name": "_owner",
          "type": "address"
        },
        {
          "internalType": "address",
          "name": "artistWallet",
          "type": "address"
        },
        {
          "internalType": "string",
          "name": "_name",
          "type": "string"
        },
        {
          "internalType": "string",
          "name": "_symbol",
          "type": "string"
        },
        {
          "internalType": "uint256",
          "name": "_dropSize",
          "type": "uint256"
        }
      ],
      "name": "initialize",
      "outputs": [],
      "stateMutability": "nonpayable",
      "type": "function"
    },
    {
      "inputs": [
        {
          "internalType": "address",
          "name": "owner",
          "type": "address"
        },
        {
          "internalType": "address",
          "name": "operator",
          "type": "address"
        }
      ],
      "name": "isApprovedForAll",
      "outputs": [
        {
          "internalType": "bool",
          "name": "",
          "type": "bool"
        }
      ],
      "stateMutability": "view",
      "type": "function"
    },
    {
      "inputs": [
        {
          "internalType": "uint256",
          "name": "startOffset",
          "type": "uint256"
        },
        {
          "internalType": "uint256",
          "name": "count",
          "type": "uint256"
        },
        {
          "internalType": "string[]",
          "name": "_description",
          "type": "string[]"
        },
        {
          "internalType": "string[]",
          "name": "animationUrl",
          "type": "string[]"
        },
        {
          "internalType": "bytes32[]",
          "name": "animationHash",
          "type": "bytes32[]"
        },
        {
          "internalType": "string[]",
          "name": "imageUrl",
          "type": "string[]"
        },
        {
          "internalType": "bytes32[]",
          "name": "imageHash",
          "type": "bytes32[]"
        }
      ],
      "name": "loadMetadataChunk",
      "outputs": [],
      "stateMutability": "nonpayable",
      "type": "function"
    },
    {
      "inputs": [],
      "name": "metadataloaded",
      "outputs": [
        {
          "internalType": "bool",
          "name": "",
          "type": "bool"
        }
      ],
      "stateMutability": "view",
      "type": "function"
    },
    {
      "inputs": [
        {
          "internalType": "address",
          "name": "to",
          "type": "address"
        }
      ],
      "name": "mintEdition",
      "outputs": [
        {
          "internalType": "uint256",
          "name": "",
          "type": "uint256"
        }
      ],
      "stateMutability": "payable",
      "type": "function"
    },
    {
      "inputs": [
        {
          "internalType": "address[]",
          "name": "recipients",
          "type": "address[]"
        }
      ],
      "name": "mintEditions",
      "outputs": [
        {
          "internalType": "uint256",
          "name": "",
          "type": "uint256"
        }
      ],
      "stateMutability": "payable",
      "type": "function"
    },
    {
      "inputs": [],
      "name": "name",
      "outputs": [
        {
          "internalType": "string",
          "name": "",
          "type": "string"
        }
      ],
      "stateMutability": "view",
      "type": "function"
    },
    {
      "inputs": [],
      "name": "numberCanMint",
      "outputs": [
        {
          "internalType": "uint256",
          "name": "",
          "type": "uint256"
        }
      ],
      "stateMutability": "view",
      "type": "function"
    },
    {
      "inputs": [],
      "name": "owner",
      "outputs": [
        {
          "internalType": "address",
          "name": "",
          "type": "address"
        }
      ],
      "stateMutability": "view",
      "type": "function"
    },
    {
      "inputs": [
        {
          "internalType": "uint256",
          "name": "tokenId",
          "type": "uint256"
        }
      ],
      "name": "ownerOf",
      "outputs": [
        {
          "internalType": "address",
          "name": "",
          "type": "address"
        }
      ],
      "stateMutability": "view",
      "type": "function"
    },
    {
      "inputs": [
        {
          "internalType": "uint256",
          "name": "tokenId",
          "type": "uint256"
        },
        {
          "internalType": "string",
          "name": "_description",
          "type": "string"
        },
        {
          "internalType": "string",
          "name": "animationUrl",
          "type": "string"
        },
        {
          "internalType": "bytes32",
          "name": "animationHash",
          "type": "bytes32"
        },
        {
          "internalType": "string",
          "name": "imageUrl",
          "type": "string"
        },
        {
          "internalType": "bytes32",
          "name": "imageHash",
          "type": "bytes32"
        },
        {
          "internalType": "string",
          "name": "conditionReportUrl",
          "type": "string"
        },
        {
          "internalType": "bytes32",
          "name": "conditionReportHash",
          "type": "bytes32"
        }
      ],
      "name": "productionComplete",
      "outputs": [],
      "stateMutability": "nonpayable",
      "type": "function"
    },
    {
      "inputs": [],
      "name": "purchase",
      "outputs": [
        {
          "internalType": "uint256",
          "name": "",
          "type": "uint256"
        }
      ],
      "stateMutability": "payable",
      "type": "function"
    },
    {
      "inputs": [
        {
          "internalType": "uint256",
          "name": "tokenId",
          "type": "uint256"
        }
      ],
      "name": "redeem",
      "outputs": [],
      "stateMutability": "nonpayable",
      "type": "function"
    },
    {
      "inputs": [
        {
          "internalType": "uint256",
          "name": "tokenId",
          "type": "uint256"
        }
      ],
      "name": "rejectOfferTerms",
      "outputs": [],
      "stateMutability": "nonpayable",
      "type": "function"
    },
    {
      "inputs": [],
      "name": "renounceOwnership",
      "outputs": [],
      "stateMutability": "nonpayable",
      "type": "function"
    },
    {
      "inputs": [
        {
          "internalType": "address[]",
          "name": "wallets",
          "type": "address[]"
        },
        {
          "internalType": "uint256[]",
          "name": "tokenIDs",
          "type": "uint256[]"
        }
      ],
      "name": "reserve",
      "outputs": [],
      "stateMutability": "nonpayable",
      "type": "function"
    },
    {
      "inputs": [
        {
          "internalType": "uint256",
          "name": "",
          "type": "uint256"
        },
        {
          "internalType": "uint256",
          "name": "_salePrice",
          "type": "uint256"
        }
      ],
      "name": "royaltyInfo",
      "outputs": [
        {
          "internalType": "address",
          "name": "receiver",
          "type": "address"
        },
        {
          "internalType": "uint256",
          "name": "royaltyAmount",
          "type": "uint256"
        }
      ],
      "stateMutability": "view",
      "type": "function"
    },
    {
      "inputs": [
        {
          "internalType": "address",
          "name": "from",
          "type": "address"
        },
        {
          "internalType": "address",
          "name": "to",
          "type": "address"
        },
        {
          "internalType": "uint256",
          "name": "tokenId",
          "type": "uint256"
        }
      ],
      "name": "safeTransferFrom",
      "outputs": [],
      "stateMutability": "nonpayable",
      "type": "function"
    },
    {
      "inputs": [
        {
          "internalType": "address",
          "name": "from",
          "type": "address"
        },
        {
          "internalType": "address",
          "name": "to",
          "type": "address"
        },
        {
          "internalType": "uint256",
          "name": "tokenId",
          "type": "uint256"
        },
        {
          "internalType": "bytes",
          "name": "data",
          "type": "bytes"
        }
      ],
      "name": "safeTransferFrom",
      "outputs": [],
      "stateMutability": "nonpayable",
      "type": "function"
    },
    {
      "inputs": [],
      "name": "salePrice",
      "outputs": [
        {
          "internalType": "uint256",
          "name": "",
          "type": "uint256"
        }
      ],
      "stateMutability": "view",
      "type": "function"
    },
    {
      "inputs": [
        {
          "internalType": "enum ExpandedNFT.WhoCanMint",
          "name": "minters",
          "type": "uint8"
        }
      ],
      "name": "setAllowedMinter",
      "outputs": [],
      "stateMutability": "nonpayable",
      "type": "function"
    },
    {
      "inputs": [
        {
          "internalType": "address",
          "name": "operator",
          "type": "address"
        },
        {
          "internalType": "bool",
          "name": "approved",
          "type": "bool"
        }
      ],
      "name": "setApprovalForAll",
      "outputs": [],
      "stateMutability": "nonpayable",
      "type": "function"
    },
    {
      "inputs": [
        {
          "internalType": "uint256",
          "name": "count",
          "type": "uint256"
        },
        {
          "internalType": "address[]",
          "name": "minter",
          "type": "address[]"
        },
        {
          "internalType": "bool[]",
          "name": "allowed",
          "type": "bool[]"
        }
      ],
      "name": "setApprovedMinters",
      "outputs": [],
      "stateMutability": "nonpayable",
      "type": "function"
    },
    {
      "inputs": [
        {
          "internalType": "uint256",
          "name": "count",
          "type": "uint256"
        },
        {
          "internalType": "address[]",
          "name": "minter",
          "type": "address[]"
        },
        {
          "internalType": "bool[]",
          "name": "allowed",
          "type": "bool[]"
        }
      ],
      "name": "setApprovedVIPMinters",
      "outputs": [],
      "stateMutability": "nonpayable",
      "type": "function"
    },
    {
      "inputs": [
        {
          "internalType": "address",
          "name": "wallet",
          "type": "address"
        }
      ],
      "name": "setArtistWallet",
      "outputs": [],
      "stateMutability": "nonpayable",
      "type": "function"
    },
    {
      "inputs": [
        {
          "internalType": "uint256",
          "name": "_salePrice",
          "type": "uint256"
        }
      ],
      "name": "setMembersSalePrice",
      "outputs": [],
      "stateMutability": "nonpayable",
      "type": "function"
    },
    {
      "inputs": [
        {
          "internalType": "uint256",
          "name": "tokenId",
          "type": "uint256"
        },
        {
          "internalType": "uint256",
          "name": "fee",
          "type": "uint256"
        }
      ],
      "name": "setOfferTerms",
      "outputs": [],
      "stateMutability": "nonpayable",
      "type": "function"
    },
    {
      "inputs": [
        {
          "internalType": "address",
          "name": "paymentToken",
          "type": "address"
        }
      ],
      "name": "setPaymentToken",
      "outputs": [],
      "stateMutability": "nonpayable",
      "type": "function"
    },
    {
      "inputs": [
        {
          "internalType": "uint256",
          "name": "_royaltyBPS",
          "type": "uint256"
        },
        {
          "internalType": "uint256",
          "name": "_splitBPS",
          "type": "uint256"
        },
        {
          "internalType": "uint256",
          "name": "_vipSalePrice",
          "type": "uint256"
        },
        {
          "internalType": "uint256",
          "name": "_membersSalePrice",
          "type": "uint256"
        },
        {
          "internalType": "uint256",
          "name": "_generalSalePrice",
          "type": "uint256"
        },
        {
          "internalType": "uint256",
          "name": "_vipMintLimit",
          "type": "uint256"
        },
        {
          "internalType": "uint256",
          "name": "_membersMintLimit",
          "type": "uint256"
        },
        {
          "internalType": "uint256",
          "name": "_generalMintLimit",
          "type": "uint256"
        }
      ],
      "name": "setPricing",
      "outputs": [],
      "stateMutability": "nonpayable",
      "type": "function"
    },
    {
      "inputs": [
        {
          "internalType": "uint256",
          "name": "_salePrice",
          "type": "uint256"
        }
      ],
      "name": "setSalePrice",
      "outputs": [],
      "stateMutability": "nonpayable",
      "type": "function"
    },
    {
      "inputs": [
        {
          "internalType": "uint256",
          "name": "vipSalePrice",
          "type": "uint256"
        },
        {
          "internalType": "uint256",
          "name": "membersSalePrice",
          "type": "uint256"
        },
        {
          "internalType": "uint256",
          "name": "generalSalePrice",
          "type": "uint256"
        }
      ],
      "name": "setSalePrices",
      "outputs": [],
      "stateMutability": "nonpayable",
      "type": "function"
    },
    {
      "inputs": [
        {
          "internalType": "uint256",
          "name": "_salePrice",
          "type": "uint256"
        }
      ],
      "name": "setVIPSalePrice",
      "outputs": [],
      "stateMutability": "nonpayable",
      "type": "function"
    },
    {
      "inputs": [
        {
          "internalType": "bytes4",
          "name": "interfaceId",
          "type": "bytes4"
        }
      ],
      "name": "supportsInterface",
      "outputs": [
        {
          "internalType": "bool",
          "name": "",
          "type": "bool"
        }
      ],
      "stateMutability": "view",
      "type": "function"
    },
    {
      "inputs": [],
      "name": "symbol",
      "outputs": [
        {
          "internalType": "string",
          "name": "",
          "type": "string"
        }
      ],
      "stateMutability": "view",
      "type": "function"
    },
    {
      "inputs": [
        {
          "internalType": "uint256",
          "name": "tokenId",
          "type": "uint256"
        }
      ],
      "name": "tokenURI",
      "outputs": [
        {
          "internalType": "string",
          "name": "",
          "type": "string"
        }
      ],
      "stateMutability": "view",
      "type": "function"
    },
    {
      "inputs": [],
      "name": "totalSupply",
      "outputs": [
        {
          "internalType": "uint256",
          "name": "",
          "type": "uint256"
        }
      ],
      "stateMutability": "view",
      "type": "function"
    },
    {
      "inputs": [
        {
          "internalType": "address",
          "name": "from",
          "type": "address"
        },
        {
          "internalType": "address",
          "name": "to",
          "type": "address"
        },
        {
          "internalType": "uint256",
          "name": "tokenId",
          "type": "uint256"
        }
      ],
      "name": "transferFrom",
      "outputs": [],
      "stateMutability": "nonpayable",
      "type": "function"
    },
    {
      "inputs": [
        {
          "internalType": "address",
          "name": "newOwner",
          "type": "address"
        }
      ],
      "name": "transferOwnership",
      "outputs": [],
      "stateMutability": "nonpayable",
      "type": "function"
    },
    {
      "inputs": [
        {
          "internalType": "uint256",
          "name": "tokenId",
          "type": "uint256"
        },
        {
          "internalType": "string",
          "name": "imageUrl",
          "type": "string"
        },
        {
          "internalType": "string",
          "name": "animationUrl",
          "type": "string"
        }
      ],
      "name": "updateEditionURLs",
      "outputs": [],
      "stateMutability": "nonpayable",
      "type": "function"
    },
    {
      "inputs": [],
      "name": "withdraw",
      "outputs": [],
      "stateMutability": "nonpayable",
      "type": "function"
    }
  ],
  "transactionHash": "0xfc4efa3fd6925546adb2c1afb3502a80ceeb18f8f2ba66bcd9fe983ec6a0b904",
  "args": [
    "0x691fB71440A5d5A4A48d8F65020E67F011e413b7"
  ],
  "solcInputHash": "e6a2ffa4bb274580347e73637376a7e0",
  "bytecode": "0x60a06040523480156200001157600080fd5b5060405162004a9038038062004a90833981016040819052620000349162000050565b6001600160a01b031660805260dd805460ff1916905562000082565b6000602082840312156200006357600080fd5b81516001600160a01b03811681146200007b57600080fd5b9392505050565b6080516149eb620000a5600039600081816124ed01526125ae01526149eb6000f3fe60806040526004361061032d5760003560e01c806369e1cac1116101a7578063b88d4fde116100ed578063db006a7511610090578063db006a7514610955578063de5d62a014610975578063e985e9c514610995578063ee5df550146109b5578063f2fde38b146109d5578063f51f96dd146109f5578063fc51e0c314610a0b578063fce57fd914610a3957600080fd5b8063b88d4fde14610873578063bcda01af14610893578063bf82ae49146108b3578063c87b56dd146108d3578063c9d359d6146108f3578063d375b6fc1461090d578063d41c3a6514610922578063d5344e361461094057600080fd5b80637b422c4c116101555780637b422c4c146107a15780638c503ca4146107c15780638da5cb5b146107e157806393d23923146107f657806395d89b4114610816578063a1279cfc1461082b578063a22cb46514610840578063a66ff0af1461086057600080fd5b806369e1cac1146106d75780636a326ab1146106f757806370a0823114610717578063715018a6146107375780637284e4161461074c578063787e5efc14610761578063799b7c5f1461078157600080fd5b8063392774151161027757806342966c681161021a57806342966c68146105f557806346d9c4bf14610615578063499e16721461062a57806352c9143e1461063f5780636352211e1461065f57806364e9293e1461067f57806364edfbf0146106af578063660243d0146106b757600080fd5b8063392774151461052257806339dc13bc146105405780633ccfd60b146105605780633da165d4146105755780633e1dc1071461058b578063402635cf146105a0578063410a1095146105b557806342842e0e146105d557600080fd5b80630f6a9349116102df5780630f6a93491461042c57806318160ddd1461043f5780631919fed71461045457806323b872dd146104745780632a55205a14610494578063367de39e146104c257806336f3ec76146104e25780633892aa521461050257600080fd5b806301ffc9a714610332578063036c8ea11461036757806306fdde0314610389578063081812fc146103ab578063095ea7b3146103d857806309949abe146103f85780630b65b6e714610417575b600080fd5b34801561033e57600080fd5b5061035261034d366004613991565b610a59565b60405190151581526020015b60405180910390f35b34801561037357600080fd5b506103876103823660046139ae565b610a84565b005b34801561039557600080fd5b5061039e610ae0565b60405161035e9190613a5b565b3480156103b757600080fd5b506103cb6103c6366004613a6e565b610b72565b60405161035e9190613a87565b3480156103e457600080fd5b506103876103f3366004613ab7565b610b99565b34801561040457600080fd5b5060d4545b60405190815260200161035e565b34801561042357600080fd5b50610409610cb3565b61040961043a366004613b4a565b610cca565b34801561044b57600080fd5b5060d254610409565b34801561046057600080fd5b5061038761046f366004613a6e565b610cd5565b34801561048057600080fd5b5061038761048f366004613be6565b610d62565b3480156104a057600080fd5b506104b46104af366004613c22565b610d94565b60405161035e929190613c44565b3480156104ce57600080fd5b506103876104dd366004613c5d565b610df0565b3480156104ee57600080fd5b506103876104fd366004613c7e565b610ecb565b34801561050e57600080fd5b5061038761051d366004613cee565b610f09565b34801561052e57600080fd5b5060ca546001600160a01b03166103cb565b34801561054c57600080fd5b5061038761055b366004613a6e565b610fb0565b34801561056c57600080fd5b5061038761108c565b34801561058157600080fd5b5061040960cc5481565b34801561059757600080fd5b5060d954610409565b3480156105ac57600080fd5b5060d554610409565b3480156105c157600080fd5b5060dd5460ff1660405161035e9190613d7d565b3480156105e157600080fd5b506103876105f0366004613be6565b6112aa565b34801561060157600080fd5b50610387610610366004613a6e565b6112c5565b34801561062157600080fd5b5060df54610409565b34801561063657600080fd5b5060d754610409565b34801561064b57600080fd5b5061038761065a366004613e25565b6112f3565b34801561066b57600080fd5b506103cb61067a366004613a6e565b611431565b34801561068b57600080fd5b5061069f61069a366004613a6e565b611466565b60405161035e9493929190613ef8565b61040961172b565b3480156106c357600080fd5b506103876106d2366004613c22565b6117d7565b3480156106e357600080fd5b506103876106f2366004613f35565b611aa0565b34801561070357600080fd5b50610387610712366004613fa0565b611b60565b34801561072357600080fd5b50610409610732366004613fa0565b611c55565b34801561074357600080fd5b50610387611cdb565b34801561075857600080fd5b5061039e611cef565b34801561076d57600080fd5b5061038761077c366004613a6e565b611d7d565b34801561078d57600080fd5b5061038761079c366004613cee565b611d9d565b3480156107ad57600080fd5b506103876107bc366004613a6e565b611e3c565b3480156107cd57600080fd5b506103876107dc366004613fbb565b611ee8565b3480156107ed57600080fd5b506103cb611f2d565b34801561080257600080fd5b50610387610811366004614027565b611f41565b34801561082257600080fd5b5061039e6120ed565b34801561083757600080fd5b5060d654610409565b34801561084c57600080fd5b5061038761085b3660046140c1565b6120fc565b61040961086e366004613fa0565b612107565b34801561087f57600080fd5b5061038761088e3660046140f8565b612170565b34801561089f57600080fd5b506103876108ae366004614258565b6121a1565b3480156108bf57600080fd5b506103876108ce366004613a6e565b6123b4565b3480156108df57600080fd5b5061039e6108ee366004613a6e565b61249a565b3480156108ff57600080fd5b5060cc5460cd541015610352565b34801561091957600080fd5b50610409612628565b34801561092e57600080fd5b5060e0546001600160a01b03166103cb565b34801561094c57600080fd5b5060d854610409565b34801561096157600080fd5b50610387610970366004613a6e565b612642565b34801561098157600080fd5b50610387610990366004613a6e565b61270f565b3480156109a157600080fd5b506103526109b036600461433c565b612730565b3480156109c157600080fd5b506103876109d0366004613c22565b61275e565b3480156109e157600080fd5b506103876109f0366004613fa0565b612842565b348015610a0157600080fd5b5061040960df5481565b348015610a1757600080fd5b50610a2b610a26366004613a6e565b6128b8565b60405161035e92919061436f565b348015610a4557600080fd5b50610387610a54366004613fa0565b61296b565b600063152a902d60e11b6001600160e01b031983161480610a7e5750610a7e82612995565b92915050565b610a8c6129e5565b60d488905560d587905560d686905560d785905560df84905560d883905560d982905560da819055604051848152600080516020614996833981519152906020015b60405180910390a15050505050505050565b606060658054610aef90614391565b80601f0160208091040260200160405190810160405280929190818152602001828054610b1b90614391565b8015610b685780601f10610b3d57610100808354040283529160200191610b68565b820191906000526020600020905b815481529060010190602001808311610b4b57829003601f168201915b5050505050905090565b6000610b7d82612a44565b506000908152606960205260409020546001600160a01b031690565b6000610ba482611431565b9050806001600160a01b0316836001600160a01b031603610c165760405162461bcd60e51b815260206004820152602160248201527f4552433732313a20617070726f76616c20746f2063757272656e74206f776e656044820152603960f91b60648201526084015b60405180910390fd5b336001600160a01b0382161480610c325750610c328133612730565b610ca45760405162461bcd60e51b815260206004820152603e60248201527f4552433732313a20617070726f76652063616c6c6572206973206e6f7420746f60448201527f6b656e206f776e6572206e6f7220617070726f76656420666f7220616c6c00006064820152608401610c0d565b610cae8383612a69565b505050565b600060d25460cc54610cc591906143e1565b905090565b6000610a7e82612ad7565b610cdd6129e5565b60df81905560dd80546003919060ff19166001835b021790555060dd546040517f40cb75607c032a2aac1c3565feb3b70e354cbd56e8f8fa36773cba5750464c5191610d2e9160ff90911690613d7d565b60405180910390a160008051602061499683398151915260df54604051610d5791815260200190565b60405180910390a150565b610d6d335b82612ce4565b610d895760405162461bcd60e51b8152600401610c0d906143f8565b610cae838383612d43565b60008080610da0611f2d565b6001600160a01b031603610dc157610db6611f2d565b600091509150610de9565b610dc9611f2d565b60d45461271090610dda9086614446565b610de49190614465565b915091505b9250929050565b610df86129e5565b6000816003811115610e0c57610e0c613d67565b10158015610e2c57506003816003811115610e2957610e29613d67565b11155b610e785760405162461bcd60e51b815260206004820152601f60248201527f4e6565647320746f20626520612076616c6964206d696e7465722074797065006044820152606401610c0d565b60dd805482919060ff19166001836003811115610e9757610e97613d67565b02179055507f40cb75607c032a2aac1c3565feb3b70e354cbd56e8f8fa36773cba5750464c5181604051610d579190613d7d565b610ed36129e5565b60d683905560d782905560df819055604051818152600080516020614996833981519152906020015b60405180910390a1505050565b610f116129e5565b60005b85811015610fa857828282818110610f2e57610f2e614487565b9050602002016020810190610f43919061449d565b60dc6000878785818110610f5957610f59614487565b9050602002016020810190610f6e9190613fa0565b6001600160a01b031681526020810191909152604001600020805460ff191691151591909117905580610fa0816144ba565b915050610f14565b505050505050565b610fb981612ecd565b610fd55760405162461bcd60e51b8152600401610c0d906144d3565b610fde33610d67565b610ffa5760405162461bcd60e51b8152600401610c0d906144f5565b6003600082815260cb602052604090205460ff16600681111561101f5761101f613d67565b1461103c5760405162461bcd60e51b8152600401610c0d9061451b565b600081815260cb6020526040902080546001919060ff191682805b02179055506040518181527facb9cd98d41dc8854281172ab2a764d949b62b51776edd911f85376ed2eca64b90602001610d57565b6110946129e5565b4780156110f35760d554600090612710906110af9084614446565b6110b99190614465565b905060006110c782846143e1565b90506110da6110d4611f2d565b83612eea565b60ca546110f0906001600160a01b031682612eea565b50505b60e0546001600160a01b0316156112a75760e0546040516370a0823160e01b81526000916001600160a01b0316906370a0823190611135903090600401613a87565b602060405180830381865afa158015611152573d6000803e3d6000fd5b505050506040513d601f19601f820116820180604052508101906111769190614552565b905080156112a55760d554600090612710906111929084614446565b61119c9190614465565b905060006111aa82846143e1565b60e0549091506001600160a01b031663a9059cbb6111c6611f2d565b846040518363ffffffff1660e01b81526004016111e4929190613c44565b6020604051808303816000875af1158015611203573d6000803e3d6000fd5b505050506040513d601f19601f82011682018060405250810190611227919061456b565b5060e05460ca5460405163a9059cbb60e01b81526001600160a01b039283169263a9059cbb9261125e929116908590600401613c44565b6020604051808303816000875af115801561127d573d6000803e3d6000fd5b505050506040513d601f19601f820116820180604052508101906112a1919061456b565b5050505b505b50565b610cae83838360405180602001604052806000815250612170565b6112ce33610d67565b6112ea5760405162461bcd60e51b8152600401610c0d906144f5565b6112a781613003565b6112fb6129e5565b61130488612ecd565b6113205760405162461bcd60e51b8152600401610c0d906144d3565b6004600089815260cb602052604090205460ff16600681111561134557611345613d67565b146113625760405162461bcd60e51b8152600401610c0d9061451b565b600088815260cb6020526040902060020161137d88826145ce565b50600088815260cb6020526040902060070161139987826145ce565b50600088815260cb60205260409020600881018690556009016113bc85826145ce565b50600088815260cb60205260409020600a8101849055600b016113df83826145ce565b50600088815260cb6020908152604091829020600c8101849055805460ff1916600517905590518981527fadb6d4f651f6fbf8b37026019ee48fdb86abf9ec94eb4a5f0acf72ad8c7872a39101610ace565b6000818152606760205260408120546001600160a01b031680610a7e5760405162461bcd60e51b8152600401610c0d9061468d565b6060600081816006600086815260cb602052604090205460ff16600681111561149157611491613d67565b036115df57600085815260cb60205260409020600a81015460088201546009830180549093600701919084906114c690614391565b80601f01602080910402602001604051908101604052809291908181526020018280546114f290614391565b801561153f5780601f106115145761010080835404028352916020019161153f565b820191906000526020600020905b81548152906001019060200180831161152257829003601f168201915b5050505050935081805461155290614391565b80601f016020809104026020016040519081016040528092919081815260200182805461157e90614391565b80156115cb5780601f106115a0576101008083540402835291602001916115cb565b820191906000526020600020905b8154815290600101906020018083116115ae57829003601f168201915b505050505091509350935093509350611724565b600085815260cb602052604090206006810154600482015460058301805490936003019190849061160f90614391565b80601f016020809104026020016040519081016040528092919081815260200182805461163b90614391565b80156116885780601f1061165d57610100808354040283529160200191611688565b820191906000526020600020905b81548152906001019060200180831161166b57829003601f168201915b5050505050935081805461169b90614391565b80601f01602080910402602001604051908101604052809291908181526020018280546116c790614391565b80156117145780601f106116e957610100808354040283529160200191611714565b820191906000526020600020905b8154815290600101906020018083116116f757829003601f168201915b5050505050915093509350935093505b9193509193565b60008061173661308d565b604080518281523360208201529192507f60a6c75698fadb72223808131f9f9bb9db3afa32122db6d94fb8fc985a504baa910160405180910390a16040805160018082528183019092526000916020808301908036833701905050905033816000815181106117a7576117a7614487565b60200260200101906001600160a01b031690816001600160a01b0316815250506117d081612ad7565b9250505090565b6117e082612ecd565b6117fc5760405162461bcd60e51b8152600401610c0d906144d3565b611807335b83612ce4565b6118235760405162461bcd60e51b8152600401610c0d906144f5565b6003600083815260cb602052604090205460ff16600681111561184857611848613d67565b146118655760405162461bcd60e51b8152600401610c0d9061451b565b600082815260cb60205260409020600101548110156118965760405162461bcd60e51b8152600401610c0d906146bf565b600082815260cb602052604090206001015460e0546001600160a01b031663dd62ed3e336040516001600160e01b031960e084901b1681526001600160a01b039091166004820152306024820152604401602060405180830381865afa158015611904573d6000803e3d6000fd5b505050506040513d601f19601f820116820180604052508101906119289190614552565b101561196f5760405162461bcd60e51b8152602060048201526016602482015275496e73756666696369656e7420616c6c6f77616e636560501b6044820152606401610c0d565b60e0546000906001600160a01b03166323b872dd33600086815260cb60205260409081902060010154905160e084901b6001600160e01b03191681526001600160a01b03909216600483015230602483015260448201526064016020604051808303816000875af11580156119e8573d6000803e3d6000fd5b505050506040513d601f19601f82011682018060405250810190611a0c919061456b565b905080611a565760405162461bcd60e51b815260206004820152601860248201527721b7bab632103737ba103a3930b739b332b9103a37b5b2b760411b6044820152606401610c0d565b600083815260cb6020908152604091829020805460ff1916600417905590518481527f9bd6b4fd288008520fd788a93304e5688a401aea817ea8140ecf1fb8648f31919101610efc565b611aa86129e5565b60005b838110156112a157848482818110611ac557611ac5614487565b9050602002016020810190611ada9190613fa0565b60ce54600090815260cf6020526040902080546001600160a01b0319166001600160a01b0392909216919091179055828282818110611b1b57611b1b614487565b60ce8054600090815260d060209081526040822093029490940135909155805492909150611b48836144ba565b91905055508080611b58906144ba565b915050611aab565b611b686129e5565b60e0546001600160a01b031615611c335760e0546040516370a0823160e01b81526001600160a01b03909116906370a0823190611ba9903090600401613a87565b602060405180830381865afa158015611bc6573d6000803e3d6000fd5b505050506040513d601f19601f82011682018060405250810190611bea9190614552565b15611c335760405162461bcd60e51b8152602060048201526019602482015278746f6b656e206d757374206861766520302062616c616e636560381b6044820152606401610c0d565b60e080546001600160a01b0319166001600160a01b0392909216919091179055565b60006001600160a01b038216611cbf5760405162461bcd60e51b815260206004820152602960248201527f4552433732313a2061646472657373207a65726f206973206e6f7420612076616044820152683634b21037bbb732b960b91b6064820152608401610c0d565b506001600160a01b031660009081526068602052604090205490565b611ce36129e5565b611ced6000613104565b565b60c98054611cfc90614391565b80601f0160208091040260200160405190810160405280929190818152602001828054611d2890614391565b8015611d755780601f10611d4a57610100808354040283529160200191611d75565b820191906000526020600020905b815481529060010190602001808311611d5857829003601f168201915b505050505081565b611d856129e5565b60d681905560dd80546001919060ff19168280610cf2565b611da56129e5565b60005b85811015610fa857828282818110611dc257611dc2614487565b9050602002016020810190611dd7919061449d565b60db6000878785818110611ded57611ded614487565b9050602002016020810190611e029190613fa0565b6001600160a01b031681526020810191909152604001600020805460ff191691151591909117905580611e34816144ba565b915050611da8565b611e4581612ecd565b611e615760405162461bcd60e51b8152600401610c0d906144d3565b611e6a33610d67565b611e865760405162461bcd60e51b8152600401610c0d906144f5565b6005600082815260cb602052604090205460ff166006811115611eab57611eab613d67565b14611ec85760405162461bcd60e51b8152600401610c0d9061451b565b600081815260cb6020526040902080546006919060ff1916600183611057565b611ef06129e5565b600083815260cb60205260409020600501611f0b83826145ce565b50600083815260cb60205260409020600301611f2782826145ce565b50505050565b6000610cc56097546001600160a01b031690565b600054610100900460ff1615808015611f615750600054600160ff909116105b80611f7b5750303b158015611f7b575060005460ff166001145b611fde5760405162461bcd60e51b815260206004820152602e60248201527f496e697469616c697a61626c653a20636f6e747261637420697320616c72656160448201526d191e481a5b9a5d1a585b1a5e995960921b6064820152608401610c0d565b6000805460ff191660011790558015612001576000805461ff0019166101001790555b600082116120495760405162461bcd60e51b8152602060048201526015602482015274044726f702073697a65206d757374206265203e203605c1b6044820152606401610c0d565b6120538484613156565b61205b613187565b61206486612842565b60ca80546001600160a01b0319166001600160a01b03871617905560cc829055600060d255600160d35560c961209a85826145ce565b50600060cd558015610fa8576000805461ff0019169055604051600181527f7f26b83ff96e1f2b6a682f133852f6798a09c465da95921460cefb38474024989060200160405180910390a1505050505050565b606060668054610aef90614391565b6112a53383836131b6565b60408051600180825281830190925260009182919060208083019080368337019050509050828160008151811061214057612140614487565b60200260200101906001600160a01b031690816001600160a01b03168152505061216981612ad7565b9392505050565b61217933611801565b6121955760405162461bcd60e51b8152600401610c0d906143f8565b611f2784848484613280565b858551146121c15760405162461bcd60e51b8152600401610c0d906146e4565b858451146121e15760405162461bcd60e51b8152600401610c0d906146e4565b858351146122015760405162461bcd60e51b8152600401610c0d906146e4565b858251146122215760405162461bcd60e51b8152600401610c0d906146e4565b858151146122415760405162461bcd60e51b8152600401610c0d906146e4565b60005b86811015612393576000612258828a614710565b612263906001614710565b905086828151811061227757612277614487565b602002602001015160cb600083815260200190815260200160002060020190816122a191906145ce565b508382815181106122b4576122b4614487565b602002602001015160cb600083815260200190815260200160002060050190816122de91906145ce565b508282815181106122f1576122f1614487565b602002602001015160cb60008381526020019081526020016000206006018190555085828151811061232557612325614487565b602002602001015160cb6000838152602001908152602001600020600301908161234f91906145ce565b5084828151811061236257612362614487565b602090810291909101810151600092835260cb9091526040909120600401558061238b816144ba565b915050612244565b508560cd60008282546123a69190614710565b909155505050505050505050565b6123bd81612ecd565b6123d95760405162461bcd60e51b8152600401610c0d906144d3565b6123e233610d67565b6123fe5760405162461bcd60e51b8152600401610c0d906144f5565b6002600082815260cb602052604090205460ff16600681111561242357612423613d67565b146124405760405162461bcd60e51b8152600401610c0d9061451b565b600081815260cb60205260409020805460ff191660011790557f6c7c9f699aacfa5bacd2758023ab209b2d1e1c237bfa752bdc94cb87878cf1b781335b604080519283526001600160a01b03909116602083015201610d57565b60606124a582612ecd565b6124c15760405162461bcd60e51b8152600401610c0d906144d3565b6006600083815260cb602052604090205460ff1660068111156124e6576124e6613d67565b036125ac577f00000000000000000000000000000000000000000000000000000000000000006001600160a01b031663df30dba0612522610ae0565b600085815260cb60205260409081902060cc5491516001600160e01b031960e086901b1681526125679392600283019260098101926007909101918a916004016147a5565b600060405180830381865afa158015612584573d6000803e3d6000fd5b505050506040513d6000823e601f3d908101601f19168201604052610a7e9190810190614808565b7f00000000000000000000000000000000000000000000000000000000000000006001600160a01b031663df30dba06125e3610ae0565b600085815260cb60205260409081902060cc5491516001600160e01b031960e086901b1681526125679392600283019260058101926003909101918a916004016147a5565b60dd5460009060ff166003811115610cc557610cc5613d67565b61264b81612ecd565b6126675760405162461bcd60e51b8152600401610c0d906144d3565b61267033610d67565b61268c5760405162461bcd60e51b8152600401610c0d906144f5565b6001600082815260cb602052604090205460ff1660068111156126b1576126b1613d67565b146126ce5760405162461bcd60e51b8152600401610c0d9061451b565b600081815260cb60205260409020805460ff191660021790557fc290e40808ef06721539ad0d926f8d5f53d2dd6d5e28334308a012676f867416813361247d565b6127176129e5565b60d781905560dd80546002919060ff1916600183610cf2565b6001600160a01b039182166000908152606a6020908152604080832093909416825291909152205460ff1690565b6127666129e5565b61276f82612ecd565b61278b5760405162461bcd60e51b8152600401610c0d906144d3565b6002600083815260cb602052604090205460ff1660068111156127b0576127b0613d67565b146127eb5760405162461bcd60e51b815260206004820152600b60248201526a57726f6e6720737461746560a81b6044820152606401610c0d565b600082815260cb6020908152604091829020805460ff1916600317815560010183905590518381527f316b408b8cf323e8f20ef7a8c267eedc89bef19ca5db7fc30be938e55bf068f9910160405180910390a15050565b61284a6129e5565b6001600160a01b0381166128af5760405162461bcd60e51b815260206004820152602660248201527f4f776e61626c653a206e6577206f776e657220697320746865207a65726f206160448201526564647265737360d01b6064820152608401610c0d565b6112a781613104565b600081815260cb60205260408120600c810154600b9091018054606093929082906128e290614391565b80601f016020809104026020016040519081016040528092919081815260200182805461290e90614391565b801561295b5780601f106129305761010080835404028352916020019161295b565b820191906000526020600020905b81548152906001019060200180831161293e57829003601f168201915b5050505050915091509150915091565b6129736129e5565b60ca80546001600160a01b0319166001600160a01b0392909216919091179055565b60006001600160e01b031982166380ac58cd60e01b14806129c657506001600160e01b03198216635b5e139f60e01b145b80610a7e57506301ffc9a760e01b6001600160e01b0319831614610a7e565b336129ee611f2d565b6001600160a01b031614611ced5760405162461bcd60e51b815260206004820181905260248201527f4f776e61626c653a2063616c6c6572206973206e6f7420746865206f776e65726044820152606401610c0d565b612a4d81612ecd565b6112a75760405162461bcd60e51b8152600401610c0d9061468d565b600081815260696020526040902080546001600160a01b0319166001600160a01b0384169081179091558190612a9e82611431565b6001600160a01b03167f8c5be1e5ebec7d5bd14f71427d1e84f3dd0314c0f7b2291e5b200ac8c7c3b92560405160405180910390a45050565b600060cc5460cd541015612b275760405162461bcd60e51b8152602060048201526017602482015276139bdd08185b1b081b595d1859185d18481b1bd8591959604a1b6044820152606401610c0d565b612b2f6132b3565b612b7b5760405162461bcd60e51b815260206004820152601d60248201527f4e6565647320746f20626520616e20616c6c6f776564206d696e7465720000006044820152606401610c0d565b6000612b8561308d565b905060008111612bc65760405162461bcd60e51b815260206004820152600c60248201526b4e6f7420666f722073616c6560a01b6044820152606401610c0d565b8251612bd29082614446565b3414612bf05760405162461bcd60e51b8152600401610c0d906146bf565b612bf861338c565b835133600090815260de6020526040902054600191612c1691614710565b612c2091906143e1565b10612c635760405162461bcd60e51b8152602060048201526013602482015272115e18d959591959081b5a5b9d081b1a5b5a5d606a1b6044820152606401610c0d565b60cc54835160d254612c759190614710565b1115612cb45760405162461bcd60e51b815260206004820152600e60248201526d4f7665722064726f702073697a6560901b6044820152606401610c0d565b600160dd5460ff166003811115612ccd57612ccd613d67565b03612cdb57612169836133fd565b612169836135ed565b600080612cf083611431565b9050806001600160a01b0316846001600160a01b03161480612d175750612d178185612730565b80612d3b5750836001600160a01b0316612d3084610b72565b6001600160a01b0316145b949350505050565b826001600160a01b0316612d5682611431565b6001600160a01b031614612dba5760405162461bcd60e51b815260206004820152602560248201527f4552433732313a207472616e736665722066726f6d20696e636f72726563742060448201526437bbb732b960d91b6064820152608401610c0d565b6001600160a01b038216612e1c5760405162461bcd60e51b8152602060048201526024808201527f4552433732313a207472616e7366657220746f20746865207a65726f206164646044820152637265737360e01b6064820152608401610c0d565b612e27600082612a69565b6001600160a01b0383166000908152606860205260408120805460019290612e509084906143e1565b90915550506001600160a01b0382166000908152606860205260408120805460019290612e7e908490614710565b909155505060008181526067602052604080822080546001600160a01b0319166001600160a01b03868116918217909255915184939187169160008051602061497683398151915291a4505050565b6000908152606760205260409020546001600160a01b0316151590565b80471015612f3a5760405162461bcd60e51b815260206004820152601d60248201527f416464726573733a20696e73756666696369656e742062616c616e63650000006044820152606401610c0d565b6000826001600160a01b03168260405160006040518083038185875af1925050503d8060008114612f87576040519150601f19603f3d011682016040523d82523d6000602084013e612f8c565b606091505b5050905080610cae5760405162461bcd60e51b815260206004820152603a60248201527f416464726573733a20756e61626c6520746f2073656e642076616c75652c207260448201527f6563697069656e74206d617920686176652072657665727465640000000000006064820152608401610c0d565b600061300e82611431565b905061301b600083612a69565b6001600160a01b03811660009081526068602052604081208054600192906130449084906143e1565b909155505060008281526067602052604080822080546001600160a01b0319169055518391906001600160a01b03841690600080516020614976833981519152908390a46112a5565b6000600160dd5460ff1660038111156130a8576130a8613d67565b036130b4575060d65490565b600260dd5460ff1660038111156130cd576130cd613d67565b036130d9575060d75490565b600360dd5460ff1660038111156130f2576130f2613d67565b036130fe575060df5490565b50600090565b609780546001600160a01b038381166001600160a01b0319831681179093556040519116919082907f8be0079c531659141344cd1fd0a4f28419497f9722a3daafe3b4186f6b6457e090600090a35050565b600054610100900460ff1661317d5760405162461bcd60e51b8152600401610c0d9061487e565b6112a582826136e8565b600054610100900460ff166131ae5760405162461bcd60e51b8152600401610c0d9061487e565b611ced613728565b816001600160a01b0316836001600160a01b0316036132135760405162461bcd60e51b815260206004820152601960248201527822a9219b99189d1030b8383937bb32903a379031b0b63632b960391b6044820152606401610c0d565b6001600160a01b038381166000818152606a6020908152604080832094871680845294825291829020805460ff191686151590811790915591519182527f17307eab39ab6107e8899845ad3d59bd9653f200f220920489ca2b5937696c31910160405180910390a3505050565b61328b848484612d43565b61329784848484613758565b611f275760405162461bcd60e51b8152600401610c0d906148c9565b6000600360dd5460ff1660038111156132ce576132ce613d67565b036132d95750600190565b600260dd5460ff1660038111156132f2576132f2613d67565b036133335733600090815260dc602052604090205460ff16156133155750600190565b33600090815260db602052604090205460ff16156133335750600190565b600160dd5460ff16600381111561334c5761334c613d67565b0361336f5733600090815260dc602052604090205460ff161561336f5750600190565b33613378611f2d565b6001600160a01b0316036130fe5750600190565b6000600160dd5460ff1660038111156133a7576133a7613d67565b036133b3575060d85490565b600260dd5460ff1660038111156133cc576133cc613d67565b036133d8575060d95490565b600360dd5460ff1660038111156133f1576133f1613d67565b036130fe575060da5490565b60ce5460009033908290815b60ce5481101561348c57600081815260cf60205260409020546001600160a01b0380861691160361347a57600081815260d0602090815260408083205480845260d19092529091205460ff161515600114613478578282101561346a578192505b83613474816144ba565b9450505b505b80613484816144ba565b915050613409565b5084518210156134da5760405162461bcd60e51b815260206004820152601960248201527843616e206e6f74206d696e7420616c6c2065646974696f6e7360381b6044820152606401610c0d565b60018160005b87518110156135e1575b600082815260cf60205260409020546001600160a01b0387811691161461351d5781613515816144ba565b9250506134ea565b60d0600083815260200190815260200160002054925061355688828151811061354857613548614487565b602002602001015184613859565b600083815260cb602090815260408083208054600160ff19918216811790925560d18452828520805490911690911790556001600160a01b038916835260de90915281208054916135a6836144ba565b909155505060d280549060006135bb836144ba565b919050555081806135cb906144ba565b92505080806135d9906144ba565b9150506134e0565b50909695505050505050565b600033815b83518110156136dd575b60d354600090815260d1602052604090205460ff1615156001036136345760d3805490600061362a836144ba565b91905055506135fc565b61365984828151811061364957613649614487565b602002602001015160d354613859565b60d38054600090815260cb602090815260408083208054600160ff1991821681179092559454845260d183528184208054909516179093556001600160a01b038516825260de90529081208054916136b0836144ba565b909155505060d280549060006136c5836144ba565b919050555080806136d5906144ba565b9150506135f2565b505060d35492915050565b600054610100900460ff1661370f5760405162461bcd60e51b8152600401610c0d9061487e565b606561371b83826145ce565b506066610cae82826145ce565b600054610100900460ff1661374f5760405162461bcd60e51b8152600401610c0d9061487e565b611ced33613104565b60006001600160a01b0384163b1561384e57604051630a85bd0160e11b81526001600160a01b0385169063150b7a029061379c90339089908890889060040161491b565b6020604051808303816000875af19250505080156137d7575060408051601f3d908101601f191682019092526137d491810190614958565b60015b613834573d808015613805576040519150601f19603f3d011682016040523d82523d6000602084013e61380a565b606091505b50805160000361382c5760405162461bcd60e51b8152600401610c0d906148c9565b805181602001fd5b6001600160e01b031916630a85bd0160e11b149050612d3b565b506001949350505050565b6001600160a01b0382166138af5760405162461bcd60e51b815260206004820181905260248201527f4552433732313a206d696e7420746f20746865207a65726f20616464726573736044820152606401610c0d565b6138b881612ecd565b156139055760405162461bcd60e51b815260206004820152601c60248201527f4552433732313a20746f6b656e20616c7265616479206d696e746564000000006044820152606401610c0d565b6001600160a01b038216600090815260686020526040812080546001929061392e908490614710565b909155505060008181526067602052604080822080546001600160a01b0319166001600160a01b0386169081179091559051839290600080516020614976833981519152908290a46112a5565b6001600160e01b0319811681146112a757600080fd5b6000602082840312156139a357600080fd5b81356121698161397b565b600080600080600080600080610100898b0312156139cb57600080fd5b505086359860208801359850604088013597606081013597506080810135965060a0810135955060c0810135945060e0013592509050565b60005b83811015613a1e578181015183820152602001613a06565b83811115611f275750506000910152565b60008151808452613a47816020860160208601613a03565b601f01601f19169290920160200192915050565b6020815260006121696020830184613a2f565b600060208284031215613a8057600080fd5b5035919050565b6001600160a01b0391909116815260200190565b80356001600160a01b0381168114613ab257600080fd5b919050565b60008060408385031215613aca57600080fd5b613ad383613a9b565b946020939093013593505050565b634e487b7160e01b600052604160045260246000fd5b604051601f8201601f191681016001600160401b0381118282101715613b1f57613b1f613ae1565b604052919050565b60006001600160401b03821115613b4057613b40613ae1565b5060051b60200190565b60006020808385031215613b5d57600080fd5b82356001600160401b03811115613b7357600080fd5b8301601f81018513613b8457600080fd5b8035613b97613b9282613b27565b613af7565b81815260059190911b82018301908381019087831115613bb657600080fd5b928401925b82841015613bdb57613bcc84613a9b565b82529284019290840190613bbb565b979650505050505050565b600080600060608486031215613bfb57600080fd5b613c0484613a9b565b9250613c1260208501613a9b565b9150604084013590509250925092565b60008060408385031215613c3557600080fd5b50508035926020909101359150565b6001600160a01b03929092168252602082015260400190565b600060208284031215613c6f57600080fd5b81356004811061216957600080fd5b600080600060608486031215613c9357600080fd5b505081359360208301359350604090920135919050565b60008083601f840112613cbc57600080fd5b5081356001600160401b03811115613cd357600080fd5b6020830191508360208260051b8501011115610de957600080fd5b600080600080600060608688031215613d0657600080fd5b8535945060208601356001600160401b0380821115613d2457600080fd5b613d3089838a01613caa565b90965094506040880135915080821115613d4957600080fd5b50613d5688828901613caa565b969995985093965092949392505050565b634e487b7160e01b600052602160045260246000fd5b6020810160048310613d9f57634e487b7160e01b600052602160045260246000fd5b91905290565b60006001600160401b03821115613dbe57613dbe613ae1565b50601f01601f191660200190565b6000613dda613b9284613da5565b9050828152838383011115613dee57600080fd5b828260208301376000602084830101529392505050565b600082601f830112613e1657600080fd5b61216983833560208501613dcc565b600080600080600080600080610100898b031215613e4257600080fd5b8835975060208901356001600160401b0380821115613e6057600080fd5b613e6c8c838d01613e05565b985060408b0135915080821115613e8257600080fd5b613e8e8c838d01613e05565b975060608b0135965060808b0135915080821115613eab57600080fd5b613eb78c838d01613e05565b955060a08b0135945060c08b0135915080821115613ed457600080fd5b50613ee18b828c01613e05565b92505060e089013590509295985092959890939650565b608081526000613f0b6080830187613a2f565b8560208401528281036040840152613f238186613a2f565b91505082606083015295945050505050565b60008060008060408587031215613f4b57600080fd5b84356001600160401b0380821115613f6257600080fd5b613f6e88838901613caa565b90965094506020870135915080821115613f8757600080fd5b50613f9487828801613caa565b95989497509550505050565b600060208284031215613fb257600080fd5b61216982613a9b565b600080600060608486031215613fd057600080fd5b8335925060208401356001600160401b0380821115613fee57600080fd5b613ffa87838801613e05565b9350604086013591508082111561401057600080fd5b5061401d86828701613e05565b9150509250925092565b600080600080600060a0868803121561403f57600080fd5b61404886613a9b565b945061405660208701613a9b565b935060408601356001600160401b038082111561407257600080fd5b61407e89838a01613e05565b9450606088013591508082111561409457600080fd5b506140a188828901613e05565b95989497509295608001359392505050565b80151581146112a757600080fd5b600080604083850312156140d457600080fd5b6140dd83613a9b565b915060208301356140ed816140b3565b809150509250929050565b6000806000806080858703121561410e57600080fd5b61411785613a9b565b935061412560208601613a9b565b92506040850135915060608501356001600160401b0381111561414757600080fd5b8501601f8101871361415857600080fd5b61416787823560208401613dcc565b91505092959194509250565b600082601f83011261418457600080fd5b81356020614194613b9283613b27565b82815260059290921b840181019181810190868411156141b357600080fd5b8286015b848110156141f25780356001600160401b038111156141d65760008081fd5b6141e48986838b0101613e05565b8452509183019183016141b7565b509695505050505050565b600082601f83011261420e57600080fd5b8135602061421e613b9283613b27565b82815260059290921b8401810191818101908684111561423d57600080fd5b8286015b848110156141f25780358352918301918301614241565b600080600080600080600060e0888a03121561427357600080fd5b873596506020880135955060408801356001600160401b038082111561429857600080fd5b6142a48b838c01614173565b965060608a01359150808211156142ba57600080fd5b6142c68b838c01614173565b955060808a01359150808211156142dc57600080fd5b6142e88b838c016141fd565b945060a08a01359150808211156142fe57600080fd5b61430a8b838c01614173565b935060c08a013591508082111561432057600080fd5b5061432d8a828b016141fd565b91505092959891949750929550565b6000806040838503121561434f57600080fd5b61435883613a9b565b915061436660208401613a9b565b90509250929050565b6040815260006143826040830185613a2f565b90508260208301529392505050565b600181811c908216806143a557607f821691505b6020821081036143c557634e487b7160e01b600052602260045260246000fd5b50919050565b634e487b7160e01b600052601160045260246000fd5b6000828210156143f3576143f36143cb565b500390565b6020808252602e908201527f4552433732313a2063616c6c6572206973206e6f7420746f6b656e206f776e6560408201526d1c881b9bdc88185c1c1c9bdd995960921b606082015260800190565b6000816000190483118215151615614460576144606143cb565b500290565b60008261448257634e487b7160e01b600052601260045260246000fd5b500490565b634e487b7160e01b600052603260045260246000fd5b6000602082840312156144af57600080fd5b8135612169816140b3565b6000600182016144cc576144cc6143cb565b5060010190565b6020808252600890820152672737903a37b5b2b760c11b604082015260600190565b6020808252600c908201526b139bdd08185c1c1c9bdd995960a21b604082015260600190565b6020808252601c908201527f596f752063757272656e746c792063616e206e6f742072656465656d00000000604082015260600190565b60006020828403121561456457600080fd5b5051919050565b60006020828403121561457d57600080fd5b8151612169816140b3565b601f821115610cae57600081815260208120601f850160051c810160208610156145af5750805b601f850160051c820191505b81811015610fa8578281556001016145bb565b81516001600160401b038111156145e7576145e7613ae1565b6145fb816145f58454614391565b84614588565b602080601f83116001811461463057600084156146185750858301515b600019600386901b1c1916600185901b178555610fa8565b600085815260208120601f198616915b8281101561465f57888601518255948401946001909101908401614640565b508582101561467d5787850151600019600388901b60f8161c191681555b5050505050600190811b01905550565b602080825260189082015277115490cdcc8c4e881a5b9d985b1a59081d1bdad95b88125160421b604082015260600190565b6020808252600b908201526a57726f6e6720707269636560a81b604082015260600190565b602080825260129082015271088c2e8c240e6d2f4ca40dad2e6dac2e8c6d60731b604082015260600190565b60008219821115614723576147236143cb565b500190565b6000815461473581614391565b808552602060018381168015614752576001811461476c5761479a565b60ff1985168884015283151560051b88018301955061479a565b866000528260002060005b858110156147925781548a8201860152908301908401614777565b890184019650505b505050505092915050565b60c0815260006147b860c0830189613a2f565b82810360208401526147ca8189614728565b905082810360408401526147de8188614728565b905082810360608401526147f28187614728565b6080840195909552505060a00152949350505050565b60006020828403121561481a57600080fd5b81516001600160401b0381111561483057600080fd5b8201601f8101841361484157600080fd5b805161484f613b9282613da5565b81815285602083850101111561486457600080fd5b614875826020830160208601613a03565b95945050505050565b6020808252602b908201527f496e697469616c697a61626c653a20636f6e7472616374206973206e6f74206960408201526a6e697469616c697a696e6760a81b606082015260800190565b60208082526032908201527f4552433732313a207472616e7366657220746f206e6f6e20455243373231526560408201527131b2b4bb32b91034b6b83632b6b2b73a32b960711b606082015260800190565b6001600160a01b038581168252841660208201526040810183905260806060820181905260009061494e90830184613a2f565b9695505050505050565b60006020828403121561496a57600080fd5b81516121698161397b56feddf252ad1be2c89b69c2b068fc378daa952ba7f163c4a11628f55a4df523b3efa6dc15bdb68da224c66db4b3838d9a2b205138e8cff6774e57d0af91e196d622a2646970667358221220824fd54c64454ccba32c84242855be80fe2cf8bacdb68f0174b3d2bca951cc0a64736f6c634300080f0033",
  "devdoc": {
    "author": "Zien Repository: https://github.com/joinzien/expanded-nft",
    "details": "This allows creators to mint a unique serial drop of an expanded NFT within a custom contract",
    "kind": "dev",
    "methods": {
      "approve(address,uint256)": {
        "details": "See {IERC721-approve}."
      },
      "balanceOf(address)": {
        "details": "See {IERC721-balanceOf}."
      },
      "burn(uint256)": {
        "params": {
          "tokenId": "Token ID to burn User burn function for token id "
        }
      },
      "getAllowedMinter()": {
        "details": "Sets the types of users who is allowed to mint."
      },
      "getApproved(uint256)": {
        "details": "See {IERC721-getApproved}."
      },
      "getConditionReport(uint256)": {
        "details": "Get URIs for the condition report",
        "returns": {
          "_0": "conditionReportUrl, conditionReportHash"
        }
      },
      "getGeneralMintLimit()": {
        "details": "returns the general mint limit"
      },
      "getMembersMintLimit()": {
        "details": "returns the member mint limit"
      },
      "getMembersSalePrice()": {
        "details": "returns the member sale price"
      },
      "getRoyaltyBPS()": {
        "details": "returns the royalty BPS"
      },
      "getSplitBPS()": {
        "details": "returns the split BPS"
      },
      "getURIs(uint256)": {
        "details": "Get URIs for edition NFT",
        "returns": {
          "_0": "_imageUrl, _imageHash, _animationUrl, _animationHash"
        }
      },
      "getVIPMintLimit()": {
        "details": "returns the VIP mint limit"
      },
      "getVIPSalePrice()": {
        "details": "returns the VIP sale price"
      },
      "getWhoCanMint()": {
        "details": "returns who can mint"
      },
      "initialize(address,address,string,string,uint256)": {
        "details": "Function to create a new drop. Can only be called by the allowed creator Sets the only allowed minter to the address that creates/owns the drop. This can be re-assigned or updated later",
        "params": {
          "_dropSize": "Number of editions that can be minted in total.    ",
          "_name": "Name of drop, used in the title as \"$NAME NUMBER/TOTAL\"",
          "_owner": "wallet addres for the user that owns and can mint the drop, gets royalty and sales payouts and can update the base url if needed.",
          "_symbol": "Symbol of the new token contract",
          "artistWallet": "wallet address for thr User that created the drop"
        }
      },
      "isApprovedForAll(address,address)": {
        "details": "See {IERC721-isApprovedForAll}."
      },
      "loadMetadataChunk(uint256,uint256,string[],string[],bytes32[],string[],bytes32[])": {
        "details": "Function to create a new drop. Can only be called by the allowed creator Sets the only allowed minter to the address that creates/owns the drop. This can be re-assigned or updated later",
        "params": {
          "_description": "Description of the edition, used in the description field of the NFT",
          "animationHash": "The associated hash of the animation in sha-256 bytes32 format. If animation is omitted the hash can be zero.",
          "animationUrl": "Animation URL of the edition. Not required, but if omitted image URL needs to be included. This follows the opensea spec for NFTs",
          "imageHash": "SHA256 of the given image in bytes32 format (0xHASH). If no image is included, the hash can be zero.",
          "imageUrl": "Image URL of the the edition. Strongly encouraged to be used, if necessary, only animation URL can be used. One of animation and image url need to exist in a drop to render the NFT."
        }
      },
      "mintEdition(address)": {
        "details": "This mints one edition to the given address by an allowed minter on the edition instance.",
        "params": {
          "to": "address to send the newly minted edition to"
        }
      },
      "mintEditions(address[])": {
        "details": "This mints multiple editions to the given list of addresses.",
        "params": {
          "recipients": "list of addresses to send the newly minted editions to"
        }
      },
      "name()": {
        "details": "See {IERC721Metadata-name}."
      },
      "ownerOf(uint256)": {
        "details": "See {IERC721-ownerOf}."
      },
      "purchase()": {
        "details": "This allows the user to purchase an edition at the given price in the contract."
      },
      "renounceOwnership()": {
        "details": "Leaves the contract without owner. It will not be possible to call `onlyOwner` functions anymore. Can only be called by the current owner. NOTE: Renouncing ownership will leave the contract without an owner, thereby removing any functionality that is only available to the owner."
      },
      "reserve(address[],uint256[])": {
        "details": "Set various pricing related values",
        "params": {
          "tokenIDs": "A list of tokenId to reserve                                                                           ",
          "wallets": "A list of wallets"
        }
      },
      "royaltyInfo(uint256,uint256)": {
        "details": "Get royalty information for token",
        "params": {
          "_salePrice": "Sale price for the token"
        }
      },
      "safeTransferFrom(address,address,uint256)": {
        "details": "See {IERC721-safeTransferFrom}."
      },
      "safeTransferFrom(address,address,uint256,bytes)": {
        "details": "See {IERC721-safeTransferFrom}."
      },
      "setAllowedMinter(uint8)": {
        "details": "Sets the types of users who is allowed to mint.",
        "params": {
          "minters": "WhoCanMint enum of minter types"
        }
      },
      "setApprovalForAll(address,bool)": {
        "details": "See {IERC721-setApprovalForAll}."
      },
      "setApprovedMinters(uint256,address[],bool[])": {
        "details": "Sets the approved minting status of the given address. This requires that msg.sender is the owner of the given edition id. If the ZeroAddress (address(0x0)) is set as a minter, anyone will be allowed to mint. This setup is similar to setApprovalForAll in the ERC721 spec.",
        "params": {
          "allowed": "boolean if that address is allowed to mint",
          "minter": "address to set approved minting status for"
        }
      },
      "setApprovedVIPMinters(uint256,address[],bool[])": {
        "details": "Sets the approved minting status of the given address. This requires that msg.sender is the owner of the given edition id. If the ZeroAddress (address(0x0)) is set as a minter, anyone will be allowed to mint. This setup is similar to setApprovalForAll in the ERC721 spec.",
        "params": {
          "allowed": "boolean if that address is allowed to mint",
          "minter": "address to set approved minting status for"
        }
      },
      "setMembersSalePrice(uint256)": {
        "details": "This sets the members ETH sales price Setting a sales price allows users to mint the drop until it sells out. For more granular sales, use an external sales contract.",
        "params": {
          "_salePrice": "if sale price is 0 sale is stopped, otherwise that amount  of ETH is needed to start the sale."
        }
      },
      "setPricing(uint256,uint256,uint256,uint256,uint256,uint256,uint256,uint256)": {
        "details": "Set various pricing related values",
        "params": {
          "_generalMintLimit": "Mint limit for the general public                                                                                 ",
          "_generalSalePrice": "SalePrice for the general public     ",
          "_membersMintLimit": "Mint limit for Members  ",
          "_membersSalePrice": "SalePrice for Members  ",
          "_royaltyBPS": "BPS of the royalty set on the contract. Can be 0 for no royalty.",
          "_splitBPS": "BPS of the royalty set on the contract. Can be 0 for no royalty. ",
          "_vipMintLimit": "Mint limit for VIPs",
          "_vipSalePrice": "Sale price for VIPs"
        }
      },
      "setSalePrice(uint256)": {
        "details": "This sets a simple ETH sales price Setting a sales price allows users to mint the drop until it sells out. For more granular sales, use an external sales contract.",
        "params": {
          "_salePrice": "if sale price is 0 sale is stopped, otherwise that amount  of ETH is needed to start the sale."
        }
      },
      "setSalePrices(uint256,uint256,uint256)": {
        "details": "This sets the members ETH sales price Setting a sales price allows users to mint the drop until it sells out. For more granular sales, use an external sales contract.",
        "params": {
          "generalSalePrice": "if sale price is 0 sale is stopped, otherwise that amount  of ETH is needed to start the sale.                                              ",
          "membersSalePrice": "if sale price is 0 sale is stopped, otherwise that amount  of ETH is needed to start the sale.",
          "vipSalePrice": "if sale price is 0 sale is stopped, otherwise that amount  of ETH is needed to start the sale."
        }
      },
      "setVIPSalePrice(uint256)": {
        "details": "This sets the VIP ETH sales price Setting a sales price allows users to mint the drop until it sells out. For more granular sales, use an external sales contract.",
        "params": {
          "_salePrice": "if sale price is 0 sale is stopped, otherwise that amount  of ETH is needed to start the sale."
        }
      },
      "symbol()": {
        "details": "See {IERC721Metadata-symbol}."
      },
      "tokenURI(uint256)": {
        "details": "Get URI for given token id",
        "params": {
          "tokenId": "token id to get uri for"
        },
        "returns": {
          "_0": "base64-encoded json metadata object"
        }
      },
      "totalSupply()": {
        "details": "returns the number of minted tokens within the drop"
      },
      "transferFrom(address,address,uint256)": {
        "details": "See {IERC721-transferFrom}."
      },
      "transferOwnership(address)": {
        "details": "Transfers ownership of the contract to a new account (`newOwner`). Can only be called by the current owner."
      },
      "updateEditionURLs(uint256,string,string)": {
        "details": "Allows for updates of edition urls by the owner of the edition. Only URLs can be updated (data-uris are supported), hashes cannot be updated."
      },
      "withdraw()": {
        "details": "This withdraws ETH from the contract to the contract owner."
      }
    },
    "version": 1
  },
  "userdoc": {
    "kind": "user",
    "methods": {
      "getArtistWallet()": {
        "notice": "return the artists wallet address"
      },
      "getPaymentToken()": {
        "notice": "return the payment tokens address"
      },
      "numberCanMint()": {
        "notice": "Returns the number of editions allowed to mint"
      },
      "owner()": {
        "notice": "Simple override for owner interface."
      },
      "setArtistWallet(address)": {
        "notice": "set the artists wallet address"
      },
      "setPaymentToken(address)": {
        "notice": "set a new payment token address"
      }
    },
    "notice": "This is a smart contract for handling dynamic contract minting.",
    "version": 1
  },
  "storageLayout": {
    "storage": [
      {
        "astId": 820,
        "contract": "contracts/ExpandedNFT.sol:ExpandedNFT",
        "label": "_initialized",
        "offset": 0,
        "slot": "0",
        "type": "t_uint8"
      },
      {
        "astId": 823,
        "contract": "contracts/ExpandedNFT.sol:ExpandedNFT",
        "label": "_initializing",
        "offset": 1,
        "slot": "0",
        "type": "t_bool"
      },
      {
        "astId": 3446,
        "contract": "contracts/ExpandedNFT.sol:ExpandedNFT",
        "label": "__gap",
        "offset": 0,
        "slot": "1",
        "type": "t_array(t_uint256)50_storage"
      },
      {
        "astId": 3790,
        "contract": "contracts/ExpandedNFT.sol:ExpandedNFT",
        "label": "__gap",
        "offset": 0,
        "slot": "51",
        "type": "t_array(t_uint256)50_storage"
      },
      {
        "astId": 2138,
        "contract": "contracts/ExpandedNFT.sol:ExpandedNFT",
        "label": "_name",
        "offset": 0,
        "slot": "101",
        "type": "t_string_storage"
      },
      {
        "astId": 2140,
        "contract": "contracts/ExpandedNFT.sol:ExpandedNFT",
        "label": "_symbol",
        "offset": 0,
        "slot": "102",
        "type": "t_string_storage"
      },
      {
        "astId": 2144,
        "contract": "contracts/ExpandedNFT.sol:ExpandedNFT",
        "label": "_owners",
        "offset": 0,
        "slot": "103",
        "type": "t_mapping(t_uint256,t_address)"
      },
      {
        "astId": 2148,
        "contract": "contracts/ExpandedNFT.sol:ExpandedNFT",
        "label": "_balances",
        "offset": 0,
        "slot": "104",
        "type": "t_mapping(t_address,t_uint256)"
      },
      {
        "astId": 2152,
        "contract": "contracts/ExpandedNFT.sol:ExpandedNFT",
        "label": "_tokenApprovals",
        "offset": 0,
        "slot": "105",
        "type": "t_mapping(t_uint256,t_address)"
      },
      {
        "astId": 2158,
        "contract": "contracts/ExpandedNFT.sol:ExpandedNFT",
        "label": "_operatorApprovals",
        "offset": 0,
        "slot": "106",
        "type": "t_mapping(t_address,t_mapping(t_address,t_bool))"
      },
      {
        "astId": 3000,
        "contract": "contracts/ExpandedNFT.sol:ExpandedNFT",
        "label": "__gap",
        "offset": 0,
        "slot": "107",
        "type": "t_array(t_uint256)44_storage"
      },
      {
        "astId": 593,
        "contract": "contracts/ExpandedNFT.sol:ExpandedNFT",
        "label": "_owner",
        "offset": 0,
        "slot": "151",
        "type": "t_address"
      },
      {
        "astId": 713,
        "contract": "contracts/ExpandedNFT.sol:ExpandedNFT",
        "label": "__gap",
        "offset": 0,
        "slot": "152",
        "type": "t_array(t_uint256)49_storage"
      },
      {
        "astId": 4803,
        "contract": "contracts/ExpandedNFT.sol:ExpandedNFT",
        "label": "description",
        "offset": 0,
        "slot": "201",
        "type": "t_string_storage"
      },
      {
        "astId": 4805,
        "contract": "contracts/ExpandedNFT.sol:ExpandedNFT",
        "label": "_artistWallet",
        "offset": 0,
        "slot": "202",
        "type": "t_address"
      },
      {
        "astId": 4810,
        "contract": "contracts/ExpandedNFT.sol:ExpandedNFT",
        "label": "_perTokenMetadata",
        "offset": 0,
        "slot": "203",
        "type": "t_mapping(t_uint256,t_struct(PerToken)4771_storage)"
      },
      {
        "astId": 4812,
        "contract": "contracts/ExpandedNFT.sol:ExpandedNFT",
        "label": "dropSize",
        "offset": 0,
        "slot": "204",
        "type": "t_uint256"
      },
      {
        "astId": 4814,
        "contract": "contracts/ExpandedNFT.sol:ExpandedNFT",
        "label": "_loadedMetadata",
        "offset": 0,
        "slot": "205",
        "type": "t_uint256"
      },
      {
        "astId": 4816,
        "contract": "contracts/ExpandedNFT.sol:ExpandedNFT",
        "label": "_reserveCount",
        "offset": 0,
        "slot": "206",
        "type": "t_uint256"
      },
      {
        "astId": 4820,
        "contract": "contracts/ExpandedNFT.sol:ExpandedNFT",
        "label": "_reserveAddress",
        "offset": 0,
        "slot": "207",
        "type": "t_mapping(t_uint256,t_address)"
      },
      {
        "astId": 4824,
        "contract": "contracts/ExpandedNFT.sol:ExpandedNFT",
        "label": "_reserveTokenId",
        "offset": 0,
        "slot": "208",
        "type": "t_mapping(t_uint256,t_uint256)"
      },
      {
        "astId": 4828,
        "contract": "contracts/ExpandedNFT.sol:ExpandedNFT",
        "label": "_tokenClaimed",
        "offset": 0,
        "slot": "209",
        "type": "t_mapping(t_uint256,t_bool)"
      },
      {
        "astId": 4830,
        "contract": "contracts/ExpandedNFT.sol:ExpandedNFT",
        "label": "_claimCount",
        "offset": 0,
        "slot": "210",
        "type": "t_uint256"
      },
      {
        "astId": 4832,
        "contract": "contracts/ExpandedNFT.sol:ExpandedNFT",
        "label": "_currentIndex",
        "offset": 0,
        "slot": "211",
        "type": "t_uint256"
      },
      {
        "astId": 4835,
        "contract": "contracts/ExpandedNFT.sol:ExpandedNFT",
        "label": "_pricing",
        "offset": 0,
        "slot": "212",
        "type": "t_struct(Pricing)4801_storage"
      },
      {
        "astId": 4837,
        "contract": "contracts/ExpandedNFT.sol:ExpandedNFT",
        "label": "salePrice",
        "offset": 0,
        "slot": "223",
        "type": "t_uint256"
      },
      {
        "astId": 4840,
        "contract": "contracts/ExpandedNFT.sol:ExpandedNFT",
        "label": "_paymentTokenERC20",
        "offset": 0,
        "slot": "224",
        "type": "t_contract(IERC20Upgradeable)1780"
      }
    ],
    "types": {
      "t_address": {
        "encoding": "inplace",
        "label": "address",
        "numberOfBytes": "20"
      },
      "t_array(t_uint256)44_storage": {
        "base": "t_uint256",
        "encoding": "inplace",
        "label": "uint256[44]",
        "numberOfBytes": "1408"
      },
      "t_array(t_uint256)49_storage": {
        "base": "t_uint256",
        "encoding": "inplace",
        "label": "uint256[49]",
        "numberOfBytes": "1568"
      },
      "t_array(t_uint256)50_storage": {
        "base": "t_uint256",
        "encoding": "inplace",
        "label": "uint256[50]",
        "numberOfBytes": "1600"
      },
      "t_bool": {
        "encoding": "inplace",
        "label": "bool",
        "numberOfBytes": "1"
      },
      "t_bytes32": {
        "encoding": "inplace",
        "label": "bytes32",
        "numberOfBytes": "32"
      },
      "t_contract(IERC20Upgradeable)1780": {
        "encoding": "inplace",
        "label": "contract IERC20Upgradeable",
        "numberOfBytes": "20"
      },
      "t_enum(ExpandedNFTStates)4696": {
        "encoding": "inplace",
        "label": "enum ExpandedNFT.ExpandedNFTStates",
        "numberOfBytes": "1"
      },
      "t_enum(WhoCanMint)4688": {
        "encoding": "inplace",
        "label": "enum ExpandedNFT.WhoCanMint",
        "numberOfBytes": "1"
      },
      "t_mapping(t_address,t_bool)": {
        "encoding": "mapping",
        "key": "t_address",
        "label": "mapping(address => bool)",
        "numberOfBytes": "32",
        "value": "t_bool"
      },
      "t_mapping(t_address,t_mapping(t_address,t_bool))": {
        "encoding": "mapping",
        "key": "t_address",
        "label": "mapping(address => mapping(address => bool))",
        "numberOfBytes": "32",
        "value": "t_mapping(t_address,t_bool)"
      },
      "t_mapping(t_address,t_uint256)": {
        "encoding": "mapping",
        "key": "t_address",
        "label": "mapping(address => uint256)",
        "numberOfBytes": "32",
        "value": "t_uint256"
      },
      "t_mapping(t_uint256,t_address)": {
        "encoding": "mapping",
        "key": "t_uint256",
        "label": "mapping(uint256 => address)",
        "numberOfBytes": "32",
        "value": "t_address"
      },
      "t_mapping(t_uint256,t_bool)": {
        "encoding": "mapping",
        "key": "t_uint256",
        "label": "mapping(uint256 => bool)",
        "numberOfBytes": "32",
        "value": "t_bool"
      },
      "t_mapping(t_uint256,t_struct(PerToken)4771_storage)": {
        "encoding": "mapping",
        "key": "t_uint256",
        "label": "mapping(uint256 => struct ExpandedNFT.PerToken)",
        "numberOfBytes": "32",
        "value": "t_struct(PerToken)4771_storage"
      },
      "t_mapping(t_uint256,t_uint256)": {
        "encoding": "mapping",
        "key": "t_uint256",
        "label": "mapping(uint256 => uint256)",
        "numberOfBytes": "32",
        "value": "t_uint256"
      },
      "t_string_storage": {
        "encoding": "bytes",
        "label": "string",
        "numberOfBytes": "32"
      },
      "t_struct(PerToken)4771_storage": {
        "encoding": "inplace",
        "label": "struct ExpandedNFT.PerToken",
        "members": [
          {
            "astId": 4746,
            "contract": "contracts/ExpandedNFT.sol:ExpandedNFT",
            "label": "editionState",
            "offset": 0,
            "slot": "0",
            "type": "t_enum(ExpandedNFTStates)4696"
          },
          {
            "astId": 4748,
            "contract": "contracts/ExpandedNFT.sol:ExpandedNFT",
            "label": "editionFee",
            "offset": 0,
            "slot": "1",
            "type": "t_uint256"
          },
          {
            "astId": 4750,
            "contract": "contracts/ExpandedNFT.sol:ExpandedNFT",
            "label": "description",
            "offset": 0,
            "slot": "2",
            "type": "t_string_storage"
          },
          {
            "astId": 4752,
            "contract": "contracts/ExpandedNFT.sol:ExpandedNFT",
            "label": "animationUrl",
            "offset": 0,
            "slot": "3",
            "type": "t_string_storage"
          },
          {
            "astId": 4754,
            "contract": "contracts/ExpandedNFT.sol:ExpandedNFT",
            "label": "animationHash",
            "offset": 0,
            "slot": "4",
            "type": "t_bytes32"
          },
          {
            "astId": 4756,
            "contract": "contracts/ExpandedNFT.sol:ExpandedNFT",
            "label": "imageUrl",
            "offset": 0,
            "slot": "5",
            "type": "t_string_storage"
          },
          {
            "astId": 4758,
            "contract": "contracts/ExpandedNFT.sol:ExpandedNFT",
            "label": "imageHash",
            "offset": 0,
            "slot": "6",
            "type": "t_bytes32"
          },
          {
            "astId": 4760,
            "contract": "contracts/ExpandedNFT.sol:ExpandedNFT",
            "label": "redeemedAnimationUrl",
            "offset": 0,
            "slot": "7",
            "type": "t_string_storage"
          },
          {
            "astId": 4762,
            "contract": "contracts/ExpandedNFT.sol:ExpandedNFT",
            "label": "redeemedAnimationHash",
            "offset": 0,
            "slot": "8",
            "type": "t_bytes32"
          },
          {
            "astId": 4764,
            "contract": "contracts/ExpandedNFT.sol:ExpandedNFT",
            "label": "redeemedImageUrl",
            "offset": 0,
            "slot": "9",
            "type": "t_string_storage"
          },
          {
            "astId": 4766,
            "contract": "contracts/ExpandedNFT.sol:ExpandedNFT",
            "label": "redeemedImageHash",
            "offset": 0,
            "slot": "10",
            "type": "t_bytes32"
          },
          {
            "astId": 4768,
            "contract": "contracts/ExpandedNFT.sol:ExpandedNFT",
            "label": "conditionReportUrl",
            "offset": 0,
            "slot": "11",
            "type": "t_string_storage"
          },
          {
            "astId": 4770,
            "contract": "contracts/ExpandedNFT.sol:ExpandedNFT",
            "label": "conditionReportHash",
            "offset": 0,
            "slot": "12",
            "type": "t_bytes32"
          }
        ],
        "numberOfBytes": "416"
      },
      "t_struct(Pricing)4801_storage": {
        "encoding": "inplace",
        "label": "struct ExpandedNFT.Pricing",
        "members": [
          {
            "astId": 4773,
            "contract": "contracts/ExpandedNFT.sol:ExpandedNFT",
            "label": "royaltyBPS",
            "offset": 0,
            "slot": "0",
            "type": "t_uint256"
          },
          {
            "astId": 4775,
            "contract": "contracts/ExpandedNFT.sol:ExpandedNFT",
            "label": "splitBPS",
            "offset": 0,
            "slot": "1",
            "type": "t_uint256"
          },
          {
            "astId": 4777,
            "contract": "contracts/ExpandedNFT.sol:ExpandedNFT",
            "label": "vipSalePrice",
            "offset": 0,
            "slot": "2",
            "type": "t_uint256"
          },
          {
            "astId": 4779,
            "contract": "contracts/ExpandedNFT.sol:ExpandedNFT",
            "label": "membersSalePrice",
            "offset": 0,
            "slot": "3",
            "type": "t_uint256"
          },
          {
            "astId": 4781,
            "contract": "contracts/ExpandedNFT.sol:ExpandedNFT",
            "label": "vipMintLimit",
            "offset": 0,
            "slot": "4",
            "type": "t_uint256"
          },
          {
            "astId": 4783,
            "contract": "contracts/ExpandedNFT.sol:ExpandedNFT",
            "label": "membersMintLimit",
            "offset": 0,
            "slot": "5",
            "type": "t_uint256"
          },
          {
            "astId": 4785,
            "contract": "contracts/ExpandedNFT.sol:ExpandedNFT",
            "label": "generalMintLimit",
            "offset": 0,
            "slot": "6",
            "type": "t_uint256"
          },
          {
            "astId": 4789,
            "contract": "contracts/ExpandedNFT.sol:ExpandedNFT",
            "label": "allowedMinters",
            "offset": 0,
            "slot": "7",
            "type": "t_mapping(t_address,t_bool)"
          },
          {
            "astId": 4793,
            "contract": "contracts/ExpandedNFT.sol:ExpandedNFT",
            "label": "vipAllowedMinters",
            "offset": 0,
            "slot": "8",
            "type": "t_mapping(t_address,t_bool)"
          },
          {
            "astId": 4796,
            "contract": "contracts/ExpandedNFT.sol:ExpandedNFT",
            "label": "whoCanMint",
            "offset": 0,
            "slot": "9",
            "type": "t_enum(WhoCanMint)4688"
          },
          {
            "astId": 4800,
            "contract": "contracts/ExpandedNFT.sol:ExpandedNFT",
            "label": "mintCounts",
            "offset": 0,
            "slot": "10",
            "type": "t_mapping(t_address,t_uint256)"
          }
        ],
        "numberOfBytes": "352"
      },
      "t_uint256": {
        "encoding": "inplace",
        "label": "uint256",
        "numberOfBytes": "32"
      },
      "t_uint8": {
        "encoding": "inplace",
        "label": "uint8",
        "numberOfBytes": "1"
      }
    }
  }
}