{
  "address": "0xCD2e1c5C7B0D29D701AbCeE25d5F3d0f07836cF0",
  "abi": [
    {
      "inputs": [
        {
          "internalType": "contract SharedNFTLogic",
          "name": "sharedNFTLogic",
          "type": "address"
        }
      ],
      "stateMutability": "nonpayable",
      "type": "constructor"
    },
    {
      "anonymous": false,
      "inputs": [
        {
          "indexed": true,
          "internalType": "address",
          "name": "owner",
          "type": "address"
        },
        {
          "indexed": true,
          "internalType": "address",
          "name": "approved",
          "type": "address"
        },
        {
          "indexed": true,
          "internalType": "uint256",
          "name": "tokenId",
          "type": "uint256"
        }
      ],
      "name": "Approval",
      "type": "event"
    },
    {
      "anonymous": false,
      "inputs": [
        {
          "indexed": true,
          "internalType": "address",
          "name": "owner",
          "type": "address"
        },
        {
          "indexed": true,
          "internalType": "address",
          "name": "operator",
          "type": "address"
        },
        {
          "indexed": false,
          "internalType": "bool",
          "name": "approved",
          "type": "bool"
        }
      ],
      "name": "ApprovalForAll",
      "type": "event"
    },
    {
      "anonymous": false,
      "inputs": [
        {
          "indexed": false,
          "internalType": "uint256",
          "name": "tokenId",
          "type": "uint256"
        }
      ],
      "name": "DeliveryAccepted",
      "type": "event"
    },
    {
      "anonymous": false,
      "inputs": [
        {
          "indexed": false,
          "internalType": "uint256",
          "name": "price",
          "type": "uint256"
        },
        {
          "indexed": false,
          "internalType": "address",
          "name": "owner",
          "type": "address"
        }
      ],
      "name": "EditionSold",
      "type": "event"
    },
    {
      "anonymous": false,
      "inputs": [
        {
          "indexed": false,
          "internalType": "uint8",
          "name": "version",
          "type": "uint8"
        }
      ],
      "name": "Initialized",
      "type": "event"
    },
    {
      "anonymous": false,
      "inputs": [
        {
          "indexed": false,
          "internalType": "uint256",
          "name": "tokenId",
          "type": "uint256"
        }
      ],
      "name": "OfferAccepted",
      "type": "event"
    },
    {
      "anonymous": false,
      "inputs": [
        {
          "indexed": false,
          "internalType": "uint256",
          "name": "tokenId",
          "type": "uint256"
        }
      ],
      "name": "OfferRejected",
      "type": "event"
    },
    {
      "anonymous": false,
      "inputs": [
        {
          "indexed": false,
          "internalType": "uint256",
          "name": "tokenId",
          "type": "uint256"
        }
      ],
      "name": "OfferTermsSet",
      "type": "event"
    },
    {
      "anonymous": false,
      "inputs": [
        {
          "indexed": true,
          "internalType": "address",
          "name": "previousOwner",
          "type": "address"
        },
        {
          "indexed": true,
          "internalType": "address",
          "name": "newOwner",
          "type": "address"
        }
      ],
      "name": "OwnershipTransferred",
      "type": "event"
    },
    {
      "anonymous": false,
      "inputs": [
        {
          "indexed": false,
          "internalType": "uint256",
          "name": "amount",
          "type": "uint256"
        }
      ],
      "name": "PriceChanged",
      "type": "event"
    },
    {
      "anonymous": false,
      "inputs": [
        {
          "indexed": false,
          "internalType": "uint256",
          "name": "tokenId",
          "type": "uint256"
        }
      ],
      "name": "ProductionComplete",
      "type": "event"
    },
    {
      "anonymous": false,
      "inputs": [
        {
          "indexed": false,
          "internalType": "uint256",
          "name": "tokenId",
          "type": "uint256"
        },
        {
          "indexed": false,
          "internalType": "address",
          "name": "owner",
          "type": "address"
        }
      ],
      "name": "RedeemAborted",
      "type": "event"
    },
    {
      "anonymous": false,
      "inputs": [
        {
          "indexed": false,
          "internalType": "uint256",
          "name": "tokenId",
          "type": "uint256"
        },
        {
          "indexed": false,
          "internalType": "address",
          "name": "owner",
          "type": "address"
        }
      ],
      "name": "RedeemStarted",
      "type": "event"
    },
    {
      "anonymous": false,
      "inputs": [
        {
          "indexed": true,
          "internalType": "address",
          "name": "from",
          "type": "address"
        },
        {
          "indexed": true,
          "internalType": "address",
          "name": "to",
          "type": "address"
        },
        {
          "indexed": true,
          "internalType": "uint256",
          "name": "tokenId",
          "type": "uint256"
        }
      ],
      "name": "Transfer",
      "type": "event"
    },
    {
      "anonymous": false,
      "inputs": [
        {
          "indexed": false,
          "internalType": "enum ExpandedNFT.WhoCanMint",
          "name": "minters",
          "type": "uint8"
        }
      ],
      "name": "WhoCanMintChanged",
      "type": "event"
    },
    {
      "inputs": [
        {
          "internalType": "uint256",
          "name": "tokenId",
          "type": "uint256"
        }
      ],
      "name": "abortRedemption",
      "outputs": [],
      "stateMutability": "nonpayable",
      "type": "function"
    },
    {
      "inputs": [
        {
          "internalType": "uint256",
          "name": "tokenId",
          "type": "uint256"
        }
      ],
      "name": "acceptDelivery",
      "outputs": [],
      "stateMutability": "nonpayable",
      "type": "function"
    },
    {
      "inputs": [
        {
          "internalType": "uint256",
          "name": "tokenId",
          "type": "uint256"
        }
      ],
      "name": "acceptOfferTerms",
      "outputs": [],
      "stateMutability": "nonpayable",
      "type": "function"
    },
    {
      "inputs": [
        {
          "internalType": "address",
          "name": "to",
          "type": "address"
        },
        {
          "internalType": "uint256",
          "name": "tokenId",
          "type": "uint256"
        }
      ],
      "name": "approve",
      "outputs": [],
      "stateMutability": "nonpayable",
      "type": "function"
    },
    {
      "inputs": [
        {
          "internalType": "address",
          "name": "owner",
          "type": "address"
        }
      ],
      "name": "balanceOf",
      "outputs": [
        {
          "internalType": "uint256",
          "name": "",
          "type": "uint256"
        }
      ],
      "stateMutability": "view",
      "type": "function"
    },
    {
      "inputs": [
        {
          "internalType": "uint256",
          "name": "tokenId",
          "type": "uint256"
        }
      ],
      "name": "burn",
      "outputs": [],
      "stateMutability": "nonpayable",
      "type": "function"
    },
    {
      "inputs": [],
      "name": "dropSize",
      "outputs": [
        {
          "internalType": "uint256",
          "name": "",
          "type": "uint256"
        }
      ],
      "stateMutability": "view",
      "type": "function"
    },
    {
      "inputs": [],
      "name": "getAllowedMinter",
      "outputs": [
        {
          "internalType": "enum ExpandedNFT.WhoCanMint",
          "name": "",
          "type": "uint8"
        }
      ],
      "stateMutability": "view",
      "type": "function"
    },
    {
      "inputs": [
        {
          "internalType": "uint256",
          "name": "tokenId",
          "type": "uint256"
        }
      ],
      "name": "getApproved",
      "outputs": [
        {
          "internalType": "address",
          "name": "",
          "type": "address"
        }
      ],
      "stateMutability": "view",
      "type": "function"
    },
    {
      "inputs": [],
      "name": "getArtistWallet",
      "outputs": [
        {
          "internalType": "address",
          "name": "",
          "type": "address"
        }
      ],
      "stateMutability": "view",
      "type": "function"
    },
    {
      "inputs": [
        {
          "internalType": "uint256",
          "name": "tokenId",
          "type": "uint256"
        }
      ],
      "name": "getConditionReport",
      "outputs": [
        {
          "internalType": "string",
          "name": "",
          "type": "string"
        },
        {
          "internalType": "bytes32",
          "name": "",
          "type": "bytes32"
        }
      ],
      "stateMutability": "view",
      "type": "function"
    },
    {
      "inputs": [],
      "name": "getPaymentToken",
      "outputs": [
        {
          "internalType": "address",
          "name": "",
          "type": "address"
        }
      ],
      "stateMutability": "view",
      "type": "function"
    },
    {
      "inputs": [
        {
          "internalType": "uint256",
          "name": "tokenId",
          "type": "uint256"
        }
      ],
      "name": "getURIs",
      "outputs": [
        {
          "internalType": "string",
          "name": "",
          "type": "string"
        },
        {
          "internalType": "bytes32",
          "name": "",
          "type": "bytes32"
        },
        {
          "internalType": "string",
          "name": "",
          "type": "string"
        },
        {
          "internalType": "bytes32",
          "name": "",
          "type": "bytes32"
        }
      ],
      "stateMutability": "view",
      "type": "function"
    },
    {
      "inputs": [
        {
          "internalType": "address",
          "name": "_owner",
          "type": "address"
        },
        {
          "internalType": "address",
          "name": "artistWallet",
          "type": "address"
        },
        {
          "internalType": "string",
          "name": "_name",
          "type": "string"
        },
        {
          "internalType": "string",
          "name": "_symbol",
          "type": "string"
        },
        {
          "internalType": "uint256",
          "name": "_dropSize",
          "type": "uint256"
        },
        {
          "internalType": "string[]",
          "name": "description",
          "type": "string[]"
        },
        {
          "internalType": "string[]",
          "name": "animationUrl",
          "type": "string[]"
        },
        {
          "internalType": "bytes32[]",
          "name": "animationHash",
          "type": "bytes32[]"
        },
        {
          "internalType": "string[]",
          "name": "imageUrl",
          "type": "string[]"
        },
        {
          "internalType": "bytes32[]",
          "name": "imageHash",
          "type": "bytes32[]"
        }
      ],
      "name": "initialize",
      "outputs": [],
      "stateMutability": "nonpayable",
      "type": "function"
    },
    {
      "inputs": [
        {
          "internalType": "address",
          "name": "owner",
          "type": "address"
        },
        {
          "internalType": "address",
          "name": "operator",
          "type": "address"
        }
      ],
      "name": "isApprovedForAll",
      "outputs": [
        {
          "internalType": "bool",
          "name": "",
          "type": "bool"
        }
      ],
      "stateMutability": "view",
      "type": "function"
    },
    {
      "inputs": [
        {
          "internalType": "address",
          "name": "to",
          "type": "address"
        }
      ],
      "name": "mintEdition",
      "outputs": [
        {
          "internalType": "uint256",
          "name": "",
          "type": "uint256"
        }
      ],
      "stateMutability": "payable",
      "type": "function"
    },
    {
      "inputs": [
        {
          "internalType": "address[]",
          "name": "recipients",
          "type": "address[]"
        }
      ],
      "name": "mintEditions",
      "outputs": [
        {
          "internalType": "uint256",
          "name": "",
          "type": "uint256"
        }
      ],
      "stateMutability": "payable",
      "type": "function"
    },
    {
      "inputs": [],
      "name": "name",
      "outputs": [
        {
          "internalType": "string",
          "name": "",
          "type": "string"
        }
      ],
      "stateMutability": "view",
      "type": "function"
    },
    {
      "inputs": [],
      "name": "numberCanMint",
      "outputs": [
        {
          "internalType": "uint256",
          "name": "",
          "type": "uint256"
        }
      ],
      "stateMutability": "view",
      "type": "function"
    },
    {
      "inputs": [],
      "name": "owner",
      "outputs": [
        {
          "internalType": "address",
          "name": "",
          "type": "address"
        }
      ],
      "stateMutability": "view",
      "type": "function"
    },
    {
      "inputs": [
        {
          "internalType": "uint256",
          "name": "tokenId",
          "type": "uint256"
        }
      ],
      "name": "ownerOf",
      "outputs": [
        {
          "internalType": "address",
          "name": "",
          "type": "address"
        }
      ],
      "stateMutability": "view",
      "type": "function"
    },
    {
      "inputs": [
        {
          "internalType": "uint256",
          "name": "tokenId",
          "type": "uint256"
        }
      ],
      "name": "payRedemption",
      "outputs": [],
      "stateMutability": "nonpayable",
      "type": "function"
    },
    {
      "inputs": [
        {
          "internalType": "uint256",
          "name": "tokenId",
          "type": "uint256"
        },
        {
          "internalType": "string",
          "name": "description",
          "type": "string"
        },
        {
          "internalType": "string",
          "name": "animationUrl",
          "type": "string"
        },
        {
          "internalType": "bytes32",
          "name": "animationHash",
          "type": "bytes32"
        },
        {
          "internalType": "string",
          "name": "imageUrl",
          "type": "string"
        },
        {
          "internalType": "bytes32",
          "name": "imageHash",
          "type": "bytes32"
        },
        {
          "internalType": "string",
          "name": "conditionReportUrl",
          "type": "string"
        },
        {
          "internalType": "bytes32",
          "name": "conditionReportHash",
          "type": "bytes32"
        }
      ],
      "name": "productionComplete",
      "outputs": [],
      "stateMutability": "nonpayable",
      "type": "function"
    },
    {
      "inputs": [],
      "name": "purchase",
      "outputs": [
        {
          "internalType": "uint256",
          "name": "",
          "type": "uint256"
        }
      ],
      "stateMutability": "payable",
      "type": "function"
    },
    {
      "inputs": [
        {
          "internalType": "uint256",
          "name": "tokenId",
          "type": "uint256"
        }
      ],
      "name": "redeem",
      "outputs": [],
      "stateMutability": "nonpayable",
      "type": "function"
    },
    {
      "inputs": [
        {
          "internalType": "uint256",
          "name": "tokenId",
          "type": "uint256"
        }
      ],
      "name": "rejectOfferTerms",
      "outputs": [],
      "stateMutability": "nonpayable",
      "type": "function"
    },
    {
      "inputs": [],
      "name": "renounceOwnership",
      "outputs": [],
      "stateMutability": "nonpayable",
      "type": "function"
    },
    {
      "inputs": [
        {
          "internalType": "address[]",
          "name": "wallets",
          "type": "address[]"
        },
        {
          "internalType": "uint256[]",
          "name": "tokenIDs",
          "type": "uint256[]"
        }
      ],
      "name": "reserve",
      "outputs": [],
      "stateMutability": "nonpayable",
      "type": "function"
    },
    {
      "inputs": [
        {
          "internalType": "uint256",
          "name": "",
          "type": "uint256"
        },
        {
          "internalType": "uint256",
          "name": "_salePrice",
          "type": "uint256"
        }
      ],
      "name": "royaltyInfo",
      "outputs": [
        {
          "internalType": "address",
          "name": "receiver",
          "type": "address"
        },
        {
          "internalType": "uint256",
          "name": "royaltyAmount",
          "type": "uint256"
        }
      ],
      "stateMutability": "view",
      "type": "function"
    },
    {
      "inputs": [
        {
          "internalType": "address",
          "name": "from",
          "type": "address"
        },
        {
          "internalType": "address",
          "name": "to",
          "type": "address"
        },
        {
          "internalType": "uint256",
          "name": "tokenId",
          "type": "uint256"
        }
      ],
      "name": "safeTransferFrom",
      "outputs": [],
      "stateMutability": "nonpayable",
      "type": "function"
    },
    {
      "inputs": [
        {
          "internalType": "address",
          "name": "from",
          "type": "address"
        },
        {
          "internalType": "address",
          "name": "to",
          "type": "address"
        },
        {
          "internalType": "uint256",
          "name": "tokenId",
          "type": "uint256"
        },
        {
          "internalType": "bytes",
          "name": "data",
          "type": "bytes"
        }
      ],
      "name": "safeTransferFrom",
      "outputs": [],
      "stateMutability": "nonpayable",
      "type": "function"
    },
    {
      "inputs": [],
      "name": "salePrice",
      "outputs": [
        {
          "internalType": "uint256",
          "name": "",
          "type": "uint256"
        }
      ],
      "stateMutability": "view",
      "type": "function"
    },
    {
      "inputs": [
        {
          "internalType": "enum ExpandedNFT.WhoCanMint",
          "name": "minters",
          "type": "uint8"
        }
      ],
      "name": "setAllowedMinter",
      "outputs": [],
      "stateMutability": "nonpayable",
      "type": "function"
    },
    {
      "inputs": [
        {
          "internalType": "address",
          "name": "operator",
          "type": "address"
        },
        {
          "internalType": "bool",
          "name": "approved",
          "type": "bool"
        }
      ],
      "name": "setApprovalForAll",
      "outputs": [],
      "stateMutability": "nonpayable",
      "type": "function"
    },
    {
      "inputs": [
        {
          "internalType": "uint256",
          "name": "count",
          "type": "uint256"
        },
        {
          "internalType": "address[]",
          "name": "minter",
          "type": "address[]"
        },
        {
          "internalType": "bool[]",
          "name": "allowed",
          "type": "bool[]"
        }
      ],
      "name": "setApprovedMinters",
      "outputs": [],
      "stateMutability": "nonpayable",
      "type": "function"
    },
    {
      "inputs": [
        {
          "internalType": "uint256",
          "name": "count",
          "type": "uint256"
        },
        {
          "internalType": "address[]",
          "name": "minter",
          "type": "address[]"
        },
        {
          "internalType": "bool[]",
          "name": "allowed",
          "type": "bool[]"
        }
      ],
      "name": "setApprovedVIPMinters",
      "outputs": [],
      "stateMutability": "nonpayable",
      "type": "function"
    },
    {
      "inputs": [
        {
          "internalType": "address",
          "name": "wallet",
          "type": "address"
        }
      ],
      "name": "setArtistWallet",
      "outputs": [],
      "stateMutability": "nonpayable",
      "type": "function"
    },
    {
      "inputs": [
        {
          "internalType": "uint256",
          "name": "_salePrice",
          "type": "uint256"
        }
      ],
      "name": "setMembersSalePrice",
      "outputs": [],
      "stateMutability": "nonpayable",
      "type": "function"
    },
    {
      "inputs": [
        {
          "internalType": "uint256",
          "name": "tokenId",
          "type": "uint256"
        },
        {
          "internalType": "uint256",
          "name": "fee",
          "type": "uint256"
        }
      ],
      "name": "setOfferTerms",
      "outputs": [],
      "stateMutability": "nonpayable",
      "type": "function"
    },
    {
      "inputs": [
        {
          "internalType": "address",
          "name": "paymentToken",
          "type": "address"
        }
      ],
      "name": "setPaymentToken",
      "outputs": [],
      "stateMutability": "nonpayable",
      "type": "function"
    },
    {
      "inputs": [
        {
          "internalType": "uint256",
          "name": "_royaltyBPS",
          "type": "uint256"
        },
        {
          "internalType": "uint256",
          "name": "_splitBPS",
          "type": "uint256"
        },
        {
          "internalType": "uint256",
          "name": "_vipSalePrice",
          "type": "uint256"
        },
        {
          "internalType": "uint256",
          "name": "_membersSalePrice",
          "type": "uint256"
        },
        {
          "internalType": "uint256",
          "name": "_generalSalePrice",
          "type": "uint256"
        },
        {
          "internalType": "uint256",
          "name": "_vipMintLimit",
          "type": "uint256"
        },
        {
          "internalType": "uint256",
          "name": "_membersMintLimit",
          "type": "uint256"
        },
        {
          "internalType": "uint256",
          "name": "_generalMintLimit",
          "type": "uint256"
        }
      ],
      "name": "setPricing",
      "outputs": [],
      "stateMutability": "nonpayable",
      "type": "function"
    },
    {
      "inputs": [
        {
          "internalType": "uint256",
          "name": "_salePrice",
          "type": "uint256"
        }
      ],
      "name": "setSalePrice",
      "outputs": [],
      "stateMutability": "nonpayable",
      "type": "function"
    },
    {
      "inputs": [
        {
          "internalType": "uint256",
          "name": "vipSalePrice",
          "type": "uint256"
        },
        {
          "internalType": "uint256",
          "name": "membersSalePrice",
          "type": "uint256"
        },
        {
          "internalType": "uint256",
          "name": "generalSalePrice",
          "type": "uint256"
        }
      ],
      "name": "setSalePrices",
      "outputs": [],
      "stateMutability": "nonpayable",
      "type": "function"
    },
    {
      "inputs": [
        {
          "internalType": "uint256",
          "name": "_salePrice",
          "type": "uint256"
        }
      ],
      "name": "setVIPSalePrice",
      "outputs": [],
      "stateMutability": "nonpayable",
      "type": "function"
    },
    {
      "inputs": [
        {
          "internalType": "bytes4",
          "name": "interfaceId",
          "type": "bytes4"
        }
      ],
      "name": "supportsInterface",
      "outputs": [
        {
          "internalType": "bool",
          "name": "",
          "type": "bool"
        }
      ],
      "stateMutability": "view",
      "type": "function"
    },
    {
      "inputs": [],
      "name": "symbol",
      "outputs": [
        {
          "internalType": "string",
          "name": "",
          "type": "string"
        }
      ],
      "stateMutability": "view",
      "type": "function"
    },
    {
      "inputs": [
        {
          "internalType": "uint256",
          "name": "tokenId",
          "type": "uint256"
        }
      ],
      "name": "tokenURI",
      "outputs": [
        {
          "internalType": "string",
          "name": "",
          "type": "string"
        }
      ],
      "stateMutability": "view",
      "type": "function"
    },
    {
      "inputs": [],
      "name": "totalSupply",
      "outputs": [
        {
          "internalType": "uint256",
          "name": "",
          "type": "uint256"
        }
      ],
      "stateMutability": "view",
      "type": "function"
    },
    {
      "inputs": [
        {
          "internalType": "address",
          "name": "from",
          "type": "address"
        },
        {
          "internalType": "address",
          "name": "to",
          "type": "address"
        },
        {
          "internalType": "uint256",
          "name": "tokenId",
          "type": "uint256"
        }
      ],
      "name": "transferFrom",
      "outputs": [],
      "stateMutability": "nonpayable",
      "type": "function"
    },
    {
      "inputs": [
        {
          "internalType": "address",
          "name": "newOwner",
          "type": "address"
        }
      ],
      "name": "transferOwnership",
      "outputs": [],
      "stateMutability": "nonpayable",
      "type": "function"
    },
    {
      "inputs": [
        {
          "internalType": "uint256",
          "name": "tokenId",
          "type": "uint256"
        },
        {
          "internalType": "string",
          "name": "imageUrl",
          "type": "string"
        },
        {
          "internalType": "string",
          "name": "animationUrl",
          "type": "string"
        }
      ],
      "name": "updateEditionURLs",
      "outputs": [],
      "stateMutability": "nonpayable",
      "type": "function"
    },
    {
      "inputs": [],
      "name": "withdraw",
      "outputs": [],
      "stateMutability": "nonpayable",
      "type": "function"
    }
  ],
  "transactionHash": "0xc4c7e2150e8144a483087fbcb587ffb1d7a60b770ef9c919fece50f06de249db",
  "args": [
    "0x355a9bd0D92c77241A713BcaaB429e31802a7F4f"
  ],
  "solcInputHash": "407a34bf5e3fdd8bd7e1dadda90f1e5c",
  "bytecode": "0x60a06040523480156200001157600080fd5b50604051620046bb380380620046bb833981016040819052620000349162000050565b6001600160a01b031660805260db805460ff1916905562000082565b6000602082840312156200006357600080fd5b81516001600160a01b03811681146200007b57600080fd5b9392505050565b60805161461d6200009e6000396000612086015261461d6000f3fe6080604052600436106102bf5760003560e01c80636a326ab111610170578063b88d4fde116100cc578063de5d62a011610085578063de5d62a01461083f578063e985e9c51461085f578063ee5df5501461087f578063f2fde38b1461089f578063f51f96dd146108bf578063fc51e0c3146108d5578063fce57fd91461090357600080fd5b8063b88d4fde14610781578063bf82ae49146107a1578063c87b56dd146107c1578063d41c3a65146107e1578063db006a75146107ff578063dd5c71641461081f57600080fd5b80637d0eeace116101295780637d0eeace146106c45780638c503ca4146106e45780638da5cb5b1461070457806395d89b4114610719578063a22cb4651461072e578063a66ff0af1461074e578063abb689e11461076157600080fd5b80636a326ab11461060f57806370a082311461062f578063715018a61461064f578063787e5efc14610664578063799b7c5f146106845780637b422c4c146106a457600080fd5b80633892aa521161021f57806342842e0e116101d857806342842e0e1461053757806342966c681461055757806352c9143e146105775780636352211e1461059757806364e9293e146105b757806364edfbf0146105e757806369e1cac1146105ef57600080fd5b80633892aa521461048e57806339277415146104ae57806339dc13bc146104cc5780633ccfd60b146104ec5780633da165d414610501578063410a10951461051757600080fd5b80630f6a93491161027c5780630f6a9349146103b857806318160ddd146103cb5780631919fed7146103e057806323b872dd146104005780632a55205a14610420578063367de39e1461044e57806336f3ec761461046e57600080fd5b806301ffc9a7146102c4578063036c8ea1146102f957806306fdde031461031b578063081812fc1461033d578063095ea7b3146103755780630b65b6e714610395575b600080fd5b3480156102d057600080fd5b506102e46102df36600461356b565b610923565b60405190151581526020015b60405180910390f35b34801561030557600080fd5b50610319610314366004613588565b61094e565b005b34801561032757600080fd5b506103306109aa565b6040516102f09190613635565b34801561034957600080fd5b5061035d610358366004613648565b610a3c565b6040516001600160a01b0390911681526020016102f0565b34801561038157600080fd5b5061031961039036600461367d565b610a63565b3480156103a157600080fd5b506103aa610b7d565b6040519081526020016102f0565b6103aa6103c6366004613710565b610ba0565b3480156103d757600080fd5b506103aa610c79565b3480156103ec57600080fd5b506103196103fb366004613648565b610c8a565b34801561040c57600080fd5b5061031961041b3660046137ac565b610d17565b34801561042c57600080fd5b5061044061043b3660046137e8565b610d49565b6040516102f092919061380a565b34801561045a57600080fd5b50610319610469366004613823565b610da5565b34801561047a57600080fd5b50610319610489366004613844565b610e80565b34801561049a57600080fd5b506103196104a93660046138b4565b610ebd565b3480156104ba57600080fd5b5060c9546001600160a01b031661035d565b3480156104d857600080fd5b506103196104e7366004613648565b610f64565b3480156104f857600080fd5b50610319611040565b34801561050d57600080fd5b506103aa60cb5481565b34801561052357600080fd5b5060db5460ff166040516102f09190613943565b34801561054357600080fd5b506103196105523660046137ac565b61109f565b34801561056357600080fd5b50610319610572366004613648565b6110ba565b34801561058357600080fd5b506103196105923660046139eb565b6110eb565b3480156105a357600080fd5b5061035d6105b2366004613648565b611229565b3480156105c357600080fd5b506105d76105d2366004613648565b61125e565b6040516102f09493929190613abe565b6103aa6113b2565b3480156105fb57600080fd5b5061031961060a366004613afb565b6114ef565b34801561061b57600080fd5b5061031961062a366004613b66565b6115b6565b34801561063b57600080fd5b506103aa61064a366004613b66565b6116a6565b34801561065b57600080fd5b5061031961172c565b34801561067057600080fd5b5061031961067f366004613648565b611740565b34801561069057600080fd5b5061031961069f3660046138b4565b611760565b3480156106b057600080fd5b506103196106bf366004613648565b6117ff565b3480156106d057600080fd5b506103196106df366004613648565b6118ab565b3480156106f057600080fd5b506103196106ff366004613b81565b611bec565b34801561071057600080fd5b5061035d611c31565b34801561072557600080fd5b50610330611c45565b34801561073a57600080fd5b50610319610749366004613bfb565b611c54565b6103aa61075c366004613b66565b611c63565b34801561076d57600080fd5b5061031961077c366004613648565b611d70565b34801561078d57600080fd5b5061031961079c366004613c32565b611f45565b3480156107ad57600080fd5b506103196107bc366004613648565b611f77565b3480156107cd57600080fd5b506103306107dc366004613648565b61205d565b3480156107ed57600080fd5b5060de546001600160a01b031661035d565b34801561080b57600080fd5b5061031961081a366004613648565b612145565b34801561082b57600080fd5b5061031961083a366004613d92565b612212565b34801561084b57600080fd5b5061031961085a366004613648565b6124fd565b34801561086b57600080fd5b506102e461087a366004613ed9565b61251e565b34801561088b57600080fd5b5061031961089a3660046137e8565b61254c565b3480156108ab57600080fd5b506103196108ba366004613b66565b612630565b3480156108cb57600080fd5b506103aa60dd5481565b3480156108e157600080fd5b506108f56108f0366004613648565b6126a6565b6040516102f0929190613f0c565b34801561090f57600080fd5b5061031961091e366004613b66565b612759565b600063152a902d60e11b6001600160e01b031983161480610948575061094882612783565b92915050565b6109566127d3565b60d288905560d387905560d486905560d585905560dd84905560d683905560d782905560d88190556040518481526000805160206145c8833981519152906020015b60405180910390a15050505050505050565b6060606580546109b990613f2e565b80601f01602080910402602001604051908101604052809291908181526020018280546109e590613f2e565b8015610a325780601f10610a0757610100808354040283529160200191610a32565b820191906000526020600020905b815481529060010190602001808311610a1557829003601f168201915b5050505050905090565b6000610a4782612832565b506000908152606960205260409020546001600160a01b031690565b6000610a6e82611229565b9050806001600160a01b0316836001600160a01b031603610ae05760405162461bcd60e51b815260206004820152602160248201527f4552433732313a20617070726f76616c20746f2063757272656e74206f776e656044820152603960f91b60648201526084015b60405180910390fd5b336001600160a01b0382161480610afc5750610afc813361251e565b610b6e5760405162461bcd60e51b815260206004820152603e60248201527f4552433732313a20617070726f76652063616c6c6572206973206e6f7420746f60448201527f6b656e206f776e6572206e6f7220617070726f76656420666f7220616c6c00006064820152608401610ad7565b610b788383612857565b505050565b600060d15460cb546001610b919190613f7e565b610b9b9190613f96565b905090565b6000610baa6128c5565b610bc65760405162461bcd60e51b8152600401610ad790613fad565b6000610bd06129a4565b905060008111610bf25760405162461bcd60e51b8152600401610ad790613fe4565b8251610bfe908261400a565b3414610c1c5760405162461bcd60e51b8152600401610ad790614029565b610c24612a15565b835133600090815260dc6020526040902054600191610c4291613f7e565b610c4c9190613f96565b10610c695760405162461bcd60e51b8152600401610ad79061404e565b610c7283612a86565b9392505050565b6000600160d154610b9b9190613f96565b610c926127d3565b60dd81905560db80546003919060ff19166001835b021790555060db546040517f40cb75607c032a2aac1c3565feb3b70e354cbd56e8f8fa36773cba5750464c5191610ce39160ff90911690613943565b60405180910390a16000805160206145c883398151915260dd54604051610d0c91815260200190565b60405180910390a150565b610d22335b82612d6d565b610d3e5760405162461bcd60e51b8152600401610ad79061407b565b610b78838383612dcb565b60008080610d55611c31565b6001600160a01b031603610d7657610d6b611c31565b600091509150610d9e565b610d7e611c31565b60d25461271090610d8f908661400a565b610d9991906140c9565b915091505b9250929050565b610dad6127d3565b6000816003811115610dc157610dc161392d565b10158015610de157506003816003811115610dde57610dde61392d565b11155b610e2d5760405162461bcd60e51b815260206004820152601f60248201527f4e6565647320746f20626520612076616c6964206d696e7465722074797065006044820152606401610ad7565b60db805482919060ff19166001836003811115610e4c57610e4c61392d565b02179055507f40cb75607c032a2aac1c3565feb3b70e354cbd56e8f8fa36773cba5750464c5181604051610d0c9190613943565b610e886127d3565b60d483905560d582905560dd8190556040518181526000805160206145c88339815191529060200160405180910390a1505050565b610ec56127d3565b60005b85811015610f5c57828282818110610ee257610ee26140eb565b9050602002016020810190610ef79190614101565b60da6000878785818110610f0d57610f0d6140eb565b9050602002016020810190610f229190613b66565b6001600160a01b031681526020810191909152604001600020805460ff191691151591909117905580610f548161411e565b915050610ec8565b505050505050565b610f6d81612f55565b610f895760405162461bcd60e51b8152600401610ad790614137565b610f9233610d1c565b610fae5760405162461bcd60e51b8152600401610ad790614159565b6003600082815260ca602052604090205460ff166007811115610fd357610fd361392d565b14610ff05760405162461bcd60e51b8152600401610ad79061417f565b600081815260ca6020526040902080546001919060ff191682805b02179055506040518181527facb9cd98d41dc8854281172ab2a764d949b62b51776edd911f85376ed2eca64b90602001610d0c565b6110486127d3565b60d35447906000906127109061105e908461400a565b61106891906140c9565b905060006110768284613f96565b9050611089611083611c31565b83612f72565b60c954610b78906001600160a01b031682612f72565b610b7883838360405180602001604052806000815250611f45565b6110c333610d1c565b6110df5760405162461bcd60e51b8152600401610ad790614159565b6110e88161308b565b50565b6110f36127d3565b6110fc88612f55565b6111185760405162461bcd60e51b8152600401610ad790614137565b6004600089815260ca602052604090205460ff16600781111561113d5761113d61392d565b1461115a5760405162461bcd60e51b8152600401610ad79061417f565b600088815260ca6020526040902060020161117588826141fc565b50600088815260ca6020526040902060070161119187826141fc565b50600088815260ca60205260409020600881018690556009016111b485826141fc565b50600088815260ca60205260409020600a8101849055600b016111d783826141fc565b50600088815260ca6020908152604091829020600c8101849055805460ff1916600617905590518981527fadb6d4f651f6fbf8b37026019ee48fdb86abf9ec94eb4a5f0acf72ad8c7872a39101610998565b6000818152606760205260408120546001600160a01b0316806109485760405162461bcd60e51b8152600401610ad7906142bb565b600081815260ca602052604081206006810154600482015460058301805460609594869486949092600390920191849061129790613f2e565b80601f01602080910402602001604051908101604052809291908181526020018280546112c390613f2e565b80156113105780601f106112e557610100808354040283529160200191611310565b820191906000526020600020905b8154815290600101906020018083116112f357829003601f168201915b5050505050935081805461132390613f2e565b80601f016020809104026020016040519081016040528092919081815260200182805461134f90613f2e565b801561139c5780601f106113715761010080835404028352916020019161139c565b820191906000526020600020905b81548152906001019060200180831161137f57829003601f168201915b5050505050915093509350935093509193509193565b60006113bc6128c5565b6113d85760405162461bcd60e51b8152600401610ad790613fad565b60006113e26129a4565b9050600081116114045760405162461bcd60e51b8152600401610ad790613fe4565b8034146114235760405162461bcd60e51b8152600401610ad790614029565b61142b612a15565b33600090815260dc6020526040902054106114585760405162461bcd60e51b8152600401610ad79061404e565b60408051600180825281830190925260009160208083019080368337019050509050338160008151811061148e5761148e6140eb565b6001600160a01b039092166020928302919091018201526040805184815233928101929092527f60a6c75698fadb72223808131f9f9bb9db3afa32122db6d94fb8fc985a504baa910160405180910390a16114e881612a86565b9250505090565b6114f76127d3565b60005b838110156115af57848482818110611514576115146140eb565b90506020020160208101906115299190613b66565b60cc54600090815260cd6020526040902080546001600160a01b0319166001600160a01b039290921691909117905582828281811061156a5761156a6140eb565b60cc8054600090815260ce602090815260408220930294909401359091558054929091506115978361411e565b919050555080806115a79061411e565b9150506114fa565b5050505050565b6115be6127d3565b60de546001600160a01b0316156116845760de546040516370a0823160e01b81523060048201526001600160a01b03909116906370a0823190602401602060405180830381865afa158015611617573d6000803e3d6000fd5b505050506040513d601f19601f8201168201806040525081019061163b91906142ed565b156116845760405162461bcd60e51b8152602060048201526019602482015278746f6b656e206d757374206861766520302062616c616e636560381b6044820152606401610ad7565b60de80546001600160a01b0319166001600160a01b0392909216919091179055565b60006001600160a01b0382166117105760405162461bcd60e51b815260206004820152602960248201527f4552433732313a2061646472657373207a65726f206973206e6f7420612076616044820152683634b21037bbb732b960b91b6064820152608401610ad7565b506001600160a01b031660009081526068602052604090205490565b6117346127d3565b61173e6000613114565b565b6117486127d3565b60d481905560db80546001919060ff19168280610ca7565b6117686127d3565b60005b85811015610f5c57828282818110611785576117856140eb565b905060200201602081019061179a9190614101565b60d960008787858181106117b0576117b06140eb565b90506020020160208101906117c59190613b66565b6001600160a01b031681526020810191909152604001600020805460ff1916911515919091179055806117f78161411e565b91505061176b565b61180881612f55565b6118245760405162461bcd60e51b8152600401610ad790614137565b61182d33610d1c565b6118495760405162461bcd60e51b8152600401610ad790614159565b6006600082815260ca602052604090205460ff16600781111561186e5761186e61392d565b1461188b5760405162461bcd60e51b8152600401610ad79061417f565b600081815260ca6020526040902080546007919060ff191660018361100b565b6118b481612f55565b6118d05760405162461bcd60e51b8152600401610ad790614137565b6118d933610d1c565b6118f55760405162461bcd60e51b8152600401610ad790614159565b6003600082815260ca602052604090205460ff16600781111561191a5761191a61392d565b146119375760405162461bcd60e51b8152600401610ad79061417f565b60de54600082815260ca60205260409081902060010154905163095ea7b360e01b81526001600160a01b039092169163095ea7b39161197b9130919060040161380a565b6020604051808303816000875af115801561199a573d6000803e3d6000fd5b505050506040513d601f19601f820116820180604052508101906119be9190614306565b5060de546001600160a01b031663dd62ed3e33306040518363ffffffff1660e01b81526004016119ef929190614323565b602060405180830381865afa158015611a0c573d6000803e3d6000fd5b505050506040513d601f19601f82011682018060405250810190611a3091906142ed565b15611a725760405162461bcd60e51b81526020600482015260126024820152714e6f6e207a65726f20616c6c6f77616e636560701b6044820152606401610ad7565b60de54600082815260ca60205260409081902060010154905163095ea7b360e01b81526001600160a01b039092169163095ea7b391611ab69130919060040161380a565b6020604051808303816000875af1158015611ad5573d6000803e3d6000fd5b505050506040513d601f19601f82011682018060405250810190611af99190614306565b50600081815260ca602052604090206001015460de546001600160a01b031663dd62ed3e33306040518363ffffffff1660e01b8152600401611b3c929190614323565b602060405180830381865afa158015611b59573d6000803e3d6000fd5b505050506040513d601f19601f82011682018060405250810190611b7d91906142ed565b1015611b9b5760405162461bcd60e51b8152600401610ad79061433d565b600081815260ca6020526040902080546005919060ff19166001835b02179055506040518181527f9bd6b4fd288008520fd788a93304e5688a401aea817ea8140ecf1fb8648f319190602001610d0c565b611bf46127d3565b600083815260ca60205260409020600501611c0f83826141fc565b50600083815260ca60205260409020600301611c2b82826141fc565b50505050565b6000610b9b6097546001600160a01b031690565b6060606680546109b990613f2e565b611c5f338383613166565b5050565b6000611c6d6128c5565b611c895760405162461bcd60e51b8152600401610ad790613fad565b6000611c936129a4565b905060008111611cb55760405162461bcd60e51b8152600401610ad790613fe4565b803414611cd45760405162461bcd60e51b8152600401610ad790614029565b611cdc612a15565b33600090815260dc602052604090205410611d095760405162461bcd60e51b8152600401610ad79061404e565b604080516001808252818301909252600091602080830190803683370190505090508381600081518110611d3f57611d3f6140eb565b60200260200101906001600160a01b031690816001600160a01b031681525050611d6881612a86565b949350505050565b611d7981612f55565b611d955760405162461bcd60e51b8152600401610ad790614137565b611d9e33610d1c565b611dba5760405162461bcd60e51b8152600401610ad790614159565b6005600082815260ca602052604090205460ff166007811115611ddf57611ddf61392d565b14611dfc5760405162461bcd60e51b8152600401610ad79061417f565b60de54600082815260ca60205260409081902060010154905163095ea7b360e01b81526001600160a01b039092169163095ea7b391611e409130919060040161380a565b6020604051808303816000875af1158015611e5f573d6000803e3d6000fd5b505050506040513d601f19601f82011682018060405250810190611e839190614306565b50600081815260ca602052604090206001015460de546001600160a01b031663dd62ed3e33306040518363ffffffff1660e01b8152600401611ec6929190614323565b602060405180830381865afa158015611ee3573d6000803e3d6000fd5b505050506040513d601f19601f82011682018060405250810190611f0791906142ed565b1015611f255760405162461bcd60e51b8152600401610ad79061433d565b600081815260ca6020526040902080546004919060ff1916600183611bb7565b611f4f3383612d6d565b611f6b5760405162461bcd60e51b8152600401610ad79061407b565b611c2b84848484613230565b611f8081612f55565b611f9c5760405162461bcd60e51b8152600401610ad790614137565b611fa533610d1c565b611fc15760405162461bcd60e51b8152600401610ad790614159565b6002600082815260ca602052604090205460ff166007811115611fe657611fe661392d565b146120035760405162461bcd60e51b8152600401610ad79061417f565b600081815260ca60205260409020805460ff191660011790557f6c7c9f699aacfa5bacd2758023ab209b2d1e1c237bfa752bdc94cb87878cf1b781335b604080519283526001600160a01b03909116602083015201610d0c565b606061206882612f55565b6120845760405162461bcd60e51b8152600401610ad790614137565b7f00000000000000000000000000000000000000000000000000000000000000006001600160a01b031663df30dba06120bb6109aa565b600085815260ca60205260409081902060cb5491516001600160e01b031960e086901b1681526121009392600283019260058101926003909101918a916004016143d7565b600060405180830381865afa15801561211d573d6000803e3d6000fd5b505050506040513d6000823e601f3d908101601f19168201604052610948919081019061443a565b61214e81612f55565b61216a5760405162461bcd60e51b8152600401610ad790614137565b61217333610d1c565b61218f5760405162461bcd60e51b8152600401610ad790614159565b6001600082815260ca602052604090205460ff1660078111156121b4576121b461392d565b146121d15760405162461bcd60e51b8152600401610ad79061417f565b600081815260ca60205260409020805460ff191660021790557fc290e40808ef06721539ad0d926f8d5f53d2dd6d5e28334308a012676f8674168133612040565b600054610100900460ff16158080156122325750600054600160ff909116105b8061224c5750303b15801561224c575060005460ff166001145b6122af5760405162461bcd60e51b815260206004820152602e60248201527f496e697469616c697a61626c653a20636f6e747261637420697320616c72656160448201526d191e481a5b9a5d1a585b1a5e995960921b6064820152608401610ad7565b6000805460ff1916600117905580156122d2576000805461ff0019166101001790555b6000871161231a5760405162461bcd60e51b8152602060048201526015602482015274044726f702073697a65206d757374206265203e203605c1b6044820152606401610ad7565b6123248989613263565b61232c613294565b6123358b612630565b60c980546001600160a01b0319166001600160a01b038c1617905560cb879055600160d081905560d15560005b60cb548110156124a9576000612379826001613f7e565b905087828151811061238d5761238d6140eb565b602002602001015160ca600083815260200190815260200160002060020190816123b791906141fc565b508682815181106123ca576123ca6140eb565b602002602001015160ca600083815260200190815260200160002060030190816123f491906141fc565b50858281518110612407576124076140eb565b602002602001015160ca60008381526020019081526020016000206004018190555084828151811061243b5761243b6140eb565b602002602001015160ca6000838152602001908152602001600020600501908161246591906141fc565b50838281518110612478576124786140eb565b602090810291909101810151600092835260ca909152604090912060060155806124a18161411e565b915050612362565b5080156124f0576000805461ff0019169055604051600181527f7f26b83ff96e1f2b6a682f133852f6798a09c465da95921460cefb38474024989060200160405180910390a15b5050505050505050505050565b6125056127d3565b60d581905560db80546002919060ff1916600183610ca7565b6001600160a01b039182166000908152606a6020908152604080832093909416825291909152205460ff1690565b6125546127d3565b61255d82612f55565b6125795760405162461bcd60e51b8152600401610ad790614137565b6002600083815260ca602052604090205460ff16600781111561259e5761259e61392d565b146125d95760405162461bcd60e51b815260206004820152600b60248201526a57726f6e6720737461746560a81b6044820152606401610ad7565b600082815260ca6020908152604091829020805460ff1916600317815560010183905590518381527f316b408b8cf323e8f20ef7a8c267eedc89bef19ca5db7fc30be938e55bf068f9910160405180910390a15050565b6126386127d3565b6001600160a01b03811661269d5760405162461bcd60e51b815260206004820152602660248201527f4f776e61626c653a206e6577206f776e657220697320746865207a65726f206160448201526564647265737360d01b6064820152608401610ad7565b6110e881613114565b600081815260ca60205260408120600c810154600b9091018054606093929082906126d090613f2e565b80601f01602080910402602001604051908101604052809291908181526020018280546126fc90613f2e565b80156127495780601f1061271e57610100808354040283529160200191612749565b820191906000526020600020905b81548152906001019060200180831161272c57829003601f168201915b5050505050915091509150915091565b6127616127d3565b60c980546001600160a01b0319166001600160a01b0392909216919091179055565b60006001600160e01b031982166380ac58cd60e01b14806127b457506001600160e01b03198216635b5e139f60e01b145b8061094857506301ffc9a760e01b6001600160e01b0319831614610948565b336127dc611c31565b6001600160a01b03161461173e5760405162461bcd60e51b815260206004820181905260248201527f4f776e61626c653a2063616c6c6572206973206e6f7420746865206f776e65726044820152606401610ad7565b61283b81612f55565b6110e85760405162461bcd60e51b8152600401610ad7906142bb565b600081815260696020526040902080546001600160a01b0319166001600160a01b038416908117909155819061288c82611229565b6001600160a01b03167f8c5be1e5ebec7d5bd14f71427d1e84f3dd0314c0f7b2291e5b200ac8c7c3b92560405160405180910390a45050565b6000600360db5460ff1660038111156128e0576128e061392d565b036128eb5750600190565b600260db5460ff1660038111156129045761290461392d565b036129455733600090815260da602052604090205460ff16156129275750600190565b33600090815260d9602052604090205460ff16156129455750600190565b600160db5460ff16600381111561295e5761295e61392d565b036129815733600090815260da602052604090205460ff16156129815750600190565b3361298a611c31565b6001600160a01b03160361299e5750600190565b50600090565b6000600160db5460ff1660038111156129bf576129bf61392d565b036129cb575060d45490565b600260db5460ff1660038111156129e4576129e461392d565b036129f0575060d55490565b600360db5460ff166003811115612a0957612a0961392d565b0361299e575060dd5490565b6000600160db5460ff166003811115612a3057612a3061392d565b03612a3c575060d65490565b600260db5460ff166003811115612a5557612a5561392d565b03612a61575060d75490565b600360db5460ff166003811115612a7a57612a7a61392d565b0361299e575060d85490565b60003360018060db5460ff166003811115612aa357612aa361392d565b03612c28576000805b60cc54811015612bd55760005b8651811015612bc257600082815260cd60205260409020546001600160a01b03808716911603612bb057600082815260ce602090815260408083205480845260cf909252822054909160ff90911615159003612bae57612b32888381518110612b2457612b246140eb565b6020026020010151826132c3565b600081815260ca602090815260408083208054600160ff19918216811790925560cf8452828520805490911690911790556001600160a01b038916835260dc9091528120805491612b828361411e565b909155505060d18054906000612b978361411e565b91905055508380612ba79061411e565b9450508094505b505b80612bba8161411e565b915050612ab9565b5080612bcd8161411e565b915050612aac565b5084518114612c205760405162461bcd60e51b81526020600482015260176024820152764e6f7420656e6f756768207265736572766174696f6e7360481b6044820152606401610ad7565b509392505050565b600160005b8551811015612d64575b600082815260cf602052604090205460ff1615156001148015612c66575060cb54612c63906001613f7e565b82105b15612c7d5781612c758161411e565b925050612c37565b60cb54612c8b906001613f7e565b8210612cc45760405162461bcd60e51b815260206004820152600860248201526714dbdb19081bdd5d60c21b6044820152606401610ad7565b612ce7868281518110612cd957612cd96140eb565b6020026020010151836132c3565b600082815260ca602090815260408083208054600160ff19918216811790925560cf8452828520805490911690911790556001600160a01b038716835260dc9091528120805491612d378361411e565b909155505060d18054906000612d4c8361411e565b91905055508080612d5c9061411e565b915050612c2d565b50949350505050565b600080612d7983611229565b9050806001600160a01b0316846001600160a01b03161480612da05750612da0818561251e565b80611d685750836001600160a01b0316612db984610a3c565b6001600160a01b031614949350505050565b826001600160a01b0316612dde82611229565b6001600160a01b031614612e425760405162461bcd60e51b815260206004820152602560248201527f4552433732313a207472616e736665722066726f6d20696e636f72726563742060448201526437bbb732b960d91b6064820152608401610ad7565b6001600160a01b038216612ea45760405162461bcd60e51b8152602060048201526024808201527f4552433732313a207472616e7366657220746f20746865207a65726f206164646044820152637265737360e01b6064820152608401610ad7565b612eaf600082612857565b6001600160a01b0383166000908152606860205260408120805460019290612ed8908490613f96565b90915550506001600160a01b0382166000908152606860205260408120805460019290612f06908490613f7e565b909155505060008181526067602052604080822080546001600160a01b0319166001600160a01b0386811691821790925591518493918716916000805160206145a883398151915291a4505050565b6000908152606760205260409020546001600160a01b0316151590565b80471015612fc25760405162461bcd60e51b815260206004820152601d60248201527f416464726573733a20696e73756666696369656e742062616c616e63650000006044820152606401610ad7565b6000826001600160a01b03168260405160006040518083038185875af1925050503d806000811461300f576040519150601f19603f3d011682016040523d82523d6000602084013e613014565b606091505b5050905080610b785760405162461bcd60e51b815260206004820152603a60248201527f416464726573733a20756e61626c6520746f2073656e642076616c75652c207260448201527f6563697069656e74206d617920686176652072657665727465640000000000006064820152608401610ad7565b600061309682611229565b90506130a3600083612857565b6001600160a01b03811660009081526068602052604081208054600192906130cc908490613f96565b909155505060008281526067602052604080822080546001600160a01b0319169055518391906001600160a01b038416906000805160206145a8833981519152908390a45050565b609780546001600160a01b038381166001600160a01b0319831681179093556040519116919082907f8be0079c531659141344cd1fd0a4f28419497f9722a3daafe3b4186f6b6457e090600090a35050565b816001600160a01b0316836001600160a01b0316036131c35760405162461bcd60e51b815260206004820152601960248201527822a9219b99189d1030b8383937bb32903a379031b0b63632b960391b6044820152606401610ad7565b6001600160a01b038381166000818152606a6020908152604080832094871680845294825291829020805460ff191686151590811790915591519182527f17307eab39ab6107e8899845ad3d59bd9653f200f220920489ca2b5937696c31910160405180910390a3505050565b61323b848484612dcb565b613247848484846133e4565b611c2b5760405162461bcd60e51b8152600401610ad7906144b0565b600054610100900460ff1661328a5760405162461bcd60e51b8152600401610ad790614502565b611c5f82826134e5565b600054610100900460ff166132bb5760405162461bcd60e51b8152600401610ad790614502565b61173e613525565b6001600160a01b0382166133195760405162461bcd60e51b815260206004820181905260248201527f4552433732313a206d696e7420746f20746865207a65726f20616464726573736044820152606401610ad7565b61332281612f55565b1561336f5760405162461bcd60e51b815260206004820152601c60248201527f4552433732313a20746f6b656e20616c7265616479206d696e746564000000006044820152606401610ad7565b6001600160a01b0382166000908152606860205260408120805460019290613398908490613f7e565b909155505060008181526067602052604080822080546001600160a01b0319166001600160a01b03861690811790915590518392906000805160206145a8833981519152908290a45050565b60006001600160a01b0384163b156134da57604051630a85bd0160e11b81526001600160a01b0385169063150b7a029061342890339089908890889060040161454d565b6020604051808303816000875af1925050508015613463575060408051601f3d908101601f191682019092526134609181019061458a565b60015b6134c0573d808015613491576040519150601f19603f3d011682016040523d82523d6000602084013e613496565b606091505b5080516000036134b85760405162461bcd60e51b8152600401610ad7906144b0565b805181602001fd5b6001600160e01b031916630a85bd0160e11b149050611d68565b506001949350505050565b600054610100900460ff1661350c5760405162461bcd60e51b8152600401610ad790614502565b606561351883826141fc565b506066610b7882826141fc565b600054610100900460ff1661354c5760405162461bcd60e51b8152600401610ad790614502565b61173e33613114565b6001600160e01b0319811681146110e857600080fd5b60006020828403121561357d57600080fd5b8135610c7281613555565b600080600080600080600080610100898b0312156135a557600080fd5b505086359860208801359850604088013597606081013597506080810135965060a0810135955060c0810135945060e0013592509050565b60005b838110156135f85781810151838201526020016135e0565b83811115611c2b5750506000910152565b600081518084526136218160208601602086016135dd565b601f01601f19169290920160200192915050565b602081526000610c726020830184613609565b60006020828403121561365a57600080fd5b5035919050565b80356001600160a01b038116811461367857600080fd5b919050565b6000806040838503121561369057600080fd5b61369983613661565b946020939093013593505050565b634e487b7160e01b600052604160045260246000fd5b604051601f8201601f191681016001600160401b03811182821017156136e5576136e56136a7565b604052919050565b60006001600160401b03821115613706576137066136a7565b5060051b60200190565b6000602080838503121561372357600080fd5b82356001600160401b0381111561373957600080fd5b8301601f8101851361374a57600080fd5b803561375d613758826136ed565b6136bd565b81815260059190911b8201830190838101908783111561377c57600080fd5b928401925b828410156137a15761379284613661565b82529284019290840190613781565b979650505050505050565b6000806000606084860312156137c157600080fd5b6137ca84613661565b92506137d860208501613661565b9150604084013590509250925092565b600080604083850312156137fb57600080fd5b50508035926020909101359150565b6001600160a01b03929092168252602082015260400190565b60006020828403121561383557600080fd5b813560048110610c7257600080fd5b60008060006060848603121561385957600080fd5b505081359360208301359350604090920135919050565b60008083601f84011261388257600080fd5b5081356001600160401b0381111561389957600080fd5b6020830191508360208260051b8501011115610d9e57600080fd5b6000806000806000606086880312156138cc57600080fd5b8535945060208601356001600160401b03808211156138ea57600080fd5b6138f689838a01613870565b9096509450604088013591508082111561390f57600080fd5b5061391c88828901613870565b969995985093965092949392505050565b634e487b7160e01b600052602160045260246000fd5b602081016004831061396557634e487b7160e01b600052602160045260246000fd5b91905290565b60006001600160401b03821115613984576139846136a7565b50601f01601f191660200190565b60006139a06137588461396b565b90508281528383830111156139b457600080fd5b828260208301376000602084830101529392505050565b600082601f8301126139dc57600080fd5b610c7283833560208501613992565b600080600080600080600080610100898b031215613a0857600080fd5b8835975060208901356001600160401b0380821115613a2657600080fd5b613a328c838d016139cb565b985060408b0135915080821115613a4857600080fd5b613a548c838d016139cb565b975060608b0135965060808b0135915080821115613a7157600080fd5b613a7d8c838d016139cb565b955060a08b0135945060c08b0135915080821115613a9a57600080fd5b50613aa78b828c016139cb565b92505060e089013590509295985092959890939650565b608081526000613ad16080830187613609565b8560208401528281036040840152613ae98186613609565b91505082606083015295945050505050565b60008060008060408587031215613b1157600080fd5b84356001600160401b0380821115613b2857600080fd5b613b3488838901613870565b90965094506020870135915080821115613b4d57600080fd5b50613b5a87828801613870565b95989497509550505050565b600060208284031215613b7857600080fd5b610c7282613661565b600080600060608486031215613b9657600080fd5b8335925060208401356001600160401b0380821115613bb457600080fd5b613bc0878388016139cb565b93506040860135915080821115613bd657600080fd5b50613be3868287016139cb565b9150509250925092565b80151581146110e857600080fd5b60008060408385031215613c0e57600080fd5b613c1783613661565b91506020830135613c2781613bed565b809150509250929050565b60008060008060808587031215613c4857600080fd5b613c5185613661565b9350613c5f60208601613661565b92506040850135915060608501356001600160401b03811115613c8157600080fd5b8501601f81018713613c9257600080fd5b613ca187823560208401613992565b91505092959194509250565b600082601f830112613cbe57600080fd5b81356020613cce613758836136ed565b82815260059290921b84018101918181019086841115613ced57600080fd5b8286015b84811015613d2c5780356001600160401b03811115613d105760008081fd5b613d1e8986838b01016139cb565b845250918301918301613cf1565b509695505050505050565b600082601f830112613d4857600080fd5b81356020613d58613758836136ed565b82815260059290921b84018101918181019086841115613d7757600080fd5b8286015b84811015613d2c5780358352918301918301613d7b565b6000806000806000806000806000806101408b8d031215613db257600080fd5b613dbb8b613661565b9950613dc960208c01613661565b985060408b01356001600160401b0380821115613de557600080fd5b613df18e838f016139cb565b995060608d0135915080821115613e0757600080fd5b613e138e838f016139cb565b985060808d0135975060a08d0135915080821115613e3057600080fd5b613e3c8e838f01613cad565b965060c08d0135915080821115613e5257600080fd5b613e5e8e838f01613cad565b955060e08d0135915080821115613e7457600080fd5b613e808e838f01613d37565b94506101008d0135915080821115613e9757600080fd5b613ea38e838f01613cad565b93506101208d0135915080821115613eba57600080fd5b50613ec78d828e01613d37565b9150509295989b9194979a5092959850565b60008060408385031215613eec57600080fd5b613ef583613661565b9150613f0360208401613661565b90509250929050565b604081526000613f1f6040830185613609565b90508260208301529392505050565b600181811c90821680613f4257607f821691505b602082108103613f6257634e487b7160e01b600052602260045260246000fd5b50919050565b634e487b7160e01b600052601160045260246000fd5b60008219821115613f9157613f91613f68565b500190565b600082821015613fa857613fa8613f68565b500390565b6020808252601d908201527f4e6565647320746f20626520616e20616c6c6f776564206d696e746572000000604082015260600190565b6020808252600c908201526b4e6f7420666f722073616c6560a01b604082015260600190565b600081600019048311821515161561402457614024613f68565b500290565b6020808252600b908201526a57726f6e6720707269636560a81b604082015260600190565b602080825260139082015272115e18d959591959081b5a5b9d081b1a5b5a5d606a1b604082015260600190565b6020808252602e908201527f4552433732313a2063616c6c6572206973206e6f7420746f6b656e206f776e6560408201526d1c881b9bdc88185c1c1c9bdd995960921b606082015260800190565b6000826140e657634e487b7160e01b600052601260045260246000fd5b500490565b634e487b7160e01b600052603260045260246000fd5b60006020828403121561411357600080fd5b8135610c7281613bed565b60006001820161413057614130613f68565b5060010190565b6020808252600890820152672737903a37b5b2b760c11b604082015260600190565b6020808252600c908201526b139bdd08185c1c1c9bdd995960a21b604082015260600190565b6020808252601c908201527f596f752063757272656e746c792063616e206e6f742072656465656d00000000604082015260600190565b601f821115610b7857600081815260208120601f850160051c810160208610156141dd5750805b601f850160051c820191505b81811015610f5c578281556001016141e9565b81516001600160401b03811115614215576142156136a7565b614229816142238454613f2e565b846141b6565b602080601f83116001811461425e57600084156142465750858301515b600019600386901b1c1916600185901b178555610f5c565b600085815260208120601f198616915b8281101561428d5788860151825594840194600190910190840161426e565b50858210156142ab5787850151600019600388901b60f8161c191681555b5050505050600190811b01905550565b602080825260189082015277115490cdcc8c4e881a5b9d985b1a59081d1bdad95b88125160421b604082015260600190565b6000602082840312156142ff57600080fd5b5051919050565b60006020828403121561431857600080fd5b8151610c7281613bed565b6001600160a01b0392831681529116602082015260400190565b6020808252600390820152621cd95d60ea1b604082015260600190565b6000815461436781613f2e565b808552602060018381168015614384576001811461439e576143cc565b60ff1985168884015283151560051b8801830195506143cc565b866000528260002060005b858110156143c45781548a82018601529083019084016143a9565b890184019650505b505050505092915050565b60c0815260006143ea60c0830189613609565b82810360208401526143fc818961435a565b90508281036040840152614410818861435a565b90508281036060840152614424818761435a565b6080840195909552505060a00152949350505050565b60006020828403121561444c57600080fd5b81516001600160401b0381111561446257600080fd5b8201601f8101841361447357600080fd5b80516144816137588261396b565b81815285602083850101111561449657600080fd5b6144a78260208301602086016135dd565b95945050505050565b60208082526032908201527f4552433732313a207472616e7366657220746f206e6f6e20455243373231526560408201527131b2b4bb32b91034b6b83632b6b2b73a32b960711b606082015260800190565b6020808252602b908201527f496e697469616c697a61626c653a20636f6e7472616374206973206e6f74206960408201526a6e697469616c697a696e6760a81b606082015260800190565b6001600160a01b038581168252841660208201526040810183905260806060820181905260009061458090830184613609565b9695505050505050565b60006020828403121561459c57600080fd5b8151610c728161355556feddf252ad1be2c89b69c2b068fc378daa952ba7f163c4a11628f55a4df523b3efa6dc15bdb68da224c66db4b3838d9a2b205138e8cff6774e57d0af91e196d622a2646970667358221220bdf3ea0fd1335b70eb432a705b419146f1f20c057671a15f89cdd4d3a063301f64736f6c634300080f0033",
  "devdoc": {
    "author": "Zien Repository: https://github.com/joinzien/expanded-nft",
    "details": "This allows creators to mint a unique serial drop of an expanded NFT within a custom contract",
    "kind": "dev",
    "methods": {
      "approve(address,uint256)": {
        "details": "See {IERC721-approve}."
      },
      "balanceOf(address)": {
        "details": "See {IERC721-balanceOf}."
      },
      "burn(uint256)": {
        "params": {
          "tokenId": "Token ID to burn User burn function for token id "
        }
      },
      "getAllowedMinter()": {
        "details": "Sets the types of users who is allowed to mint."
      },
      "getApproved(uint256)": {
        "details": "See {IERC721-getApproved}."
      },
      "getConditionReport(uint256)": {
        "details": "Get URIs for the condition report",
        "returns": {
          "_0": "_imageUrl, _imageHash"
        }
      },
      "getURIs(uint256)": {
        "details": "Get URIs for edition NFT",
        "returns": {
          "_0": "_imageUrl, _imageHash, _animationUrl, _animationHash"
        }
      },
      "initialize(address,address,string,string,uint256,string[],string[],bytes32[],string[],bytes32[])": {
        "details": "Function to create a new drop. Can only be called by the allowed creator Sets the only allowed minter to the address that creates/owns the drop. This can be re-assigned or updated later",
        "params": {
          "_dropSize": "Number of editions that can be minted in total.    ",
          "_name": "Name of drop, used in the title as \"$NAME NUMBER/TOTAL\"",
          "_owner": "wallet addres for the user that owns and can mint the drop, gets royalty and sales payouts and can update the base url if needed.",
          "_symbol": "Symbol of the new token contract",
          "animationHash": "The associated hash of the animation in sha-256 bytes32 format. If animation is omitted the hash can be zero.",
          "animationUrl": "Animation URL of the edition. Not required, but if omitted image URL needs to be included. This follows the opensea spec for NFTs",
          "artistWallet": "wallet address for thr User that created the drop",
          "description": "Description of the edition, used in the description field of the NFT",
          "imageHash": "SHA256 of the given image in bytes32 format (0xHASH). If no image is included, the hash can be zero.",
          "imageUrl": "Image URL of the the edition. Strongly encouraged to be used, if necessary, only animation URL can be used. One of animation and image url need to exist in a drop to render the NFT."
        }
      },
      "isApprovedForAll(address,address)": {
        "details": "See {IERC721-isApprovedForAll}."
      },
      "mintEdition(address)": {
        "details": "This mints one edition to the given address by an allowed minter on the edition instance.",
        "params": {
          "to": "address to send the newly minted edition to"
        }
      },
      "mintEditions(address[])": {
        "details": "This mints multiple editions to the given list of addresses.",
        "params": {
          "recipients": "list of addresses to send the newly minted editions to"
        }
      },
      "name()": {
        "details": "See {IERC721Metadata-name}."
      },
      "ownerOf(uint256)": {
        "details": "See {IERC721-ownerOf}."
      },
      "purchase()": {
        "details": "This allows the user to purchase an edition at the given price in the contract."
      },
      "renounceOwnership()": {
        "details": "Leaves the contract without owner. It will not be possible to call `onlyOwner` functions anymore. Can only be called by the current owner. NOTE: Renouncing ownership will leave the contract without an owner, thereby removing any functionality that is only available to the owner."
      },
      "reserve(address[],uint256[])": {
        "details": "Set various pricing related values",
        "params": {
          "tokenIDs": "A list of tokenId to reserve                                                                           ",
          "wallets": "A list of wallets"
        }
      },
      "royaltyInfo(uint256,uint256)": {
        "details": "Get royalty information for token",
        "params": {
          "_salePrice": "Sale price for the token"
        }
      },
      "safeTransferFrom(address,address,uint256)": {
        "details": "See {IERC721-safeTransferFrom}."
      },
      "safeTransferFrom(address,address,uint256,bytes)": {
        "details": "See {IERC721-safeTransferFrom}."
      },
      "setAllowedMinter(uint8)": {
        "details": "Sets the types of users who is allowed to mint.",
        "params": {
          "minters": "WhoCanMint enum of minter types"
        }
      },
      "setApprovalForAll(address,bool)": {
        "details": "See {IERC721-setApprovalForAll}."
      },
      "setApprovedMinters(uint256,address[],bool[])": {
        "details": "Sets the approved minting status of the given address. This requires that msg.sender is the owner of the given edition id. If the ZeroAddress (address(0x0)) is set as a minter, anyone will be allowed to mint. This setup is similar to setApprovalForAll in the ERC721 spec.",
        "params": {
          "allowed": "boolean if that address is allowed to mint",
          "minter": "address to set approved minting status for"
        }
      },
      "setApprovedVIPMinters(uint256,address[],bool[])": {
        "details": "Sets the approved minting status of the given address. This requires that msg.sender is the owner of the given edition id. If the ZeroAddress (address(0x0)) is set as a minter, anyone will be allowed to mint. This setup is similar to setApprovalForAll in the ERC721 spec.",
        "params": {
          "allowed": "boolean if that address is allowed to mint",
          "minter": "address to set approved minting status for"
        }
      },
      "setMembersSalePrice(uint256)": {
        "details": "This sets the members ETH sales price Setting a sales price allows users to mint the drop until it sells out. For more granular sales, use an external sales contract.",
        "params": {
          "_salePrice": "if sale price is 0 sale is stopped, otherwise that amount  of ETH is needed to start the sale."
        }
      },
      "setPricing(uint256,uint256,uint256,uint256,uint256,uint256,uint256,uint256)": {
        "details": "Set various pricing related values",
        "params": {
          "_generalMintLimit": "Mint limit for the general public                                                                                 ",
          "_generalSalePrice": "SalePrice for the general public     ",
          "_membersMintLimit": "Mint limit for Members  ",
          "_membersSalePrice": "SalePrice for Members  ",
          "_royaltyBPS": "BPS of the royalty set on the contract. Can be 0 for no royalty.",
          "_splitBPS": "BPS of the royalty set on the contract. Can be 0 for no royalty. ",
          "_vipMintLimit": "Mint limit for VIPs",
          "_vipSalePrice": "Sale price for VIPs"
        }
      },
      "setSalePrice(uint256)": {
        "details": "This sets a simple ETH sales price Setting a sales price allows users to mint the drop until it sells out. For more granular sales, use an external sales contract.",
        "params": {
          "_salePrice": "if sale price is 0 sale is stopped, otherwise that amount  of ETH is needed to start the sale."
        }
      },
      "setSalePrices(uint256,uint256,uint256)": {
        "details": "This sets the members ETH sales price Setting a sales price allows users to mint the drop until it sells out. For more granular sales, use an external sales contract.",
        "params": {
          "generalSalePrice": "if sale price is 0 sale is stopped, otherwise that amount  of ETH is needed to start the sale.                                              ",
          "membersSalePrice": "if sale price is 0 sale is stopped, otherwise that amount  of ETH is needed to start the sale.",
          "vipSalePrice": "if sale price is 0 sale is stopped, otherwise that amount  of ETH is needed to start the sale."
        }
      },
      "setVIPSalePrice(uint256)": {
        "details": "This sets the VIP ETH sales price Setting a sales price allows users to mint the drop until it sells out. For more granular sales, use an external sales contract.",
        "params": {
          "_salePrice": "if sale price is 0 sale is stopped, otherwise that amount  of ETH is needed to start the sale."
        }
      },
      "symbol()": {
        "details": "See {IERC721Metadata-symbol}."
      },
      "tokenURI(uint256)": {
        "details": "Get URI for given token id",
        "params": {
          "tokenId": "token id to get uri for"
        },
        "returns": {
          "_0": "base64-encoded json metadata object"
        }
      },
      "totalSupply()": {
        "details": "returns the number of minted tokens within the drop"
      },
      "transferFrom(address,address,uint256)": {
        "details": "See {IERC721-transferFrom}."
      },
      "transferOwnership(address)": {
        "details": "Transfers ownership of the contract to a new account (`newOwner`). Can only be called by the current owner."
      },
      "updateEditionURLs(uint256,string,string)": {
        "details": "Allows for updates of edition urls by the owner of the edition. Only URLs can be updated (data-uris are supported), hashes cannot be updated."
      },
      "withdraw()": {
        "details": "This withdraws ETH from the contract to the contract owner."
      }
    },
    "version": 1
  },
  "userdoc": {
    "kind": "user",
    "methods": {
      "getArtistWallet()": {
        "notice": "return the artists wallet address"
      },
      "getPaymentToken()": {
        "notice": "return the payment tokens address"
      },
      "numberCanMint()": {
        "notice": "Returns the number of editions allowed to mint"
      },
      "owner()": {
        "notice": "Simple override for owner interface."
      },
      "setArtistWallet(address)": {
        "notice": "set the artists wallet address"
      },
      "setPaymentToken(address)": {
        "notice": "set a new payment token address"
      }
    },
    "notice": "This is a smart contract for handling dynamic contract minting.",
    "version": 1
  },
  "storageLayout": {
    "storage": [
      {
        "astId": 820,
        "contract": "contracts/ExpandedNFT.sol:ExpandedNFT",
        "label": "_initialized",
        "offset": 0,
        "slot": "0",
        "type": "t_uint8"
      },
      {
        "astId": 823,
        "contract": "contracts/ExpandedNFT.sol:ExpandedNFT",
        "label": "_initializing",
        "offset": 1,
        "slot": "0",
        "type": "t_bool"
      },
      {
        "astId": 3446,
        "contract": "contracts/ExpandedNFT.sol:ExpandedNFT",
        "label": "__gap",
        "offset": 0,
        "slot": "1",
        "type": "t_array(t_uint256)50_storage"
      },
      {
        "astId": 3790,
        "contract": "contracts/ExpandedNFT.sol:ExpandedNFT",
        "label": "__gap",
        "offset": 0,
        "slot": "51",
        "type": "t_array(t_uint256)50_storage"
      },
      {
        "astId": 2138,
        "contract": "contracts/ExpandedNFT.sol:ExpandedNFT",
        "label": "_name",
        "offset": 0,
        "slot": "101",
        "type": "t_string_storage"
      },
      {
        "astId": 2140,
        "contract": "contracts/ExpandedNFT.sol:ExpandedNFT",
        "label": "_symbol",
        "offset": 0,
        "slot": "102",
        "type": "t_string_storage"
      },
      {
        "astId": 2144,
        "contract": "contracts/ExpandedNFT.sol:ExpandedNFT",
        "label": "_owners",
        "offset": 0,
        "slot": "103",
        "type": "t_mapping(t_uint256,t_address)"
      },
      {
        "astId": 2148,
        "contract": "contracts/ExpandedNFT.sol:ExpandedNFT",
        "label": "_balances",
        "offset": 0,
        "slot": "104",
        "type": "t_mapping(t_address,t_uint256)"
      },
      {
        "astId": 2152,
        "contract": "contracts/ExpandedNFT.sol:ExpandedNFT",
        "label": "_tokenApprovals",
        "offset": 0,
        "slot": "105",
        "type": "t_mapping(t_uint256,t_address)"
      },
      {
        "astId": 2158,
        "contract": "contracts/ExpandedNFT.sol:ExpandedNFT",
        "label": "_operatorApprovals",
        "offset": 0,
        "slot": "106",
        "type": "t_mapping(t_address,t_mapping(t_address,t_bool))"
      },
      {
        "astId": 3000,
        "contract": "contracts/ExpandedNFT.sol:ExpandedNFT",
        "label": "__gap",
        "offset": 0,
        "slot": "107",
        "type": "t_array(t_uint256)44_storage"
      },
      {
        "astId": 593,
        "contract": "contracts/ExpandedNFT.sol:ExpandedNFT",
        "label": "_owner",
        "offset": 0,
        "slot": "151",
        "type": "t_address"
      },
      {
        "astId": 713,
        "contract": "contracts/ExpandedNFT.sol:ExpandedNFT",
        "label": "__gap",
        "offset": 0,
        "slot": "152",
        "type": "t_array(t_uint256)49_storage"
      },
      {
        "astId": 4824,
        "contract": "contracts/ExpandedNFT.sol:ExpandedNFT",
        "label": "_artistWallet",
        "offset": 0,
        "slot": "201",
        "type": "t_address"
      },
      {
        "astId": 4829,
        "contract": "contracts/ExpandedNFT.sol:ExpandedNFT",
        "label": "_perTokenMetadata",
        "offset": 0,
        "slot": "202",
        "type": "t_mapping(t_uint256,t_struct(PerToken)4792_storage)"
      },
      {
        "astId": 4831,
        "contract": "contracts/ExpandedNFT.sol:ExpandedNFT",
        "label": "dropSize",
        "offset": 0,
        "slot": "203",
        "type": "t_uint256"
      },
      {
        "astId": 4833,
        "contract": "contracts/ExpandedNFT.sol:ExpandedNFT",
        "label": "_reserveCount",
        "offset": 0,
        "slot": "204",
        "type": "t_uint256"
      },
      {
        "astId": 4837,
        "contract": "contracts/ExpandedNFT.sol:ExpandedNFT",
        "label": "_reserveAddress",
        "offset": 0,
        "slot": "205",
        "type": "t_mapping(t_uint256,t_address)"
      },
      {
        "astId": 4841,
        "contract": "contracts/ExpandedNFT.sol:ExpandedNFT",
        "label": "_reserveTokenId",
        "offset": 0,
        "slot": "206",
        "type": "t_mapping(t_uint256,t_uint256)"
      },
      {
        "astId": 4845,
        "contract": "contracts/ExpandedNFT.sol:ExpandedNFT",
        "label": "_tokenClaimed",
        "offset": 0,
        "slot": "207",
        "type": "t_mapping(t_uint256,t_bool)"
      },
      {
        "astId": 4847,
        "contract": "contracts/ExpandedNFT.sol:ExpandedNFT",
        "label": "_firstUnclaimed",
        "offset": 0,
        "slot": "208",
        "type": "t_uint256"
      },
      {
        "astId": 4849,
        "contract": "contracts/ExpandedNFT.sol:ExpandedNFT",
        "label": "_claimCount",
        "offset": 0,
        "slot": "209",
        "type": "t_uint256"
      },
      {
        "astId": 4852,
        "contract": "contracts/ExpandedNFT.sol:ExpandedNFT",
        "label": "_pricing",
        "offset": 0,
        "slot": "210",
        "type": "t_struct(Pricing)4822_storage"
      },
      {
        "astId": 4854,
        "contract": "contracts/ExpandedNFT.sol:ExpandedNFT",
        "label": "salePrice",
        "offset": 0,
        "slot": "221",
        "type": "t_uint256"
      },
      {
        "astId": 4857,
        "contract": "contracts/ExpandedNFT.sol:ExpandedNFT",
        "label": "_paymentTokenERC20",
        "offset": 0,
        "slot": "222",
        "type": "t_contract(IERC20Upgradeable)1780"
      }
    ],
    "types": {
      "t_address": {
        "encoding": "inplace",
        "label": "address",
        "numberOfBytes": "20"
      },
      "t_array(t_uint256)44_storage": {
        "base": "t_uint256",
        "encoding": "inplace",
        "label": "uint256[44]",
        "numberOfBytes": "1408"
      },
      "t_array(t_uint256)49_storage": {
        "base": "t_uint256",
        "encoding": "inplace",
        "label": "uint256[49]",
        "numberOfBytes": "1568"
      },
      "t_array(t_uint256)50_storage": {
        "base": "t_uint256",
        "encoding": "inplace",
        "label": "uint256[50]",
        "numberOfBytes": "1600"
      },
      "t_bool": {
        "encoding": "inplace",
        "label": "bool",
        "numberOfBytes": "1"
      },
      "t_bytes32": {
        "encoding": "inplace",
        "label": "bytes32",
        "numberOfBytes": "32"
      },
      "t_contract(IERC20Upgradeable)1780": {
        "encoding": "inplace",
        "label": "contract IERC20Upgradeable",
        "numberOfBytes": "20"
      },
      "t_enum(ExpandedNFTStates)4717": {
        "encoding": "inplace",
        "label": "enum ExpandedNFT.ExpandedNFTStates",
        "numberOfBytes": "1"
      },
      "t_enum(WhoCanMint)4708": {
        "encoding": "inplace",
        "label": "enum ExpandedNFT.WhoCanMint",
        "numberOfBytes": "1"
      },
      "t_mapping(t_address,t_bool)": {
        "encoding": "mapping",
        "key": "t_address",
        "label": "mapping(address => bool)",
        "numberOfBytes": "32",
        "value": "t_bool"
      },
      "t_mapping(t_address,t_mapping(t_address,t_bool))": {
        "encoding": "mapping",
        "key": "t_address",
        "label": "mapping(address => mapping(address => bool))",
        "numberOfBytes": "32",
        "value": "t_mapping(t_address,t_bool)"
      },
      "t_mapping(t_address,t_uint256)": {
        "encoding": "mapping",
        "key": "t_address",
        "label": "mapping(address => uint256)",
        "numberOfBytes": "32",
        "value": "t_uint256"
      },
      "t_mapping(t_uint256,t_address)": {
        "encoding": "mapping",
        "key": "t_uint256",
        "label": "mapping(uint256 => address)",
        "numberOfBytes": "32",
        "value": "t_address"
      },
      "t_mapping(t_uint256,t_bool)": {
        "encoding": "mapping",
        "key": "t_uint256",
        "label": "mapping(uint256 => bool)",
        "numberOfBytes": "32",
        "value": "t_bool"
      },
      "t_mapping(t_uint256,t_struct(PerToken)4792_storage)": {
        "encoding": "mapping",
        "key": "t_uint256",
        "label": "mapping(uint256 => struct ExpandedNFT.PerToken)",
        "numberOfBytes": "32",
        "value": "t_struct(PerToken)4792_storage"
      },
      "t_mapping(t_uint256,t_uint256)": {
        "encoding": "mapping",
        "key": "t_uint256",
        "label": "mapping(uint256 => uint256)",
        "numberOfBytes": "32",
        "value": "t_uint256"
      },
      "t_string_storage": {
        "encoding": "bytes",
        "label": "string",
        "numberOfBytes": "32"
      },
      "t_struct(PerToken)4792_storage": {
        "encoding": "inplace",
        "label": "struct ExpandedNFT.PerToken",
        "members": [
          {
            "astId": 4767,
            "contract": "contracts/ExpandedNFT.sol:ExpandedNFT",
            "label": "editionState",
            "offset": 0,
            "slot": "0",
            "type": "t_enum(ExpandedNFTStates)4717"
          },
          {
            "astId": 4769,
            "contract": "contracts/ExpandedNFT.sol:ExpandedNFT",
            "label": "editionFee",
            "offset": 0,
            "slot": "1",
            "type": "t_uint256"
          },
          {
            "astId": 4771,
            "contract": "contracts/ExpandedNFT.sol:ExpandedNFT",
            "label": "description",
            "offset": 0,
            "slot": "2",
            "type": "t_string_storage"
          },
          {
            "astId": 4773,
            "contract": "contracts/ExpandedNFT.sol:ExpandedNFT",
            "label": "animationUrl",
            "offset": 0,
            "slot": "3",
            "type": "t_string_storage"
          },
          {
            "astId": 4775,
            "contract": "contracts/ExpandedNFT.sol:ExpandedNFT",
            "label": "animationHash",
            "offset": 0,
            "slot": "4",
            "type": "t_bytes32"
          },
          {
            "astId": 4777,
            "contract": "contracts/ExpandedNFT.sol:ExpandedNFT",
            "label": "imageUrl",
            "offset": 0,
            "slot": "5",
            "type": "t_string_storage"
          },
          {
            "astId": 4779,
            "contract": "contracts/ExpandedNFT.sol:ExpandedNFT",
            "label": "imageHash",
            "offset": 0,
            "slot": "6",
            "type": "t_bytes32"
          },
          {
            "astId": 4781,
            "contract": "contracts/ExpandedNFT.sol:ExpandedNFT",
            "label": "redeemedAnimationUrl",
            "offset": 0,
            "slot": "7",
            "type": "t_string_storage"
          },
          {
            "astId": 4783,
            "contract": "contracts/ExpandedNFT.sol:ExpandedNFT",
            "label": "redeemedAnimationHash",
            "offset": 0,
            "slot": "8",
            "type": "t_bytes32"
          },
          {
            "astId": 4785,
            "contract": "contracts/ExpandedNFT.sol:ExpandedNFT",
            "label": "redeemedImageUrl",
            "offset": 0,
            "slot": "9",
            "type": "t_string_storage"
          },
          {
            "astId": 4787,
            "contract": "contracts/ExpandedNFT.sol:ExpandedNFT",
            "label": "redeemedImageHash",
            "offset": 0,
            "slot": "10",
            "type": "t_bytes32"
          },
          {
            "astId": 4789,
            "contract": "contracts/ExpandedNFT.sol:ExpandedNFT",
            "label": "conditionReportUrl",
            "offset": 0,
            "slot": "11",
            "type": "t_string_storage"
          },
          {
            "astId": 4791,
            "contract": "contracts/ExpandedNFT.sol:ExpandedNFT",
            "label": "conditionReportHash",
            "offset": 0,
            "slot": "12",
            "type": "t_bytes32"
          }
        ],
        "numberOfBytes": "416"
      },
      "t_struct(Pricing)4822_storage": {
        "encoding": "inplace",
        "label": "struct ExpandedNFT.Pricing",
        "members": [
          {
            "astId": 4794,
            "contract": "contracts/ExpandedNFT.sol:ExpandedNFT",
            "label": "royaltyBPS",
            "offset": 0,
            "slot": "0",
            "type": "t_uint256"
          },
          {
            "astId": 4796,
            "contract": "contracts/ExpandedNFT.sol:ExpandedNFT",
            "label": "splitBPS",
            "offset": 0,
            "slot": "1",
            "type": "t_uint256"
          },
          {
            "astId": 4798,
            "contract": "contracts/ExpandedNFT.sol:ExpandedNFT",
            "label": "vipSalePrice",
            "offset": 0,
            "slot": "2",
            "type": "t_uint256"
          },
          {
            "astId": 4800,
            "contract": "contracts/ExpandedNFT.sol:ExpandedNFT",
            "label": "membersSalePrice",
            "offset": 0,
            "slot": "3",
            "type": "t_uint256"
          },
          {
            "astId": 4802,
            "contract": "contracts/ExpandedNFT.sol:ExpandedNFT",
            "label": "vipMintLimit",
            "offset": 0,
            "slot": "4",
            "type": "t_uint256"
          },
          {
            "astId": 4804,
            "contract": "contracts/ExpandedNFT.sol:ExpandedNFT",
            "label": "membersMintLimit",
            "offset": 0,
            "slot": "5",
            "type": "t_uint256"
          },
          {
            "astId": 4806,
            "contract": "contracts/ExpandedNFT.sol:ExpandedNFT",
            "label": "generalMintLimit",
            "offset": 0,
            "slot": "6",
            "type": "t_uint256"
          },
          {
            "astId": 4810,
            "contract": "contracts/ExpandedNFT.sol:ExpandedNFT",
            "label": "allowedMinters",
            "offset": 0,
            "slot": "7",
            "type": "t_mapping(t_address,t_bool)"
          },
          {
            "astId": 4814,
            "contract": "contracts/ExpandedNFT.sol:ExpandedNFT",
            "label": "vipAllowedMinters",
            "offset": 0,
            "slot": "8",
            "type": "t_mapping(t_address,t_bool)"
          },
          {
            "astId": 4817,
            "contract": "contracts/ExpandedNFT.sol:ExpandedNFT",
            "label": "whoCanMint",
            "offset": 0,
            "slot": "9",
            "type": "t_enum(WhoCanMint)4708"
          },
          {
            "astId": 4821,
            "contract": "contracts/ExpandedNFT.sol:ExpandedNFT",
            "label": "mintCounts",
            "offset": 0,
            "slot": "10",
            "type": "t_mapping(t_address,t_uint256)"
          }
        ],
        "numberOfBytes": "352"
      },
      "t_uint256": {
        "encoding": "inplace",
        "label": "uint256",
        "numberOfBytes": "32"
      },
      "t_uint8": {
        "encoding": "inplace",
        "label": "uint8",
        "numberOfBytes": "1"
      }
    }
  }
}