{
  "address": "0x270e7D2f4a02DC473878036a49801fdE89F63ac5",
  "abi": [
    {
      "inputs": [
        {
          "internalType": "contract SharedNFTLogic",
          "name": "sharedNFTLogic",
          "type": "address"
        }
      ],
      "stateMutability": "nonpayable",
      "type": "constructor"
    },
    {
      "anonymous": false,
      "inputs": [
        {
          "indexed": true,
          "internalType": "address",
          "name": "owner",
          "type": "address"
        },
        {
          "indexed": true,
          "internalType": "address",
          "name": "approved",
          "type": "address"
        },
        {
          "indexed": true,
          "internalType": "uint256",
          "name": "tokenId",
          "type": "uint256"
        }
      ],
      "name": "Approval",
      "type": "event"
    },
    {
      "anonymous": false,
      "inputs": [
        {
          "indexed": true,
          "internalType": "address",
          "name": "owner",
          "type": "address"
        },
        {
          "indexed": true,
          "internalType": "address",
          "name": "operator",
          "type": "address"
        },
        {
          "indexed": false,
          "internalType": "bool",
          "name": "approved",
          "type": "bool"
        }
      ],
      "name": "ApprovalForAll",
      "type": "event"
    },
    {
      "anonymous": false,
      "inputs": [
        {
          "indexed": false,
          "internalType": "uint256",
          "name": "tokenId",
          "type": "uint256"
        }
      ],
      "name": "DeliveryAccepted",
      "type": "event"
    },
    {
      "anonymous": false,
      "inputs": [
        {
          "indexed": false,
          "internalType": "uint256",
          "name": "price",
          "type": "uint256"
        },
        {
          "indexed": false,
          "internalType": "address",
          "name": "owner",
          "type": "address"
        }
      ],
      "name": "EditionSold",
      "type": "event"
    },
    {
      "anonymous": false,
      "inputs": [
        {
          "indexed": false,
          "internalType": "uint8",
          "name": "version",
          "type": "uint8"
        }
      ],
      "name": "Initialized",
      "type": "event"
    },
    {
      "anonymous": false,
      "inputs": [
        {
          "indexed": false,
          "internalType": "uint256",
          "name": "tokenId",
          "type": "uint256"
        }
      ],
      "name": "OfferAccepted",
      "type": "event"
    },
    {
      "anonymous": false,
      "inputs": [
        {
          "indexed": false,
          "internalType": "uint256",
          "name": "tokenId",
          "type": "uint256"
        }
      ],
      "name": "OfferRejected",
      "type": "event"
    },
    {
      "anonymous": false,
      "inputs": [
        {
          "indexed": false,
          "internalType": "uint256",
          "name": "tokenId",
          "type": "uint256"
        }
      ],
      "name": "OfferTermsSet",
      "type": "event"
    },
    {
      "anonymous": false,
      "inputs": [
        {
          "indexed": true,
          "internalType": "address",
          "name": "previousOwner",
          "type": "address"
        },
        {
          "indexed": true,
          "internalType": "address",
          "name": "newOwner",
          "type": "address"
        }
      ],
      "name": "OwnershipTransferred",
      "type": "event"
    },
    {
      "anonymous": false,
      "inputs": [
        {
          "indexed": false,
          "internalType": "uint256",
          "name": "amount",
          "type": "uint256"
        }
      ],
      "name": "PriceChanged",
      "type": "event"
    },
    {
      "anonymous": false,
      "inputs": [
        {
          "indexed": false,
          "internalType": "uint256",
          "name": "tokenId",
          "type": "uint256"
        }
      ],
      "name": "ProductionComplete",
      "type": "event"
    },
    {
      "anonymous": false,
      "inputs": [
        {
          "indexed": false,
          "internalType": "uint256",
          "name": "tokenId",
          "type": "uint256"
        },
        {
          "indexed": false,
          "internalType": "address",
          "name": "owner",
          "type": "address"
        }
      ],
      "name": "RedeemAborted",
      "type": "event"
    },
    {
      "anonymous": false,
      "inputs": [
        {
          "indexed": false,
          "internalType": "uint256",
          "name": "tokenId",
          "type": "uint256"
        },
        {
          "indexed": false,
          "internalType": "address",
          "name": "owner",
          "type": "address"
        }
      ],
      "name": "RedeemStarted",
      "type": "event"
    },
    {
      "anonymous": false,
      "inputs": [
        {
          "indexed": true,
          "internalType": "address",
          "name": "from",
          "type": "address"
        },
        {
          "indexed": true,
          "internalType": "address",
          "name": "to",
          "type": "address"
        },
        {
          "indexed": true,
          "internalType": "uint256",
          "name": "tokenId",
          "type": "uint256"
        }
      ],
      "name": "Transfer",
      "type": "event"
    },
    {
      "anonymous": false,
      "inputs": [
        {
          "indexed": false,
          "internalType": "enum ExpandedNFT.WhoCanMint",
          "name": "minters",
          "type": "uint8"
        }
      ],
      "name": "WhoCanMintChanged",
      "type": "event"
    },
    {
      "inputs": [
        {
          "internalType": "uint256",
          "name": "tokenId",
          "type": "uint256"
        }
      ],
      "name": "abortRedemption",
      "outputs": [],
      "stateMutability": "nonpayable",
      "type": "function"
    },
    {
      "inputs": [
        {
          "internalType": "uint256",
          "name": "tokenId",
          "type": "uint256"
        }
      ],
      "name": "acceptDelivery",
      "outputs": [],
      "stateMutability": "nonpayable",
      "type": "function"
    },
    {
      "inputs": [
        {
          "internalType": "uint256",
          "name": "tokenId",
          "type": "uint256"
        }
      ],
      "name": "acceptOfferTerms",
      "outputs": [],
      "stateMutability": "nonpayable",
      "type": "function"
    },
    {
      "inputs": [
        {
          "internalType": "address",
          "name": "to",
          "type": "address"
        },
        {
          "internalType": "uint256",
          "name": "tokenId",
          "type": "uint256"
        }
      ],
      "name": "approve",
      "outputs": [],
      "stateMutability": "nonpayable",
      "type": "function"
    },
    {
      "inputs": [
        {
          "internalType": "address",
          "name": "owner",
          "type": "address"
        }
      ],
      "name": "balanceOf",
      "outputs": [
        {
          "internalType": "uint256",
          "name": "",
          "type": "uint256"
        }
      ],
      "stateMutability": "view",
      "type": "function"
    },
    {
      "inputs": [
        {
          "internalType": "uint256",
          "name": "tokenId",
          "type": "uint256"
        }
      ],
      "name": "burn",
      "outputs": [],
      "stateMutability": "nonpayable",
      "type": "function"
    },
    {
      "inputs": [],
      "name": "dropSize",
      "outputs": [
        {
          "internalType": "uint256",
          "name": "",
          "type": "uint256"
        }
      ],
      "stateMutability": "view",
      "type": "function"
    },
    {
      "inputs": [],
      "name": "getAllowedMinter",
      "outputs": [
        {
          "internalType": "enum ExpandedNFT.WhoCanMint",
          "name": "",
          "type": "uint8"
        }
      ],
      "stateMutability": "view",
      "type": "function"
    },
    {
      "inputs": [
        {
          "internalType": "uint256",
          "name": "tokenId",
          "type": "uint256"
        }
      ],
      "name": "getApproved",
      "outputs": [
        {
          "internalType": "address",
          "name": "",
          "type": "address"
        }
      ],
      "stateMutability": "view",
      "type": "function"
    },
    {
      "inputs": [],
      "name": "getArtistWallet",
      "outputs": [
        {
          "internalType": "address",
          "name": "",
          "type": "address"
        }
      ],
      "stateMutability": "view",
      "type": "function"
    },
    {
      "inputs": [
        {
          "internalType": "uint256",
          "name": "tokenId",
          "type": "uint256"
        }
      ],
      "name": "getConditionReport",
      "outputs": [
        {
          "internalType": "string",
          "name": "",
          "type": "string"
        },
        {
          "internalType": "bytes32",
          "name": "",
          "type": "bytes32"
        }
      ],
      "stateMutability": "view",
      "type": "function"
    },
    {
      "inputs": [],
      "name": "getGeneralMintLimit",
      "outputs": [
        {
          "internalType": "uint256",
          "name": "",
          "type": "uint256"
        }
      ],
      "stateMutability": "view",
      "type": "function"
    },
    {
      "inputs": [],
      "name": "getMembersMintLimit",
      "outputs": [
        {
          "internalType": "uint256",
          "name": "",
          "type": "uint256"
        }
      ],
      "stateMutability": "view",
      "type": "function"
    },
    {
      "inputs": [],
      "name": "getMembersSalePrice",
      "outputs": [
        {
          "internalType": "uint256",
          "name": "",
          "type": "uint256"
        }
      ],
      "stateMutability": "view",
      "type": "function"
    },
    {
      "inputs": [],
      "name": "getPaymentToken",
      "outputs": [
        {
          "internalType": "address",
          "name": "",
          "type": "address"
        }
      ],
      "stateMutability": "view",
      "type": "function"
    },
    {
      "inputs": [],
      "name": "getRoyaltyBPS",
      "outputs": [
        {
          "internalType": "uint256",
          "name": "",
          "type": "uint256"
        }
      ],
      "stateMutability": "view",
      "type": "function"
    },
    {
      "inputs": [],
      "name": "getSplitBPS",
      "outputs": [
        {
          "internalType": "uint256",
          "name": "",
          "type": "uint256"
        }
      ],
      "stateMutability": "view",
      "type": "function"
    },
    {
      "inputs": [
        {
          "internalType": "uint256",
          "name": "tokenId",
          "type": "uint256"
        }
      ],
      "name": "getURIs",
      "outputs": [
        {
          "internalType": "string",
          "name": "",
          "type": "string"
        },
        {
          "internalType": "bytes32",
          "name": "",
          "type": "bytes32"
        },
        {
          "internalType": "string",
          "name": "",
          "type": "string"
        },
        {
          "internalType": "bytes32",
          "name": "",
          "type": "bytes32"
        }
      ],
      "stateMutability": "view",
      "type": "function"
    },
    {
      "inputs": [],
      "name": "getVIPMintLimit",
      "outputs": [
        {
          "internalType": "uint256",
          "name": "",
          "type": "uint256"
        }
      ],
      "stateMutability": "view",
      "type": "function"
    },
    {
      "inputs": [],
      "name": "getVIPSalePrice",
      "outputs": [
        {
          "internalType": "uint256",
          "name": "",
          "type": "uint256"
        }
      ],
      "stateMutability": "view",
      "type": "function"
    },
    {
      "inputs": [],
      "name": "getWhoCanMint",
      "outputs": [
        {
          "internalType": "uint256",
          "name": "",
          "type": "uint256"
        }
      ],
      "stateMutability": "view",
      "type": "function"
    },
    {
      "inputs": [
        {
          "internalType": "address",
          "name": "_owner",
          "type": "address"
        },
        {
          "internalType": "address",
          "name": "artistWallet",
          "type": "address"
        },
        {
          "internalType": "string",
          "name": "_name",
          "type": "string"
        },
        {
          "internalType": "string",
          "name": "_symbol",
          "type": "string"
        },
        {
          "internalType": "uint256",
          "name": "_dropSize",
          "type": "uint256"
        },
        {
          "internalType": "string[]",
          "name": "description",
          "type": "string[]"
        },
        {
          "internalType": "string[]",
          "name": "animationUrl",
          "type": "string[]"
        },
        {
          "internalType": "bytes32[]",
          "name": "animationHash",
          "type": "bytes32[]"
        },
        {
          "internalType": "string[]",
          "name": "imageUrl",
          "type": "string[]"
        },
        {
          "internalType": "bytes32[]",
          "name": "imageHash",
          "type": "bytes32[]"
        }
      ],
      "name": "initialize",
      "outputs": [],
      "stateMutability": "nonpayable",
      "type": "function"
    },
    {
      "inputs": [
        {
          "internalType": "address",
          "name": "owner",
          "type": "address"
        },
        {
          "internalType": "address",
          "name": "operator",
          "type": "address"
        }
      ],
      "name": "isApprovedForAll",
      "outputs": [
        {
          "internalType": "bool",
          "name": "",
          "type": "bool"
        }
      ],
      "stateMutability": "view",
      "type": "function"
    },
    {
      "inputs": [
        {
          "internalType": "address",
          "name": "to",
          "type": "address"
        }
      ],
      "name": "mintEdition",
      "outputs": [
        {
          "internalType": "uint256",
          "name": "",
          "type": "uint256"
        }
      ],
      "stateMutability": "payable",
      "type": "function"
    },
    {
      "inputs": [
        {
          "internalType": "address[]",
          "name": "recipients",
          "type": "address[]"
        }
      ],
      "name": "mintEditions",
      "outputs": [
        {
          "internalType": "uint256",
          "name": "",
          "type": "uint256"
        }
      ],
      "stateMutability": "payable",
      "type": "function"
    },
    {
      "inputs": [],
      "name": "name",
      "outputs": [
        {
          "internalType": "string",
          "name": "",
          "type": "string"
        }
      ],
      "stateMutability": "view",
      "type": "function"
    },
    {
      "inputs": [],
      "name": "numberCanMint",
      "outputs": [
        {
          "internalType": "uint256",
          "name": "",
          "type": "uint256"
        }
      ],
      "stateMutability": "view",
      "type": "function"
    },
    {
      "inputs": [],
      "name": "owner",
      "outputs": [
        {
          "internalType": "address",
          "name": "",
          "type": "address"
        }
      ],
      "stateMutability": "view",
      "type": "function"
    },
    {
      "inputs": [
        {
          "internalType": "uint256",
          "name": "tokenId",
          "type": "uint256"
        }
      ],
      "name": "ownerOf",
      "outputs": [
        {
          "internalType": "address",
          "name": "",
          "type": "address"
        }
      ],
      "stateMutability": "view",
      "type": "function"
    },
    {
      "inputs": [
        {
          "internalType": "uint256",
          "name": "tokenId",
          "type": "uint256"
        }
      ],
      "name": "payRedemption",
      "outputs": [],
      "stateMutability": "nonpayable",
      "type": "function"
    },
    {
      "inputs": [
        {
          "internalType": "uint256",
          "name": "tokenId",
          "type": "uint256"
        },
        {
          "internalType": "string",
          "name": "description",
          "type": "string"
        },
        {
          "internalType": "string",
          "name": "animationUrl",
          "type": "string"
        },
        {
          "internalType": "bytes32",
          "name": "animationHash",
          "type": "bytes32"
        },
        {
          "internalType": "string",
          "name": "imageUrl",
          "type": "string"
        },
        {
          "internalType": "bytes32",
          "name": "imageHash",
          "type": "bytes32"
        },
        {
          "internalType": "string",
          "name": "conditionReportUrl",
          "type": "string"
        },
        {
          "internalType": "bytes32",
          "name": "conditionReportHash",
          "type": "bytes32"
        }
      ],
      "name": "productionComplete",
      "outputs": [],
      "stateMutability": "nonpayable",
      "type": "function"
    },
    {
      "inputs": [],
      "name": "purchase",
      "outputs": [
        {
          "internalType": "uint256",
          "name": "",
          "type": "uint256"
        }
      ],
      "stateMutability": "payable",
      "type": "function"
    },
    {
      "inputs": [
        {
          "internalType": "uint256",
          "name": "tokenId",
          "type": "uint256"
        }
      ],
      "name": "redeem",
      "outputs": [],
      "stateMutability": "nonpayable",
      "type": "function"
    },
    {
      "inputs": [
        {
          "internalType": "uint256",
          "name": "tokenId",
          "type": "uint256"
        }
      ],
      "name": "rejectOfferTerms",
      "outputs": [],
      "stateMutability": "nonpayable",
      "type": "function"
    },
    {
      "inputs": [],
      "name": "renounceOwnership",
      "outputs": [],
      "stateMutability": "nonpayable",
      "type": "function"
    },
    {
      "inputs": [
        {
          "internalType": "address[]",
          "name": "wallets",
          "type": "address[]"
        },
        {
          "internalType": "uint256[]",
          "name": "tokenIDs",
          "type": "uint256[]"
        }
      ],
      "name": "reserve",
      "outputs": [],
      "stateMutability": "nonpayable",
      "type": "function"
    },
    {
      "inputs": [
        {
          "internalType": "uint256",
          "name": "",
          "type": "uint256"
        },
        {
          "internalType": "uint256",
          "name": "_salePrice",
          "type": "uint256"
        }
      ],
      "name": "royaltyInfo",
      "outputs": [
        {
          "internalType": "address",
          "name": "receiver",
          "type": "address"
        },
        {
          "internalType": "uint256",
          "name": "royaltyAmount",
          "type": "uint256"
        }
      ],
      "stateMutability": "view",
      "type": "function"
    },
    {
      "inputs": [
        {
          "internalType": "address",
          "name": "from",
          "type": "address"
        },
        {
          "internalType": "address",
          "name": "to",
          "type": "address"
        },
        {
          "internalType": "uint256",
          "name": "tokenId",
          "type": "uint256"
        }
      ],
      "name": "safeTransferFrom",
      "outputs": [],
      "stateMutability": "nonpayable",
      "type": "function"
    },
    {
      "inputs": [
        {
          "internalType": "address",
          "name": "from",
          "type": "address"
        },
        {
          "internalType": "address",
          "name": "to",
          "type": "address"
        },
        {
          "internalType": "uint256",
          "name": "tokenId",
          "type": "uint256"
        },
        {
          "internalType": "bytes",
          "name": "data",
          "type": "bytes"
        }
      ],
      "name": "safeTransferFrom",
      "outputs": [],
      "stateMutability": "nonpayable",
      "type": "function"
    },
    {
      "inputs": [],
      "name": "salePrice",
      "outputs": [
        {
          "internalType": "uint256",
          "name": "",
          "type": "uint256"
        }
      ],
      "stateMutability": "view",
      "type": "function"
    },
    {
      "inputs": [
        {
          "internalType": "enum ExpandedNFT.WhoCanMint",
          "name": "minters",
          "type": "uint8"
        }
      ],
      "name": "setAllowedMinter",
      "outputs": [],
      "stateMutability": "nonpayable",
      "type": "function"
    },
    {
      "inputs": [
        {
          "internalType": "address",
          "name": "operator",
          "type": "address"
        },
        {
          "internalType": "bool",
          "name": "approved",
          "type": "bool"
        }
      ],
      "name": "setApprovalForAll",
      "outputs": [],
      "stateMutability": "nonpayable",
      "type": "function"
    },
    {
      "inputs": [
        {
          "internalType": "uint256",
          "name": "count",
          "type": "uint256"
        },
        {
          "internalType": "address[]",
          "name": "minter",
          "type": "address[]"
        },
        {
          "internalType": "bool[]",
          "name": "allowed",
          "type": "bool[]"
        }
      ],
      "name": "setApprovedMinters",
      "outputs": [],
      "stateMutability": "nonpayable",
      "type": "function"
    },
    {
      "inputs": [
        {
          "internalType": "uint256",
          "name": "count",
          "type": "uint256"
        },
        {
          "internalType": "address[]",
          "name": "minter",
          "type": "address[]"
        },
        {
          "internalType": "bool[]",
          "name": "allowed",
          "type": "bool[]"
        }
      ],
      "name": "setApprovedVIPMinters",
      "outputs": [],
      "stateMutability": "nonpayable",
      "type": "function"
    },
    {
      "inputs": [
        {
          "internalType": "address",
          "name": "wallet",
          "type": "address"
        }
      ],
      "name": "setArtistWallet",
      "outputs": [],
      "stateMutability": "nonpayable",
      "type": "function"
    },
    {
      "inputs": [
        {
          "internalType": "uint256",
          "name": "_salePrice",
          "type": "uint256"
        }
      ],
      "name": "setMembersSalePrice",
      "outputs": [],
      "stateMutability": "nonpayable",
      "type": "function"
    },
    {
      "inputs": [
        {
          "internalType": "uint256",
          "name": "tokenId",
          "type": "uint256"
        },
        {
          "internalType": "uint256",
          "name": "fee",
          "type": "uint256"
        }
      ],
      "name": "setOfferTerms",
      "outputs": [],
      "stateMutability": "nonpayable",
      "type": "function"
    },
    {
      "inputs": [
        {
          "internalType": "address",
          "name": "paymentToken",
          "type": "address"
        }
      ],
      "name": "setPaymentToken",
      "outputs": [],
      "stateMutability": "nonpayable",
      "type": "function"
    },
    {
      "inputs": [
        {
          "internalType": "uint256",
          "name": "_royaltyBPS",
          "type": "uint256"
        },
        {
          "internalType": "uint256",
          "name": "_splitBPS",
          "type": "uint256"
        },
        {
          "internalType": "uint256",
          "name": "_vipSalePrice",
          "type": "uint256"
        },
        {
          "internalType": "uint256",
          "name": "_membersSalePrice",
          "type": "uint256"
        },
        {
          "internalType": "uint256",
          "name": "_generalSalePrice",
          "type": "uint256"
        },
        {
          "internalType": "uint256",
          "name": "_vipMintLimit",
          "type": "uint256"
        },
        {
          "internalType": "uint256",
          "name": "_membersMintLimit",
          "type": "uint256"
        },
        {
          "internalType": "uint256",
          "name": "_generalMintLimit",
          "type": "uint256"
        }
      ],
      "name": "setPricing",
      "outputs": [],
      "stateMutability": "nonpayable",
      "type": "function"
    },
    {
      "inputs": [
        {
          "internalType": "uint256",
          "name": "_salePrice",
          "type": "uint256"
        }
      ],
      "name": "setSalePrice",
      "outputs": [],
      "stateMutability": "nonpayable",
      "type": "function"
    },
    {
      "inputs": [
        {
          "internalType": "uint256",
          "name": "vipSalePrice",
          "type": "uint256"
        },
        {
          "internalType": "uint256",
          "name": "membersSalePrice",
          "type": "uint256"
        },
        {
          "internalType": "uint256",
          "name": "generalSalePrice",
          "type": "uint256"
        }
      ],
      "name": "setSalePrices",
      "outputs": [],
      "stateMutability": "nonpayable",
      "type": "function"
    },
    {
      "inputs": [
        {
          "internalType": "uint256",
          "name": "_salePrice",
          "type": "uint256"
        }
      ],
      "name": "setVIPSalePrice",
      "outputs": [],
      "stateMutability": "nonpayable",
      "type": "function"
    },
    {
      "inputs": [
        {
          "internalType": "bytes4",
          "name": "interfaceId",
          "type": "bytes4"
        }
      ],
      "name": "supportsInterface",
      "outputs": [
        {
          "internalType": "bool",
          "name": "",
          "type": "bool"
        }
      ],
      "stateMutability": "view",
      "type": "function"
    },
    {
      "inputs": [],
      "name": "symbol",
      "outputs": [
        {
          "internalType": "string",
          "name": "",
          "type": "string"
        }
      ],
      "stateMutability": "view",
      "type": "function"
    },
    {
      "inputs": [
        {
          "internalType": "uint256",
          "name": "tokenId",
          "type": "uint256"
        }
      ],
      "name": "tokenURI",
      "outputs": [
        {
          "internalType": "string",
          "name": "",
          "type": "string"
        }
      ],
      "stateMutability": "view",
      "type": "function"
    },
    {
      "inputs": [],
      "name": "totalSupply",
      "outputs": [
        {
          "internalType": "uint256",
          "name": "",
          "type": "uint256"
        }
      ],
      "stateMutability": "view",
      "type": "function"
    },
    {
      "inputs": [
        {
          "internalType": "address",
          "name": "from",
          "type": "address"
        },
        {
          "internalType": "address",
          "name": "to",
          "type": "address"
        },
        {
          "internalType": "uint256",
          "name": "tokenId",
          "type": "uint256"
        }
      ],
      "name": "transferFrom",
      "outputs": [],
      "stateMutability": "nonpayable",
      "type": "function"
    },
    {
      "inputs": [
        {
          "internalType": "address",
          "name": "newOwner",
          "type": "address"
        }
      ],
      "name": "transferOwnership",
      "outputs": [],
      "stateMutability": "nonpayable",
      "type": "function"
    },
    {
      "inputs": [
        {
          "internalType": "uint256",
          "name": "tokenId",
          "type": "uint256"
        },
        {
          "internalType": "string",
          "name": "imageUrl",
          "type": "string"
        },
        {
          "internalType": "string",
          "name": "animationUrl",
          "type": "string"
        }
      ],
      "name": "updateEditionURLs",
      "outputs": [],
      "stateMutability": "nonpayable",
      "type": "function"
    },
    {
      "inputs": [],
      "name": "withdraw",
      "outputs": [],
      "stateMutability": "nonpayable",
      "type": "function"
    }
  ],
  "transactionHash": "0x0ede37370a36bc4b54d078ef369333b41ebdc58fd6ad42ee04a8e1858de3467b",
  "args": [
    "0x355a9bd0D92c77241A713BcaaB429e31802a7F4f"
  ],
  "solcInputHash": "7bbc548d97230f9d8bc7304227d4c9a1",
  "bytecode": "0x60a06040523480156200001157600080fd5b50604051620047d1380380620047d1833981016040819052620000349162000050565b6001600160a01b031660805260db805460ff1916905562000082565b6000602082840312156200006357600080fd5b81516001600160a01b03811681146200007b57600080fd5b9392505050565b6080516147336200009e600039600061218201526147336000f3fe6080604052600436106103175760003560e01c806369e1cac11161019c578063b88d4fde116100e2578063dd5c716411610090578063dd5c71641461091b578063de5d62a01461093b578063e985e9c51461095b578063ee5df5501461097b578063f2fde38b1461099b578063f51f96dd146109bb578063fc51e0c3146109d1578063fce57fd9146109ff57600080fd5b8063b88d4fde14610853578063bf82ae4914610873578063c87b56dd14610893578063d375b6fc146108b3578063d41c3a65146108c8578063d5344e36146108e6578063db006a75146108fb57600080fd5b80637d0eeace1161014a5780637d0eeace146107815780638c503ca4146107a15780638da5cb5b146107c157806395d89b41146107d6578063a1279cfc146107eb578063a22cb46514610800578063a66ff0af14610820578063abb689e11461083357600080fd5b806369e1cac1146106ac5780636a326ab1146106cc57806370a08231146106ec578063715018a61461070c578063787e5efc14610721578063799b7c5f146107415780637b422c4c1461076157600080fd5b8063392774151161026157806342842e0e1161020f57806342842e0e146105ca57806342966c68146105ea57806346d9c4bf1461060a578063499e16721461061f57806352c9143e146106345780636352211e1461065457806364e9293e1461067457806364edfbf0146106a457600080fd5b8063392774151461051757806339dc13bc146105355780633ccfd60b146105555780633da165d41461056a5780633e1dc10714610580578063402635cf14610595578063410a1095146105aa57600080fd5b80630f6a9349116102c95780630f6a93491461042157806318160ddd146104345780631919fed71461044957806323b872dd146104695780632a55205a14610489578063367de39e146104b757806336f3ec76146104d75780633892aa52146104f757600080fd5b806301ffc9a71461031c578063036c8ea11461035157806306fdde0314610373578063081812fc14610395578063095ea7b3146103cd57806309949abe146103ed5780630b65b6e71461040c575b600080fd5b34801561032857600080fd5b5061033c610337366004613681565b610a1f565b60405190151581526020015b60405180910390f35b34801561035d57600080fd5b5061037161036c36600461369e565b610a4a565b005b34801561037f57600080fd5b50610388610aa6565b604051610348919061374b565b3480156103a157600080fd5b506103b56103b036600461375e565b610b38565b6040516001600160a01b039091168152602001610348565b3480156103d957600080fd5b506103716103e8366004613793565b610b5f565b3480156103f957600080fd5b5060d2545b604051908152602001610348565b34801561041857600080fd5b506103fe610c79565b6103fe61042f366004613826565b610c9c565b34801561044057600080fd5b506103fe610d75565b34801561045557600080fd5b5061037161046436600461375e565b610d86565b34801561047557600080fd5b506103716104843660046138c2565b610e13565b34801561049557600080fd5b506104a96104a43660046138fe565b610e45565b604051610348929190613920565b3480156104c357600080fd5b506103716104d2366004613939565b610ea1565b3480156104e357600080fd5b506103716104f236600461395a565b610f7c565b34801561050357600080fd5b506103716105123660046139ca565b610fb9565b34801561052357600080fd5b5060c9546001600160a01b03166103b5565b34801561054157600080fd5b5061037161055036600461375e565b611060565b34801561056157600080fd5b5061037161113c565b34801561057657600080fd5b506103fe60cb5481565b34801561058c57600080fd5b5060d7546103fe565b3480156105a157600080fd5b5060d3546103fe565b3480156105b657600080fd5b5060db5460ff166040516103489190613a59565b3480156105d657600080fd5b506103716105e53660046138c2565b61119b565b3480156105f657600080fd5b5061037161060536600461375e565b6111b6565b34801561061657600080fd5b5060dd546103fe565b34801561062b57600080fd5b5060d5546103fe565b34801561064057600080fd5b5061037161064f366004613b01565b6111e7565b34801561066057600080fd5b506103b561066f36600461375e565b611325565b34801561068057600080fd5b5061069461068f36600461375e565b61135a565b6040516103489493929190613bd4565b6103fe6114ae565b3480156106b857600080fd5b506103716106c7366004613c11565b6115eb565b3480156106d857600080fd5b506103716106e7366004613c7c565b6116b2565b3480156106f857600080fd5b506103fe610707366004613c7c565b6117a2565b34801561071857600080fd5b50610371611828565b34801561072d57600080fd5b5061037161073c36600461375e565b61183c565b34801561074d57600080fd5b5061037161075c3660046139ca565b61185c565b34801561076d57600080fd5b5061037161077c36600461375e565b6118fb565b34801561078d57600080fd5b5061037161079c36600461375e565b6119a7565b3480156107ad57600080fd5b506103716107bc366004613c97565b611ce8565b3480156107cd57600080fd5b506103b5611d2d565b3480156107e257600080fd5b50610388611d41565b3480156107f757600080fd5b5060d4546103fe565b34801561080c57600080fd5b5061037161081b366004613d11565b611d50565b6103fe61082e366004613c7c565b611d5f565b34801561083f57600080fd5b5061037161084e36600461375e565b611e6c565b34801561085f57600080fd5b5061037161086e366004613d48565b612041565b34801561087f57600080fd5b5061037161088e36600461375e565b612073565b34801561089f57600080fd5b506103886108ae36600461375e565b612159565b3480156108bf57600080fd5b506103fe612241565b3480156108d457600080fd5b5060de546001600160a01b03166103b5565b3480156108f257600080fd5b5060d6546103fe565b34801561090757600080fd5b5061037161091636600461375e565b61225b565b34801561092757600080fd5b50610371610936366004613ea8565b612328565b34801561094757600080fd5b5061037161095636600461375e565b612613565b34801561096757600080fd5b5061033c610976366004613fef565b612634565b34801561098757600080fd5b506103716109963660046138fe565b612662565b3480156109a757600080fd5b506103716109b6366004613c7c565b612746565b3480156109c757600080fd5b506103fe60dd5481565b3480156109dd57600080fd5b506109f16109ec36600461375e565b6127bc565b604051610348929190614022565b348015610a0b57600080fd5b50610371610a1a366004613c7c565b61286f565b600063152a902d60e11b6001600160e01b031983161480610a445750610a4482612899565b92915050565b610a526128e9565b60d288905560d387905560d486905560d585905560dd84905560d683905560d782905560d88190556040518481526000805160206146de833981519152906020015b60405180910390a15050505050505050565b606060658054610ab590614044565b80601f0160208091040260200160405190810160405280929190818152602001828054610ae190614044565b8015610b2e5780601f10610b0357610100808354040283529160200191610b2e565b820191906000526020600020905b815481529060010190602001808311610b1157829003601f168201915b5050505050905090565b6000610b4382612948565b506000908152606960205260409020546001600160a01b031690565b6000610b6a82611325565b9050806001600160a01b0316836001600160a01b031603610bdc5760405162461bcd60e51b815260206004820152602160248201527f4552433732313a20617070726f76616c20746f2063757272656e74206f776e656044820152603960f91b60648201526084015b60405180910390fd5b336001600160a01b0382161480610bf85750610bf88133612634565b610c6a5760405162461bcd60e51b815260206004820152603e60248201527f4552433732313a20617070726f76652063616c6c6572206973206e6f7420746f60448201527f6b656e206f776e6572206e6f7220617070726f76656420666f7220616c6c00006064820152608401610bd3565b610c74838361296d565b505050565b600060d15460cb546001610c8d9190614094565b610c9791906140ac565b905090565b6000610ca66129db565b610cc25760405162461bcd60e51b8152600401610bd3906140c3565b6000610ccc612aba565b905060008111610cee5760405162461bcd60e51b8152600401610bd3906140fa565b8251610cfa9082614120565b3414610d185760405162461bcd60e51b8152600401610bd39061413f565b610d20612b2b565b835133600090815260dc6020526040902054600191610d3e91614094565b610d4891906140ac565b10610d655760405162461bcd60e51b8152600401610bd390614164565b610d6e83612b9c565b9392505050565b6000600160d154610c9791906140ac565b610d8e6128e9565b60dd81905560db80546003919060ff19166001835b021790555060db546040517f40cb75607c032a2aac1c3565feb3b70e354cbd56e8f8fa36773cba5750464c5191610ddf9160ff90911690613a59565b60405180910390a16000805160206146de83398151915260dd54604051610e0891815260200190565b60405180910390a150565b610e1e335b82612e83565b610e3a5760405162461bcd60e51b8152600401610bd390614191565b610c74838383612ee1565b60008080610e51611d2d565b6001600160a01b031603610e7257610e67611d2d565b600091509150610e9a565b610e7a611d2d565b60d25461271090610e8b9086614120565b610e9591906141df565b915091505b9250929050565b610ea96128e9565b6000816003811115610ebd57610ebd613a43565b10158015610edd57506003816003811115610eda57610eda613a43565b11155b610f295760405162461bcd60e51b815260206004820152601f60248201527f4e6565647320746f20626520612076616c6964206d696e7465722074797065006044820152606401610bd3565b60db805482919060ff19166001836003811115610f4857610f48613a43565b02179055507f40cb75607c032a2aac1c3565feb3b70e354cbd56e8f8fa36773cba5750464c5181604051610e089190613a59565b610f846128e9565b60d483905560d582905560dd8190556040518181526000805160206146de8339815191529060200160405180910390a1505050565b610fc16128e9565b60005b8581101561105857828282818110610fde57610fde614201565b9050602002016020810190610ff39190614217565b60da600087878581811061100957611009614201565b905060200201602081019061101e9190613c7c565b6001600160a01b031681526020810191909152604001600020805460ff19169115159190911790558061105081614234565b915050610fc4565b505050505050565b6110698161306b565b6110855760405162461bcd60e51b8152600401610bd39061424d565b61108e33610e18565b6110aa5760405162461bcd60e51b8152600401610bd39061426f565b6003600082815260ca602052604090205460ff1660078111156110cf576110cf613a43565b146110ec5760405162461bcd60e51b8152600401610bd390614295565b600081815260ca6020526040902080546001919060ff191682805b02179055506040518181527facb9cd98d41dc8854281172ab2a764d949b62b51776edd911f85376ed2eca64b90602001610e08565b6111446128e9565b60d35447906000906127109061115a9084614120565b61116491906141df565b9050600061117282846140ac565b905061118561117f611d2d565b83613088565b60c954610c74906001600160a01b031682613088565b610c7483838360405180602001604052806000815250612041565b6111bf33610e18565b6111db5760405162461bcd60e51b8152600401610bd39061426f565b6111e4816131a1565b50565b6111ef6128e9565b6111f88861306b565b6112145760405162461bcd60e51b8152600401610bd39061424d565b6004600089815260ca602052604090205460ff16600781111561123957611239613a43565b146112565760405162461bcd60e51b8152600401610bd390614295565b600088815260ca602052604090206002016112718882614312565b50600088815260ca6020526040902060070161128d8782614312565b50600088815260ca60205260409020600881018690556009016112b08582614312565b50600088815260ca60205260409020600a8101849055600b016112d38382614312565b50600088815260ca6020908152604091829020600c8101849055805460ff1916600617905590518981527fadb6d4f651f6fbf8b37026019ee48fdb86abf9ec94eb4a5f0acf72ad8c7872a39101610a94565b6000818152606760205260408120546001600160a01b031680610a445760405162461bcd60e51b8152600401610bd3906143d1565b600081815260ca602052604081206006810154600482015460058301805460609594869486949092600390920191849061139390614044565b80601f01602080910402602001604051908101604052809291908181526020018280546113bf90614044565b801561140c5780601f106113e15761010080835404028352916020019161140c565b820191906000526020600020905b8154815290600101906020018083116113ef57829003601f168201915b5050505050935081805461141f90614044565b80601f016020809104026020016040519081016040528092919081815260200182805461144b90614044565b80156114985780601f1061146d57610100808354040283529160200191611498565b820191906000526020600020905b81548152906001019060200180831161147b57829003601f168201915b5050505050915093509350935093509193509193565b60006114b86129db565b6114d45760405162461bcd60e51b8152600401610bd3906140c3565b60006114de612aba565b9050600081116115005760405162461bcd60e51b8152600401610bd3906140fa565b80341461151f5760405162461bcd60e51b8152600401610bd39061413f565b611527612b2b565b33600090815260dc6020526040902054106115545760405162461bcd60e51b8152600401610bd390614164565b60408051600180825281830190925260009160208083019080368337019050509050338160008151811061158a5761158a614201565b6001600160a01b039092166020928302919091018201526040805184815233928101929092527f60a6c75698fadb72223808131f9f9bb9db3afa32122db6d94fb8fc985a504baa910160405180910390a16115e481612b9c565b9250505090565b6115f36128e9565b60005b838110156116ab5784848281811061161057611610614201565b90506020020160208101906116259190613c7c565b60cc54600090815260cd6020526040902080546001600160a01b0319166001600160a01b039290921691909117905582828281811061166657611666614201565b60cc8054600090815260ce6020908152604082209302949094013590915580549290915061169383614234565b919050555080806116a390614234565b9150506115f6565b5050505050565b6116ba6128e9565b60de546001600160a01b0316156117805760de546040516370a0823160e01b81523060048201526001600160a01b03909116906370a0823190602401602060405180830381865afa158015611713573d6000803e3d6000fd5b505050506040513d601f19601f820116820180604052508101906117379190614403565b156117805760405162461bcd60e51b8152602060048201526019602482015278746f6b656e206d757374206861766520302062616c616e636560381b6044820152606401610bd3565b60de80546001600160a01b0319166001600160a01b0392909216919091179055565b60006001600160a01b03821661180c5760405162461bcd60e51b815260206004820152602960248201527f4552433732313a2061646472657373207a65726f206973206e6f7420612076616044820152683634b21037bbb732b960b91b6064820152608401610bd3565b506001600160a01b031660009081526068602052604090205490565b6118306128e9565b61183a600061322a565b565b6118446128e9565b60d481905560db80546001919060ff19168280610da3565b6118646128e9565b60005b858110156110585782828281811061188157611881614201565b90506020020160208101906118969190614217565b60d960008787858181106118ac576118ac614201565b90506020020160208101906118c19190613c7c565b6001600160a01b031681526020810191909152604001600020805460ff1916911515919091179055806118f381614234565b915050611867565b6119048161306b565b6119205760405162461bcd60e51b8152600401610bd39061424d565b61192933610e18565b6119455760405162461bcd60e51b8152600401610bd39061426f565b6006600082815260ca602052604090205460ff16600781111561196a5761196a613a43565b146119875760405162461bcd60e51b8152600401610bd390614295565b600081815260ca6020526040902080546007919060ff1916600183611107565b6119b08161306b565b6119cc5760405162461bcd60e51b8152600401610bd39061424d565b6119d533610e18565b6119f15760405162461bcd60e51b8152600401610bd39061426f565b6003600082815260ca602052604090205460ff166007811115611a1657611a16613a43565b14611a335760405162461bcd60e51b8152600401610bd390614295565b60de54600082815260ca60205260409081902060010154905163095ea7b360e01b81526001600160a01b039092169163095ea7b391611a7791309190600401613920565b6020604051808303816000875af1158015611a96573d6000803e3d6000fd5b505050506040513d601f19601f82011682018060405250810190611aba919061441c565b5060de546001600160a01b031663dd62ed3e33306040518363ffffffff1660e01b8152600401611aeb929190614439565b602060405180830381865afa158015611b08573d6000803e3d6000fd5b505050506040513d601f19601f82011682018060405250810190611b2c9190614403565b15611b6e5760405162461bcd60e51b81526020600482015260126024820152714e6f6e207a65726f20616c6c6f77616e636560701b6044820152606401610bd3565b60de54600082815260ca60205260409081902060010154905163095ea7b360e01b81526001600160a01b039092169163095ea7b391611bb291309190600401613920565b6020604051808303816000875af1158015611bd1573d6000803e3d6000fd5b505050506040513d601f19601f82011682018060405250810190611bf5919061441c565b50600081815260ca602052604090206001015460de546001600160a01b031663dd62ed3e33306040518363ffffffff1660e01b8152600401611c38929190614439565b602060405180830381865afa158015611c55573d6000803e3d6000fd5b505050506040513d601f19601f82011682018060405250810190611c799190614403565b1015611c975760405162461bcd60e51b8152600401610bd390614453565b600081815260ca6020526040902080546005919060ff19166001835b02179055506040518181527f9bd6b4fd288008520fd788a93304e5688a401aea817ea8140ecf1fb8648f319190602001610e08565b611cf06128e9565b600083815260ca60205260409020600501611d0b8382614312565b50600083815260ca60205260409020600301611d278282614312565b50505050565b6000610c976097546001600160a01b031690565b606060668054610ab590614044565b611d5b33838361327c565b5050565b6000611d696129db565b611d855760405162461bcd60e51b8152600401610bd3906140c3565b6000611d8f612aba565b905060008111611db15760405162461bcd60e51b8152600401610bd3906140fa565b803414611dd05760405162461bcd60e51b8152600401610bd39061413f565b611dd8612b2b565b33600090815260dc602052604090205410611e055760405162461bcd60e51b8152600401610bd390614164565b604080516001808252818301909252600091602080830190803683370190505090508381600081518110611e3b57611e3b614201565b60200260200101906001600160a01b031690816001600160a01b031681525050611e6481612b9c565b949350505050565b611e758161306b565b611e915760405162461bcd60e51b8152600401610bd39061424d565b611e9a33610e18565b611eb65760405162461bcd60e51b8152600401610bd39061426f565b6005600082815260ca602052604090205460ff166007811115611edb57611edb613a43565b14611ef85760405162461bcd60e51b8152600401610bd390614295565b60de54600082815260ca60205260409081902060010154905163095ea7b360e01b81526001600160a01b039092169163095ea7b391611f3c91309190600401613920565b6020604051808303816000875af1158015611f5b573d6000803e3d6000fd5b505050506040513d601f19601f82011682018060405250810190611f7f919061441c565b50600081815260ca602052604090206001015460de546001600160a01b031663dd62ed3e33306040518363ffffffff1660e01b8152600401611fc2929190614439565b602060405180830381865afa158015611fdf573d6000803e3d6000fd5b505050506040513d601f19601f820116820180604052508101906120039190614403565b10156120215760405162461bcd60e51b8152600401610bd390614453565b600081815260ca6020526040902080546004919060ff1916600183611cb3565b61204b3383612e83565b6120675760405162461bcd60e51b8152600401610bd390614191565b611d2784848484613346565b61207c8161306b565b6120985760405162461bcd60e51b8152600401610bd39061424d565b6120a133610e18565b6120bd5760405162461bcd60e51b8152600401610bd39061426f565b6002600082815260ca602052604090205460ff1660078111156120e2576120e2613a43565b146120ff5760405162461bcd60e51b8152600401610bd390614295565b600081815260ca60205260409020805460ff191660011790557f6c7c9f699aacfa5bacd2758023ab209b2d1e1c237bfa752bdc94cb87878cf1b781335b604080519283526001600160a01b03909116602083015201610e08565b60606121648261306b565b6121805760405162461bcd60e51b8152600401610bd39061424d565b7f00000000000000000000000000000000000000000000000000000000000000006001600160a01b031663df30dba06121b7610aa6565b600085815260ca60205260409081902060cb5491516001600160e01b031960e086901b1681526121fc9392600283019260058101926003909101918a916004016144ed565b600060405180830381865afa158015612219573d6000803e3d6000fd5b505050506040513d6000823e601f3d908101601f19168201604052610a449190810190614550565b60db5460009060ff166003811115610c9757610c97613a43565b6122648161306b565b6122805760405162461bcd60e51b8152600401610bd39061424d565b61228933610e18565b6122a55760405162461bcd60e51b8152600401610bd39061426f565b6001600082815260ca602052604090205460ff1660078111156122ca576122ca613a43565b146122e75760405162461bcd60e51b8152600401610bd390614295565b600081815260ca60205260409020805460ff191660021790557fc290e40808ef06721539ad0d926f8d5f53d2dd6d5e28334308a012676f867416813361213c565b600054610100900460ff16158080156123485750600054600160ff909116105b806123625750303b158015612362575060005460ff166001145b6123c55760405162461bcd60e51b815260206004820152602e60248201527f496e697469616c697a61626c653a20636f6e747261637420697320616c72656160448201526d191e481a5b9a5d1a585b1a5e995960921b6064820152608401610bd3565b6000805460ff1916600117905580156123e8576000805461ff0019166101001790555b600087116124305760405162461bcd60e51b8152602060048201526015602482015274044726f702073697a65206d757374206265203e203605c1b6044820152606401610bd3565b61243a8989613379565b6124426133aa565b61244b8b612746565b60c980546001600160a01b0319166001600160a01b038c1617905560cb879055600160d081905560d15560005b60cb548110156125bf57600061248f826001614094565b90508782815181106124a3576124a3614201565b602002602001015160ca600083815260200190815260200160002060020190816124cd9190614312565b508682815181106124e0576124e0614201565b602002602001015160ca6000838152602001908152602001600020600301908161250a9190614312565b5085828151811061251d5761251d614201565b602002602001015160ca60008381526020019081526020016000206004018190555084828151811061255157612551614201565b602002602001015160ca6000838152602001908152602001600020600501908161257b9190614312565b5083828151811061258e5761258e614201565b602090810291909101810151600092835260ca909152604090912060060155806125b781614234565b915050612478565b508015612606576000805461ff0019169055604051600181527f7f26b83ff96e1f2b6a682f133852f6798a09c465da95921460cefb38474024989060200160405180910390a15b5050505050505050505050565b61261b6128e9565b60d581905560db80546002919060ff1916600183610da3565b6001600160a01b039182166000908152606a6020908152604080832093909416825291909152205460ff1690565b61266a6128e9565b6126738261306b565b61268f5760405162461bcd60e51b8152600401610bd39061424d565b6002600083815260ca602052604090205460ff1660078111156126b4576126b4613a43565b146126ef5760405162461bcd60e51b815260206004820152600b60248201526a57726f6e6720737461746560a81b6044820152606401610bd3565b600082815260ca6020908152604091829020805460ff1916600317815560010183905590518381527f316b408b8cf323e8f20ef7a8c267eedc89bef19ca5db7fc30be938e55bf068f9910160405180910390a15050565b61274e6128e9565b6001600160a01b0381166127b35760405162461bcd60e51b815260206004820152602660248201527f4f776e61626c653a206e6577206f776e657220697320746865207a65726f206160448201526564647265737360d01b6064820152608401610bd3565b6111e48161322a565b600081815260ca60205260408120600c810154600b9091018054606093929082906127e690614044565b80601f016020809104026020016040519081016040528092919081815260200182805461281290614044565b801561285f5780601f106128345761010080835404028352916020019161285f565b820191906000526020600020905b81548152906001019060200180831161284257829003601f168201915b5050505050915091509150915091565b6128776128e9565b60c980546001600160a01b0319166001600160a01b0392909216919091179055565b60006001600160e01b031982166380ac58cd60e01b14806128ca57506001600160e01b03198216635b5e139f60e01b145b80610a4457506301ffc9a760e01b6001600160e01b0319831614610a44565b336128f2611d2d565b6001600160a01b03161461183a5760405162461bcd60e51b815260206004820181905260248201527f4f776e61626c653a2063616c6c6572206973206e6f7420746865206f776e65726044820152606401610bd3565b6129518161306b565b6111e45760405162461bcd60e51b8152600401610bd3906143d1565b600081815260696020526040902080546001600160a01b0319166001600160a01b03841690811790915581906129a282611325565b6001600160a01b03167f8c5be1e5ebec7d5bd14f71427d1e84f3dd0314c0f7b2291e5b200ac8c7c3b92560405160405180910390a45050565b6000600360db5460ff1660038111156129f6576129f6613a43565b03612a015750600190565b600260db5460ff166003811115612a1a57612a1a613a43565b03612a5b5733600090815260da602052604090205460ff1615612a3d5750600190565b33600090815260d9602052604090205460ff1615612a5b5750600190565b600160db5460ff166003811115612a7457612a74613a43565b03612a975733600090815260da602052604090205460ff1615612a975750600190565b33612aa0611d2d565b6001600160a01b031603612ab45750600190565b50600090565b6000600160db5460ff166003811115612ad557612ad5613a43565b03612ae1575060d45490565b600260db5460ff166003811115612afa57612afa613a43565b03612b06575060d55490565b600360db5460ff166003811115612b1f57612b1f613a43565b03612ab4575060dd5490565b6000600160db5460ff166003811115612b4657612b46613a43565b03612b52575060d65490565b600260db5460ff166003811115612b6b57612b6b613a43565b03612b77575060d75490565b600360db5460ff166003811115612b9057612b90613a43565b03612ab4575060d85490565b60003360018060db5460ff166003811115612bb957612bb9613a43565b03612d3e576000805b60cc54811015612ceb5760005b8651811015612cd857600082815260cd60205260409020546001600160a01b03808716911603612cc657600082815260ce602090815260408083205480845260cf909252822054909160ff90911615159003612cc457612c48888381518110612c3a57612c3a614201565b6020026020010151826133d9565b600081815260ca602090815260408083208054600160ff19918216811790925560cf8452828520805490911690911790556001600160a01b038916835260dc9091528120805491612c9883614234565b909155505060d18054906000612cad83614234565b91905055508380612cbd90614234565b9450508094505b505b80612cd081614234565b915050612bcf565b5080612ce381614234565b915050612bc2565b5084518114612d365760405162461bcd60e51b81526020600482015260176024820152764e6f7420656e6f756768207265736572766174696f6e7360481b6044820152606401610bd3565b509392505050565b600160005b8551811015612e7a575b600082815260cf602052604090205460ff1615156001148015612d7c575060cb54612d79906001614094565b82105b15612d935781612d8b81614234565b925050612d4d565b60cb54612da1906001614094565b8210612dda5760405162461bcd60e51b815260206004820152600860248201526714dbdb19081bdd5d60c21b6044820152606401610bd3565b612dfd868281518110612def57612def614201565b6020026020010151836133d9565b600082815260ca602090815260408083208054600160ff19918216811790925560cf8452828520805490911690911790556001600160a01b038716835260dc9091528120805491612e4d83614234565b909155505060d18054906000612e6283614234565b91905055508080612e7290614234565b915050612d43565b50949350505050565b600080612e8f83611325565b9050806001600160a01b0316846001600160a01b03161480612eb65750612eb68185612634565b80611e645750836001600160a01b0316612ecf84610b38565b6001600160a01b031614949350505050565b826001600160a01b0316612ef482611325565b6001600160a01b031614612f585760405162461bcd60e51b815260206004820152602560248201527f4552433732313a207472616e736665722066726f6d20696e636f72726563742060448201526437bbb732b960d91b6064820152608401610bd3565b6001600160a01b038216612fba5760405162461bcd60e51b8152602060048201526024808201527f4552433732313a207472616e7366657220746f20746865207a65726f206164646044820152637265737360e01b6064820152608401610bd3565b612fc560008261296d565b6001600160a01b0383166000908152606860205260408120805460019290612fee9084906140ac565b90915550506001600160a01b038216600090815260686020526040812080546001929061301c908490614094565b909155505060008181526067602052604080822080546001600160a01b0319166001600160a01b0386811691821790925591518493918716916000805160206146be83398151915291a4505050565b6000908152606760205260409020546001600160a01b0316151590565b804710156130d85760405162461bcd60e51b815260206004820152601d60248201527f416464726573733a20696e73756666696369656e742062616c616e63650000006044820152606401610bd3565b6000826001600160a01b03168260405160006040518083038185875af1925050503d8060008114613125576040519150601f19603f3d011682016040523d82523d6000602084013e61312a565b606091505b5050905080610c745760405162461bcd60e51b815260206004820152603a60248201527f416464726573733a20756e61626c6520746f2073656e642076616c75652c207260448201527f6563697069656e74206d617920686176652072657665727465640000000000006064820152608401610bd3565b60006131ac82611325565b90506131b960008361296d565b6001600160a01b03811660009081526068602052604081208054600192906131e29084906140ac565b909155505060008281526067602052604080822080546001600160a01b0319169055518391906001600160a01b038416906000805160206146be833981519152908390a45050565b609780546001600160a01b038381166001600160a01b0319831681179093556040519116919082907f8be0079c531659141344cd1fd0a4f28419497f9722a3daafe3b4186f6b6457e090600090a35050565b816001600160a01b0316836001600160a01b0316036132d95760405162461bcd60e51b815260206004820152601960248201527822a9219b99189d1030b8383937bb32903a379031b0b63632b960391b6044820152606401610bd3565b6001600160a01b038381166000818152606a6020908152604080832094871680845294825291829020805460ff191686151590811790915591519182527f17307eab39ab6107e8899845ad3d59bd9653f200f220920489ca2b5937696c31910160405180910390a3505050565b613351848484612ee1565b61335d848484846134fa565b611d275760405162461bcd60e51b8152600401610bd3906145c6565b600054610100900460ff166133a05760405162461bcd60e51b8152600401610bd390614618565b611d5b82826135fb565b600054610100900460ff166133d15760405162461bcd60e51b8152600401610bd390614618565b61183a61363b565b6001600160a01b03821661342f5760405162461bcd60e51b815260206004820181905260248201527f4552433732313a206d696e7420746f20746865207a65726f20616464726573736044820152606401610bd3565b6134388161306b565b156134855760405162461bcd60e51b815260206004820152601c60248201527f4552433732313a20746f6b656e20616c7265616479206d696e746564000000006044820152606401610bd3565b6001600160a01b03821660009081526068602052604081208054600192906134ae908490614094565b909155505060008181526067602052604080822080546001600160a01b0319166001600160a01b03861690811790915590518392906000805160206146be833981519152908290a45050565b60006001600160a01b0384163b156135f057604051630a85bd0160e11b81526001600160a01b0385169063150b7a029061353e903390899088908890600401614663565b6020604051808303816000875af1925050508015613579575060408051601f3d908101601f19168201909252613576918101906146a0565b60015b6135d6573d8080156135a7576040519150601f19603f3d011682016040523d82523d6000602084013e6135ac565b606091505b5080516000036135ce5760405162461bcd60e51b8152600401610bd3906145c6565b805181602001fd5b6001600160e01b031916630a85bd0160e11b149050611e64565b506001949350505050565b600054610100900460ff166136225760405162461bcd60e51b8152600401610bd390614618565b606561362e8382614312565b506066610c748282614312565b600054610100900460ff166136625760405162461bcd60e51b8152600401610bd390614618565b61183a3361322a565b6001600160e01b0319811681146111e457600080fd5b60006020828403121561369357600080fd5b8135610d6e8161366b565b600080600080600080600080610100898b0312156136bb57600080fd5b505086359860208801359850604088013597606081013597506080810135965060a0810135955060c0810135945060e0013592509050565b60005b8381101561370e5781810151838201526020016136f6565b83811115611d275750506000910152565b600081518084526137378160208601602086016136f3565b601f01601f19169290920160200192915050565b602081526000610d6e602083018461371f565b60006020828403121561377057600080fd5b5035919050565b80356001600160a01b038116811461378e57600080fd5b919050565b600080604083850312156137a657600080fd5b6137af83613777565b946020939093013593505050565b634e487b7160e01b600052604160045260246000fd5b604051601f8201601f191681016001600160401b03811182821017156137fb576137fb6137bd565b604052919050565b60006001600160401b0382111561381c5761381c6137bd565b5060051b60200190565b6000602080838503121561383957600080fd5b82356001600160401b0381111561384f57600080fd5b8301601f8101851361386057600080fd5b803561387361386e82613803565b6137d3565b81815260059190911b8201830190838101908783111561389257600080fd5b928401925b828410156138b7576138a884613777565b82529284019290840190613897565b979650505050505050565b6000806000606084860312156138d757600080fd5b6138e084613777565b92506138ee60208501613777565b9150604084013590509250925092565b6000806040838503121561391157600080fd5b50508035926020909101359150565b6001600160a01b03929092168252602082015260400190565b60006020828403121561394b57600080fd5b813560048110610d6e57600080fd5b60008060006060848603121561396f57600080fd5b505081359360208301359350604090920135919050565b60008083601f84011261399857600080fd5b5081356001600160401b038111156139af57600080fd5b6020830191508360208260051b8501011115610e9a57600080fd5b6000806000806000606086880312156139e257600080fd5b8535945060208601356001600160401b0380821115613a0057600080fd5b613a0c89838a01613986565b90965094506040880135915080821115613a2557600080fd5b50613a3288828901613986565b969995985093965092949392505050565b634e487b7160e01b600052602160045260246000fd5b6020810160048310613a7b57634e487b7160e01b600052602160045260246000fd5b91905290565b60006001600160401b03821115613a9a57613a9a6137bd565b50601f01601f191660200190565b6000613ab661386e84613a81565b9050828152838383011115613aca57600080fd5b828260208301376000602084830101529392505050565b600082601f830112613af257600080fd5b610d6e83833560208501613aa8565b600080600080600080600080610100898b031215613b1e57600080fd5b8835975060208901356001600160401b0380821115613b3c57600080fd5b613b488c838d01613ae1565b985060408b0135915080821115613b5e57600080fd5b613b6a8c838d01613ae1565b975060608b0135965060808b0135915080821115613b8757600080fd5b613b938c838d01613ae1565b955060a08b0135945060c08b0135915080821115613bb057600080fd5b50613bbd8b828c01613ae1565b92505060e089013590509295985092959890939650565b608081526000613be7608083018761371f565b8560208401528281036040840152613bff818661371f565b91505082606083015295945050505050565b60008060008060408587031215613c2757600080fd5b84356001600160401b0380821115613c3e57600080fd5b613c4a88838901613986565b90965094506020870135915080821115613c6357600080fd5b50613c7087828801613986565b95989497509550505050565b600060208284031215613c8e57600080fd5b610d6e82613777565b600080600060608486031215613cac57600080fd5b8335925060208401356001600160401b0380821115613cca57600080fd5b613cd687838801613ae1565b93506040860135915080821115613cec57600080fd5b50613cf986828701613ae1565b9150509250925092565b80151581146111e457600080fd5b60008060408385031215613d2457600080fd5b613d2d83613777565b91506020830135613d3d81613d03565b809150509250929050565b60008060008060808587031215613d5e57600080fd5b613d6785613777565b9350613d7560208601613777565b92506040850135915060608501356001600160401b03811115613d9757600080fd5b8501601f81018713613da857600080fd5b613db787823560208401613aa8565b91505092959194509250565b600082601f830112613dd457600080fd5b81356020613de461386e83613803565b82815260059290921b84018101918181019086841115613e0357600080fd5b8286015b84811015613e425780356001600160401b03811115613e265760008081fd5b613e348986838b0101613ae1565b845250918301918301613e07565b509695505050505050565b600082601f830112613e5e57600080fd5b81356020613e6e61386e83613803565b82815260059290921b84018101918181019086841115613e8d57600080fd5b8286015b84811015613e425780358352918301918301613e91565b6000806000806000806000806000806101408b8d031215613ec857600080fd5b613ed18b613777565b9950613edf60208c01613777565b985060408b01356001600160401b0380821115613efb57600080fd5b613f078e838f01613ae1565b995060608d0135915080821115613f1d57600080fd5b613f298e838f01613ae1565b985060808d0135975060a08d0135915080821115613f4657600080fd5b613f528e838f01613dc3565b965060c08d0135915080821115613f6857600080fd5b613f748e838f01613dc3565b955060e08d0135915080821115613f8a57600080fd5b613f968e838f01613e4d565b94506101008d0135915080821115613fad57600080fd5b613fb98e838f01613dc3565b93506101208d0135915080821115613fd057600080fd5b50613fdd8d828e01613e4d565b9150509295989b9194979a5092959850565b6000806040838503121561400257600080fd5b61400b83613777565b915061401960208401613777565b90509250929050565b604081526000614035604083018561371f565b90508260208301529392505050565b600181811c9082168061405857607f821691505b60208210810361407857634e487b7160e01b600052602260045260246000fd5b50919050565b634e487b7160e01b600052601160045260246000fd5b600082198211156140a7576140a761407e565b500190565b6000828210156140be576140be61407e565b500390565b6020808252601d908201527f4e6565647320746f20626520616e20616c6c6f776564206d696e746572000000604082015260600190565b6020808252600c908201526b4e6f7420666f722073616c6560a01b604082015260600190565b600081600019048311821515161561413a5761413a61407e565b500290565b6020808252600b908201526a57726f6e6720707269636560a81b604082015260600190565b602080825260139082015272115e18d959591959081b5a5b9d081b1a5b5a5d606a1b604082015260600190565b6020808252602e908201527f4552433732313a2063616c6c6572206973206e6f7420746f6b656e206f776e6560408201526d1c881b9bdc88185c1c1c9bdd995960921b606082015260800190565b6000826141fc57634e487b7160e01b600052601260045260246000fd5b500490565b634e487b7160e01b600052603260045260246000fd5b60006020828403121561422957600080fd5b8135610d6e81613d03565b6000600182016142465761424661407e565b5060010190565b6020808252600890820152672737903a37b5b2b760c11b604082015260600190565b6020808252600c908201526b139bdd08185c1c1c9bdd995960a21b604082015260600190565b6020808252601c908201527f596f752063757272656e746c792063616e206e6f742072656465656d00000000604082015260600190565b601f821115610c7457600081815260208120601f850160051c810160208610156142f35750805b601f850160051c820191505b81811015611058578281556001016142ff565b81516001600160401b0381111561432b5761432b6137bd565b61433f816143398454614044565b846142cc565b602080601f831160018114614374576000841561435c5750858301515b600019600386901b1c1916600185901b178555611058565b600085815260208120601f198616915b828110156143a357888601518255948401946001909101908401614384565b50858210156143c15787850151600019600388901b60f8161c191681555b5050505050600190811b01905550565b602080825260189082015277115490cdcc8c4e881a5b9d985b1a59081d1bdad95b88125160421b604082015260600190565b60006020828403121561441557600080fd5b5051919050565b60006020828403121561442e57600080fd5b8151610d6e81613d03565b6001600160a01b0392831681529116602082015260400190565b6020808252600390820152621cd95d60ea1b604082015260600190565b6000815461447d81614044565b80855260206001838116801561449a57600181146144b4576144e2565b60ff1985168884015283151560051b8801830195506144e2565b866000528260002060005b858110156144da5781548a82018601529083019084016144bf565b890184019650505b505050505092915050565b60c08152600061450060c083018961371f565b82810360208401526145128189614470565b905082810360408401526145268188614470565b9050828103606084015261453a8187614470565b6080840195909552505060a00152949350505050565b60006020828403121561456257600080fd5b81516001600160401b0381111561457857600080fd5b8201601f8101841361458957600080fd5b805161459761386e82613a81565b8181528560208385010111156145ac57600080fd5b6145bd8260208301602086016136f3565b95945050505050565b60208082526032908201527f4552433732313a207472616e7366657220746f206e6f6e20455243373231526560408201527131b2b4bb32b91034b6b83632b6b2b73a32b960711b606082015260800190565b6020808252602b908201527f496e697469616c697a61626c653a20636f6e7472616374206973206e6f74206960408201526a6e697469616c697a696e6760a81b606082015260800190565b6001600160a01b03858116825284166020820152604081018390526080606082018190526000906146969083018461371f565b9695505050505050565b6000602082840312156146b257600080fd5b8151610d6e8161366b56feddf252ad1be2c89b69c2b068fc378daa952ba7f163c4a11628f55a4df523b3efa6dc15bdb68da224c66db4b3838d9a2b205138e8cff6774e57d0af91e196d622a264697066735822122043f4046f08aee725a9aa94d8aa3f7b1c3450100bbfe3abd96bdfb0aaebde0a9c64736f6c634300080f0033",
  "devdoc": {
    "author": "Zien Repository: https://github.com/joinzien/expanded-nft",
    "details": "This allows creators to mint a unique serial drop of an expanded NFT within a custom contract",
    "kind": "dev",
    "methods": {
      "approve(address,uint256)": {
        "details": "See {IERC721-approve}."
      },
      "balanceOf(address)": {
        "details": "See {IERC721-balanceOf}."
      },
      "burn(uint256)": {
        "params": {
          "tokenId": "Token ID to burn User burn function for token id "
        }
      },
      "getAllowedMinter()": {
        "details": "Sets the types of users who is allowed to mint."
      },
      "getApproved(uint256)": {
        "details": "See {IERC721-getApproved}."
      },
      "getConditionReport(uint256)": {
        "details": "Get URIs for the condition report",
        "returns": {
          "_0": "_imageUrl, _imageHash"
        }
      },
      "getGeneralMintLimit()": {
        "details": "returns the general mint limit"
      },
      "getMembersMintLimit()": {
        "details": "returns the member mint limit"
      },
      "getMembersSalePrice()": {
        "details": "returns the member sale price"
      },
      "getRoyaltyBPS()": {
        "details": "returns the royalty BPS"
      },
      "getSplitBPS()": {
        "details": "returns the split BPS"
      },
      "getURIs(uint256)": {
        "details": "Get URIs for edition NFT",
        "returns": {
          "_0": "_imageUrl, _imageHash, _animationUrl, _animationHash"
        }
      },
      "getVIPMintLimit()": {
        "details": "returns the VIP mint limit"
      },
      "getVIPSalePrice()": {
        "details": "returns the VIP sale price"
      },
      "getWhoCanMint()": {
        "details": "returns who can mint"
      },
      "initialize(address,address,string,string,uint256,string[],string[],bytes32[],string[],bytes32[])": {
        "details": "Function to create a new drop. Can only be called by the allowed creator Sets the only allowed minter to the address that creates/owns the drop. This can be re-assigned or updated later",
        "params": {
          "_dropSize": "Number of editions that can be minted in total.    ",
          "_name": "Name of drop, used in the title as \"$NAME NUMBER/TOTAL\"",
          "_owner": "wallet addres for the user that owns and can mint the drop, gets royalty and sales payouts and can update the base url if needed.",
          "_symbol": "Symbol of the new token contract",
          "animationHash": "The associated hash of the animation in sha-256 bytes32 format. If animation is omitted the hash can be zero.",
          "animationUrl": "Animation URL of the edition. Not required, but if omitted image URL needs to be included. This follows the opensea spec for NFTs",
          "artistWallet": "wallet address for thr User that created the drop",
          "description": "Description of the edition, used in the description field of the NFT",
          "imageHash": "SHA256 of the given image in bytes32 format (0xHASH). If no image is included, the hash can be zero.",
          "imageUrl": "Image URL of the the edition. Strongly encouraged to be used, if necessary, only animation URL can be used. One of animation and image url need to exist in a drop to render the NFT."
        }
      },
      "isApprovedForAll(address,address)": {
        "details": "See {IERC721-isApprovedForAll}."
      },
      "mintEdition(address)": {
        "details": "This mints one edition to the given address by an allowed minter on the edition instance.",
        "params": {
          "to": "address to send the newly minted edition to"
        }
      },
      "mintEditions(address[])": {
        "details": "This mints multiple editions to the given list of addresses.",
        "params": {
          "recipients": "list of addresses to send the newly minted editions to"
        }
      },
      "name()": {
        "details": "See {IERC721Metadata-name}."
      },
      "ownerOf(uint256)": {
        "details": "See {IERC721-ownerOf}."
      },
      "purchase()": {
        "details": "This allows the user to purchase an edition at the given price in the contract."
      },
      "renounceOwnership()": {
        "details": "Leaves the contract without owner. It will not be possible to call `onlyOwner` functions anymore. Can only be called by the current owner. NOTE: Renouncing ownership will leave the contract without an owner, thereby removing any functionality that is only available to the owner."
      },
      "reserve(address[],uint256[])": {
        "details": "Set various pricing related values",
        "params": {
          "tokenIDs": "A list of tokenId to reserve                                                                           ",
          "wallets": "A list of wallets"
        }
      },
      "royaltyInfo(uint256,uint256)": {
        "details": "Get royalty information for token",
        "params": {
          "_salePrice": "Sale price for the token"
        }
      },
      "safeTransferFrom(address,address,uint256)": {
        "details": "See {IERC721-safeTransferFrom}."
      },
      "safeTransferFrom(address,address,uint256,bytes)": {
        "details": "See {IERC721-safeTransferFrom}."
      },
      "setAllowedMinter(uint8)": {
        "details": "Sets the types of users who is allowed to mint.",
        "params": {
          "minters": "WhoCanMint enum of minter types"
        }
      },
      "setApprovalForAll(address,bool)": {
        "details": "See {IERC721-setApprovalForAll}."
      },
      "setApprovedMinters(uint256,address[],bool[])": {
        "details": "Sets the approved minting status of the given address. This requires that msg.sender is the owner of the given edition id. If the ZeroAddress (address(0x0)) is set as a minter, anyone will be allowed to mint. This setup is similar to setApprovalForAll in the ERC721 spec.",
        "params": {
          "allowed": "boolean if that address is allowed to mint",
          "minter": "address to set approved minting status for"
        }
      },
      "setApprovedVIPMinters(uint256,address[],bool[])": {
        "details": "Sets the approved minting status of the given address. This requires that msg.sender is the owner of the given edition id. If the ZeroAddress (address(0x0)) is set as a minter, anyone will be allowed to mint. This setup is similar to setApprovalForAll in the ERC721 spec.",
        "params": {
          "allowed": "boolean if that address is allowed to mint",
          "minter": "address to set approved minting status for"
        }
      },
      "setMembersSalePrice(uint256)": {
        "details": "This sets the members ETH sales price Setting a sales price allows users to mint the drop until it sells out. For more granular sales, use an external sales contract.",
        "params": {
          "_salePrice": "if sale price is 0 sale is stopped, otherwise that amount  of ETH is needed to start the sale."
        }
      },
      "setPricing(uint256,uint256,uint256,uint256,uint256,uint256,uint256,uint256)": {
        "details": "Set various pricing related values",
        "params": {
          "_generalMintLimit": "Mint limit for the general public                                                                                 ",
          "_generalSalePrice": "SalePrice for the general public     ",
          "_membersMintLimit": "Mint limit for Members  ",
          "_membersSalePrice": "SalePrice for Members  ",
          "_royaltyBPS": "BPS of the royalty set on the contract. Can be 0 for no royalty.",
          "_splitBPS": "BPS of the royalty set on the contract. Can be 0 for no royalty. ",
          "_vipMintLimit": "Mint limit for VIPs",
          "_vipSalePrice": "Sale price for VIPs"
        }
      },
      "setSalePrice(uint256)": {
        "details": "This sets a simple ETH sales price Setting a sales price allows users to mint the drop until it sells out. For more granular sales, use an external sales contract.",
        "params": {
          "_salePrice": "if sale price is 0 sale is stopped, otherwise that amount  of ETH is needed to start the sale."
        }
      },
      "setSalePrices(uint256,uint256,uint256)": {
        "details": "This sets the members ETH sales price Setting a sales price allows users to mint the drop until it sells out. For more granular sales, use an external sales contract.",
        "params": {
          "generalSalePrice": "if sale price is 0 sale is stopped, otherwise that amount  of ETH is needed to start the sale.                                              ",
          "membersSalePrice": "if sale price is 0 sale is stopped, otherwise that amount  of ETH is needed to start the sale.",
          "vipSalePrice": "if sale price is 0 sale is stopped, otherwise that amount  of ETH is needed to start the sale."
        }
      },
      "setVIPSalePrice(uint256)": {
        "details": "This sets the VIP ETH sales price Setting a sales price allows users to mint the drop until it sells out. For more granular sales, use an external sales contract.",
        "params": {
          "_salePrice": "if sale price is 0 sale is stopped, otherwise that amount  of ETH is needed to start the sale."
        }
      },
      "symbol()": {
        "details": "See {IERC721Metadata-symbol}."
      },
      "tokenURI(uint256)": {
        "details": "Get URI for given token id",
        "params": {
          "tokenId": "token id to get uri for"
        },
        "returns": {
          "_0": "base64-encoded json metadata object"
        }
      },
      "totalSupply()": {
        "details": "returns the number of minted tokens within the drop"
      },
      "transferFrom(address,address,uint256)": {
        "details": "See {IERC721-transferFrom}."
      },
      "transferOwnership(address)": {
        "details": "Transfers ownership of the contract to a new account (`newOwner`). Can only be called by the current owner."
      },
      "updateEditionURLs(uint256,string,string)": {
        "details": "Allows for updates of edition urls by the owner of the edition. Only URLs can be updated (data-uris are supported), hashes cannot be updated."
      },
      "withdraw()": {
        "details": "This withdraws ETH from the contract to the contract owner."
      }
    },
    "version": 1
  },
  "userdoc": {
    "kind": "user",
    "methods": {
      "getArtistWallet()": {
        "notice": "return the artists wallet address"
      },
      "getPaymentToken()": {
        "notice": "return the payment tokens address"
      },
      "numberCanMint()": {
        "notice": "Returns the number of editions allowed to mint"
      },
      "owner()": {
        "notice": "Simple override for owner interface."
      },
      "setArtistWallet(address)": {
        "notice": "set the artists wallet address"
      },
      "setPaymentToken(address)": {
        "notice": "set a new payment token address"
      }
    },
    "notice": "This is a smart contract for handling dynamic contract minting.",
    "version": 1
  },
  "storageLayout": {
    "storage": [
      {
        "astId": 820,
        "contract": "contracts/ExpandedNFT.sol:ExpandedNFT",
        "label": "_initialized",
        "offset": 0,
        "slot": "0",
        "type": "t_uint8"
      },
      {
        "astId": 823,
        "contract": "contracts/ExpandedNFT.sol:ExpandedNFT",
        "label": "_initializing",
        "offset": 1,
        "slot": "0",
        "type": "t_bool"
      },
      {
        "astId": 3446,
        "contract": "contracts/ExpandedNFT.sol:ExpandedNFT",
        "label": "__gap",
        "offset": 0,
        "slot": "1",
        "type": "t_array(t_uint256)50_storage"
      },
      {
        "astId": 3790,
        "contract": "contracts/ExpandedNFT.sol:ExpandedNFT",
        "label": "__gap",
        "offset": 0,
        "slot": "51",
        "type": "t_array(t_uint256)50_storage"
      },
      {
        "astId": 2138,
        "contract": "contracts/ExpandedNFT.sol:ExpandedNFT",
        "label": "_name",
        "offset": 0,
        "slot": "101",
        "type": "t_string_storage"
      },
      {
        "astId": 2140,
        "contract": "contracts/ExpandedNFT.sol:ExpandedNFT",
        "label": "_symbol",
        "offset": 0,
        "slot": "102",
        "type": "t_string_storage"
      },
      {
        "astId": 2144,
        "contract": "contracts/ExpandedNFT.sol:ExpandedNFT",
        "label": "_owners",
        "offset": 0,
        "slot": "103",
        "type": "t_mapping(t_uint256,t_address)"
      },
      {
        "astId": 2148,
        "contract": "contracts/ExpandedNFT.sol:ExpandedNFT",
        "label": "_balances",
        "offset": 0,
        "slot": "104",
        "type": "t_mapping(t_address,t_uint256)"
      },
      {
        "astId": 2152,
        "contract": "contracts/ExpandedNFT.sol:ExpandedNFT",
        "label": "_tokenApprovals",
        "offset": 0,
        "slot": "105",
        "type": "t_mapping(t_uint256,t_address)"
      },
      {
        "astId": 2158,
        "contract": "contracts/ExpandedNFT.sol:ExpandedNFT",
        "label": "_operatorApprovals",
        "offset": 0,
        "slot": "106",
        "type": "t_mapping(t_address,t_mapping(t_address,t_bool))"
      },
      {
        "astId": 3000,
        "contract": "contracts/ExpandedNFT.sol:ExpandedNFT",
        "label": "__gap",
        "offset": 0,
        "slot": "107",
        "type": "t_array(t_uint256)44_storage"
      },
      {
        "astId": 593,
        "contract": "contracts/ExpandedNFT.sol:ExpandedNFT",
        "label": "_owner",
        "offset": 0,
        "slot": "151",
        "type": "t_address"
      },
      {
        "astId": 713,
        "contract": "contracts/ExpandedNFT.sol:ExpandedNFT",
        "label": "__gap",
        "offset": 0,
        "slot": "152",
        "type": "t_array(t_uint256)49_storage"
      },
      {
        "astId": 4824,
        "contract": "contracts/ExpandedNFT.sol:ExpandedNFT",
        "label": "_artistWallet",
        "offset": 0,
        "slot": "201",
        "type": "t_address"
      },
      {
        "astId": 4829,
        "contract": "contracts/ExpandedNFT.sol:ExpandedNFT",
        "label": "_perTokenMetadata",
        "offset": 0,
        "slot": "202",
        "type": "t_mapping(t_uint256,t_struct(PerToken)4792_storage)"
      },
      {
        "astId": 4831,
        "contract": "contracts/ExpandedNFT.sol:ExpandedNFT",
        "label": "dropSize",
        "offset": 0,
        "slot": "203",
        "type": "t_uint256"
      },
      {
        "astId": 4833,
        "contract": "contracts/ExpandedNFT.sol:ExpandedNFT",
        "label": "_reserveCount",
        "offset": 0,
        "slot": "204",
        "type": "t_uint256"
      },
      {
        "astId": 4837,
        "contract": "contracts/ExpandedNFT.sol:ExpandedNFT",
        "label": "_reserveAddress",
        "offset": 0,
        "slot": "205",
        "type": "t_mapping(t_uint256,t_address)"
      },
      {
        "astId": 4841,
        "contract": "contracts/ExpandedNFT.sol:ExpandedNFT",
        "label": "_reserveTokenId",
        "offset": 0,
        "slot": "206",
        "type": "t_mapping(t_uint256,t_uint256)"
      },
      {
        "astId": 4845,
        "contract": "contracts/ExpandedNFT.sol:ExpandedNFT",
        "label": "_tokenClaimed",
        "offset": 0,
        "slot": "207",
        "type": "t_mapping(t_uint256,t_bool)"
      },
      {
        "astId": 4847,
        "contract": "contracts/ExpandedNFT.sol:ExpandedNFT",
        "label": "_firstUnclaimed",
        "offset": 0,
        "slot": "208",
        "type": "t_uint256"
      },
      {
        "astId": 4849,
        "contract": "contracts/ExpandedNFT.sol:ExpandedNFT",
        "label": "_claimCount",
        "offset": 0,
        "slot": "209",
        "type": "t_uint256"
      },
      {
        "astId": 4852,
        "contract": "contracts/ExpandedNFT.sol:ExpandedNFT",
        "label": "_pricing",
        "offset": 0,
        "slot": "210",
        "type": "t_struct(Pricing)4822_storage"
      },
      {
        "astId": 4854,
        "contract": "contracts/ExpandedNFT.sol:ExpandedNFT",
        "label": "salePrice",
        "offset": 0,
        "slot": "221",
        "type": "t_uint256"
      },
      {
        "astId": 4857,
        "contract": "contracts/ExpandedNFT.sol:ExpandedNFT",
        "label": "_paymentTokenERC20",
        "offset": 0,
        "slot": "222",
        "type": "t_contract(IERC20Upgradeable)1780"
      }
    ],
    "types": {
      "t_address": {
        "encoding": "inplace",
        "label": "address",
        "numberOfBytes": "20"
      },
      "t_array(t_uint256)44_storage": {
        "base": "t_uint256",
        "encoding": "inplace",
        "label": "uint256[44]",
        "numberOfBytes": "1408"
      },
      "t_array(t_uint256)49_storage": {
        "base": "t_uint256",
        "encoding": "inplace",
        "label": "uint256[49]",
        "numberOfBytes": "1568"
      },
      "t_array(t_uint256)50_storage": {
        "base": "t_uint256",
        "encoding": "inplace",
        "label": "uint256[50]",
        "numberOfBytes": "1600"
      },
      "t_bool": {
        "encoding": "inplace",
        "label": "bool",
        "numberOfBytes": "1"
      },
      "t_bytes32": {
        "encoding": "inplace",
        "label": "bytes32",
        "numberOfBytes": "32"
      },
      "t_contract(IERC20Upgradeable)1780": {
        "encoding": "inplace",
        "label": "contract IERC20Upgradeable",
        "numberOfBytes": "20"
      },
      "t_enum(ExpandedNFTStates)4717": {
        "encoding": "inplace",
        "label": "enum ExpandedNFT.ExpandedNFTStates",
        "numberOfBytes": "1"
      },
      "t_enum(WhoCanMint)4708": {
        "encoding": "inplace",
        "label": "enum ExpandedNFT.WhoCanMint",
        "numberOfBytes": "1"
      },
      "t_mapping(t_address,t_bool)": {
        "encoding": "mapping",
        "key": "t_address",
        "label": "mapping(address => bool)",
        "numberOfBytes": "32",
        "value": "t_bool"
      },
      "t_mapping(t_address,t_mapping(t_address,t_bool))": {
        "encoding": "mapping",
        "key": "t_address",
        "label": "mapping(address => mapping(address => bool))",
        "numberOfBytes": "32",
        "value": "t_mapping(t_address,t_bool)"
      },
      "t_mapping(t_address,t_uint256)": {
        "encoding": "mapping",
        "key": "t_address",
        "label": "mapping(address => uint256)",
        "numberOfBytes": "32",
        "value": "t_uint256"
      },
      "t_mapping(t_uint256,t_address)": {
        "encoding": "mapping",
        "key": "t_uint256",
        "label": "mapping(uint256 => address)",
        "numberOfBytes": "32",
        "value": "t_address"
      },
      "t_mapping(t_uint256,t_bool)": {
        "encoding": "mapping",
        "key": "t_uint256",
        "label": "mapping(uint256 => bool)",
        "numberOfBytes": "32",
        "value": "t_bool"
      },
      "t_mapping(t_uint256,t_struct(PerToken)4792_storage)": {
        "encoding": "mapping",
        "key": "t_uint256",
        "label": "mapping(uint256 => struct ExpandedNFT.PerToken)",
        "numberOfBytes": "32",
        "value": "t_struct(PerToken)4792_storage"
      },
      "t_mapping(t_uint256,t_uint256)": {
        "encoding": "mapping",
        "key": "t_uint256",
        "label": "mapping(uint256 => uint256)",
        "numberOfBytes": "32",
        "value": "t_uint256"
      },
      "t_string_storage": {
        "encoding": "bytes",
        "label": "string",
        "numberOfBytes": "32"
      },
      "t_struct(PerToken)4792_storage": {
        "encoding": "inplace",
        "label": "struct ExpandedNFT.PerToken",
        "members": [
          {
            "astId": 4767,
            "contract": "contracts/ExpandedNFT.sol:ExpandedNFT",
            "label": "editionState",
            "offset": 0,
            "slot": "0",
            "type": "t_enum(ExpandedNFTStates)4717"
          },
          {
            "astId": 4769,
            "contract": "contracts/ExpandedNFT.sol:ExpandedNFT",
            "label": "editionFee",
            "offset": 0,
            "slot": "1",
            "type": "t_uint256"
          },
          {
            "astId": 4771,
            "contract": "contracts/ExpandedNFT.sol:ExpandedNFT",
            "label": "description",
            "offset": 0,
            "slot": "2",
            "type": "t_string_storage"
          },
          {
            "astId": 4773,
            "contract": "contracts/ExpandedNFT.sol:ExpandedNFT",
            "label": "animationUrl",
            "offset": 0,
            "slot": "3",
            "type": "t_string_storage"
          },
          {
            "astId": 4775,
            "contract": "contracts/ExpandedNFT.sol:ExpandedNFT",
            "label": "animationHash",
            "offset": 0,
            "slot": "4",
            "type": "t_bytes32"
          },
          {
            "astId": 4777,
            "contract": "contracts/ExpandedNFT.sol:ExpandedNFT",
            "label": "imageUrl",
            "offset": 0,
            "slot": "5",
            "type": "t_string_storage"
          },
          {
            "astId": 4779,
            "contract": "contracts/ExpandedNFT.sol:ExpandedNFT",
            "label": "imageHash",
            "offset": 0,
            "slot": "6",
            "type": "t_bytes32"
          },
          {
            "astId": 4781,
            "contract": "contracts/ExpandedNFT.sol:ExpandedNFT",
            "label": "redeemedAnimationUrl",
            "offset": 0,
            "slot": "7",
            "type": "t_string_storage"
          },
          {
            "astId": 4783,
            "contract": "contracts/ExpandedNFT.sol:ExpandedNFT",
            "label": "redeemedAnimationHash",
            "offset": 0,
            "slot": "8",
            "type": "t_bytes32"
          },
          {
            "astId": 4785,
            "contract": "contracts/ExpandedNFT.sol:ExpandedNFT",
            "label": "redeemedImageUrl",
            "offset": 0,
            "slot": "9",
            "type": "t_string_storage"
          },
          {
            "astId": 4787,
            "contract": "contracts/ExpandedNFT.sol:ExpandedNFT",
            "label": "redeemedImageHash",
            "offset": 0,
            "slot": "10",
            "type": "t_bytes32"
          },
          {
            "astId": 4789,
            "contract": "contracts/ExpandedNFT.sol:ExpandedNFT",
            "label": "conditionReportUrl",
            "offset": 0,
            "slot": "11",
            "type": "t_string_storage"
          },
          {
            "astId": 4791,
            "contract": "contracts/ExpandedNFT.sol:ExpandedNFT",
            "label": "conditionReportHash",
            "offset": 0,
            "slot": "12",
            "type": "t_bytes32"
          }
        ],
        "numberOfBytes": "416"
      },
      "t_struct(Pricing)4822_storage": {
        "encoding": "inplace",
        "label": "struct ExpandedNFT.Pricing",
        "members": [
          {
            "astId": 4794,
            "contract": "contracts/ExpandedNFT.sol:ExpandedNFT",
            "label": "royaltyBPS",
            "offset": 0,
            "slot": "0",
            "type": "t_uint256"
          },
          {
            "astId": 4796,
            "contract": "contracts/ExpandedNFT.sol:ExpandedNFT",
            "label": "splitBPS",
            "offset": 0,
            "slot": "1",
            "type": "t_uint256"
          },
          {
            "astId": 4798,
            "contract": "contracts/ExpandedNFT.sol:ExpandedNFT",
            "label": "vipSalePrice",
            "offset": 0,
            "slot": "2",
            "type": "t_uint256"
          },
          {
            "astId": 4800,
            "contract": "contracts/ExpandedNFT.sol:ExpandedNFT",
            "label": "membersSalePrice",
            "offset": 0,
            "slot": "3",
            "type": "t_uint256"
          },
          {
            "astId": 4802,
            "contract": "contracts/ExpandedNFT.sol:ExpandedNFT",
            "label": "vipMintLimit",
            "offset": 0,
            "slot": "4",
            "type": "t_uint256"
          },
          {
            "astId": 4804,
            "contract": "contracts/ExpandedNFT.sol:ExpandedNFT",
            "label": "membersMintLimit",
            "offset": 0,
            "slot": "5",
            "type": "t_uint256"
          },
          {
            "astId": 4806,
            "contract": "contracts/ExpandedNFT.sol:ExpandedNFT",
            "label": "generalMintLimit",
            "offset": 0,
            "slot": "6",
            "type": "t_uint256"
          },
          {
            "astId": 4810,
            "contract": "contracts/ExpandedNFT.sol:ExpandedNFT",
            "label": "allowedMinters",
            "offset": 0,
            "slot": "7",
            "type": "t_mapping(t_address,t_bool)"
          },
          {
            "astId": 4814,
            "contract": "contracts/ExpandedNFT.sol:ExpandedNFT",
            "label": "vipAllowedMinters",
            "offset": 0,
            "slot": "8",
            "type": "t_mapping(t_address,t_bool)"
          },
          {
            "astId": 4817,
            "contract": "contracts/ExpandedNFT.sol:ExpandedNFT",
            "label": "whoCanMint",
            "offset": 0,
            "slot": "9",
            "type": "t_enum(WhoCanMint)4708"
          },
          {
            "astId": 4821,
            "contract": "contracts/ExpandedNFT.sol:ExpandedNFT",
            "label": "mintCounts",
            "offset": 0,
            "slot": "10",
            "type": "t_mapping(t_address,t_uint256)"
          }
        ],
        "numberOfBytes": "352"
      },
      "t_uint256": {
        "encoding": "inplace",
        "label": "uint256",
        "numberOfBytes": "32"
      },
      "t_uint8": {
        "encoding": "inplace",
        "label": "uint8",
        "numberOfBytes": "1"
      }
    }
  }
}