{
  "address": "0x78c13e0ED1191f67a63EEE24c4646011b1E14061",
  "abi": [
    {
      "inputs": [],
      "stateMutability": "nonpayable",
      "type": "constructor"
    },
    {
      "anonymous": false,
      "inputs": [
        {
          "indexed": true,
          "internalType": "address",
          "name": "owner",
          "type": "address"
        },
        {
          "indexed": true,
          "internalType": "address",
          "name": "approved",
          "type": "address"
        },
        {
          "indexed": true,
          "internalType": "uint256",
          "name": "tokenId",
          "type": "uint256"
        }
      ],
      "name": "Approval",
      "type": "event"
    },
    {
      "anonymous": false,
      "inputs": [
        {
          "indexed": true,
          "internalType": "address",
          "name": "owner",
          "type": "address"
        },
        {
          "indexed": true,
          "internalType": "address",
          "name": "operator",
          "type": "address"
        },
        {
          "indexed": false,
          "internalType": "bool",
          "name": "approved",
          "type": "bool"
        }
      ],
      "name": "ApprovalForAll",
      "type": "event"
    },
    {
      "anonymous": false,
      "inputs": [
        {
          "indexed": false,
          "internalType": "uint256",
          "name": "_fromTokenId",
          "type": "uint256"
        },
        {
          "indexed": false,
          "internalType": "uint256",
          "name": "_toTokenId",
          "type": "uint256"
        }
      ],
      "name": "BatchMetadataUpdate",
      "type": "event"
    },
    {
      "anonymous": false,
      "inputs": [
        {
          "indexed": false,
          "internalType": "uint256",
          "name": "tokenId",
          "type": "uint256"
        }
      ],
      "name": "DeliveryAccepted",
      "type": "event"
    },
    {
      "anonymous": false,
      "inputs": [
        {
          "indexed": false,
          "internalType": "uint256",
          "name": "price",
          "type": "uint256"
        },
        {
          "indexed": false,
          "internalType": "address",
          "name": "owner",
          "type": "address"
        }
      ],
      "name": "EditionSold",
      "type": "event"
    },
    {
      "anonymous": false,
      "inputs": [
        {
          "indexed": false,
          "internalType": "uint8",
          "name": "version",
          "type": "uint8"
        }
      ],
      "name": "Initialized",
      "type": "event"
    },
    {
      "anonymous": false,
      "inputs": [
        {
          "indexed": false,
          "internalType": "uint256",
          "name": "_tokenId",
          "type": "uint256"
        }
      ],
      "name": "MetadataUpdate",
      "type": "event"
    },
    {
      "anonymous": false,
      "inputs": [
        {
          "indexed": false,
          "internalType": "uint256",
          "name": "tokenId",
          "type": "uint256"
        }
      ],
      "name": "OfferAccepted",
      "type": "event"
    },
    {
      "anonymous": false,
      "inputs": [
        {
          "indexed": false,
          "internalType": "uint256",
          "name": "tokenId",
          "type": "uint256"
        }
      ],
      "name": "OfferRejected",
      "type": "event"
    },
    {
      "anonymous": false,
      "inputs": [
        {
          "indexed": false,
          "internalType": "uint256",
          "name": "tokenId",
          "type": "uint256"
        }
      ],
      "name": "OfferTermsSet",
      "type": "event"
    },
    {
      "anonymous": false,
      "inputs": [
        {
          "indexed": true,
          "internalType": "address",
          "name": "previousOwner",
          "type": "address"
        },
        {
          "indexed": true,
          "internalType": "address",
          "name": "newOwner",
          "type": "address"
        }
      ],
      "name": "OwnershipTransferred",
      "type": "event"
    },
    {
      "anonymous": false,
      "inputs": [
        {
          "indexed": false,
          "internalType": "uint256",
          "name": "amount",
          "type": "uint256"
        }
      ],
      "name": "PriceChanged",
      "type": "event"
    },
    {
      "anonymous": false,
      "inputs": [
        {
          "indexed": false,
          "internalType": "uint256",
          "name": "tokenId",
          "type": "uint256"
        }
      ],
      "name": "ProductionComplete",
      "type": "event"
    },
    {
      "anonymous": false,
      "inputs": [
        {
          "indexed": false,
          "internalType": "uint256",
          "name": "tokenId",
          "type": "uint256"
        },
        {
          "indexed": false,
          "internalType": "address",
          "name": "owner",
          "type": "address"
        }
      ],
      "name": "RedeemAborted",
      "type": "event"
    },
    {
      "anonymous": false,
      "inputs": [
        {
          "indexed": false,
          "internalType": "uint256",
          "name": "tokenId",
          "type": "uint256"
        },
        {
          "indexed": false,
          "internalType": "address",
          "name": "owner",
          "type": "address"
        }
      ],
      "name": "RedeemStarted",
      "type": "event"
    },
    {
      "anonymous": false,
      "inputs": [
        {
          "indexed": true,
          "internalType": "address",
          "name": "from",
          "type": "address"
        },
        {
          "indexed": true,
          "internalType": "address",
          "name": "to",
          "type": "address"
        },
        {
          "indexed": true,
          "internalType": "uint256",
          "name": "tokenId",
          "type": "uint256"
        }
      ],
      "name": "Transfer",
      "type": "event"
    },
    {
      "anonymous": false,
      "inputs": [
        {
          "indexed": false,
          "internalType": "enum ExpandedNFT.WhoCanMint",
          "name": "minters",
          "type": "uint8"
        }
      ],
      "name": "WhoCanMintChanged",
      "type": "event"
    },
    {
      "inputs": [
        {
          "internalType": "uint256",
          "name": "tokenId",
          "type": "uint256"
        }
      ],
      "name": "abortRedemption",
      "outputs": [],
      "stateMutability": "nonpayable",
      "type": "function"
    },
    {
      "inputs": [
        {
          "internalType": "uint256",
          "name": "tokenId",
          "type": "uint256"
        }
      ],
      "name": "acceptDelivery",
      "outputs": [],
      "stateMutability": "nonpayable",
      "type": "function"
    },
    {
      "inputs": [
        {
          "internalType": "uint256",
          "name": "tokenId",
          "type": "uint256"
        },
        {
          "internalType": "uint256",
          "name": "paymentAmount",
          "type": "uint256"
        }
      ],
      "name": "acceptOfferTerms",
      "outputs": [],
      "stateMutability": "nonpayable",
      "type": "function"
    },
    {
      "inputs": [
        {
          "internalType": "address",
          "name": "wallet",
          "type": "address"
        }
      ],
      "name": "allowListed",
      "outputs": [
        {
          "internalType": "bool",
          "name": "",
          "type": "bool"
        }
      ],
      "stateMutability": "view",
      "type": "function"
    },
    {
      "inputs": [
        {
          "internalType": "address",
          "name": "to",
          "type": "address"
        },
        {
          "internalType": "uint256",
          "name": "tokenId",
          "type": "uint256"
        }
      ],
      "name": "approve",
      "outputs": [],
      "stateMutability": "nonpayable",
      "type": "function"
    },
    {
      "inputs": [
        {
          "internalType": "address",
          "name": "owner",
          "type": "address"
        }
      ],
      "name": "balanceOf",
      "outputs": [
        {
          "internalType": "uint256",
          "name": "",
          "type": "uint256"
        }
      ],
      "stateMutability": "view",
      "type": "function"
    },
    {
      "inputs": [
        {
          "internalType": "uint256",
          "name": "tokenId",
          "type": "uint256"
        }
      ],
      "name": "burn",
      "outputs": [],
      "stateMutability": "nonpayable",
      "type": "function"
    },
    {
      "inputs": [
        {
          "internalType": "address",
          "name": "wallet",
          "type": "address"
        }
      ],
      "name": "canMint",
      "outputs": [
        {
          "internalType": "bool",
          "name": "",
          "type": "bool"
        }
      ],
      "stateMutability": "view",
      "type": "function"
    },
    {
      "inputs": [],
      "name": "dropSize",
      "outputs": [
        {
          "internalType": "uint256",
          "name": "",
          "type": "uint256"
        }
      ],
      "stateMutability": "view",
      "type": "function"
    },
    {
      "inputs": [],
      "name": "getAllowListCount",
      "outputs": [
        {
          "internalType": "uint256",
          "name": "",
          "type": "uint256"
        }
      ],
      "stateMutability": "view",
      "type": "function"
    },
    {
      "inputs": [],
      "name": "getAllowListMintLimit",
      "outputs": [
        {
          "internalType": "uint256",
          "name": "",
          "type": "uint256"
        }
      ],
      "stateMutability": "view",
      "type": "function"
    },
    {
      "inputs": [],
      "name": "getAllowListPrice",
      "outputs": [
        {
          "internalType": "uint256",
          "name": "",
          "type": "uint256"
        }
      ],
      "stateMutability": "view",
      "type": "function"
    },
    {
      "inputs": [],
      "name": "getAllowedMinter",
      "outputs": [
        {
          "internalType": "enum ExpandedNFT.WhoCanMint",
          "name": "",
          "type": "uint8"
        }
      ],
      "stateMutability": "view",
      "type": "function"
    },
    {
      "inputs": [
        {
          "internalType": "uint256",
          "name": "tokenId",
          "type": "uint256"
        }
      ],
      "name": "getApproved",
      "outputs": [
        {
          "internalType": "address",
          "name": "",
          "type": "address"
        }
      ],
      "stateMutability": "view",
      "type": "function"
    },
    {
      "inputs": [],
      "name": "getArtistWallet",
      "outputs": [
        {
          "internalType": "address",
          "name": "",
          "type": "address"
        }
      ],
      "stateMutability": "view",
      "type": "function"
    },
    {
      "inputs": [],
      "name": "getGeneralMintLimit",
      "outputs": [
        {
          "internalType": "uint256",
          "name": "",
          "type": "uint256"
        }
      ],
      "stateMutability": "view",
      "type": "function"
    },
    {
      "inputs": [
        {
          "internalType": "address",
          "name": "wallet",
          "type": "address"
        }
      ],
      "name": "getMintLimit",
      "outputs": [
        {
          "internalType": "uint256",
          "name": "",
          "type": "uint256"
        }
      ],
      "stateMutability": "view",
      "type": "function"
    },
    {
      "inputs": [],
      "name": "getPaymentToken",
      "outputs": [
        {
          "internalType": "address",
          "name": "",
          "type": "address"
        }
      ],
      "stateMutability": "view",
      "type": "function"
    },
    {
      "inputs": [
        {
          "internalType": "address",
          "name": "wallet",
          "type": "address"
        }
      ],
      "name": "getReservationsCount",
      "outputs": [
        {
          "internalType": "uint256",
          "name": "",
          "type": "uint256"
        }
      ],
      "stateMutability": "view",
      "type": "function"
    },
    {
      "inputs": [
        {
          "internalType": "address",
          "name": "wallet",
          "type": "address"
        }
      ],
      "name": "getReservationsList",
      "outputs": [
        {
          "internalType": "uint256[]",
          "name": "",
          "type": "uint256[]"
        }
      ],
      "stateMutability": "view",
      "type": "function"
    },
    {
      "inputs": [],
      "name": "getRoyaltyBPS",
      "outputs": [
        {
          "internalType": "uint256",
          "name": "",
          "type": "uint256"
        }
      ],
      "stateMutability": "view",
      "type": "function"
    },
    {
      "inputs": [],
      "name": "getSplitBPS",
      "outputs": [
        {
          "internalType": "uint256",
          "name": "",
          "type": "uint256"
        }
      ],
      "stateMutability": "view",
      "type": "function"
    },
    {
      "inputs": [
        {
          "internalType": "address",
          "name": "_owner",
          "type": "address"
        },
        {
          "internalType": "address",
          "name": "artistWallet",
          "type": "address"
        },
        {
          "internalType": "string",
          "name": "_name",
          "type": "string"
        },
        {
          "internalType": "string",
          "name": "_symbol",
          "type": "string"
        },
        {
          "internalType": "uint256",
          "name": "_dropSize",
          "type": "uint256"
        },
        {
          "internalType": "bool",
          "name": "randomMint",
          "type": "bool"
        }
      ],
      "name": "initialize",
      "outputs": [],
      "stateMutability": "nonpayable",
      "type": "function"
    },
    {
      "inputs": [
        {
          "internalType": "address",
          "name": "owner",
          "type": "address"
        },
        {
          "internalType": "address",
          "name": "operator",
          "type": "address"
        }
      ],
      "name": "isApprovedForAll",
      "outputs": [
        {
          "internalType": "bool",
          "name": "",
          "type": "bool"
        }
      ],
      "stateMutability": "view",
      "type": "function"
    },
    {
      "inputs": [
        {
          "internalType": "uint256",
          "name": "tokenID",
          "type": "uint256"
        }
      ],
      "name": "isReserved",
      "outputs": [
        {
          "internalType": "bool",
          "name": "",
          "type": "bool"
        }
      ],
      "stateMutability": "view",
      "type": "function"
    },
    {
      "inputs": [
        {
          "internalType": "uint256",
          "name": "startIndex",
          "type": "uint256"
        },
        {
          "internalType": "uint256",
          "name": "count",
          "type": "uint256"
        },
        {
          "internalType": "string[]",
          "name": "_mintedMetadataUrl",
          "type": "string[]"
        }
      ],
      "name": "loadMetadataChunk",
      "outputs": [],
      "stateMutability": "nonpayable",
      "type": "function"
    },
    {
      "inputs": [
        {
          "internalType": "uint256",
          "name": "tokenID",
          "type": "uint256"
        },
        {
          "internalType": "string",
          "name": "_redeemedMetadataUrl",
          "type": "string"
        }
      ],
      "name": "loadRedeemedMetadata",
      "outputs": [],
      "stateMutability": "nonpayable",
      "type": "function"
    },
    {
      "inputs": [],
      "name": "metadataloaded",
      "outputs": [
        {
          "internalType": "bool",
          "name": "",
          "type": "bool"
        }
      ],
      "stateMutability": "view",
      "type": "function"
    },
    {
      "inputs": [
        {
          "internalType": "address",
          "name": "to",
          "type": "address"
        }
      ],
      "name": "mintEdition",
      "outputs": [
        {
          "internalType": "uint256",
          "name": "",
          "type": "uint256"
        }
      ],
      "stateMutability": "payable",
      "type": "function"
    },
    {
      "inputs": [
        {
          "internalType": "address[]",
          "name": "recipients",
          "type": "address[]"
        }
      ],
      "name": "mintEditions",
      "outputs": [
        {
          "internalType": "uint256",
          "name": "",
          "type": "uint256"
        }
      ],
      "stateMutability": "payable",
      "type": "function"
    },
    {
      "inputs": [
        {
          "internalType": "address",
          "name": "to",
          "type": "address"
        },
        {
          "internalType": "uint256",
          "name": "count",
          "type": "uint256"
        }
      ],
      "name": "mintMultipleEditions",
      "outputs": [
        {
          "internalType": "uint256",
          "name": "",
          "type": "uint256"
        }
      ],
      "stateMutability": "payable",
      "type": "function"
    },
    {
      "inputs": [],
      "name": "name",
      "outputs": [
        {
          "internalType": "string",
          "name": "",
          "type": "string"
        }
      ],
      "stateMutability": "view",
      "type": "function"
    },
    {
      "inputs": [],
      "name": "numberCanMint",
      "outputs": [
        {
          "internalType": "uint256",
          "name": "",
          "type": "uint256"
        }
      ],
      "stateMutability": "view",
      "type": "function"
    },
    {
      "inputs": [
        {
          "internalType": "address",
          "name": "wallet",
          "type": "address"
        }
      ],
      "name": "numberOfFreeMints",
      "outputs": [
        {
          "internalType": "uint256",
          "name": "",
          "type": "uint256"
        }
      ],
      "stateMutability": "view",
      "type": "function"
    },
    {
      "inputs": [],
      "name": "owner",
      "outputs": [
        {
          "internalType": "address",
          "name": "",
          "type": "address"
        }
      ],
      "stateMutability": "view",
      "type": "function"
    },
    {
      "inputs": [
        {
          "internalType": "uint256",
          "name": "tokenId",
          "type": "uint256"
        }
      ],
      "name": "ownerOf",
      "outputs": [
        {
          "internalType": "address",
          "name": "",
          "type": "address"
        }
      ],
      "stateMutability": "view",
      "type": "function"
    },
    {
      "inputs": [],
      "name": "price",
      "outputs": [
        {
          "internalType": "uint256",
          "name": "",
          "type": "uint256"
        }
      ],
      "stateMutability": "view",
      "type": "function"
    },
    {
      "inputs": [
        {
          "internalType": "uint256",
          "name": "tokenId",
          "type": "uint256"
        },
        {
          "internalType": "string",
          "name": "_redeemedMetadataUrl",
          "type": "string"
        }
      ],
      "name": "productionComplete",
      "outputs": [],
      "stateMutability": "nonpayable",
      "type": "function"
    },
    {
      "inputs": [],
      "name": "purchase",
      "outputs": [
        {
          "internalType": "uint256",
          "name": "",
          "type": "uint256"
        }
      ],
      "stateMutability": "payable",
      "type": "function"
    },
    {
      "inputs": [
        {
          "internalType": "uint256",
          "name": "tokenId",
          "type": "uint256"
        }
      ],
      "name": "redeem",
      "outputs": [],
      "stateMutability": "nonpayable",
      "type": "function"
    },
    {
      "inputs": [
        {
          "internalType": "uint256",
          "name": "tokenId",
          "type": "uint256"
        }
      ],
      "name": "redeemedState",
      "outputs": [
        {
          "internalType": "uint256",
          "name": "",
          "type": "uint256"
        }
      ],
      "stateMutability": "view",
      "type": "function"
    },
    {
      "inputs": [
        {
          "internalType": "uint256",
          "name": "tokenId",
          "type": "uint256"
        }
      ],
      "name": "redemptionPrice",
      "outputs": [
        {
          "internalType": "uint256",
          "name": "",
          "type": "uint256"
        }
      ],
      "stateMutability": "view",
      "type": "function"
    },
    {
      "inputs": [
        {
          "internalType": "uint256",
          "name": "tokenId",
          "type": "uint256"
        }
      ],
      "name": "rejectOfferTerms",
      "outputs": [],
      "stateMutability": "nonpayable",
      "type": "function"
    },
    {
      "inputs": [],
      "name": "renounceOwnership",
      "outputs": [],
      "stateMutability": "nonpayable",
      "type": "function"
    },
    {
      "inputs": [
        {
          "internalType": "address[]",
          "name": "wallets",
          "type": "address[]"
        },
        {
          "internalType": "uint256[]",
          "name": "tokenIDs",
          "type": "uint256[]"
        }
      ],
      "name": "reserve",
      "outputs": [],
      "stateMutability": "nonpayable",
      "type": "function"
    },
    {
      "inputs": [
        {
          "internalType": "uint256",
          "name": "",
          "type": "uint256"
        },
        {
          "internalType": "uint256",
          "name": "_salePrice",
          "type": "uint256"
        }
      ],
      "name": "royaltyInfo",
      "outputs": [
        {
          "internalType": "address",
          "name": "receiver",
          "type": "address"
        },
        {
          "internalType": "uint256",
          "name": "royaltyAmount",
          "type": "uint256"
        }
      ],
      "stateMutability": "view",
      "type": "function"
    },
    {
      "inputs": [
        {
          "internalType": "address",
          "name": "from",
          "type": "address"
        },
        {
          "internalType": "address",
          "name": "to",
          "type": "address"
        },
        {
          "internalType": "uint256",
          "name": "tokenId",
          "type": "uint256"
        }
      ],
      "name": "safeTransferFrom",
      "outputs": [],
      "stateMutability": "nonpayable",
      "type": "function"
    },
    {
      "inputs": [
        {
          "internalType": "address",
          "name": "from",
          "type": "address"
        },
        {
          "internalType": "address",
          "name": "to",
          "type": "address"
        },
        {
          "internalType": "uint256",
          "name": "tokenId",
          "type": "uint256"
        },
        {
          "internalType": "bytes",
          "name": "data",
          "type": "bytes"
        }
      ],
      "name": "safeTransferFrom",
      "outputs": [],
      "stateMutability": "nonpayable",
      "type": "function"
    },
    {
      "inputs": [],
      "name": "salePrice",
      "outputs": [
        {
          "internalType": "uint256",
          "name": "",
          "type": "uint256"
        }
      ],
      "stateMutability": "view",
      "type": "function"
    },
    {
      "inputs": [
        {
          "internalType": "uint256",
          "name": "count",
          "type": "uint256"
        },
        {
          "internalType": "address[]",
          "name": "minter",
          "type": "address[]"
        },
        {
          "internalType": "bool[]",
          "name": "allowed",
          "type": "bool[]"
        }
      ],
      "name": "setAllowListMinters",
      "outputs": [],
      "stateMutability": "nonpayable",
      "type": "function"
    },
    {
      "inputs": [
        {
          "internalType": "uint256",
          "name": "_salePrice",
          "type": "uint256"
        }
      ],
      "name": "setAllowListSalePrice",
      "outputs": [],
      "stateMutability": "nonpayable",
      "type": "function"
    },
    {
      "inputs": [
        {
          "internalType": "enum ExpandedNFT.WhoCanMint",
          "name": "minters",
          "type": "uint8"
        }
      ],
      "name": "setAllowedMinter",
      "outputs": [],
      "stateMutability": "nonpayable",
      "type": "function"
    },
    {
      "inputs": [
        {
          "internalType": "address",
          "name": "operator",
          "type": "address"
        },
        {
          "internalType": "bool",
          "name": "approved",
          "type": "bool"
        }
      ],
      "name": "setApprovalForAll",
      "outputs": [],
      "stateMutability": "nonpayable",
      "type": "function"
    },
    {
      "inputs": [
        {
          "internalType": "address",
          "name": "wallet",
          "type": "address"
        }
      ],
      "name": "setArtistWallet",
      "outputs": [],
      "stateMutability": "nonpayable",
      "type": "function"
    },
    {
      "inputs": [
        {
          "internalType": "address",
          "name": "wallet",
          "type": "address"
        },
        {
          "internalType": "uint256",
          "name": "freeMintLimit",
          "type": "uint256"
        }
      ],
      "name": "setFreeMints",
      "outputs": [],
      "stateMutability": "nonpayable",
      "type": "function"
    },
    {
      "inputs": [
        {
          "internalType": "uint256",
          "name": "tokenId",
          "type": "uint256"
        },
        {
          "internalType": "uint256",
          "name": "fee",
          "type": "uint256"
        }
      ],
      "name": "setOfferTerms",
      "outputs": [],
      "stateMutability": "nonpayable",
      "type": "function"
    },
    {
      "inputs": [
        {
          "internalType": "address",
          "name": "paymentToken",
          "type": "address"
        }
      ],
      "name": "setPaymentToken",
      "outputs": [],
      "stateMutability": "nonpayable",
      "type": "function"
    },
    {
      "inputs": [
        {
          "internalType": "uint256",
          "name": "_royaltyBPS",
          "type": "uint256"
        },
        {
          "internalType": "uint256",
          "name": "_splitBPS",
          "type": "uint256"
        },
        {
          "internalType": "uint256",
          "name": "_allowListSalePrice",
          "type": "uint256"
        },
        {
          "internalType": "uint256",
          "name": "_generalSalePrice",
          "type": "uint256"
        },
        {
          "internalType": "uint256",
          "name": "_allowListMintLimit",
          "type": "uint256"
        },
        {
          "internalType": "uint256",
          "name": "_generalMintLimit",
          "type": "uint256"
        }
      ],
      "name": "setPricing",
      "outputs": [],
      "stateMutability": "nonpayable",
      "type": "function"
    },
    {
      "inputs": [
        {
          "internalType": "uint256",
          "name": "_salePrice",
          "type": "uint256"
        }
      ],
      "name": "setSalePrice",
      "outputs": [],
      "stateMutability": "nonpayable",
      "type": "function"
    },
    {
      "inputs": [
        {
          "internalType": "uint256",
          "name": "allowListSalePrice",
          "type": "uint256"
        },
        {
          "internalType": "uint256",
          "name": "generalSalePrice",
          "type": "uint256"
        }
      ],
      "name": "setSalePrices",
      "outputs": [],
      "stateMutability": "nonpayable",
      "type": "function"
    },
    {
      "inputs": [
        {
          "internalType": "bytes4",
          "name": "interfaceId",
          "type": "bytes4"
        }
      ],
      "name": "supportsInterface",
      "outputs": [
        {
          "internalType": "bool",
          "name": "",
          "type": "bool"
        }
      ],
      "stateMutability": "view",
      "type": "function"
    },
    {
      "inputs": [],
      "name": "symbol",
      "outputs": [
        {
          "internalType": "string",
          "name": "",
          "type": "string"
        }
      ],
      "stateMutability": "view",
      "type": "function"
    },
    {
      "inputs": [
        {
          "internalType": "uint256",
          "name": "tokenId",
          "type": "uint256"
        }
      ],
      "name": "tokenURI",
      "outputs": [
        {
          "internalType": "string",
          "name": "",
          "type": "string"
        }
      ],
      "stateMutability": "view",
      "type": "function"
    },
    {
      "inputs": [],
      "name": "totalSupply",
      "outputs": [
        {
          "internalType": "uint256",
          "name": "",
          "type": "uint256"
        }
      ],
      "stateMutability": "view",
      "type": "function"
    },
    {
      "inputs": [
        {
          "internalType": "address",
          "name": "from",
          "type": "address"
        },
        {
          "internalType": "address",
          "name": "to",
          "type": "address"
        },
        {
          "internalType": "uint256",
          "name": "tokenId",
          "type": "uint256"
        }
      ],
      "name": "transferFrom",
      "outputs": [],
      "stateMutability": "nonpayable",
      "type": "function"
    },
    {
      "inputs": [
        {
          "internalType": "address",
          "name": "newOwner",
          "type": "address"
        }
      ],
      "name": "transferOwnership",
      "outputs": [],
      "stateMutability": "nonpayable",
      "type": "function"
    },
    {
      "inputs": [
        {
          "internalType": "uint256[]",
          "name": "tokenIDs",
          "type": "uint256[]"
        }
      ],
      "name": "unreserve",
      "outputs": [],
      "stateMutability": "nonpayable",
      "type": "function"
    },
    {
      "inputs": [
        {
          "internalType": "uint256",
          "name": "tokenID",
          "type": "uint256"
        }
      ],
      "name": "whoReserved",
      "outputs": [
        {
          "internalType": "address",
          "name": "",
          "type": "address"
        }
      ],
      "stateMutability": "view",
      "type": "function"
    },
    {
      "inputs": [],
      "name": "withdraw",
      "outputs": [],
      "stateMutability": "nonpayable",
      "type": "function"
    }
  ],
  "transactionHash": "0xbae4dd0988390fa2b8baea9689fc4a5771a9b155abba74454f0ccb28f6d16065",
  "args": [],
  "numDeployments": 1,
  "solcInputHash": "1db8ed3c026821f2925f4055c3a3f765",
  "bytecode": "0x60806040523480156200001157600080fd5b5060d4805460ff19169055620000266200002c565b620000ee565b600054610100900460ff1615620000995760405162461bcd60e51b815260206004820152602760248201527f496e697469616c697a61626c653a20636f6e747261637420697320696e697469604482015266616c697a696e6760c81b606482015260840160405180910390fd5b60005460ff9081161015620000ec576000805460ff191660ff9081179091556040519081527f7f26b83ff96e1f2b6a682f133852f6798a09c465da95921460cefb38474024989060200160405180910390a15b565b6148d080620000fe6000396000f3fe6080604052600436106103795760003560e01c806369e1cac1116101d3578063bb90bf6211610103578063d41c3a651161009b578063d41c3a6514610ae1578063db006a7514610aff578063dfb5823114610b1f578063e985e9c514610b55578063ee5df55014610b75578063eff215c614610b95578063f2fde38b14610bb5578063f51f96dd14610bd5578063fce57fd914610beb57600080fd5b8063bb90bf62146109df578063bf82ae49146109f2578063c2ba474414610a12578063c476c8db14610a32578063c87b56dd14610a52578063c9d359d614610a72578063ce5f4a9414610a8c578063ce9dd83e14610aac578063d3b9834614610acc57600080fd5b80638da5cb5b116101765780638da5cb5b1461090357806395d89b41146109185780639bb22b401461092d578063a035b1fe14610942578063a22cb46514610957578063a52b3e8f14610977578063a66ff0af14610997578063a7e33ae4146109aa578063b88d4fde146109bf57600080fd5b806369e1cac11461080e5780636a326ab11461082e57806370a082311461084e578063715018a61461086e5780637406fe5b146108835780637b422c4c146108a357806381e64ce5146108c357806386c14f30146108e357600080fd5b8063367de39e116102ae57806342842e0e1161025157806342842e0e146106f657806342966c681461071657806346d9c4bf146107365780634b5287691461074b5780635abe7dff1461076b5780635ba437f41461078b5780636352211e146107c657806364edfbf0146107e6578063660243d0146107ee57600080fd5b8063367de39e1461060b578063392774151461062b57806339dc13bc146106495780633c3ca811146106695780633ccfd60b146106965780633da165d4146106ab578063402635cf146106c1578063410a1095146106d657600080fd5b80631308e512116103215780631308e5121461048b578063154afd6f146104ab57806318160ddd146104e45780631919fed7146104f95780631c2f1b4a146105195780632228adcc1461054f57806323b872dd1461058c57806327a3fe41146105ac5780632a55205a146105cc57600080fd5b806219209b1461037e57806301ffc9a7146103a057806306fdde03146103d5578063081812fc146103f7578063095ea7b31461042457806309949abe146104445780630b65b6e7146104635780630f6a934914610478575b600080fd5b34801561038a57600080fd5b5061039e610399366004613b06565b610c0b565b005b3480156103ac57600080fd5b506103c06103bb366004613b5f565b610c5a565b60405190151581526020015b60405180910390f35b3480156103e157600080fd5b506103ea610c85565b6040516103cc9190613bc2565b34801561040357600080fd5b50610417610412366004613bd5565b610d17565b6040516103cc9190613bee565b34801561043057600080fd5b5061039e61043f366004613c1e565b610d3e565b34801561045057600080fd5b5060cd545b6040519081526020016103cc565b34801561046f57600080fd5b50610455610e58565b610455610486366004613cb1565b610e6f565b34801561049757600080fd5b5061039e6104a6366004613dc4565b610e7a565b3480156104b757600080fd5b506103c06104c6366004613e0a565b6001600160a01b0316600090815260d2602052604090205460ff1690565b3480156104f057600080fd5b5060cc54610455565b34801561050557600080fd5b5061039e610514366004613bd5565b610f06565b34801561052557600080fd5b50610455610534366004613e0a565b6001600160a01b0316600090815260d8602052604090205490565b34801561055b57600080fd5b506103c061056a366004613bd5565b600090815260ca602052604090205461010090046001600160a01b0316151590565b34801561059857600080fd5b5061039e6105a7366004613e25565b610f8c565b3480156105b857600080fd5b506104556105c7366004613e0a565b610fbe565b3480156105d857600080fd5b506105ec6105e7366004613e61565b61101e565b604080516001600160a01b0390931683526020830191909152016103cc565b34801561061757600080fd5b5061039e610626366004613e83565b61107a565b34801561063757600080fd5b5060c9546001600160a01b0316610417565b34801561065557600080fd5b5061039e610664366004613bd5565b6110d5565b34801561067557600080fd5b50610689610684366004613e0a565b6111ab565b6040516103cc9190613ea4565b3480156106a257600080fd5b5061039e611217565b3480156106b757600080fd5b5061045560cb5481565b3480156106cd57600080fd5b5060ce54610455565b3480156106e257600080fd5b5060d45460ff166040516103cc9190613efe565b34801561070257600080fd5b5061039e610711366004613e25565b6113be565b34801561072257600080fd5b5061039e610731366004613bd5565b6113d9565b34801561074257600080fd5b5060d154610455565b34801561075757600080fd5b50610455610766366004613bd5565b611407565b34801561077757600080fd5b5061039e610786366004613e61565b61146d565b34801561079757600080fd5b506104176107a6366004613bd5565b600090815260ca602052604090205461010090046001600160a01b031690565b3480156107d257600080fd5b506104176107e1366004613bd5565b61149d565b6104556114d2565b3480156107fa57600080fd5b5061039e610809366004613e61565b61153a565b34801561081a57600080fd5b5061039e610829366004613f6a565b61180b565b34801561083a57600080fd5b5061039e610849366004613e0a565b611aa9565b34801561085a57600080fd5b50610455610869366004613e0a565b611b9e565b34801561087a57600080fd5b5061039e611c24565b34801561088f57600080fd5b5061045561089e366004613bd5565b611c38565b3480156108af57600080fd5b5061039e6108be366004613bd5565b611c75565b3480156108cf57600080fd5b5061039e6108de366004613fe3565b611d6c565b3480156108ef57600080fd5b5061039e6108fe366004614084565b611f1b565b34801561090f57600080fd5b506104176120e9565b34801561092457600080fd5b506103ea6120fd565b34801561093957600080fd5b5060cf54610455565b34801561094e57600080fd5b5061045561210c565b34801561096357600080fd5b5061039e610972366004614149565b61215e565b34801561098357600080fd5b5061039e610992366004613dc4565b612169565b6104556109a5366004613e0a565b61223e565b3480156109b657600080fd5b5060d354610455565b3480156109cb57600080fd5b5061039e6109da366004614180565b6122a0565b6104556109ed366004613c1e565b6122d1565b3480156109fe57600080fd5b5061039e610a0d366004613bd5565b612372565b348015610a1e57600080fd5b506103c0610a2d366004613e0a565b612458565b348015610a3e57600080fd5b5061039e610a4d366004613bd5565b61246d565b348015610a5e57600080fd5b506103ea610a6d366004613bd5565b61248d565b348015610a7e57600080fd5b5060cb5460da5410156103c0565b348015610a9857600080fd5b5061039e610aa73660046141fb565b612591565b348015610ab857600080fd5b5061039e610ac7366004613c1e565b612836565b348015610ad857600080fd5b5060d054610455565b348015610aed57600080fd5b5060dd546001600160a01b0316610417565b348015610b0b57600080fd5b5061039e610b1a366004613bd5565b61285a565b348015610b2b57600080fd5b50610455610b3a366004613e0a565b6001600160a01b0316600090815260d6602052604090205490565b348015610b6157600080fd5b506103c0610b7036600461423c565b612927565b348015610b8157600080fd5b5061039e610b90366004613e61565b612955565b348015610ba157600080fd5b5061039e610bb036600461426f565b612a32565b348015610bc157600080fd5b5061039e610bd0366004613e0a565b612bb1565b348015610be157600080fd5b5061045560d75481565b348015610bf757600080fd5b5061039e610c06366004613e0a565b612c27565b610c13612c51565b60cd86905560ce85905560cf84905560d783905560d082905560d181905560405183815260008051602061485b8339815191529060200160405180910390a1505050505050565b600063152a902d60e11b6001600160e01b031983161480610c7f5750610c7f82612cb0565b92915050565b606060658054610c94906142e8565b80601f0160208091040260200160405190810160405280929190818152602001828054610cc0906142e8565b8015610d0d5780601f10610ce257610100808354040283529160200191610d0d565b820191906000526020600020905b815481529060010190602001808311610cf057829003601f168201915b5050505050905090565b6000610d2282612d00565b506000908152606960205260409020546001600160a01b031690565b6000610d498261149d565b9050806001600160a01b0316836001600160a01b031603610dbb5760405162461bcd60e51b815260206004820152602160248201527f4552433732313a20617070726f76616c20746f2063757272656e74206f776e656044820152603960f91b60648201526084015b60405180910390fd5b336001600160a01b0382161480610dd75750610dd78133612927565b610e495760405162461bcd60e51b815260206004820152603d60248201527f4552433732313a20617070726f76652063616c6c6572206973206e6f7420746f60448201527f6b656e206f776e6572206f7220617070726f76656420666f7220616c6c0000006064820152608401610db2565b610e538383612d25565b505050565b600060cc5460cb54610e6a9190614338565b905090565b6000610c7f82612d93565b610e82612c51565b60008211610ea25760405162461bcd60e51b8152600401610db29061434b565b60cb54821115610ec45760405162461bcd60e51b8152600401610db290614370565b600082815260ca60205260409020600401610edf82826143e4565b5060405182815260008051602061487b833981519152906020015b60405180910390a15050565b610f0e612c51565b60d781905560d480546002919060ff19166001835b021790555060d4546040517f40cb75607c032a2aac1c3565feb3b70e354cbd56e8f8fa36773cba5750464c5191610f5f9160ff90911690613efe565b60405180910390a160405181815260008051602061485b833981519152906020015b60405180910390a150565b610f97335b82613066565b610fb35760405162461bcd60e51b8152600401610db2906144a3565b610e538383836130c4565b600080610fc9613216565b6001600160a01b038416600090815260d560205260409020549091508111610ff45750600092915050565b6001600160a01b038316600090815260d560205260409020546110179082614338565b9392505050565b6000808061102a6120e9565b6001600160a01b03160361104b576110406120e9565b600091509150611073565b6110536120e9565b60cd546127109061106490866144f0565b61106e919061451d565b915091505b9250929050565b611082612c51565b60d4805482919060ff191660018360028111156110a1576110a1613ee8565b02179055507f40cb75607c032a2aac1c3565feb3b70e354cbd56e8f8fa36773cba5750464c5181604051610f819190613efe565b6110de81613262565b6110fa5760405162461bcd60e51b8152600401610db290614531565b61110333610f91565b61111f5760405162461bcd60e51b8152600401610db290614553565b6004600082815260ca602052604090205460ff16600781111561114457611144613ee8565b146111615760405162461bcd60e51b8152600401610db290614579565b600081815260ca6020908152604091829020805460ff1916600217905590518281527facb9cd98d41dc8854281172ab2a764d949b62b51776edd911f85376ed2eca64b9101610f81565b6001600160a01b038116600090815260d9602090815260409182902080548351818402810184019094528084526060939283018282801561120b57602002820191906000526020600020905b8154815260200190600101908083116111f7575b50505050509050919050565b61121f612c51565b4780156112a45760c9546001600160a01b0316156112935760ce546000906127109061124b90846144f0565b611255919061451d565b905060006112638284614338565b90506112766112706120e9565b8361327f565b60c95461128c906001600160a01b03168261327f565b50506112a4565b6112a461129e6120e9565b8261327f565b60dd546001600160a01b0316156113bb5760dd546040516370a0823160e01b81526000916001600160a01b0316906370a08231906112e6903090600401613bee565b602060405180830381865afa158015611303573d6000803e3d6000fd5b505050506040513d601f19601f8201168201806040525081019061132791906145b0565b905080156113b95760dd546001600160a01b031663a9059cbb6113486120e9565b6040516001600160e01b031960e084901b1681526001600160a01b039091166004820152602481018490526044016020604051808303816000875af1158015611395573d6000803e3d6000fd5b505050506040513d601f19601f82011682018060405250810190610e5391906145c9565b505b50565b610e53838383604051806020016040528060008152506122a0565b6113e233610f91565b6113fe5760405162461bcd60e51b8152600401610db290614553565b6113bb81613398565b60008082116114285760405162461bcd60e51b8152600401610db29061434b565b60cb5482111561144a5760405162461bcd60e51b8152600401610db290614370565b600082815260ca602052604090205460ff166007811115610c7f57610c7f613ee8565b611475612c51565b60cf82905560d781905560405181815260008051602061485b83398151915290602001610efa565b6000818152606760205260408120546001600160a01b031680610c7f5760405162461bcd60e51b8152600401610db2906145e6565b60408051600180825281830190925260009182919060208083019080368337019050509050338160008151811061150b5761150b614618565b60200260200101906001600160a01b031690816001600160a01b03168152505061153481612d93565b91505090565b61154382613262565b61155f5760405162461bcd60e51b8152600401610db290614531565b61156a335b83613066565b6115865760405162461bcd60e51b8152600401610db290614553565b6004600083815260ca602052604090205460ff1660078111156115ab576115ab613ee8565b146115c85760405162461bcd60e51b8152600401610db290614579565b600082815260ca60205260409020600101548110156115f95760405162461bcd60e51b8152600401610db29061462e565b600082815260ca602052604090206001015460dd546001600160a01b031663dd62ed3e336040516001600160e01b031960e084901b1681526001600160a01b039091166004820152306024820152604401602060405180830381865afa158015611667573d6000803e3d6000fd5b505050506040513d601f19601f8201168201806040525081019061168b91906145b0565b10156116d25760405162461bcd60e51b8152602060048201526016602482015275496e73756666696369656e7420616c6c6f77616e636560501b6044820152606401610db2565b60dd546000906001600160a01b03166323b872dd33600086815260ca60205260409081902060010154905160e084901b6001600160e01b03191681526001600160a01b03909216600483015230602483015260448201526064016020604051808303816000875af115801561174b573d6000803e3d6000fd5b505050506040513d601f19601f8201168201806040525081019061176f91906145c9565b9050806117b95760405162461bcd60e51b815260206004820152601860248201527721b7bab632103737ba103a3930b739b332b9103a37b5b2b760411b6044820152606401610db2565b600083815260ca6020908152604091829020805460ff1916600517905590518481527f9bd6b4fd288008520fd788a93304e5688a401aea817ea8140ecf1fb8648f3191910160405180910390a1505050565b611813612c51565b82811461185c5760405162461bcd60e51b8152602060048201526017602482015276098d2e6e8e640d8cadccee8d040daeae6e840dac2e8c6d604b1b6044820152606401610db2565b60005b83811015611aa257600060ca600085858581811061187f5761187f614618565b602090810292909201358352508101919091526040016000205460ff1660078111156118ad576118ad613ee8565b146118f15760405162461bcd60e51b8152602060048201526014602482015273139959591cc81d1bc81899481d5b9b5a5b9d195960621b6044820152606401610db2565b84848281811061190357611903614618565b90506020020160208101906119189190613e0a565b60ca600085858581811061192e5761192e614618565b90506020020135815260200190815260200160002060000160016101000a8154816001600160a01b0302191690836001600160a01b03160217905550600160ca600085858581811061198257611982614618565b60209081029290920135835250810191909152604001600020805460ff191660018360078111156119b5576119b5613ee8565b021790555060d860008686848181106119d0576119d0614618565b90506020020160208101906119e59190613e0a565b6001600160a01b0316815260208101919091526040016000908120805491611a0c83614653565b919050555060d96000868684818110611a2757611a27614618565b9050602002016020810190611a3c9190613e0a565b6001600160a01b03166001600160a01b03168152602001908152602001600020838383818110611a6e57611a6e614618565b8354600181018555600094855260209485902091909402929092013591909201555080611a9a81614653565b91505061185f565b5050505050565b611ab1612c51565b60dd546001600160a01b031615611b7c5760dd546040516370a0823160e01b81526001600160a01b03909116906370a0823190611af2903090600401613bee565b602060405180830381865afa158015611b0f573d6000803e3d6000fd5b505050506040513d601f19601f82011682018060405250810190611b3391906145b0565b15611b7c5760405162461bcd60e51b8152602060048201526019602482015278746f6b656e206d757374206861766520302062616c616e636560381b6044820152606401610db2565b60dd80546001600160a01b0319166001600160a01b0392909216919091179055565b60006001600160a01b038216611c085760405162461bcd60e51b815260206004820152602960248201527f4552433732313a2061646472657373207a65726f206973206e6f7420612076616044820152683634b21037bbb732b960b91b6064820152608401610db2565b506001600160a01b031660009081526068602052604090205490565b611c2c612c51565b611c36600061341c565b565b6000611c4382613262565b611c5f5760405162461bcd60e51b8152600401610db290614531565b50600090815260ca602052604090206001015490565b611c7e81613262565b611c9a5760405162461bcd60e51b8152600401610db290614531565b611ca333610f91565b611cbf5760405162461bcd60e51b8152600401610db290614553565b6006600082815260ca602052604090205460ff166007811115611ce457611ce4613ee8565b14611d015760405162461bcd60e51b8152600401610db290614579565b600081815260ca6020908152604091829020805460ff1916600717905590518281527facb9cd98d41dc8854281172ab2a764d949b62b51776edd911f85376ed2eca64b910160405180910390a160405181815260008051602061487b83398151915290602001610f81565b600054610100900460ff1615808015611d8c5750600054600160ff909116105b80611da65750303b158015611da6575060005460ff166001145b611e095760405162461bcd60e51b815260206004820152602e60248201527f496e697469616c697a61626c653a20636f6e747261637420697320616c72656160448201526d191e481a5b9a5d1a585b1a5e995960921b6064820152608401610db2565b6000805460ff191660011790558015611e2c576000805461ff0019166101001790555b60008311611e745760405162461bcd60e51b8152602060048201526015602482015274044726f702073697a65206d757374206265203e203605c1b6044820152606401610db2565b611e7e858561346e565b611e8661349f565b611e8f87612bb1565b60c980546001600160a01b0319166001600160a01b03881617905560cb839055600060cc819055600160dc5560db805460ff191684151517905560da558015611f12576000805461ff0019169055604051600181527f7f26b83ff96e1f2b6a682f133852f6798a09c465da95921460cefb38474024989060200160405180910390a15b50505050505050565b611f23612c51565b60008311611f645760405162461bcd60e51b815260206004820152600e60248201526d05374617274496e646578203e20360941b6044820152606401610db2565b60cb54611f7290600161466c565b611f7c838561466c565b1115611fc65760405162461bcd60e51b815260206004820152601960248201527844617461206c61726765207468616e2064726f702073697a6560381b6044820152606401610db2565b8181511461200b5760405162461bcd60e51b8152602060048201526012602482015271088c2e8c240e6d2f4ca40dad2e6dac2e8c6d60731b6044820152606401610db2565b60005b828110156120e3576000612022828661466c565b905082828151811061203657612036614618565b602002602001015160ca6000838152602001908152602001600020600301908161206091906143e4565b50600081815260ca602052604090206002015460ff1615156001146120af57600081815260ca60205260408120600201805460ff1916600117905560da8054916120a983614653565b91905055505b60405181815260008051602061487b8339815191529060200160405180910390a150806120db81614653565b91505061200e565b50505050565b6000610e6a6097546001600160a01b031690565b606060668054610c94906142e8565b6000600160d45460ff16600281111561212757612127613ee8565b03612133575060cf5490565b600260d45460ff16600281111561214c5761214c613ee8565b03612158575060d75490565b50600090565b6113b93383836134ce565b612171612c51565b61217a82613262565b6121965760405162461bcd60e51b8152600401610db290614531565b6005600083815260ca602052604090205460ff1660078111156121bb576121bb613ee8565b146121d85760405162461bcd60e51b8152600401610db290614579565b600082815260ca602052604090206004016121f382826143e4565b50600082815260ca6020908152604091829020805460ff1916600617905590518381527fadb6d4f651f6fbf8b37026019ee48fdb86abf9ec94eb4a5f0acf72ad8c7872a39101610efa565b60408051600180825281830190925260009182919060208083019080368337019050509050828160008151811061227757612277614618565b60200260200101906001600160a01b031690816001600160a01b03168152505061101781612d93565b6122a933611564565b6122c55760405162461bcd60e51b8152600401610db2906144a3565b6120e384848484613598565b600080826001600160401b038111156122ec576122ec613c48565b604051908082528060200260200182016040528015612315578160200160208202803683370190505b50905060005b83811015612360578482828151811061233657612336614618565b6001600160a01b03909216602092830291909101909101528061235881614653565b91505061231b565b5061236a81612d93565b949350505050565b61237b81613262565b6123975760405162461bcd60e51b8152600401610db290614531565b6123a033610f91565b6123bc5760405162461bcd60e51b8152600401610db290614553565b6003600082815260ca602052604090205460ff1660078111156123e1576123e1613ee8565b146123fe5760405162461bcd60e51b8152600401610db290614579565b600081815260ca60205260409020805460ff191660021790557f6c7c9f699aacfa5bacd2758023ab209b2d1e1c237bfa752bdc94cb87878cf1b781335b604080519283526001600160a01b03909116602083015201610f81565b60008061246483610fbe565b15159392505050565b612475612c51565b60cf81905560d480546001919060ff19168280610f23565b606061249882613262565b6124b45760405162461bcd60e51b8152600401610db290614531565b6007600083815260ca602052604090205460ff1660078111156124d9576124d9613ee8565b0361257557600082815260ca6020526040902060040180546124fa906142e8565b80601f0160208091040260200160405190810160405280929190818152602001828054612526906142e8565b801561120b5780601f106125485761010080835404028352916020019161120b565b820191906000526020600020905b8154815290600101906020018083116125565750939695505050505050565b600082815260ca6020526040902060030180546124fa906142e8565b612599612c51565b60005b81811015610e5357600160ca60008585858181106125bc576125bc614618565b602090810292909201358352508101919091526040016000205460ff1660078111156125ea576125ea613ee8565b146126265760405162461bcd60e51b815260206004820152600c60248201526b139bdd081c995cd95c9d995960a21b6044820152606401610db2565b600060ca600085858581811061263e5761263e614618565b90506020020135815260200190815260200160002060000160019054906101000a90046001600160a01b0316905060005b84848481811061268157612681614618565b9050602002013560d96000846001600160a01b03166001600160a01b0316815260200190815260200160002082815481106126be576126be614618565b9060005260206000200154146126e057806126d881614653565b91505061266f565b6001600160a01b038216600090815260d96020526040812080548390811061270a5761270a614618565b906000526020600020018190555060d8600060ca600088888881811061273257612732614618565b6020908102929092013583525081810192909252604090810160009081205461010090046001600160a01b0316845291830193909352910181208054916127788361467f565b9190505550600060ca600087878781811061279557612795614618565b90506020020135815260200190815260200160002060000160016101000a8154816001600160a01b0302191690836001600160a01b03160217905550600060ca60008787878181106127e9576127e9614618565b60209081029290920135835250810191909152604001600020805460ff1916600183600781111561281c5761281c613ee8565b02179055505050808061282e90614653565b91505061259c565b61283e612c51565b6001600160a01b03909116600090815260d66020526040902055565b61286381613262565b61287f5760405162461bcd60e51b8152600401610db290614531565b61288833610f91565b6128a45760405162461bcd60e51b8152600401610db290614553565b6002600082815260ca602052604090205460ff1660078111156128c9576128c9613ee8565b146128e65760405162461bcd60e51b8152600401610db290614579565b600081815260ca60205260409020805460ff191660031790557fc290e40808ef06721539ad0d926f8d5f53d2dd6d5e28334308a012676f867416813361243b565b6001600160a01b039182166000908152606a6020908152604080832093909416825291909152205460ff1690565b61295d612c51565b61296682613262565b6129825760405162461bcd60e51b8152600401610db290614531565b6003600083815260ca602052604090205460ff1660078111156129a7576129a7613ee8565b146129e25760405162461bcd60e51b815260206004820152600b60248201526a57726f6e6720737461746560a81b6044820152606401610db2565b600082815260ca6020908152604091829020805460ff1916600417815560010183905590518381527f316b408b8cf323e8f20ef7a8c267eedc89bef19ca5db7fc30be938e55bf068f99101610efa565b612a3a612c51565b60005b85811015612ba957828282818110612a5757612a57614618565b9050602002016020810190612a6c9190614696565b151560d26000878785818110612a8457612a84614618565b9050602002016020810190612a999190613e0a565b6001600160a01b0316815260208101919091526040016000205460ff16151514612b1d57828282818110612acf57612acf614618565b9050602002016020810190612ae49190614696565b1515600103612b075760d38054906000612afd83614653565b9190505550612b1d565b60d38054906000612b178361467f565b91905055505b828282818110612b2f57612b2f614618565b9050602002016020810190612b449190614696565b60d26000878785818110612b5a57612b5a614618565b9050602002016020810190612b6f9190613e0a565b6001600160a01b031681526020810191909152604001600020805460ff191691151591909117905580612ba181614653565b915050612a3d565b505050505050565b612bb9612c51565b6001600160a01b038116612c1e5760405162461bcd60e51b815260206004820152602660248201527f4f776e61626c653a206e6577206f776e657220697320746865207a65726f206160448201526564647265737360d01b6064820152608401610db2565b6113bb8161341c565b612c2f612c51565b60c980546001600160a01b0319166001600160a01b0392909216919091179055565b33612c5a6120e9565b6001600160a01b031614611c365760405162461bcd60e51b815260206004820181905260248201527f4f776e61626c653a2063616c6c6572206973206e6f7420746865206f776e65726044820152606401610db2565b60006001600160e01b031982166380ac58cd60e01b1480612ce157506001600160e01b03198216635b5e139f60e01b145b80610c7f57506301ffc9a760e01b6001600160e01b0319831614610c7f565b612d0981613262565b6113bb5760405162461bcd60e51b8152600401610db2906145e6565b600081815260696020526040902080546001600160a01b0319166001600160a01b0384169081179091558190612d5a8261149d565b6001600160a01b03167f8c5be1e5ebec7d5bd14f71427d1e84f3dd0314c0f7b2291e5b200ac8c7c3b92560405160405180910390a45050565b600060cb5460da541015612de35760405162461bcd60e51b8152602060048201526017602482015276139bdd08185b1b081b595d1859185d18481b1bd8591959604a1b6044820152606401610db2565b612deb6135cb565b612e375760405162461bcd60e51b815260206004820152601d60248201527f4e6565647320746f20626520616e20616c6c6f776564206d696e7465720000006044820152606401610db2565b612e3f610e58565b82511115612e815760405162461bcd60e51b815260206004820152600f60248201526e457863656564656420737570706c7960881b6044820152606401610db2565b612e89613216565b825133600090815260d56020526040902054612ea5919061466c565b1115612ee95760405162461bcd60e51b8152602060048201526013602482015272115e18d959591959081b5a5b9d081b1a5b5a5d606a1b6044820152606401610db2565b612ef3825161362d565b612f0f5760405162461bcd60e51b8152600401610db29061462e565b6000805b835181101561305f5733600090815260d8602052604090205415612f4057612f39613697565b9150612f4b565b612f48613782565b91505b612f6e848281518110612f6057612f60614618565b602002602001015183613899565b33600090815260d660205260409020548015612fa057612f8f600182614338565b33600090815260d660205260409020555b600083815260ca60209081526040808320805460ff1916600217905533835260d59091528120805491612fd283614653565b909155505060cc8054906000612fe783614653565b91905055507f60a6c75698fadb72223808131f9f9bb9db3afa32122db6d94fb8fc985a504baa61301561210c565b604080519182523360208301520160405180910390a160405183815260008051602061487b8339815191529060200160405180910390a1508061305781614653565b915050612f13565b5092915050565b6000806130728361149d565b9050806001600160a01b0316846001600160a01b0316148061309957506130998185612927565b8061236a5750836001600160a01b03166130b284610d17565b6001600160a01b031614949350505050565b826001600160a01b03166130d78261149d565b6001600160a01b0316146130fd5760405162461bcd60e51b8152600401610db2906146b3565b6001600160a01b03821661315f5760405162461bcd60e51b8152602060048201526024808201527f4552433732313a207472616e7366657220746f20746865207a65726f206164646044820152637265737360e01b6064820152608401610db2565b826001600160a01b03166131728261149d565b6001600160a01b0316146131985760405162461bcd60e51b8152600401610db2906146b3565b600081815260696020908152604080832080546001600160a01b03199081169091556001600160a01b03878116808652606885528386208054600019019055908716808652838620805460010190558686526067909452828520805490921684179091559051849360008051602061483b83398151915291a4505050565b6000600160d45460ff16600281111561323157613231613ee8565b0361323d575060d05490565b600260d45460ff16600281111561325657613256613ee8565b03612158575060d15490565b6000908152606760205260409020546001600160a01b0316151590565b804710156132cf5760405162461bcd60e51b815260206004820152601d60248201527f416464726573733a20696e73756666696369656e742062616c616e63650000006044820152606401610db2565b6000826001600160a01b03168260405160006040518083038185875af1925050503d806000811461331c576040519150601f19603f3d011682016040523d82523d6000602084013e613321565b606091505b5050905080610e535760405162461bcd60e51b815260206004820152603a60248201527f416464726573733a20756e61626c6520746f2073656e642076616c75652c207260448201527f6563697069656e74206d617920686176652072657665727465640000000000006064820152608401610db2565b60006133a38261149d565b90506133ae8261149d565b600083815260696020908152604080832080546001600160a01b03199081169091556001600160a01b03851680855260688452828520805460001901905587855260679093528184208054909116905551929350849260008051602061483b833981519152908390a46113b9565b609780546001600160a01b038381166001600160a01b0319831681179093556040519116919082907f8be0079c531659141344cd1fd0a4f28419497f9722a3daafe3b4186f6b6457e090600090a35050565b600054610100900460ff166134955760405162461bcd60e51b8152600401610db2906146f8565b6113b98282613995565b600054610100900460ff166134c65760405162461bcd60e51b8152600401610db2906146f8565b611c366139d5565b816001600160a01b0316836001600160a01b03160361352b5760405162461bcd60e51b815260206004820152601960248201527822a9219b99189d1030b8383937bb32903a379031b0b63632b960391b6044820152606401610db2565b6001600160a01b038381166000818152606a6020908152604080832094871680845294825291829020805460ff191686151590811790915591519182527f17307eab39ab6107e8899845ad3d59bd9653f200f220920489ca2b5937696c31910160405180910390a3505050565b6135a38484846130c4565b6135af84848484613a05565b6120e35760405162461bcd60e51b8152600401610db290614743565b6000600260d45460ff1660028111156135e6576135e6613ee8565b036135f15750600190565b600160d45460ff16600281111561360a5761360a613ee8565b036121585733600090815260d2602052604090205460ff16156121585750600190565b33600090815260d6602052604081205480831161365c5734156136535750600092915050565b50600192915050565b60006136688285614338565b90508061367361210c565b61367d91906144f0565b340361368d575060019392505050565b5060009392505050565b6000805b33600090815260d9602052604090208054829081106136bc576136bc614618565b90600052602060002001546000036136e057806136d881614653565b91505061369b565b33600090815260d96020526040812080548390811061370157613701614618565b600091825260208083209091015433835260d9909152604082208054919350908490811061373157613731614618565b600091825260208083209091019290925533815260d89091526040812080549161375a8361467f565b9091555050600081815260ca602052604090208054610100600160a81b031916905592915050565b60db5460009060ff161561385157600060cb544233445a6040516020016137d4949392919093845260609290921b6bffffffffffffffffffffffff191660208401526034830152605482015260740190565b6040516020818303038152906040528051906020012060001c6137f79190614795565b9050600061380682600161466c565b90505b600081815260ca602052604081205460ff16600781111561382c5761382c613ee8565b14610c7f578061383b81614653565b91505060cb5481111561384c575060015b613809565b60dc545b600081815260ca602052604081205460ff16600781111561387857613878613ee8565b1461388f578061388781614653565b915050613855565b60dc819055919050565b6001600160a01b0382166138ef5760405162461bcd60e51b815260206004820181905260248201527f4552433732313a206d696e7420746f20746865207a65726f20616464726573736044820152606401610db2565b6138f881613262565b156139155760405162461bcd60e51b8152600401610db2906147a9565b61391e81613262565b1561393b5760405162461bcd60e51b8152600401610db2906147a9565b6001600160a01b038216600081815260686020908152604080832080546001019055848352606790915280822080546001600160a01b03191684179055518392919060008051602061483b833981519152908290a46113b9565b600054610100900460ff166139bc5760405162461bcd60e51b8152600401610db2906146f8565b60656139c883826143e4565b506066610e5382826143e4565b600054610100900460ff166139fc5760405162461bcd60e51b8152600401610db2906146f8565b611c363361341c565b60006001600160a01b0384163b15613afb57604051630a85bd0160e11b81526001600160a01b0385169063150b7a0290613a499033908990889088906004016147e0565b6020604051808303816000875af1925050508015613a84575060408051601f3d908101601f19168201909252613a819181019061481d565b60015b613ae1573d808015613ab2576040519150601f19603f3d011682016040523d82523d6000602084013e613ab7565b606091505b508051600003613ad95760405162461bcd60e51b8152600401610db290614743565b805181602001fd5b6001600160e01b031916630a85bd0160e11b14905061236a565b506001949350505050565b60008060008060008060c08789031215613b1f57600080fd5b505084359660208601359650604086013595606081013595506080810135945060a0013592509050565b6001600160e01b0319811681146113bb57600080fd5b600060208284031215613b7157600080fd5b813561101781613b49565b6000815180845260005b81811015613ba257602081850181015186830182015201613b86565b506000602082860101526020601f19601f83011685010191505092915050565b6020815260006110176020830184613b7c565b600060208284031215613be757600080fd5b5035919050565b6001600160a01b0391909116815260200190565b80356001600160a01b0381168114613c1957600080fd5b919050565b60008060408385031215613c3157600080fd5b613c3a83613c02565b946020939093013593505050565b634e487b7160e01b600052604160045260246000fd5b604051601f8201601f191681016001600160401b0381118282101715613c8657613c86613c48565b604052919050565b60006001600160401b03821115613ca757613ca7613c48565b5060051b60200190565b60006020808385031215613cc457600080fd5b82356001600160401b03811115613cda57600080fd5b8301601f81018513613ceb57600080fd5b8035613cfe613cf982613c8e565b613c5e565b81815260059190911b82018301908381019087831115613d1d57600080fd5b928401925b82841015613d4257613d3384613c02565b82529284019290840190613d22565b979650505050505050565b60006001600160401b03831115613d6657613d66613c48565b613d79601f8401601f1916602001613c5e565b9050828152838383011115613d8d57600080fd5b828260208301376000602084830101529392505050565b600082601f830112613db557600080fd5b61101783833560208501613d4d565b60008060408385031215613dd757600080fd5b8235915060208301356001600160401b03811115613df457600080fd5b613e0085828601613da4565b9150509250929050565b600060208284031215613e1c57600080fd5b61101782613c02565b600080600060608486031215613e3a57600080fd5b613e4384613c02565b9250613e5160208501613c02565b9150604084013590509250925092565b60008060408385031215613e7457600080fd5b50508035926020909101359150565b600060208284031215613e9557600080fd5b81356003811061101757600080fd5b6020808252825182820181905260009190848201906040850190845b81811015613edc57835183529284019291840191600101613ec0565b50909695505050505050565b634e487b7160e01b600052602160045260246000fd5b6020810160038310613f2057634e487b7160e01b600052602160045260246000fd5b91905290565b60008083601f840112613f3857600080fd5b5081356001600160401b03811115613f4f57600080fd5b6020830191508360208260051b850101111561107357600080fd5b60008060008060408587031215613f8057600080fd5b84356001600160401b0380821115613f9757600080fd5b613fa388838901613f26565b90965094506020870135915080821115613fbc57600080fd5b50613fc987828801613f26565b95989497509550505050565b80151581146113bb57600080fd5b60008060008060008060c08789031215613ffc57600080fd5b61400587613c02565b955061401360208801613c02565b945060408701356001600160401b038082111561402f57600080fd5b61403b8a838b01613da4565b9550606089013591508082111561405157600080fd5b5061405e89828a01613da4565b9350506080870135915060a087013561407681613fd5565b809150509295509295509295565b60008060006060848603121561409957600080fd5b83359250602080850135925060408501356001600160401b03808211156140bf57600080fd5b818701915087601f8301126140d357600080fd5b81356140e1613cf982613c8e565b81815260059190911b8301840190848101908a83111561410057600080fd5b8585015b838110156141385780358581111561411c5760008081fd5b61412a8d89838a0101613da4565b845250918601918601614104565b508096505050505050509250925092565b6000806040838503121561415c57600080fd5b61416583613c02565b9150602083013561417581613fd5565b809150509250929050565b6000806000806080858703121561419657600080fd5b61419f85613c02565b93506141ad60208601613c02565b92506040850135915060608501356001600160401b038111156141cf57600080fd5b8501601f810187136141e057600080fd5b6141ef87823560208401613d4d565b91505092959194509250565b6000806020838503121561420e57600080fd5b82356001600160401b0381111561422457600080fd5b61423085828601613f26565b90969095509350505050565b6000806040838503121561424f57600080fd5b61425883613c02565b915061426660208401613c02565b90509250929050565b60008060008060006060868803121561428757600080fd5b8535945060208601356001600160401b03808211156142a557600080fd5b6142b189838a01613f26565b909650945060408801359150808211156142ca57600080fd5b506142d788828901613f26565b969995985093965092949392505050565b600181811c908216806142fc57607f821691505b60208210810361431c57634e487b7160e01b600052602260045260246000fd5b50919050565b634e487b7160e01b600052601160045260246000fd5b81810381811115610c7f57610c7f614322565b6020808252600b908201526a0746f6b656e4944203e20360ac1b604082015260600190565b602080825260149082015273746f6b656e4944203c3d2064726f702073697a6560601b604082015260600190565b601f821115610e5357600081815260208120601f850160051c810160208610156143c55750805b601f850160051c820191505b81811015612ba9578281556001016143d1565b81516001600160401b038111156143fd576143fd613c48565b6144118161440b84546142e8565b8461439e565b602080601f831160018114614446576000841561442e5750858301515b600019600386901b1c1916600185901b178555612ba9565b600085815260208120601f198616915b8281101561447557888601518255948401946001909101908401614456565b50858210156144935787850151600019600388901b60f8161c191681555b5050505050600190811b01905550565b6020808252602d908201527f4552433732313a2063616c6c6572206973206e6f7420746f6b656e206f776e6560408201526c1c881bdc88185c1c1c9bdd9959609a1b606082015260800190565b8082028115828204841417610c7f57610c7f614322565b634e487b7160e01b600052601260045260246000fd5b60008261452c5761452c614507565b500490565b6020808252600890820152672737903a37b5b2b760c11b604082015260600190565b6020808252600c908201526b139bdd08185c1c1c9bdd995960a21b604082015260600190565b6020808252601c908201527f596f752063757272656e746c792063616e206e6f742072656465656d00000000604082015260600190565b6000602082840312156145c257600080fd5b5051919050565b6000602082840312156145db57600080fd5b815161101781613fd5565b602080825260189082015277115490cdcc8c4e881a5b9d985b1a59081d1bdad95b88125160421b604082015260600190565b634e487b7160e01b600052603260045260246000fd5b6020808252600b908201526a57726f6e6720707269636560a81b604082015260600190565b60006001820161466557614665614322565b5060010190565b80820180821115610c7f57610c7f614322565b60008161468e5761468e614322565b506000190190565b6000602082840312156146a857600080fd5b813561101781613fd5565b60208082526025908201527f4552433732313a207472616e736665722066726f6d20696e636f72726563742060408201526437bbb732b960d91b606082015260800190565b6020808252602b908201527f496e697469616c697a61626c653a20636f6e7472616374206973206e6f74206960408201526a6e697469616c697a696e6760a81b606082015260800190565b60208082526032908201527f4552433732313a207472616e7366657220746f206e6f6e20455243373231526560408201527131b2b4bb32b91034b6b83632b6b2b73a32b960711b606082015260800190565b6000826147a4576147a4614507565b500690565b6020808252601c908201527f4552433732313a20746f6b656e20616c7265616479206d696e74656400000000604082015260600190565b6001600160a01b038581168252841660208201526040810183905260806060820181905260009061481390830184613b7c565b9695505050505050565b60006020828403121561482f57600080fd5b815161101781613b4956feddf252ad1be2c89b69c2b068fc378daa952ba7f163c4a11628f55a4df523b3efa6dc15bdb68da224c66db4b3838d9a2b205138e8cff6774e57d0af91e196d622f8e1a15aba9398e019f0b49df1a4fde98ee17ae345cb5f6b5e2c27f5033e8ce7a26469706673582212203b6b274667b8c254905336fe7c8829eca4a231769de3b0db3df924390f8ce76664736f6c63430008130033",
  "devdoc": {
    "author": "Zien Repository: https://github.com/joinzien/expanded-nft",
    "details": "This allows creators to mint a unique serial drop of an expanded NFT within a custom contract",
    "events": {
      "Approval(address,address,uint256)": {
        "details": "Emitted when `owner` enables `approved` to manage the `tokenId` token."
      },
      "ApprovalForAll(address,address,bool)": {
        "details": "Emitted when `owner` enables or disables (`approved`) `operator` to manage all of its assets."
      },
      "BatchMetadataUpdate(uint256,uint256)": {
        "details": "This event emits when the metadata of a range of tokens is changed. So that the third-party platforms such as NFT market could timely update the images and related attributes of the NFTs.    "
      },
      "Initialized(uint8)": {
        "details": "Triggered when the contract has been initialized or reinitialized."
      },
      "MetadataUpdate(uint256)": {
        "details": "This event emits when the metadata of a token is changed. So that the third-party platforms such as NFT market could timely update the images and related attributes of the NFT."
      },
      "Transfer(address,address,uint256)": {
        "details": "Emitted when `tokenId` token is transferred from `from` to `to`."
      }
    },
    "kind": "dev",
    "methods": {
      "allowListed(address)": {
        "details": "returns if the address is on the allow list"
      },
      "approve(address,uint256)": {
        "details": "See {IERC721-approve}."
      },
      "balanceOf(address)": {
        "details": "See {IERC721-balanceOf}."
      },
      "burn(uint256)": {
        "params": {
          "tokenId": "Token ID to burn User burn function for token id "
        }
      },
      "canMint(address)": {
        "details": "returns  if the address can mint"
      },
      "getAllowListCount()": {
        "details": "returns the number on the allow list"
      },
      "getAllowListMintLimit()": {
        "details": "returns the allow list mint limit"
      },
      "getAllowListPrice()": {
        "details": "returns the allow list sale price"
      },
      "getAllowedMinter()": {
        "details": "Sets the types of users who is allowed to mint."
      },
      "getApproved(uint256)": {
        "details": "See {IERC721-getApproved}."
      },
      "getGeneralMintLimit()": {
        "details": "returns the general mint limit"
      },
      "getMintLimit(address)": {
        "details": "returns mint limit for the address"
      },
      "getReservationsCount(address)": {
        "details": "returns the number of reservations for this wallet",
        "params": {
          "wallet": "The wallet being checked                                                                          "
        }
      },
      "getReservationsList(address)": {
        "details": "returns the IDs reserved by the wallet",
        "params": {
          "wallet": "The wallet being checked                                                                          "
        }
      },
      "getRoyaltyBPS()": {
        "details": "returns the royalty BPS"
      },
      "getSplitBPS()": {
        "details": "returns the split BPS"
      },
      "initialize(address,address,string,string,uint256,bool)": {
        "details": "Function to create a new drop. Can only be called by the allowed creator Sets the only allowed minter to the address that creates/owns the drop. This can be re-assigned or updated later",
        "params": {
          "_dropSize": "Number of editions that can be minted in total. ",
          "_name": "Name of drop, used in the title as \"$NAME NUMBER/TOTAL\"",
          "_owner": "wallet addres for the user that owns and can mint the drop, gets royalty and sales payouts and can update the base url if needed.",
          "_symbol": "Symbol of the new token contract",
          "artistWallet": "wallet address for thr User that created the drop",
          "randomMint": "Mint in an random order   "
        }
      },
      "isApprovedForAll(address,address)": {
        "details": "See {IERC721-isApprovedForAll}."
      },
      "isReserved(uint256)": {
        "details": "Unreserve an edition for a wallet",
        "params": {
          "tokenID": "the tokenId to check                                                                           "
        }
      },
      "loadMetadataChunk(uint256,uint256,string[])": {
        "details": "Function to create a new drop. Can only be called by the allowed creator Sets the only allowed minter to the address that creates/owns the drop. This can be re-assigned or updated later",
        "params": {
          "_mintedMetadataUrl": "The URL to the metadata for this Edtion",
          "count": "How many rows of data to load ",
          "startIndex": "The first ID index to write the data"
        }
      },
      "loadRedeemedMetadata(uint256,string)": {
        "details": "Function to create a new drop. Can only be called by the allowed creator Sets the only allowed minter to the address that creates/owns the drop. This can be re-assigned or updated later",
        "params": {
          "_redeemedMetadataUrl": "The URL to the metadata for this Edtion",
          "tokenID": "The index to write the data"
        }
      },
      "mintEdition(address)": {
        "details": "This mints one edition to the given address by an allowed minter on the edition instance.",
        "params": {
          "to": "address to send the newly minted edition to"
        }
      },
      "mintEditions(address[])": {
        "details": "This mints multiple editions to the given list of addresses.",
        "params": {
          "recipients": "list of addresses to send the newly minted editions to"
        }
      },
      "mintMultipleEditions(address,uint256)": {
        "details": "This mints one edition to the given address by an allowed minter on the edition instance.",
        "params": {
          "count": "how many editions to mint      ",
          "to": "address to send the newly minted edition to"
        }
      },
      "name()": {
        "details": "See {IERC721Metadata-name}."
      },
      "numberOfFreeMints(address)": {
        "details": "Check the number of fre mints a wallet has",
        "params": {
          "wallet": "The address of the wallet                                                                       "
        }
      },
      "ownerOf(uint256)": {
        "details": "See {IERC721-ownerOf}."
      },
      "price()": {
        "details": "returns the current ETH sales price based on who can currently mint."
      },
      "purchase()": {
        "details": "This allows the user to purchase an edition at the given price in the contract."
      },
      "redeemedState(uint256)": {
        "details": "returns the current state of the provided token"
      },
      "renounceOwnership()": {
        "details": "Leaves the contract without owner. It will not be possible to call `onlyOwner` functions anymore. Can only be called by the current owner. NOTE: Renouncing ownership will leave the contract without an owner, thereby removing any functionality that is only available to the owner."
      },
      "reserve(address[],uint256[])": {
        "details": "Reserve an edition for a wallet",
        "params": {
          "tokenIDs": "A list of tokenId to reserve                                                                           ",
          "wallets": "A list of wallets"
        }
      },
      "royaltyInfo(uint256,uint256)": {
        "details": "Get royalty information for token",
        "params": {
          "_salePrice": "Sale price for the token"
        }
      },
      "safeTransferFrom(address,address,uint256)": {
        "details": "See {IERC721-safeTransferFrom}."
      },
      "safeTransferFrom(address,address,uint256,bytes)": {
        "details": "See {IERC721-safeTransferFrom}."
      },
      "setAllowListMinters(uint256,address[],bool[])": {
        "details": "Sets the approved minting status of the given address. This requires that msg.sender is the owner of the given edition id. If the ZeroAddress (address(0x0)) is set as a minter, anyone will be allowed to mint. This setup is similar to setApprovalForAll in the ERC721 spec.",
        "params": {
          "allowed": "boolean if that address is allowed to mint",
          "minter": "address to set approved minting status for"
        }
      },
      "setAllowListSalePrice(uint256)": {
        "details": "This sets the allow list ETH sales price Setting a sales price allows users to mint the drop until it sells out. For more granular sales, use an external sales contract.",
        "params": {
          "_salePrice": "The amount of ETH is needed to start the sale."
        }
      },
      "setAllowedMinter(uint8)": {
        "details": "Sets the types of users who is allowed to mint.",
        "params": {
          "minters": "WhoCanMint enum of minter types"
        }
      },
      "setApprovalForAll(address,bool)": {
        "details": "See {IERC721-setApprovalForAll}."
      },
      "setFreeMints(address,uint256)": {
        "details": "Set the number of freemints for a wallet",
        "params": {
          "freeMintLimit": "How many free mints should the wallet get                                                                           ",
          "wallet": "The address of the wallet"
        }
      },
      "setPricing(uint256,uint256,uint256,uint256,uint256,uint256)": {
        "details": "Set various pricing related values",
        "params": {
          "_allowListMintLimit": "Mint limit for allow listed wallets",
          "_allowListSalePrice": "Sale price for allow listed wallets",
          "_generalMintLimit": "Mint limit for the general public                                                                                 ",
          "_generalSalePrice": "SalePrice for the general public     ",
          "_royaltyBPS": "BPS of the royalty set on the contract. Can be 0 for no royalty.",
          "_splitBPS": "BPS of the royalty set on the contract. Can be 0 for no royalty. "
        }
      },
      "setSalePrice(uint256)": {
        "details": "This sets a simple ETH sales price Setting a sales price allows users to mint the drop until it sells out. For more granular sales, use an external sales contract.",
        "params": {
          "_salePrice": "The amount of ETH is needed to start the sale."
        }
      },
      "setSalePrices(uint256,uint256)": {
        "details": "This sets the members ETH sales price Setting a sales price allows users to mint the drop until it sells out. For more granular sales, use an external sales contract.",
        "params": {
          "allowListSalePrice": "if sale price is 0 sale is stopped, otherwise that amount  of ETH is needed to start the sale.",
          "generalSalePrice": "if sale price is 0 sale is stopped, otherwise that amount  of ETH is needed to start the sale.                                              "
        }
      },
      "symbol()": {
        "details": "See {IERC721Metadata-symbol}."
      },
      "tokenURI(uint256)": {
        "details": "Get URI for given token id",
        "params": {
          "tokenId": "token id to get uri for"
        },
        "returns": {
          "_0": "base64-encoded json metadata object"
        }
      },
      "totalSupply()": {
        "details": "returns the number of minted tokens within the drop"
      },
      "transferFrom(address,address,uint256)": {
        "details": "See {IERC721-transferFrom}."
      },
      "transferOwnership(address)": {
        "details": "Transfers ownership of the contract to a new account (`newOwner`). Can only be called by the current owner."
      },
      "unreserve(uint256[])": {
        "details": "Unreserve an edition for a wallet",
        "params": {
          "tokenIDs": "A list of tokenId to unreserve                                                                           "
        }
      },
      "whoReserved(uint256)": {
        "details": "who reserved the provided ID",
        "params": {
          "tokenID": "the tokenId to check                                                                           "
        }
      },
      "withdraw()": {
        "details": "This withdraws ETH from the contract to the contract owner."
      }
    },
    "version": 1
  },
  "userdoc": {
    "kind": "user",
    "methods": {
      "getArtistWallet()": {
        "notice": "return the artists wallet address"
      },
      "getPaymentToken()": {
        "notice": "return the payment tokens address"
      },
      "numberCanMint()": {
        "notice": "Returns the number of editions allowed to mint"
      },
      "owner()": {
        "notice": "Simple override for owner interface."
      },
      "setArtistWallet(address)": {
        "notice": "set the artists wallet address"
      },
      "setPaymentToken(address)": {
        "notice": "set a new payment token address"
      }
    },
    "notice": "This is a smart contract for handling dynamic contract minting.",
    "version": 1
  },
  "storageLayout": {
    "storage": [
      {
        "astId": 237,
        "contract": "contracts/ExpandedNFT.sol:ExpandedNFT",
        "label": "_initialized",
        "offset": 0,
        "slot": "0",
        "type": "t_uint8"
      },
      {
        "astId": 240,
        "contract": "contracts/ExpandedNFT.sol:ExpandedNFT",
        "label": "_initializing",
        "offset": 1,
        "slot": "0",
        "type": "t_bool"
      },
      {
        "astId": 1915,
        "contract": "contracts/ExpandedNFT.sol:ExpandedNFT",
        "label": "__gap",
        "offset": 0,
        "slot": "1",
        "type": "t_array(t_uint256)50_storage"
      },
      {
        "astId": 2208,
        "contract": "contracts/ExpandedNFT.sol:ExpandedNFT",
        "label": "__gap",
        "offset": 0,
        "slot": "51",
        "type": "t_array(t_uint256)50_storage"
      },
      {
        "astId": 506,
        "contract": "contracts/ExpandedNFT.sol:ExpandedNFT",
        "label": "_name",
        "offset": 0,
        "slot": "101",
        "type": "t_string_storage"
      },
      {
        "astId": 508,
        "contract": "contracts/ExpandedNFT.sol:ExpandedNFT",
        "label": "_symbol",
        "offset": 0,
        "slot": "102",
        "type": "t_string_storage"
      },
      {
        "astId": 512,
        "contract": "contracts/ExpandedNFT.sol:ExpandedNFT",
        "label": "_owners",
        "offset": 0,
        "slot": "103",
        "type": "t_mapping(t_uint256,t_address)"
      },
      {
        "astId": 516,
        "contract": "contracts/ExpandedNFT.sol:ExpandedNFT",
        "label": "_balances",
        "offset": 0,
        "slot": "104",
        "type": "t_mapping(t_address,t_uint256)"
      },
      {
        "astId": 520,
        "contract": "contracts/ExpandedNFT.sol:ExpandedNFT",
        "label": "_tokenApprovals",
        "offset": 0,
        "slot": "105",
        "type": "t_mapping(t_uint256,t_address)"
      },
      {
        "astId": 526,
        "contract": "contracts/ExpandedNFT.sol:ExpandedNFT",
        "label": "_operatorApprovals",
        "offset": 0,
        "slot": "106",
        "type": "t_mapping(t_address,t_mapping(t_address,t_bool))"
      },
      {
        "astId": 1428,
        "contract": "contracts/ExpandedNFT.sol:ExpandedNFT",
        "label": "__gap",
        "offset": 0,
        "slot": "107",
        "type": "t_array(t_uint256)44_storage"
      },
      {
        "astId": 10,
        "contract": "contracts/ExpandedNFT.sol:ExpandedNFT",
        "label": "_owner",
        "offset": 0,
        "slot": "151",
        "type": "t_address"
      },
      {
        "astId": 130,
        "contract": "contracts/ExpandedNFT.sol:ExpandedNFT",
        "label": "__gap",
        "offset": 0,
        "slot": "152",
        "type": "t_array(t_uint256)49_storage"
      },
      {
        "astId": 3370,
        "contract": "contracts/ExpandedNFT.sol:ExpandedNFT",
        "label": "_artistWallet",
        "offset": 0,
        "slot": "201",
        "type": "t_address"
      },
      {
        "astId": 3375,
        "contract": "contracts/ExpandedNFT.sol:ExpandedNFT",
        "label": "_perTokenMetadata",
        "offset": 0,
        "slot": "202",
        "type": "t_mapping(t_uint256,t_struct(PerToken)3340_storage)"
      },
      {
        "astId": 3377,
        "contract": "contracts/ExpandedNFT.sol:ExpandedNFT",
        "label": "dropSize",
        "offset": 0,
        "slot": "203",
        "type": "t_uint256"
      },
      {
        "astId": 3379,
        "contract": "contracts/ExpandedNFT.sol:ExpandedNFT",
        "label": "_claimCount",
        "offset": 0,
        "slot": "204",
        "type": "t_uint256"
      },
      {
        "astId": 3382,
        "contract": "contracts/ExpandedNFT.sol:ExpandedNFT",
        "label": "_pricing",
        "offset": 0,
        "slot": "205",
        "type": "t_struct(Pricing)3368_storage"
      },
      {
        "astId": 3384,
        "contract": "contracts/ExpandedNFT.sol:ExpandedNFT",
        "label": "salePrice",
        "offset": 0,
        "slot": "215",
        "type": "t_uint256"
      },
      {
        "astId": 3388,
        "contract": "contracts/ExpandedNFT.sol:ExpandedNFT",
        "label": "_resevationCount",
        "offset": 0,
        "slot": "216",
        "type": "t_mapping(t_address,t_uint256)"
      },
      {
        "astId": 3393,
        "contract": "contracts/ExpandedNFT.sol:ExpandedNFT",
        "label": "_resevations",
        "offset": 0,
        "slot": "217",
        "type": "t_mapping(t_address,t_array(t_uint256)dyn_storage)"
      },
      {
        "astId": 3395,
        "contract": "contracts/ExpandedNFT.sol:ExpandedNFT",
        "label": "_loadedMetadata",
        "offset": 0,
        "slot": "218",
        "type": "t_uint256"
      },
      {
        "astId": 3397,
        "contract": "contracts/ExpandedNFT.sol:ExpandedNFT",
        "label": "_randomMint",
        "offset": 0,
        "slot": "219",
        "type": "t_bool"
      },
      {
        "astId": 3399,
        "contract": "contracts/ExpandedNFT.sol:ExpandedNFT",
        "label": "_currentIndex",
        "offset": 0,
        "slot": "220",
        "type": "t_uint256"
      },
      {
        "astId": 3402,
        "contract": "contracts/ExpandedNFT.sol:ExpandedNFT",
        "label": "_paymentTokenERC20",
        "offset": 0,
        "slot": "221",
        "type": "t_contract(IERC20Upgradeable)477"
      }
    ],
    "types": {
      "t_address": {
        "encoding": "inplace",
        "label": "address",
        "numberOfBytes": "20"
      },
      "t_array(t_uint256)44_storage": {
        "base": "t_uint256",
        "encoding": "inplace",
        "label": "uint256[44]",
        "numberOfBytes": "1408"
      },
      "t_array(t_uint256)49_storage": {
        "base": "t_uint256",
        "encoding": "inplace",
        "label": "uint256[49]",
        "numberOfBytes": "1568"
      },
      "t_array(t_uint256)50_storage": {
        "base": "t_uint256",
        "encoding": "inplace",
        "label": "uint256[50]",
        "numberOfBytes": "1600"
      },
      "t_array(t_uint256)dyn_storage": {
        "base": "t_uint256",
        "encoding": "dynamic_array",
        "label": "uint256[]",
        "numberOfBytes": "32"
      },
      "t_bool": {
        "encoding": "inplace",
        "label": "bool",
        "numberOfBytes": "1"
      },
      "t_contract(IERC20Upgradeable)477": {
        "encoding": "inplace",
        "label": "contract IERC20Upgradeable",
        "numberOfBytes": "20"
      },
      "t_enum(ExpandedNFTStates)3267": {
        "encoding": "inplace",
        "label": "enum ExpandedNFT.ExpandedNFTStates",
        "numberOfBytes": "1"
      },
      "t_enum(WhoCanMint)3258": {
        "encoding": "inplace",
        "label": "enum ExpandedNFT.WhoCanMint",
        "numberOfBytes": "1"
      },
      "t_mapping(t_address,t_array(t_uint256)dyn_storage)": {
        "encoding": "mapping",
        "key": "t_address",
        "label": "mapping(address => uint256[])",
        "numberOfBytes": "32",
        "value": "t_array(t_uint256)dyn_storage"
      },
      "t_mapping(t_address,t_bool)": {
        "encoding": "mapping",
        "key": "t_address",
        "label": "mapping(address => bool)",
        "numberOfBytes": "32",
        "value": "t_bool"
      },
      "t_mapping(t_address,t_mapping(t_address,t_bool))": {
        "encoding": "mapping",
        "key": "t_address",
        "label": "mapping(address => mapping(address => bool))",
        "numberOfBytes": "32",
        "value": "t_mapping(t_address,t_bool)"
      },
      "t_mapping(t_address,t_uint256)": {
        "encoding": "mapping",
        "key": "t_address",
        "label": "mapping(address => uint256)",
        "numberOfBytes": "32",
        "value": "t_uint256"
      },
      "t_mapping(t_uint256,t_address)": {
        "encoding": "mapping",
        "key": "t_uint256",
        "label": "mapping(uint256 => address)",
        "numberOfBytes": "32",
        "value": "t_address"
      },
      "t_mapping(t_uint256,t_struct(PerToken)3340_storage)": {
        "encoding": "mapping",
        "key": "t_uint256",
        "label": "mapping(uint256 => struct ExpandedNFT.PerToken)",
        "numberOfBytes": "32",
        "value": "t_struct(PerToken)3340_storage"
      },
      "t_string_storage": {
        "encoding": "bytes",
        "label": "string",
        "numberOfBytes": "32"
      },
      "t_struct(PerToken)3340_storage": {
        "encoding": "inplace",
        "label": "struct ExpandedNFT.PerToken",
        "members": [
          {
            "astId": 3329,
            "contract": "contracts/ExpandedNFT.sol:ExpandedNFT",
            "label": "state",
            "offset": 0,
            "slot": "0",
            "type": "t_enum(ExpandedNFTStates)3267"
          },
          {
            "astId": 3331,
            "contract": "contracts/ExpandedNFT.sol:ExpandedNFT",
            "label": "reservedBy",
            "offset": 1,
            "slot": "0",
            "type": "t_address"
          },
          {
            "astId": 3333,
            "contract": "contracts/ExpandedNFT.sol:ExpandedNFT",
            "label": "editionFee",
            "offset": 0,
            "slot": "1",
            "type": "t_uint256"
          },
          {
            "astId": 3335,
            "contract": "contracts/ExpandedNFT.sol:ExpandedNFT",
            "label": "metadataLoaded",
            "offset": 0,
            "slot": "2",
            "type": "t_bool"
          },
          {
            "astId": 3337,
            "contract": "contracts/ExpandedNFT.sol:ExpandedNFT",
            "label": "mintedMetadataUrl",
            "offset": 0,
            "slot": "3",
            "type": "t_string_storage"
          },
          {
            "astId": 3339,
            "contract": "contracts/ExpandedNFT.sol:ExpandedNFT",
            "label": "redeemedMetadataUrl",
            "offset": 0,
            "slot": "4",
            "type": "t_string_storage"
          }
        ],
        "numberOfBytes": "160"
      },
      "t_struct(Pricing)3368_storage": {
        "encoding": "inplace",
        "label": "struct ExpandedNFT.Pricing",
        "members": [
          {
            "astId": 3342,
            "contract": "contracts/ExpandedNFT.sol:ExpandedNFT",
            "label": "royaltyBPS",
            "offset": 0,
            "slot": "0",
            "type": "t_uint256"
          },
          {
            "astId": 3344,
            "contract": "contracts/ExpandedNFT.sol:ExpandedNFT",
            "label": "splitBPS",
            "offset": 0,
            "slot": "1",
            "type": "t_uint256"
          },
          {
            "astId": 3346,
            "contract": "contracts/ExpandedNFT.sol:ExpandedNFT",
            "label": "allowListSalePrice",
            "offset": 0,
            "slot": "2",
            "type": "t_uint256"
          },
          {
            "astId": 3348,
            "contract": "contracts/ExpandedNFT.sol:ExpandedNFT",
            "label": "allowListMintLimit",
            "offset": 0,
            "slot": "3",
            "type": "t_uint256"
          },
          {
            "astId": 3350,
            "contract": "contracts/ExpandedNFT.sol:ExpandedNFT",
            "label": "generalMintLimit",
            "offset": 0,
            "slot": "4",
            "type": "t_uint256"
          },
          {
            "astId": 3354,
            "contract": "contracts/ExpandedNFT.sol:ExpandedNFT",
            "label": "allowListMinters",
            "offset": 0,
            "slot": "5",
            "type": "t_mapping(t_address,t_bool)"
          },
          {
            "astId": 3356,
            "contract": "contracts/ExpandedNFT.sol:ExpandedNFT",
            "label": "allowListCount",
            "offset": 0,
            "slot": "6",
            "type": "t_uint256"
          },
          {
            "astId": 3359,
            "contract": "contracts/ExpandedNFT.sol:ExpandedNFT",
            "label": "whoCanMint",
            "offset": 0,
            "slot": "7",
            "type": "t_enum(WhoCanMint)3258"
          },
          {
            "astId": 3363,
            "contract": "contracts/ExpandedNFT.sol:ExpandedNFT",
            "label": "mintCounts",
            "offset": 0,
            "slot": "8",
            "type": "t_mapping(t_address,t_uint256)"
          },
          {
            "astId": 3367,
            "contract": "contracts/ExpandedNFT.sol:ExpandedNFT",
            "label": "freeMints",
            "offset": 0,
            "slot": "9",
            "type": "t_mapping(t_address,t_uint256)"
          }
        ],
        "numberOfBytes": "320"
      },
      "t_uint256": {
        "encoding": "inplace",
        "label": "uint256",
        "numberOfBytes": "32"
      },
      "t_uint8": {
        "encoding": "inplace",
        "label": "uint8",
        "numberOfBytes": "1"
      }
    }
  }
}