{
  "address": "0x56DeD20F5fa9E878531BfB57637703eC58cF9DB6",
  "abi": [
    {
      "inputs": [
        {
          "internalType": "bytes",
          "name": "unencoded",
          "type": "bytes"
        }
      ],
      "name": "base64Encode",
      "outputs": [
        {
          "internalType": "string",
          "name": "",
          "type": "string"
        }
      ],
      "stateMutability": "pure",
      "type": "function"
    },
    {
      "inputs": [
        {
          "internalType": "string",
          "name": "name",
          "type": "string"
        },
        {
          "internalType": "string",
          "name": "description",
          "type": "string"
        },
        {
          "internalType": "string",
          "name": "imageUrl",
          "type": "string"
        },
        {
          "internalType": "string",
          "name": "animationUrl",
          "type": "string"
        },
        {
          "internalType": "uint256",
          "name": "tokenOfEdition",
          "type": "uint256"
        },
        {
          "internalType": "uint256",
          "name": "editionSize",
          "type": "uint256"
        }
      ],
      "name": "createMetadataEdition",
      "outputs": [
        {
          "internalType": "string",
          "name": "",
          "type": "string"
        }
      ],
      "stateMutability": "pure",
      "type": "function"
    },
    {
      "inputs": [
        {
          "internalType": "string",
          "name": "name",
          "type": "string"
        },
        {
          "internalType": "string",
          "name": "description",
          "type": "string"
        },
        {
          "internalType": "string",
          "name": "mediaData",
          "type": "string"
        },
        {
          "internalType": "uint256",
          "name": "tokenOfEdition",
          "type": "uint256"
        },
        {
          "internalType": "uint256",
          "name": "editionSize",
          "type": "uint256"
        }
      ],
      "name": "createMetadataJSON",
      "outputs": [
        {
          "internalType": "bytes",
          "name": "",
          "type": "bytes"
        }
      ],
      "stateMutability": "pure",
      "type": "function"
    },
    {
      "inputs": [
        {
          "internalType": "bytes",
          "name": "json",
          "type": "bytes"
        }
      ],
      "name": "encodeMetadataJSON",
      "outputs": [
        {
          "internalType": "string",
          "name": "",
          "type": "string"
        }
      ],
      "stateMutability": "pure",
      "type": "function"
    },
    {
      "inputs": [
        {
          "internalType": "uint256",
          "name": "value",
          "type": "uint256"
        }
      ],
      "name": "numberToString",
      "outputs": [
        {
          "internalType": "string",
          "name": "",
          "type": "string"
        }
      ],
      "stateMutability": "pure",
      "type": "function"
    },
    {
      "inputs": [
        {
          "internalType": "string",
          "name": "imageUrl",
          "type": "string"
        },
        {
          "internalType": "string",
          "name": "animationUrl",
          "type": "string"
        },
        {
          "internalType": "uint256",
          "name": "tokenOfEdition",
          "type": "uint256"
        }
      ],
      "name": "tokenMediaData",
      "outputs": [
        {
          "internalType": "string",
          "name": "",
          "type": "string"
        }
      ],
      "stateMutability": "pure",
      "type": "function"
    }
  ],
  "transactionHash": "0x5c7a517b00ab33cce52172bec80f8487946a3ffdffae8a0aef488ffec2bb063b",
  "args": [],
  "numDeployments": 2,
  "solcInputHash": "48582f4a917a415c167e61945d4804b2",
  "bytecode": "0x608060405234801561001057600080fd5b50610cdf806100206000396000f3fe608060405234801561001057600080fd5b50600436106100625760003560e01c8063170dc6601461006757806358464f3014610090578063d01fde8c146100a3578063d5fb1b19146100b6578063df30dba0146100c9578063eb111ab6146100dc575b600080fd5b61007a610075366004610577565b6100ef565b60405161008791906105ec565b60405180910390f35b61007a61009e3660046106aa565b610100565b61007a6100b1366004610743565b61017c565b61007a6100c4366004610743565b6101ad565b61007a6100d7366004610793565b6101b8565b61007a6100ea366004610851565b6101f0565b60606100fa826102a9565b92915050565b606080821561013457610112836100ef565b60405160200161012291906108d9565b60405160208183030381529060405290505b8661013e856100ef565b82888861014a896100ef565b8c6040516020016101619796959493929190610902565b60405160208183030381529060405291505095945050505050565b6060610187826101ad565b6040516020016101979190610a26565b6040516020818303038152906040529050919050565b60606100fa8261033b565b606060006101c78686866101f0565b905060006101d88989848888610100565b90506101e38161017c565b9998505050505050505050565b825182516060911580159115159082906102075750805b1561024b5785610216856100ef565b86610220876100ef565b6040516020016102339493929190610a6b565b604051602081830303815290604052925050506102a2565b811561026c578561025b856100ef565b604051602001610233929190610b26565b801561028d578461027c856100ef565b604051602001610233929190610b8c565b60405180602001604052806000815250925050505b9392505050565b606060006102b68361049f565b60010190506000816001600160401b038111156102d5576102d56105ff565b6040519080825280601f01601f1916602001820160405280156102ff576020820181803683370190505b5090508181016020015b600019016f181899199a1a9b1b9c1cb0b131b232b360811b600a86061a8153600a850494508461030957509392505050565b6060815160000361035a57505060408051602081019091526000815290565b6000604051806060016040528060408152602001610c6a60409139905060006003845160026103899190610c10565b6103939190610c28565b61039e906004610c4a565b905060006103ad826020610c10565b6001600160401b038111156103c4576103c46105ff565b6040519080825280601f01601f1916602001820160405280156103ee576020820181803683370190505b509050818152600183018586518101602084015b8183101561045a576003830192508251603f8160121c168501518253600182019150603f81600c1c168501518253600182019150603f8160061c168501518253600182019150603f8116850151825350600101610402565b600389510660018114610474576002811461048557610491565b613d3d60f01b600119830152610491565b603d60f81b6000198301525b509398975050505050505050565b60008072184f03e93ff9f4daa797ed6e38ed64bf6a1f0160401b83106104de5772184f03e93ff9f4daa797ed6e38ed64bf6a1f0160401b830492506040015b6d04ee2d6d415b85acef8100000000831061050a576d04ee2d6d415b85acef8100000000830492506020015b662386f26fc10000831061052857662386f26fc10000830492506010015b6305f5e1008310610540576305f5e100830492506008015b612710831061055457612710830492506004015b60648310610566576064830492506002015b600a83106100fa5760010192915050565b60006020828403121561058957600080fd5b5035919050565b60005b838110156105ab578181015183820152602001610593565b838111156105ba576000848401525b50505050565b600081518084526105d8816020860160208601610590565b601f01601f19169290920160200192915050565b6020815260006102a260208301846105c0565b634e487b7160e01b600052604160045260246000fd5b60006001600160401b038084111561062f5761062f6105ff565b604051601f8501601f19908116603f01168101908282118183101715610657576106576105ff565b8160405280935085815286868601111561067057600080fd5b858560208301376000602087830101525050509392505050565b600082601f83011261069b57600080fd5b6102a283833560208501610615565b600080600080600060a086880312156106c257600080fd5b85356001600160401b03808211156106d957600080fd5b6106e589838a0161068a565b965060208801359150808211156106fb57600080fd5b61070789838a0161068a565b9550604088013591508082111561071d57600080fd5b5061072a8882890161068a565b9598949750949560608101359550608001359392505050565b60006020828403121561075557600080fd5b81356001600160401b0381111561076b57600080fd5b8201601f8101841361077c57600080fd5b61078b84823560208401610615565b949350505050565b60008060008060008060c087890312156107ac57600080fd5b86356001600160401b03808211156107c357600080fd5b6107cf8a838b0161068a565b975060208901359150808211156107e557600080fd5b6107f18a838b0161068a565b9650604089013591508082111561080757600080fd5b6108138a838b0161068a565b9550606089013591508082111561082957600080fd5b5061083689828a0161068a565b9350506080870135915060a087013590509295509295509295565b60008060006060848603121561086657600080fd5b83356001600160401b038082111561087d57600080fd5b6108898783880161068a565b9450602086013591508082111561089f57600080fd5b506108ac8682870161068a565b925050604084013590509250925092565b600081516108cf818560208601610590565b9290920192915050565b602f60f81b8152600082516108f5816001850160208701610590565b9190910160010192915050565b693d913730b6b2911d101160b11b8152875160009061092881600a850160208d01610590565b600160fd1b600a91840191820152885161094981600b840160208d01610590565b885191019061095f81600b840160208c01610590565b631116101160e11b600b929091019182018190526e3232b9b1b934b83a34b7b7111d101160891b600f830152875161099e81601e850160208c01610590565b601e920191820152610a18610a09610a036109ec6109e66109c2602287018c6108bd565b770383937b832b93a34b2b9911d103d91373ab6b132b9111d160451b815260180190565b896108bd565b6a1610113730b6b2911d101160a91b8152600b0190565b866108bd565b62227d7d60e81b815260030190565b9a9950505050505050505050565b7f646174613a6170706c69636174696f6e2f6a736f6e3b6261736536342c000000815260008251610a5e81601d850160208701610590565b91909101601d0192915050565b6834b6b0b3b2911d101160b91b81528451600090610a90816009850160208a01610590565b8083019050633f69643d60e01b8060098301528651610ab681600d850160208b01610590565b741116101130b734b6b0ba34b7b72fbab936111d101160591b600d93909101928301528551610aec816022850160208a01610590565b60229201918201528351610b07816026840160208801610590565b631116101160e11b60269290910191820152602a019695505050505050565b6834b6b0b3b2911d101160b91b81528251600090610b4b816009850160208801610590565b633f69643d60e01b6009918401918201528351610b6f81600d840160208801610590565b631116101160e11b600d9290910191820152601101949350505050565b7030b734b6b0ba34b7b72fbab936111d101160791b81528251600090610bb9816011850160208801610590565b633f69643d60e01b6011918401918201528351610bdd816015840160208801610590565b631116101160e11b60159290910191820152601901949350505050565b634e487b7160e01b600052601160045260246000fd5b60008219821115610c2357610c23610bfa565b500190565b600082610c4557634e487b7160e01b600052601260045260246000fd5b500490565b6000816000190483118215151615610c6457610c64610bfa565b50029056fe4142434445464748494a4b4c4d4e4f505152535455565758595a6162636465666768696a6b6c6d6e6f707172737475767778797a303132333435363738392b2fa2646970667358221220bf455edc91cea75174ab01aba3851479ff44c886b01db99561d732cb71726c2464736f6c634300080f0033",
  "devdoc": {
    "details": "Can safely be used for generic base64Encode and numberToString functions",
    "kind": "dev",
    "methods": {
      "base64Encode(bytes)": {
        "params": {
          "unencoded": "bytes to base64-encode"
        }
      },
      "createMetadataEdition(string,string,string,string,uint256,uint256)": {
        "params": {
          "animationUrl": "URL of animation to render for edition",
          "description": "Description of NFT in metadata",
          "editionSize": "Size of entire edition to show",
          "imageUrl": "URL of image to render for edition",
          "name": "Name of NFT in metadata",
          "tokenOfEdition": "Token ID for specific token"
        }
      },
      "createMetadataJSON(string,string,string,uint256,uint256)": {
        "params": {
          "description": "Description of NFT in metadata",
          "editionSize": "Size of entire edition to show",
          "mediaData": "Data for media to include in json object",
          "name": "Name of NFT in metadata",
          "tokenOfEdition": "Token ID for specific token"
        }
      },
      "encodeMetadataJSON(bytes)": {
        "params": {
          "json": "Raw json to base64 and turn into a data-uri"
        }
      },
      "numberToString(uint256)": {
        "params": {
          "value": "number to return as a string"
        }
      },
      "tokenMediaData(string,string,uint256)": {
        "params": {
          "animationUrl": "URL of animation to render for edition",
          "imageUrl": "URL of image to render for edition"
        }
      }
    },
    "version": 1
  },
  "userdoc": {
    "kind": "user",
    "methods": {
      "createMetadataEdition(string,string,string,string,uint256,uint256)": {
        "notice": "Generate edition metadata from storage information as base64-json blob Combines the media data and metadata"
      },
      "createMetadataJSON(string,string,string,uint256,uint256)": {
        "notice": "Function to create the metadata json string for the nft edition"
      },
      "encodeMetadataJSON(bytes)": {
        "notice": "Encodes the argument json bytes into base64-data uri format"
      },
      "numberToString(uint256)": {
        "notice": "Proxy to openzeppelin's toString function"
      },
      "tokenMediaData(string,string,uint256)": {
        "notice": "Generates edition metadata from storage information as base64-json blob Combines the media data and metadata"
      }
    },
    "notice": "Shared NFT logic for rendering metadata associated with editions",
    "version": 1
  },
  "storageLayout": {
    "storage": [],
    "types": null
  }
}