{
  "address": "0x53d60FCc9E8C1a4fa0C515A06668081d8EeB07CA",
  "abi": [
    {
      "inputs": [],
      "stateMutability": "nonpayable",
      "type": "constructor"
    },
    {
      "anonymous": false,
      "inputs": [
        {
          "indexed": true,
          "internalType": "address",
          "name": "owner",
          "type": "address"
        },
        {
          "indexed": true,
          "internalType": "address",
          "name": "spender",
          "type": "address"
        },
        {
          "indexed": false,
          "internalType": "uint256",
          "name": "value",
          "type": "uint256"
        }
      ],
      "name": "Approval",
      "type": "event"
    },
    {
      "anonymous": false,
      "inputs": [
        {
          "indexed": false,
          "internalType": "uint8",
          "name": "version",
          "type": "uint8"
        }
      ],
      "name": "Initialized",
      "type": "event"
    },
    {
      "anonymous": false,
      "inputs": [
        {
          "indexed": false,
          "internalType": "address",
          "name": "account",
          "type": "address"
        }
      ],
      "name": "Paused",
      "type": "event"
    },
    {
      "anonymous": false,
      "inputs": [
        {
          "indexed": true,
          "internalType": "bytes32",
          "name": "role",
          "type": "bytes32"
        },
        {
          "indexed": true,
          "internalType": "bytes32",
          "name": "previousAdminRole",
          "type": "bytes32"
        },
        {
          "indexed": true,
          "internalType": "bytes32",
          "name": "newAdminRole",
          "type": "bytes32"
        }
      ],
      "name": "RoleAdminChanged",
      "type": "event"
    },
    {
      "anonymous": false,
      "inputs": [
        {
          "indexed": true,
          "internalType": "bytes32",
          "name": "role",
          "type": "bytes32"
        },
        {
          "indexed": true,
          "internalType": "address",
          "name": "account",
          "type": "address"
        },
        {
          "indexed": true,
          "internalType": "address",
          "name": "sender",
          "type": "address"
        }
      ],
      "name": "RoleGranted",
      "type": "event"
    },
    {
      "anonymous": false,
      "inputs": [
        {
          "indexed": true,
          "internalType": "bytes32",
          "name": "role",
          "type": "bytes32"
        },
        {
          "indexed": true,
          "internalType": "address",
          "name": "account",
          "type": "address"
        },
        {
          "indexed": true,
          "internalType": "address",
          "name": "sender",
          "type": "address"
        }
      ],
      "name": "RoleRevoked",
      "type": "event"
    },
    {
      "anonymous": false,
      "inputs": [
        {
          "indexed": true,
          "internalType": "address",
          "name": "from",
          "type": "address"
        },
        {
          "indexed": true,
          "internalType": "address",
          "name": "to",
          "type": "address"
        },
        {
          "indexed": false,
          "internalType": "uint256",
          "name": "value",
          "type": "uint256"
        }
      ],
      "name": "Transfer",
      "type": "event"
    },
    {
      "anonymous": false,
      "inputs": [
        {
          "indexed": false,
          "internalType": "address",
          "name": "account",
          "type": "address"
        }
      ],
      "name": "Unpaused",
      "type": "event"
    },
    {
      "inputs": [],
      "name": "DEFAULT_ADMIN_ROLE",
      "outputs": [
        {
          "internalType": "bytes32",
          "name": "",
          "type": "bytes32"
        }
      ],
      "stateMutability": "view",
      "type": "function"
    },
    {
      "inputs": [],
      "name": "MINTER_ROLE",
      "outputs": [
        {
          "internalType": "bytes32",
          "name": "",
          "type": "bytes32"
        }
      ],
      "stateMutability": "view",
      "type": "function"
    },
    {
      "inputs": [],
      "name": "PAUSER_ROLE",
      "outputs": [
        {
          "internalType": "bytes32",
          "name": "",
          "type": "bytes32"
        }
      ],
      "stateMutability": "view",
      "type": "function"
    },
    {
      "inputs": [
        {
          "internalType": "address",
          "name": "owner",
          "type": "address"
        },
        {
          "internalType": "address",
          "name": "spender",
          "type": "address"
        }
      ],
      "name": "allowance",
      "outputs": [
        {
          "internalType": "uint256",
          "name": "",
          "type": "uint256"
        }
      ],
      "stateMutability": "view",
      "type": "function"
    },
    {
      "inputs": [
        {
          "internalType": "address",
          "name": "spender",
          "type": "address"
        },
        {
          "internalType": "uint256",
          "name": "amount",
          "type": "uint256"
        }
      ],
      "name": "approve",
      "outputs": [
        {
          "internalType": "bool",
          "name": "",
          "type": "bool"
        }
      ],
      "stateMutability": "nonpayable",
      "type": "function"
    },
    {
      "inputs": [
        {
          "internalType": "address",
          "name": "account",
          "type": "address"
        }
      ],
      "name": "balanceOf",
      "outputs": [
        {
          "internalType": "uint256",
          "name": "",
          "type": "uint256"
        }
      ],
      "stateMutability": "view",
      "type": "function"
    },
    {
      "inputs": [
        {
          "internalType": "uint256",
          "name": "amount",
          "type": "uint256"
        }
      ],
      "name": "burn",
      "outputs": [],
      "stateMutability": "nonpayable",
      "type": "function"
    },
    {
      "inputs": [
        {
          "internalType": "address",
          "name": "account",
          "type": "address"
        },
        {
          "internalType": "uint256",
          "name": "amount",
          "type": "uint256"
        }
      ],
      "name": "burnFrom",
      "outputs": [],
      "stateMutability": "nonpayable",
      "type": "function"
    },
    {
      "inputs": [],
      "name": "decimals",
      "outputs": [
        {
          "internalType": "uint8",
          "name": "",
          "type": "uint8"
        }
      ],
      "stateMutability": "view",
      "type": "function"
    },
    {
      "inputs": [
        {
          "internalType": "address",
          "name": "spender",
          "type": "address"
        },
        {
          "internalType": "uint256",
          "name": "subtractedValue",
          "type": "uint256"
        }
      ],
      "name": "decreaseAllowance",
      "outputs": [
        {
          "internalType": "bool",
          "name": "",
          "type": "bool"
        }
      ],
      "stateMutability": "nonpayable",
      "type": "function"
    },
    {
      "inputs": [
        {
          "internalType": "bytes32",
          "name": "role",
          "type": "bytes32"
        }
      ],
      "name": "getRoleAdmin",
      "outputs": [
        {
          "internalType": "bytes32",
          "name": "",
          "type": "bytes32"
        }
      ],
      "stateMutability": "view",
      "type": "function"
    },
    {
      "inputs": [
        {
          "internalType": "bytes32",
          "name": "role",
          "type": "bytes32"
        },
        {
          "internalType": "uint256",
          "name": "index",
          "type": "uint256"
        }
      ],
      "name": "getRoleMember",
      "outputs": [
        {
          "internalType": "address",
          "name": "",
          "type": "address"
        }
      ],
      "stateMutability": "view",
      "type": "function"
    },
    {
      "inputs": [
        {
          "internalType": "bytes32",
          "name": "role",
          "type": "bytes32"
        }
      ],
      "name": "getRoleMemberCount",
      "outputs": [
        {
          "internalType": "uint256",
          "name": "",
          "type": "uint256"
        }
      ],
      "stateMutability": "view",
      "type": "function"
    },
    {
      "inputs": [
        {
          "internalType": "bytes32",
          "name": "role",
          "type": "bytes32"
        },
        {
          "internalType": "address",
          "name": "account",
          "type": "address"
        }
      ],
      "name": "grantRole",
      "outputs": [],
      "stateMutability": "nonpayable",
      "type": "function"
    },
    {
      "inputs": [
        {
          "internalType": "bytes32",
          "name": "role",
          "type": "bytes32"
        },
        {
          "internalType": "address",
          "name": "account",
          "type": "address"
        }
      ],
      "name": "hasRole",
      "outputs": [
        {
          "internalType": "bool",
          "name": "",
          "type": "bool"
        }
      ],
      "stateMutability": "view",
      "type": "function"
    },
    {
      "inputs": [
        {
          "internalType": "address",
          "name": "spender",
          "type": "address"
        },
        {
          "internalType": "uint256",
          "name": "addedValue",
          "type": "uint256"
        }
      ],
      "name": "increaseAllowance",
      "outputs": [
        {
          "internalType": "bool",
          "name": "",
          "type": "bool"
        }
      ],
      "stateMutability": "nonpayable",
      "type": "function"
    },
    {
      "inputs": [
        {
          "internalType": "string",
          "name": "name",
          "type": "string"
        },
        {
          "internalType": "string",
          "name": "symbol",
          "type": "string"
        }
      ],
      "name": "initialize",
      "outputs": [],
      "stateMutability": "nonpayable",
      "type": "function"
    },
    {
      "inputs": [
        {
          "internalType": "address",
          "name": "to",
          "type": "address"
        },
        {
          "internalType": "uint256",
          "name": "amount",
          "type": "uint256"
        }
      ],
      "name": "mint",
      "outputs": [],
      "stateMutability": "nonpayable",
      "type": "function"
    },
    {
      "inputs": [],
      "name": "name",
      "outputs": [
        {
          "internalType": "string",
          "name": "",
          "type": "string"
        }
      ],
      "stateMutability": "view",
      "type": "function"
    },
    {
      "inputs": [],
      "name": "pause",
      "outputs": [],
      "stateMutability": "nonpayable",
      "type": "function"
    },
    {
      "inputs": [],
      "name": "paused",
      "outputs": [
        {
          "internalType": "bool",
          "name": "",
          "type": "bool"
        }
      ],
      "stateMutability": "view",
      "type": "function"
    },
    {
      "inputs": [
        {
          "internalType": "bytes32",
          "name": "role",
          "type": "bytes32"
        },
        {
          "internalType": "address",
          "name": "account",
          "type": "address"
        }
      ],
      "name": "renounceRole",
      "outputs": [],
      "stateMutability": "nonpayable",
      "type": "function"
    },
    {
      "inputs": [
        {
          "internalType": "bytes32",
          "name": "role",
          "type": "bytes32"
        },
        {
          "internalType": "address",
          "name": "account",
          "type": "address"
        }
      ],
      "name": "revokeRole",
      "outputs": [],
      "stateMutability": "nonpayable",
      "type": "function"
    },
    {
      "inputs": [
        {
          "internalType": "bytes4",
          "name": "interfaceId",
          "type": "bytes4"
        }
      ],
      "name": "supportsInterface",
      "outputs": [
        {
          "internalType": "bool",
          "name": "",
          "type": "bool"
        }
      ],
      "stateMutability": "view",
      "type": "function"
    },
    {
      "inputs": [],
      "name": "symbol",
      "outputs": [
        {
          "internalType": "string",
          "name": "",
          "type": "string"
        }
      ],
      "stateMutability": "view",
      "type": "function"
    },
    {
      "inputs": [],
      "name": "totalSupply",
      "outputs": [
        {
          "internalType": "uint256",
          "name": "",
          "type": "uint256"
        }
      ],
      "stateMutability": "view",
      "type": "function"
    },
    {
      "inputs": [
        {
          "internalType": "address",
          "name": "to",
          "type": "address"
        },
        {
          "internalType": "uint256",
          "name": "amount",
          "type": "uint256"
        }
      ],
      "name": "transfer",
      "outputs": [
        {
          "internalType": "bool",
          "name": "",
          "type": "bool"
        }
      ],
      "stateMutability": "nonpayable",
      "type": "function"
    },
    {
      "inputs": [
        {
          "internalType": "address",
          "name": "from",
          "type": "address"
        },
        {
          "internalType": "address",
          "name": "to",
          "type": "address"
        },
        {
          "internalType": "uint256",
          "name": "amount",
          "type": "uint256"
        }
      ],
      "name": "transferFrom",
      "outputs": [
        {
          "internalType": "bool",
          "name": "",
          "type": "bool"
        }
      ],
      "stateMutability": "nonpayable",
      "type": "function"
    },
    {
      "inputs": [],
      "name": "unpause",
      "outputs": [],
      "stateMutability": "nonpayable",
      "type": "function"
    }
  ],
  "transactionHash": "0x8e39661fa8901097517427ca566b40ca92396e10c94f8d2e50155f56cf53b2b8",
  "args": [],
  "numDeployments": 2,
  "solcInputHash": "48582f4a917a415c167e61945d4804b2",
  "bytecode": "0x60806040523480156200001157600080fd5b506200005e604051806040016040528060088152602001670a8cae6e886c2e6d60c31b81525060405180604001604052806002815260200161544360f01b8152506200006460201b60201c565b6200069e565b600054610100900460ff1615808015620000855750600054600160ff909116105b80620000b55750620000a2306200019a60201b6200099f1760201c565b158015620000b5575060005460ff166001145b6200011e5760405162461bcd60e51b815260206004820152602e60248201527f496e697469616c697a61626c653a20636f6e747261637420697320616c72656160448201526d191e481a5b9a5d1a585b1a5e995960921b60648201526084015b60405180910390fd5b6000805460ff19166001179055801562000142576000805461ff0019166101001790555b6200014e8383620001a9565b801562000195576000805461ff0019169055604051600181527f7f26b83ff96e1f2b6a682f133852f6798a09c465da95921460cefb38474024989060200160405180910390a15b505050565b6001600160a01b03163b151590565b600054610100900460ff16620002055760405162461bcd60e51b815260206004820152602b60248201526000805160206200237e83398151915260448201526a6e697469616c697a696e6760a81b606482015260840162000115565b6200021182826200022b565b6200021b620002a4565b6200022782826200030d565b5050565b600054610100900460ff16620002875760405162461bcd60e51b815260206004820152602b60248201526000805160206200237e83398151915260448201526a6e697469616c697a696e6760a81b606482015260840162000115565b60cc620002958382620005d2565b5060cd620001958282620005d2565b600054610100900460ff16620003005760405162461bcd60e51b815260206004820152602b60248201526000805160206200237e83398151915260448201526a6e697469616c697a696e6760a81b606482015260840162000115565b61012d805460ff19169055565b600054610100900460ff16620003695760405162461bcd60e51b815260206004820152602b60248201526000805160206200237e83398151915260448201526a6e697469616c697a696e6760a81b606482015260840162000115565b6200037c600033620003d4565b620003d4565b620003a87f9f2df0fed2c77648de5860a4cc508cd0818c85b8b8a1ab4ceeef8d981c8956a633620003d4565b620002277f65d7a28e3265b37a6474929f336521b332c1681b933f6cb9f3376673440d862a3362000376565b620002278282620003f182826200041860201b620009ae1760201c565b60008281526097602090815260409091206200019591839062000a34620004bc821b17901c565b60008281526065602090815260408083206001600160a01b038516845290915290205460ff16620002275760008281526065602090815260408083206001600160a01b03851684529091529020805460ff19166001179055620004783390565b6001600160a01b0316816001600160a01b0316837f2f8788117e7eff1d82e926ec794901d17c78024a50270940304540a733656f0d60405160405180910390a45050565b6000620004d3836001600160a01b038416620004dc565b90505b92915050565b60008181526001830160205260408120546200052557508154600181810184556000848152602080822090930184905584548482528286019093526040902091909155620004d6565b506000620004d6565b634e487b7160e01b600052604160045260246000fd5b600181811c908216806200055957607f821691505b6020821081036200057a57634e487b7160e01b600052602260045260246000fd5b50919050565b601f8211156200019557600081815260208120601f850160051c81016020861015620005a95750805b601f850160051c820191505b81811015620005ca57828155600101620005b5565b505050505050565b81516001600160401b03811115620005ee57620005ee6200052e565b6200060681620005ff845462000544565b8462000580565b602080601f8311600181146200063e5760008415620006255750858301515b600019600386901b1c1916600185901b178555620005ca565b600085815260208120601f198616915b828110156200066f578886015182559484019460019091019084016200064e565b50858210156200068e5787850151600019600388901b60f8161c191681555b5050505050600190811b01905550565b611cd080620006ae6000396000f3fe608060405234801561001057600080fd5b506004361061018f5760003560e01c80635c975abb116100e4578063a217fddf11610092578063a217fddf1461034d578063a457c2d714610355578063a9059cbb14610368578063ca15c8731461037b578063d53913931461038e578063d547741f146103a3578063dd62ed3e146103b6578063e63ab1e9146103c957600080fd5b80635c975abb146102b757806370a08231146102c357806379cc6790146102ec5780638456cb59146102ff5780639010d07c1461030757806391d148541461033257806395d89b411461034557600080fd5b8063313ce56711610141578063313ce5671461024157806336568abe1461025057806339509351146102635780633f4ba83a1461027657806340c10f191461027e57806342966c68146102915780634cd88b76146102a457600080fd5b806301ffc9a71461019457806306fdde03146101bc578063095ea7b3146101d157806318160ddd146101e457806323b872dd146101f6578063248a9ca3146102095780632f2ff15d1461022c575b600080fd5b6101a76101a23660046116b3565b6103de565b60405190151581526020015b60405180910390f35b6101c4610409565b6040516101b39190611709565b6101a76101df366004611758565b61049b565b60cb545b6040519081526020016101b3565b6101a7610204366004611782565b6104b3565b6101e86102173660046117be565b60009081526065602052604090206001015490565b61023f61023a3660046117d7565b6104d7565b005b604051601281526020016101b3565b61023f61025e3660046117d7565b610501565b6101a7610271366004611758565b610584565b61023f6105a6565b61023f61028c366004611758565b610624565b61023f61029f3660046117be565b61069f565b61023f6102b23660046118a6565b6106ac565b61012d5460ff166101a7565b6101e86102d136600461190a565b6001600160a01b0316600090815260c9602052604090205490565b61023f6102fa366004611758565b6107c7565b61023f6107dc565b61031a610315366004611925565b610856565b6040516001600160a01b0390911681526020016101b3565b6101a76103403660046117d7565b610875565b6101c46108a0565b6101e8600081565b6101a7610363366004611758565b6108af565b6101a7610376366004611758565b61092a565b6101e86103893660046117be565b610938565b6101e8600080516020611c5b83398151915281565b61023f6103b13660046117d7565b61094f565b6101e86103c4366004611947565b610974565b6101e8600080516020611c3b83398151915281565b60006001600160e01b03198216635a05180f60e01b1480610403575061040382610a49565b92915050565b606060cc805461041890611971565b80601f016020809104026020016040519081016040528092919081815260200182805461044490611971565b80156104915780601f1061046657610100808354040283529160200191610491565b820191906000526020600020905b81548152906001019060200180831161047457829003601f168201915b5050505050905090565b6000336104a9818585610a7e565b5060019392505050565b6000336104c1858285610ba2565b6104cc858585610c1c565b506001949350505050565b6000828152606560205260409020600101546104f281610dc0565b6104fc8383610dca565b505050565b6001600160a01b03811633146105765760405162461bcd60e51b815260206004820152602f60248201527f416363657373436f6e74726f6c3a2063616e206f6e6c792072656e6f756e636560448201526e103937b632b9903337b91039b2b63360891b60648201526084015b60405180910390fd5b6105808282610dec565b5050565b6000336104a98185856105978383610974565b6105a191906119c1565b610a7e565b6105be600080516020611c3b83398151915233610875565b61061a5760405162461bcd60e51b81526020600482015260396024820152600080516020611c1b83398151915260448201527876652070617573657220726f6c6520746f20756e706175736560381b606482015260840161056d565b610622610e0e565b565b61063c600080516020611c5b83398151915233610875565b6106955760405162461bcd60e51b81526020600482015260366024820152600080516020611c1b8339815191526044820152751d99481b5a5b9d195c881c9bdb19481d1bc81b5a5b9d60521b606482015260840161056d565b6105808282610e61565b6106a93382610f1c565b50565b600054610100900460ff16158080156106cc5750600054600160ff909116105b806106ed57506106db3061099f565b1580156106ed575060005460ff166001145b6107505760405162461bcd60e51b815260206004820152602e60248201527f496e697469616c697a61626c653a20636f6e747261637420697320616c72656160448201526d191e481a5b9a5d1a585b1a5e995960921b606482015260840161056d565b6000805460ff191660011790558015610773576000805461ff0019166101001790555b61077d838361104a565b80156104fc576000805461ff0019169055604051600181527f7f26b83ff96e1f2b6a682f133852f6798a09c465da95921460cefb38474024989060200160405180910390a1505050565b6107d2823383610ba2565b6105808282610f1c565b6107f4600080516020611c3b83398151915233610875565b61084e5760405162461bcd60e51b81526020600482015260376024820152600080516020611c1b83398151915260448201527676652070617573657220726f6c6520746f20706175736560481b606482015260840161056d565b61062261108d565b600082815260976020526040812061086e90836110cb565b9392505050565b60009182526065602090815260408084206001600160a01b0393909316845291905290205460ff1690565b606060cd805461041890611971565b600033816108bd8286610974565b90508381101561091d5760405162461bcd60e51b815260206004820152602560248201527f45524332303a2064656372656173656420616c6c6f77616e63652062656c6f77604482015264207a65726f60d81b606482015260840161056d565b6104cc8286868403610a7e565b6000336104a9818585610c1c565b6000818152609760205260408120610403906110d7565b60008281526065602052604090206001015461096a81610dc0565b6104fc8383610dec565b6001600160a01b03918216600090815260ca6020908152604080832093909416825291909152205490565b6001600160a01b03163b151590565b6109b88282610875565b6105805760008281526065602090815260408083206001600160a01b03851684529091529020805460ff191660011790556109f03390565b6001600160a01b0316816001600160a01b0316837f2f8788117e7eff1d82e926ec794901d17c78024a50270940304540a733656f0d60405160405180910390a45050565b600061086e836001600160a01b0384166110e1565b60006001600160e01b03198216637965db0b60e01b148061040357506301ffc9a760e01b6001600160e01b0319831614610403565b6001600160a01b038316610ae05760405162461bcd60e51b8152602060048201526024808201527f45524332303a20617070726f76652066726f6d20746865207a65726f206164646044820152637265737360e01b606482015260840161056d565b6001600160a01b038216610b415760405162461bcd60e51b815260206004820152602260248201527f45524332303a20617070726f766520746f20746865207a65726f206164647265604482015261737360f01b606482015260840161056d565b6001600160a01b03838116600081815260ca602090815260408083209487168084529482529182902085905590518481527f8c5be1e5ebec7d5bd14f71427d1e84f3dd0314c0f7b2291e5b200ac8c7c3b925910160405180910390a3505050565b6000610bae8484610974565b90506000198114610c165781811015610c095760405162461bcd60e51b815260206004820152601d60248201527f45524332303a20696e73756666696369656e7420616c6c6f77616e6365000000604482015260640161056d565b610c168484848403610a7e565b50505050565b6001600160a01b038316610c805760405162461bcd60e51b815260206004820152602560248201527f45524332303a207472616e736665722066726f6d20746865207a65726f206164604482015264647265737360d81b606482015260840161056d565b6001600160a01b038216610ce25760405162461bcd60e51b815260206004820152602360248201527f45524332303a207472616e7366657220746f20746865207a65726f206164647260448201526265737360e81b606482015260840161056d565b610ced838383611130565b6001600160a01b038316600090815260c9602052604090205481811015610d655760405162461bcd60e51b815260206004820152602660248201527f45524332303a207472616e7366657220616d6f756e7420657863656564732062604482015265616c616e636560d01b606482015260840161056d565b6001600160a01b03808516600081815260c960205260408082208686039055928616808252908390208054860190559151600080516020611c7b83398151915290610db39086815260200190565b60405180910390a3610c16565b6106a9813361113b565b610dd482826109ae565b60008281526097602052604090206104fc9082610a34565b610df68282611194565b60008281526097602052604090206104fc90826111fb565b610e16611210565b61012d805460ff191690557f5db9ee0a495bf2e6ff9c91a7834c1ba4fdd244a5e8aa4e537bd38aeae4b073aa335b6040516001600160a01b03909116815260200160405180910390a1565b6001600160a01b038216610eb75760405162461bcd60e51b815260206004820152601f60248201527f45524332303a206d696e7420746f20746865207a65726f206164647265737300604482015260640161056d565b610ec360008383611130565b8060cb6000828254610ed591906119c1565b90915550506001600160a01b038216600081815260c96020908152604080832080548601905551848152600080516020611c7b833981519152910160405180910390a35050565b6001600160a01b038216610f7c5760405162461bcd60e51b815260206004820152602160248201527f45524332303a206275726e2066726f6d20746865207a65726f206164647265736044820152607360f81b606482015260840161056d565b610f8882600083611130565b6001600160a01b038216600090815260c9602052604090205481811015610ffc5760405162461bcd60e51b815260206004820152602260248201527f45524332303a206275726e20616d6f756e7420657863656564732062616c616e604482015261636560f01b606482015260840161056d565b6001600160a01b038316600081815260c960209081526040808320868603905560cb8054879003905551858152919291600080516020611c7b833981519152910160405180910390a3505050565b600054610100900460ff166110715760405162461bcd60e51b815260040161056d906119d9565b61107b828261125a565b61108361129a565b61058082826112ce565b611095611330565b61012d805460ff191660011790557f62e78cea01bee320cd4e420270b5ea74000d11b0c9f74754ebdbfc544b05a258610e443390565b600061086e8383611377565b6000610403825490565b600081815260018301602052604081205461112857508154600181810184556000848152602080822090930184905584548482528286019093526040902091909155610403565b506000610403565b6104fc8383836113a1565b6111458282610875565b6105805761115281611408565b61115d83602061141a565b60405160200161116e929190611a24565b60408051601f198184030181529082905262461bcd60e51b825261056d91600401611709565b61119e8282610875565b156105805760008281526065602090815260408083206001600160a01b0385168085529252808320805460ff1916905551339285917ff6391f5c32d9c69d2a47ea670b442974b53935d1edc7fd64eb21e047a839171b9190a45050565b600061086e836001600160a01b0384166115b6565b61012d5460ff166106225760405162461bcd60e51b815260206004820152601460248201527314185d5cd8589b194e881b9bdd081c185d5cd95960621b604482015260640161056d565b600054610100900460ff166112815760405162461bcd60e51b815260040161056d906119d9565b60cc61128d8382611ae1565b5060cd6104fc8282611ae1565b600054610100900460ff166112c15760405162461bcd60e51b815260040161056d906119d9565b61012d805460ff19169055565b600054610100900460ff166112f55760405162461bcd60e51b815260040161056d906119d9565b6113006000336116a9565b611318600080516020611c5b833981519152336116a9565b610580600080516020611c3b833981519152336116a9565b61012d5460ff16156106225760405162461bcd60e51b815260206004820152601060248201526f14185d5cd8589b194e881c185d5cd95960821b604482015260640161056d565b600082600001828154811061138e5761138e611ba1565b9060005260206000200154905092915050565b61012d5460ff16156104fc5760405162461bcd60e51b815260206004820152602a60248201527f45524332305061757361626c653a20746f6b656e207472616e736665722077686044820152691a5b19481c185d5cd95960b21b606482015260840161056d565b60606104036001600160a01b03831660145b60606000611429836002611bb7565b6114349060026119c1565b67ffffffffffffffff81111561144c5761144c611803565b6040519080825280601f01601f191660200182016040528015611476576020820181803683370190505b509050600360fc1b8160008151811061149157611491611ba1565b60200101906001600160f81b031916908160001a905350600f60fb1b816001815181106114c0576114c0611ba1565b60200101906001600160f81b031916908160001a90535060006114e4846002611bb7565b6114ef9060016119c1565b90505b6001811115611567576f181899199a1a9b1b9c1cb0b131b232b360811b85600f166010811061152357611523611ba1565b1a60f81b82828151811061153957611539611ba1565b60200101906001600160f81b031916908160001a90535060049490941c9361156081611bd6565b90506114f2565b50831561086e5760405162461bcd60e51b815260206004820181905260248201527f537472696e67733a20686578206c656e67746820696e73756666696369656e74604482015260640161056d565b6000818152600183016020526040812054801561169f5760006115da600183611bed565b85549091506000906115ee90600190611bed565b905081811461165357600086600001828154811061160e5761160e611ba1565b906000526020600020015490508087600001848154811061163157611631611ba1565b6000918252602080832090910192909255918252600188019052604090208390555b855486908061166457611664611c04565b600190038181906000526020600020016000905590558560010160008681526020019081526020016000206000905560019350505050610403565b6000915050610403565b6105808282610dca565b6000602082840312156116c557600080fd5b81356001600160e01b03198116811461086e57600080fd5b60005b838110156116f85781810151838201526020016116e0565b83811115610c165750506000910152565b60208152600082518060208401526117288160408501602087016116dd565b601f01601f19169190910160400192915050565b80356001600160a01b038116811461175357600080fd5b919050565b6000806040838503121561176b57600080fd5b6117748361173c565b946020939093013593505050565b60008060006060848603121561179757600080fd5b6117a08461173c565b92506117ae6020850161173c565b9150604084013590509250925092565b6000602082840312156117d057600080fd5b5035919050565b600080604083850312156117ea57600080fd5b823591506117fa6020840161173c565b90509250929050565b634e487b7160e01b600052604160045260246000fd5b600082601f83011261182a57600080fd5b813567ffffffffffffffff8082111561184557611845611803565b604051601f8301601f19908116603f0116810190828211818310171561186d5761186d611803565b8160405283815286602085880101111561188657600080fd5b836020870160208301376000602085830101528094505050505092915050565b600080604083850312156118b957600080fd5b823567ffffffffffffffff808211156118d157600080fd5b6118dd86838701611819565b935060208501359150808211156118f357600080fd5b5061190085828601611819565b9150509250929050565b60006020828403121561191c57600080fd5b61086e8261173c565b6000806040838503121561193857600080fd5b50508035926020909101359150565b6000806040838503121561195a57600080fd5b6119638361173c565b91506117fa6020840161173c565b600181811c9082168061198557607f821691505b6020821081036119a557634e487b7160e01b600052602260045260246000fd5b50919050565b634e487b7160e01b600052601160045260246000fd5b600082198211156119d4576119d46119ab565b500190565b6020808252602b908201527f496e697469616c697a61626c653a20636f6e7472616374206973206e6f74206960408201526a6e697469616c697a696e6760a81b606082015260800190565b76020b1b1b2b9b9a1b7b73a3937b61d1030b1b1b7bab73a1604d1b815260008351611a568160178501602088016116dd565b7001034b99036b4b9b9b4b733903937b6329607d1b6017918401918201528351611a878160288401602088016116dd565b01602801949350505050565b601f8211156104fc57600081815260208120601f850160051c81016020861015611aba5750805b601f850160051c820191505b81811015611ad957828155600101611ac6565b505050505050565b815167ffffffffffffffff811115611afb57611afb611803565b611b0f81611b098454611971565b84611a93565b602080601f831160018114611b445760008415611b2c5750858301515b600019600386901b1c1916600185901b178555611ad9565b600085815260208120601f198616915b82811015611b7357888601518255948401946001909101908401611b54565b5085821015611b915787850151600019600388901b60f8161c191681555b5050505050600190811b01905550565b634e487b7160e01b600052603260045260246000fd5b6000816000190483118215151615611bd157611bd16119ab565b500290565b600081611be557611be56119ab565b506000190190565b600082821015611bff57611bff6119ab565b500390565b634e487b7160e01b600052603160045260246000fdfe45524332305072657365744d696e7465725061757365723a206d75737420686165d7a28e3265b37a6474929f336521b332c1681b933f6cb9f3376673440d862a9f2df0fed2c77648de5860a4cc508cd0818c85b8b8a1ab4ceeef8d981c8956a6ddf252ad1be2c89b69c2b068fc378daa952ba7f163c4a11628f55a4df523b3efa264697066735822122059810f6d40afa594fe642e2a6b2dc4fdef5d0f72edd333a2c3e0282e46e32b3264736f6c634300080f0033496e697469616c697a61626c653a20636f6e7472616374206973206e6f742069",
  "devdoc": {
    "kind": "dev",
    "methods": {
      "allowance(address,address)": {
        "details": "See {IERC20-allowance}."
      },
      "approve(address,uint256)": {
        "details": "See {IERC20-approve}. NOTE: If `amount` is the maximum `uint256`, the allowance is not updated on `transferFrom`. This is semantically equivalent to an infinite approval. Requirements: - `spender` cannot be the zero address."
      },
      "balanceOf(address)": {
        "details": "See {IERC20-balanceOf}."
      },
      "burn(uint256)": {
        "details": "Destroys `amount` tokens from the caller. See {ERC20-_burn}."
      },
      "burnFrom(address,uint256)": {
        "details": "Destroys `amount` tokens from `account`, deducting from the caller's allowance. See {ERC20-_burn} and {ERC20-allowance}. Requirements: - the caller must have allowance for ``accounts``'s tokens of at least `amount`."
      },
      "decimals()": {
        "details": "Returns the number of decimals used to get its user representation. For example, if `decimals` equals `2`, a balance of `505` tokens should be displayed to a user as `5.05` (`505 / 10 ** 2`). Tokens usually opt for a value of 18, imitating the relationship between Ether and Wei. This is the value {ERC20} uses, unless this function is overridden; NOTE: This information is only used for _display_ purposes: it in no way affects any of the arithmetic of the contract, including {IERC20-balanceOf} and {IERC20-transfer}."
      },
      "decreaseAllowance(address,uint256)": {
        "details": "Atomically decreases the allowance granted to `spender` by the caller. This is an alternative to {approve} that can be used as a mitigation for problems described in {IERC20-approve}. Emits an {Approval} event indicating the updated allowance. Requirements: - `spender` cannot be the zero address. - `spender` must have allowance for the caller of at least `subtractedValue`."
      },
      "getRoleAdmin(bytes32)": {
        "details": "Returns the admin role that controls `role`. See {grantRole} and {revokeRole}. To change a role's admin, use {_setRoleAdmin}."
      },
      "getRoleMember(bytes32,uint256)": {
        "details": "Returns one of the accounts that have `role`. `index` must be a value between 0 and {getRoleMemberCount}, non-inclusive. Role bearers are not sorted in any particular way, and their ordering may change at any point. WARNING: When using {getRoleMember} and {getRoleMemberCount}, make sure you perform all queries on the same block. See the following https://forum.openzeppelin.com/t/iterating-over-elements-on-enumerableset-in-openzeppelin-contracts/2296[forum post] for more information."
      },
      "getRoleMemberCount(bytes32)": {
        "details": "Returns the number of accounts that have `role`. Can be used together with {getRoleMember} to enumerate all bearers of a role."
      },
      "grantRole(bytes32,address)": {
        "details": "Grants `role` to `account`. If `account` had not been already granted `role`, emits a {RoleGranted} event. Requirements: - the caller must have ``role``'s admin role. May emit a {RoleGranted} event."
      },
      "hasRole(bytes32,address)": {
        "details": "Returns `true` if `account` has been granted `role`."
      },
      "increaseAllowance(address,uint256)": {
        "details": "Atomically increases the allowance granted to `spender` by the caller. This is an alternative to {approve} that can be used as a mitigation for problems described in {IERC20-approve}. Emits an {Approval} event indicating the updated allowance. Requirements: - `spender` cannot be the zero address."
      },
      "mint(address,uint256)": {
        "details": "Creates `amount` new tokens for `to`. See {ERC20-_mint}. Requirements: - the caller must have the `MINTER_ROLE`."
      },
      "name()": {
        "details": "Returns the name of the token."
      },
      "pause()": {
        "details": "Pauses all token transfers. See {ERC20Pausable} and {Pausable-_pause}. Requirements: - the caller must have the `PAUSER_ROLE`."
      },
      "paused()": {
        "details": "Returns true if the contract is paused, and false otherwise."
      },
      "renounceRole(bytes32,address)": {
        "details": "Revokes `role` from the calling account. Roles are often managed via {grantRole} and {revokeRole}: this function's purpose is to provide a mechanism for accounts to lose their privileges if they are compromised (such as when a trusted device is misplaced). If the calling account had been revoked `role`, emits a {RoleRevoked} event. Requirements: - the caller must be `account`. May emit a {RoleRevoked} event."
      },
      "revokeRole(bytes32,address)": {
        "details": "Revokes `role` from `account`. If `account` had been granted `role`, emits a {RoleRevoked} event. Requirements: - the caller must have ``role``'s admin role. May emit a {RoleRevoked} event."
      },
      "supportsInterface(bytes4)": {
        "details": "See {IERC165-supportsInterface}."
      },
      "symbol()": {
        "details": "Returns the symbol of the token, usually a shorter version of the name."
      },
      "totalSupply()": {
        "details": "See {IERC20-totalSupply}."
      },
      "transfer(address,uint256)": {
        "details": "See {IERC20-transfer}. Requirements: - `to` cannot be the zero address. - the caller must have a balance of at least `amount`."
      },
      "transferFrom(address,address,uint256)": {
        "details": "See {IERC20-transferFrom}. Emits an {Approval} event indicating the updated allowance. This is not required by the EIP. See the note at the beginning of {ERC20}. NOTE: Does not update the allowance if the current allowance is the maximum `uint256`. Requirements: - `from` and `to` cannot be the zero address. - `from` must have a balance of at least `amount`. - the caller must have allowance for ``from``'s tokens of at least `amount`."
      },
      "unpause()": {
        "details": "Unpauses all token transfers. See {ERC20Pausable} and {Pausable-_unpause}. Requirements: - the caller must have the `PAUSER_ROLE`."
      }
    },
    "version": 1
  },
  "userdoc": {
    "kind": "user",
    "methods": {},
    "version": 1
  },
  "storageLayout": {
    "storage": [
      {
        "astId": 816,
        "contract": "contracts/TestCash.sol:TestCash",
        "label": "_initialized",
        "offset": 0,
        "slot": "0",
        "type": "t_uint8"
      },
      {
        "astId": 819,
        "contract": "contracts/TestCash.sol:TestCash",
        "label": "_initializing",
        "offset": 1,
        "slot": "0",
        "type": "t_bool"
      },
      {
        "astId": 3580,
        "contract": "contracts/TestCash.sol:TestCash",
        "label": "__gap",
        "offset": 0,
        "slot": "1",
        "type": "t_array(t_uint256)50_storage"
      },
      {
        "astId": 3873,
        "contract": "contracts/TestCash.sol:TestCash",
        "label": "__gap",
        "offset": 0,
        "slot": "51",
        "type": "t_array(t_uint256)50_storage"
      },
      {
        "astId": 184,
        "contract": "contracts/TestCash.sol:TestCash",
        "label": "_roles",
        "offset": 0,
        "slot": "101",
        "type": "t_mapping(t_bytes32,t_struct(RoleData)179_storage)"
      },
      {
        "astId": 479,
        "contract": "contracts/TestCash.sol:TestCash",
        "label": "__gap",
        "offset": 0,
        "slot": "102",
        "type": "t_array(t_uint256)49_storage"
      },
      {
        "astId": 33,
        "contract": "contracts/TestCash.sol:TestCash",
        "label": "_roleMembers",
        "offset": 0,
        "slot": "151",
        "type": "t_mapping(t_bytes32,t_struct(AddressSet)5077_storage)"
      },
      {
        "astId": 143,
        "contract": "contracts/TestCash.sol:TestCash",
        "label": "__gap",
        "offset": 0,
        "slot": "152",
        "type": "t_array(t_uint256)49_storage"
      },
      {
        "astId": 1124,
        "contract": "contracts/TestCash.sol:TestCash",
        "label": "_balances",
        "offset": 0,
        "slot": "201",
        "type": "t_mapping(t_address,t_uint256)"
      },
      {
        "astId": 1130,
        "contract": "contracts/TestCash.sol:TestCash",
        "label": "_allowances",
        "offset": 0,
        "slot": "202",
        "type": "t_mapping(t_address,t_mapping(t_address,t_uint256))"
      },
      {
        "astId": 1132,
        "contract": "contracts/TestCash.sol:TestCash",
        "label": "_totalSupply",
        "offset": 0,
        "slot": "203",
        "type": "t_uint256"
      },
      {
        "astId": 1134,
        "contract": "contracts/TestCash.sol:TestCash",
        "label": "_name",
        "offset": 0,
        "slot": "204",
        "type": "t_string_storage"
      },
      {
        "astId": 1136,
        "contract": "contracts/TestCash.sol:TestCash",
        "label": "_symbol",
        "offset": 0,
        "slot": "205",
        "type": "t_string_storage"
      },
      {
        "astId": 1716,
        "contract": "contracts/TestCash.sol:TestCash",
        "label": "__gap",
        "offset": 0,
        "slot": "206",
        "type": "t_array(t_uint256)45_storage"
      },
      {
        "astId": 1858,
        "contract": "contracts/TestCash.sol:TestCash",
        "label": "__gap",
        "offset": 0,
        "slot": "251",
        "type": "t_array(t_uint256)50_storage"
      },
      {
        "astId": 999,
        "contract": "contracts/TestCash.sol:TestCash",
        "label": "_paused",
        "offset": 0,
        "slot": "301",
        "type": "t_bool"
      },
      {
        "astId": 1104,
        "contract": "contracts/TestCash.sol:TestCash",
        "label": "__gap",
        "offset": 0,
        "slot": "302",
        "type": "t_array(t_uint256)49_storage"
      },
      {
        "astId": 1918,
        "contract": "contracts/TestCash.sol:TestCash",
        "label": "__gap",
        "offset": 0,
        "slot": "351",
        "type": "t_array(t_uint256)50_storage"
      },
      {
        "astId": 2123,
        "contract": "contracts/TestCash.sol:TestCash",
        "label": "__gap",
        "offset": 0,
        "slot": "401",
        "type": "t_array(t_uint256)50_storage"
      }
    ],
    "types": {
      "t_address": {
        "encoding": "inplace",
        "label": "address",
        "numberOfBytes": "20"
      },
      "t_array(t_bytes32)dyn_storage": {
        "base": "t_bytes32",
        "encoding": "dynamic_array",
        "label": "bytes32[]",
        "numberOfBytes": "32"
      },
      "t_array(t_uint256)45_storage": {
        "base": "t_uint256",
        "encoding": "inplace",
        "label": "uint256[45]",
        "numberOfBytes": "1440"
      },
      "t_array(t_uint256)49_storage": {
        "base": "t_uint256",
        "encoding": "inplace",
        "label": "uint256[49]",
        "numberOfBytes": "1568"
      },
      "t_array(t_uint256)50_storage": {
        "base": "t_uint256",
        "encoding": "inplace",
        "label": "uint256[50]",
        "numberOfBytes": "1600"
      },
      "t_bool": {
        "encoding": "inplace",
        "label": "bool",
        "numberOfBytes": "1"
      },
      "t_bytes32": {
        "encoding": "inplace",
        "label": "bytes32",
        "numberOfBytes": "32"
      },
      "t_mapping(t_address,t_bool)": {
        "encoding": "mapping",
        "key": "t_address",
        "label": "mapping(address => bool)",
        "numberOfBytes": "32",
        "value": "t_bool"
      },
      "t_mapping(t_address,t_mapping(t_address,t_uint256))": {
        "encoding": "mapping",
        "key": "t_address",
        "label": "mapping(address => mapping(address => uint256))",
        "numberOfBytes": "32",
        "value": "t_mapping(t_address,t_uint256)"
      },
      "t_mapping(t_address,t_uint256)": {
        "encoding": "mapping",
        "key": "t_address",
        "label": "mapping(address => uint256)",
        "numberOfBytes": "32",
        "value": "t_uint256"
      },
      "t_mapping(t_bytes32,t_struct(AddressSet)5077_storage)": {
        "encoding": "mapping",
        "key": "t_bytes32",
        "label": "mapping(bytes32 => struct EnumerableSetUpgradeable.AddressSet)",
        "numberOfBytes": "32",
        "value": "t_struct(AddressSet)5077_storage"
      },
      "t_mapping(t_bytes32,t_struct(RoleData)179_storage)": {
        "encoding": "mapping",
        "key": "t_bytes32",
        "label": "mapping(bytes32 => struct AccessControlUpgradeable.RoleData)",
        "numberOfBytes": "32",
        "value": "t_struct(RoleData)179_storage"
      },
      "t_mapping(t_bytes32,t_uint256)": {
        "encoding": "mapping",
        "key": "t_bytes32",
        "label": "mapping(bytes32 => uint256)",
        "numberOfBytes": "32",
        "value": "t_uint256"
      },
      "t_string_storage": {
        "encoding": "bytes",
        "label": "string",
        "numberOfBytes": "32"
      },
      "t_struct(AddressSet)5077_storage": {
        "encoding": "inplace",
        "label": "struct EnumerableSetUpgradeable.AddressSet",
        "members": [
          {
            "astId": 5076,
            "contract": "contracts/TestCash.sol:TestCash",
            "label": "_inner",
            "offset": 0,
            "slot": "0",
            "type": "t_struct(Set)4762_storage"
          }
        ],
        "numberOfBytes": "64"
      },
      "t_struct(RoleData)179_storage": {
        "encoding": "inplace",
        "label": "struct AccessControlUpgradeable.RoleData",
        "members": [
          {
            "astId": 176,
            "contract": "contracts/TestCash.sol:TestCash",
            "label": "members",
            "offset": 0,
            "slot": "0",
            "type": "t_mapping(t_address,t_bool)"
          },
          {
            "astId": 178,
            "contract": "contracts/TestCash.sol:TestCash",
            "label": "adminRole",
            "offset": 0,
            "slot": "1",
            "type": "t_bytes32"
          }
        ],
        "numberOfBytes": "64"
      },
      "t_struct(Set)4762_storage": {
        "encoding": "inplace",
        "label": "struct EnumerableSetUpgradeable.Set",
        "members": [
          {
            "astId": 4757,
            "contract": "contracts/TestCash.sol:TestCash",
            "label": "_values",
            "offset": 0,
            "slot": "0",
            "type": "t_array(t_bytes32)dyn_storage"
          },
          {
            "astId": 4761,
            "contract": "contracts/TestCash.sol:TestCash",
            "label": "_indexes",
            "offset": 0,
            "slot": "1",
            "type": "t_mapping(t_bytes32,t_uint256)"
          }
        ],
        "numberOfBytes": "64"
      },
      "t_uint256": {
        "encoding": "inplace",
        "label": "uint256",
        "numberOfBytes": "32"
      },
      "t_uint8": {
        "encoding": "inplace",
        "label": "uint8",
        "numberOfBytes": "1"
      }
    }
  }
}