{
  "address": "0xddCd39b8c4E13D5A22028609be19F75eCA88404a",
  "abi": [
    {
      "inputs": [],
      "stateMutability": "nonpayable",
      "type": "constructor"
    },
    {
      "anonymous": false,
      "inputs": [
        {
          "indexed": true,
          "internalType": "address",
          "name": "owner",
          "type": "address"
        },
        {
          "indexed": true,
          "internalType": "address",
          "name": "spender",
          "type": "address"
        },
        {
          "indexed": false,
          "internalType": "uint256",
          "name": "value",
          "type": "uint256"
        }
      ],
      "name": "Approval",
      "type": "event"
    },
    {
      "anonymous": false,
      "inputs": [
        {
          "indexed": false,
          "internalType": "uint8",
          "name": "version",
          "type": "uint8"
        }
      ],
      "name": "Initialized",
      "type": "event"
    },
    {
      "anonymous": false,
      "inputs": [
        {
          "indexed": false,
          "internalType": "address",
          "name": "account",
          "type": "address"
        }
      ],
      "name": "Paused",
      "type": "event"
    },
    {
      "anonymous": false,
      "inputs": [
        {
          "indexed": true,
          "internalType": "bytes32",
          "name": "role",
          "type": "bytes32"
        },
        {
          "indexed": true,
          "internalType": "bytes32",
          "name": "previousAdminRole",
          "type": "bytes32"
        },
        {
          "indexed": true,
          "internalType": "bytes32",
          "name": "newAdminRole",
          "type": "bytes32"
        }
      ],
      "name": "RoleAdminChanged",
      "type": "event"
    },
    {
      "anonymous": false,
      "inputs": [
        {
          "indexed": true,
          "internalType": "bytes32",
          "name": "role",
          "type": "bytes32"
        },
        {
          "indexed": true,
          "internalType": "address",
          "name": "account",
          "type": "address"
        },
        {
          "indexed": true,
          "internalType": "address",
          "name": "sender",
          "type": "address"
        }
      ],
      "name": "RoleGranted",
      "type": "event"
    },
    {
      "anonymous": false,
      "inputs": [
        {
          "indexed": true,
          "internalType": "bytes32",
          "name": "role",
          "type": "bytes32"
        },
        {
          "indexed": true,
          "internalType": "address",
          "name": "account",
          "type": "address"
        },
        {
          "indexed": true,
          "internalType": "address",
          "name": "sender",
          "type": "address"
        }
      ],
      "name": "RoleRevoked",
      "type": "event"
    },
    {
      "anonymous": false,
      "inputs": [
        {
          "indexed": true,
          "internalType": "address",
          "name": "from",
          "type": "address"
        },
        {
          "indexed": true,
          "internalType": "address",
          "name": "to",
          "type": "address"
        },
        {
          "indexed": false,
          "internalType": "uint256",
          "name": "value",
          "type": "uint256"
        }
      ],
      "name": "Transfer",
      "type": "event"
    },
    {
      "anonymous": false,
      "inputs": [
        {
          "indexed": false,
          "internalType": "address",
          "name": "account",
          "type": "address"
        }
      ],
      "name": "Unpaused",
      "type": "event"
    },
    {
      "inputs": [],
      "name": "DEFAULT_ADMIN_ROLE",
      "outputs": [
        {
          "internalType": "bytes32",
          "name": "",
          "type": "bytes32"
        }
      ],
      "stateMutability": "view",
      "type": "function"
    },
    {
      "inputs": [],
      "name": "MINTER_ROLE",
      "outputs": [
        {
          "internalType": "bytes32",
          "name": "",
          "type": "bytes32"
        }
      ],
      "stateMutability": "view",
      "type": "function"
    },
    {
      "inputs": [],
      "name": "PAUSER_ROLE",
      "outputs": [
        {
          "internalType": "bytes32",
          "name": "",
          "type": "bytes32"
        }
      ],
      "stateMutability": "view",
      "type": "function"
    },
    {
      "inputs": [
        {
          "internalType": "address",
          "name": "owner",
          "type": "address"
        },
        {
          "internalType": "address",
          "name": "spender",
          "type": "address"
        }
      ],
      "name": "allowance",
      "outputs": [
        {
          "internalType": "uint256",
          "name": "",
          "type": "uint256"
        }
      ],
      "stateMutability": "view",
      "type": "function"
    },
    {
      "inputs": [
        {
          "internalType": "address",
          "name": "spender",
          "type": "address"
        },
        {
          "internalType": "uint256",
          "name": "amount",
          "type": "uint256"
        }
      ],
      "name": "approve",
      "outputs": [
        {
          "internalType": "bool",
          "name": "",
          "type": "bool"
        }
      ],
      "stateMutability": "nonpayable",
      "type": "function"
    },
    {
      "inputs": [
        {
          "internalType": "address",
          "name": "account",
          "type": "address"
        }
      ],
      "name": "balanceOf",
      "outputs": [
        {
          "internalType": "uint256",
          "name": "",
          "type": "uint256"
        }
      ],
      "stateMutability": "view",
      "type": "function"
    },
    {
      "inputs": [
        {
          "internalType": "uint256",
          "name": "amount",
          "type": "uint256"
        }
      ],
      "name": "burn",
      "outputs": [],
      "stateMutability": "nonpayable",
      "type": "function"
    },
    {
      "inputs": [
        {
          "internalType": "address",
          "name": "account",
          "type": "address"
        },
        {
          "internalType": "uint256",
          "name": "amount",
          "type": "uint256"
        }
      ],
      "name": "burnFrom",
      "outputs": [],
      "stateMutability": "nonpayable",
      "type": "function"
    },
    {
      "inputs": [],
      "name": "decimals",
      "outputs": [
        {
          "internalType": "uint8",
          "name": "",
          "type": "uint8"
        }
      ],
      "stateMutability": "view",
      "type": "function"
    },
    {
      "inputs": [
        {
          "internalType": "address",
          "name": "spender",
          "type": "address"
        },
        {
          "internalType": "uint256",
          "name": "subtractedValue",
          "type": "uint256"
        }
      ],
      "name": "decreaseAllowance",
      "outputs": [
        {
          "internalType": "bool",
          "name": "",
          "type": "bool"
        }
      ],
      "stateMutability": "nonpayable",
      "type": "function"
    },
    {
      "inputs": [
        {
          "internalType": "bytes32",
          "name": "role",
          "type": "bytes32"
        }
      ],
      "name": "getRoleAdmin",
      "outputs": [
        {
          "internalType": "bytes32",
          "name": "",
          "type": "bytes32"
        }
      ],
      "stateMutability": "view",
      "type": "function"
    },
    {
      "inputs": [
        {
          "internalType": "bytes32",
          "name": "role",
          "type": "bytes32"
        },
        {
          "internalType": "uint256",
          "name": "index",
          "type": "uint256"
        }
      ],
      "name": "getRoleMember",
      "outputs": [
        {
          "internalType": "address",
          "name": "",
          "type": "address"
        }
      ],
      "stateMutability": "view",
      "type": "function"
    },
    {
      "inputs": [
        {
          "internalType": "bytes32",
          "name": "role",
          "type": "bytes32"
        }
      ],
      "name": "getRoleMemberCount",
      "outputs": [
        {
          "internalType": "uint256",
          "name": "",
          "type": "uint256"
        }
      ],
      "stateMutability": "view",
      "type": "function"
    },
    {
      "inputs": [
        {
          "internalType": "bytes32",
          "name": "role",
          "type": "bytes32"
        },
        {
          "internalType": "address",
          "name": "account",
          "type": "address"
        }
      ],
      "name": "grantRole",
      "outputs": [],
      "stateMutability": "nonpayable",
      "type": "function"
    },
    {
      "inputs": [
        {
          "internalType": "bytes32",
          "name": "role",
          "type": "bytes32"
        },
        {
          "internalType": "address",
          "name": "account",
          "type": "address"
        }
      ],
      "name": "hasRole",
      "outputs": [
        {
          "internalType": "bool",
          "name": "",
          "type": "bool"
        }
      ],
      "stateMutability": "view",
      "type": "function"
    },
    {
      "inputs": [
        {
          "internalType": "address",
          "name": "spender",
          "type": "address"
        },
        {
          "internalType": "uint256",
          "name": "addedValue",
          "type": "uint256"
        }
      ],
      "name": "increaseAllowance",
      "outputs": [
        {
          "internalType": "bool",
          "name": "",
          "type": "bool"
        }
      ],
      "stateMutability": "nonpayable",
      "type": "function"
    },
    {
      "inputs": [
        {
          "internalType": "string",
          "name": "name",
          "type": "string"
        },
        {
          "internalType": "string",
          "name": "symbol",
          "type": "string"
        }
      ],
      "name": "initialize",
      "outputs": [],
      "stateMutability": "nonpayable",
      "type": "function"
    },
    {
      "inputs": [
        {
          "internalType": "address",
          "name": "to",
          "type": "address"
        },
        {
          "internalType": "uint256",
          "name": "amount",
          "type": "uint256"
        }
      ],
      "name": "mint",
      "outputs": [],
      "stateMutability": "nonpayable",
      "type": "function"
    },
    {
      "inputs": [],
      "name": "name",
      "outputs": [
        {
          "internalType": "string",
          "name": "",
          "type": "string"
        }
      ],
      "stateMutability": "view",
      "type": "function"
    },
    {
      "inputs": [],
      "name": "pause",
      "outputs": [],
      "stateMutability": "nonpayable",
      "type": "function"
    },
    {
      "inputs": [],
      "name": "paused",
      "outputs": [
        {
          "internalType": "bool",
          "name": "",
          "type": "bool"
        }
      ],
      "stateMutability": "view",
      "type": "function"
    },
    {
      "inputs": [
        {
          "internalType": "bytes32",
          "name": "role",
          "type": "bytes32"
        },
        {
          "internalType": "address",
          "name": "account",
          "type": "address"
        }
      ],
      "name": "renounceRole",
      "outputs": [],
      "stateMutability": "nonpayable",
      "type": "function"
    },
    {
      "inputs": [
        {
          "internalType": "bytes32",
          "name": "role",
          "type": "bytes32"
        },
        {
          "internalType": "address",
          "name": "account",
          "type": "address"
        }
      ],
      "name": "revokeRole",
      "outputs": [],
      "stateMutability": "nonpayable",
      "type": "function"
    },
    {
      "inputs": [
        {
          "internalType": "bytes4",
          "name": "interfaceId",
          "type": "bytes4"
        }
      ],
      "name": "supportsInterface",
      "outputs": [
        {
          "internalType": "bool",
          "name": "",
          "type": "bool"
        }
      ],
      "stateMutability": "view",
      "type": "function"
    },
    {
      "inputs": [],
      "name": "symbol",
      "outputs": [
        {
          "internalType": "string",
          "name": "",
          "type": "string"
        }
      ],
      "stateMutability": "view",
      "type": "function"
    },
    {
      "inputs": [],
      "name": "totalSupply",
      "outputs": [
        {
          "internalType": "uint256",
          "name": "",
          "type": "uint256"
        }
      ],
      "stateMutability": "view",
      "type": "function"
    },
    {
      "inputs": [
        {
          "internalType": "address",
          "name": "to",
          "type": "address"
        },
        {
          "internalType": "uint256",
          "name": "amount",
          "type": "uint256"
        }
      ],
      "name": "transfer",
      "outputs": [
        {
          "internalType": "bool",
          "name": "",
          "type": "bool"
        }
      ],
      "stateMutability": "nonpayable",
      "type": "function"
    },
    {
      "inputs": [
        {
          "internalType": "address",
          "name": "from",
          "type": "address"
        },
        {
          "internalType": "address",
          "name": "to",
          "type": "address"
        },
        {
          "internalType": "uint256",
          "name": "amount",
          "type": "uint256"
        }
      ],
      "name": "transferFrom",
      "outputs": [
        {
          "internalType": "bool",
          "name": "",
          "type": "bool"
        }
      ],
      "stateMutability": "nonpayable",
      "type": "function"
    },
    {
      "inputs": [],
      "name": "unpause",
      "outputs": [],
      "stateMutability": "nonpayable",
      "type": "function"
    }
  ],
  "transactionHash": "0x266e6f63242b3e3308ad4948eb1ae538283acd32d57e669340bc01bcc4c0db39",
  "args": [],
  "numDeployments": 3,
  "solcInputHash": "71f353440fd3338436c5de57032e50ac",
  "bytecode": "0x60806040523480156200001157600080fd5b506200005e604051806040016040528060088152602001670a8cae6e886c2e6d60c31b81525060405180604001604052806002815260200161544360f01b8152506200006460201b60201c565b62000663565b600054610100900460ff1615808015620000855750600054600160ff909116105b80620000a15750303b158015620000a1575060005460ff166001145b6200010a5760405162461bcd60e51b815260206004820152602e60248201527f496e697469616c697a61626c653a20636f6e747261637420697320616c72656160448201526d191e481a5b9a5d1a585b1a5e995960921b60648201526084015b60405180910390fd5b6000805460ff1916600117905580156200012e576000805461ff0019166101001790555b6200013a838362000186565b801562000181576000805461ff0019169055604051600181527f7f26b83ff96e1f2b6a682f133852f6798a09c465da95921460cefb38474024989060200160405180910390a15b505050565b600054610100900460ff16620001e25760405162461bcd60e51b815260206004820152602b60248201526000805160206200231483398151915260448201526a6e697469616c697a696e6760a81b606482015260840162000101565b620001ee828262000208565b620001f862000281565b620002048282620002ea565b5050565b600054610100900460ff16620002645760405162461bcd60e51b815260206004820152602b60248201526000805160206200231483398151915260448201526a6e697469616c697a696e6760a81b606482015260840162000101565b60cc62000272838262000597565b5060cd62000181828262000597565b600054610100900460ff16620002dd5760405162461bcd60e51b815260206004820152602b60248201526000805160206200231483398151915260448201526a6e697469616c697a696e6760a81b606482015260840162000101565b61012d805460ff19169055565b600054610100900460ff16620003465760405162461bcd60e51b815260206004820152602b60248201526000805160206200231483398151915260448201526a6e697469616c697a696e6760a81b606482015260840162000101565b62000359600033620003b1565b620003b1565b620003857f9f2df0fed2c77648de5860a4cc508cd0818c85b8b8a1ab4ceeef8d981c8956a633620003b1565b620002047f65d7a28e3265b37a6474929f336521b332c1681b933f6cb9f3376673440d862a3362000353565b620002048282620003c38282620003dd565b600082815260976020526040902062000181908262000481565b60008281526065602090815260408083206001600160a01b038516845290915290205460ff16620002045760008281526065602090815260408083206001600160a01b03851684529091529020805460ff191660011790556200043d3390565b6001600160a01b0316816001600160a01b0316837f2f8788117e7eff1d82e926ec794901d17c78024a50270940304540a733656f0d60405160405180910390a45050565b600062000498836001600160a01b038416620004a1565b90505b92915050565b6000818152600183016020526040812054620004ea575081546001818101845560008481526020808220909301849055845484825282860190935260409020919091556200049b565b5060006200049b565b634e487b7160e01b600052604160045260246000fd5b600181811c908216806200051e57607f821691505b6020821081036200053f57634e487b7160e01b600052602260045260246000fd5b50919050565b601f8211156200018157600081815260208120601f850160051c810160208610156200056e5750805b601f850160051c820191505b818110156200058f578281556001016200057a565b505050505050565b81516001600160401b03811115620005b357620005b3620004f3565b620005cb81620005c4845462000509565b8462000545565b602080601f831160018114620006035760008415620005ea5750858301515b600019600386901b1c1916600185901b1785556200058f565b600085815260208120601f198616915b82811015620006345788860151825594840194600190910190840162000613565b5085821015620006535787850151600019600388901b60f8161c191681555b5050505050600190811b01905550565b611ca180620006736000396000f3fe608060405234801561001057600080fd5b506004361061018f5760003560e01c80635c975abb116100e4578063a217fddf11610092578063a217fddf1461034d578063a457c2d714610355578063a9059cbb14610368578063ca15c8731461037b578063d53913931461038e578063d547741f146103a3578063dd62ed3e146103b6578063e63ab1e9146103c957600080fd5b80635c975abb146102b757806370a08231146102c357806379cc6790146102ec5780638456cb59146102ff5780639010d07c1461030757806391d148541461033257806395d89b411461034557600080fd5b8063313ce56711610141578063313ce5671461024157806336568abe1461025057806339509351146102635780633f4ba83a1461027657806340c10f191461027e57806342966c68146102915780634cd88b76146102a457600080fd5b806301ffc9a71461019457806306fdde03146101bc578063095ea7b3146101d157806318160ddd146101e457806323b872dd146101f6578063248a9ca3146102095780632f2ff15d1461022c575b600080fd5b6101a76101a236600461169d565b6103de565b60405190151581526020015b60405180910390f35b6101c4610409565b6040516101b391906116eb565b6101a76101df36600461173a565b61049b565b60cb545b6040519081526020016101b3565b6101a7610204366004611764565b6104b3565b6101e86102173660046117a0565b60009081526065602052604090206001015490565b61023f61023a3660046117b9565b6104d7565b005b604051601281526020016101b3565b61023f61025e3660046117b9565b610501565b6101a761027136600461173a565b610584565b61023f6105a6565b61023f61028c36600461173a565b610624565b61023f61029f3660046117a0565b61069f565b61023f6102b2366004611888565b6106ac565b61012d5460ff166101a7565b6101e86102d13660046118ec565b6001600160a01b0316600090815260c9602052604090205490565b61023f6102fa36600461173a565b6107c0565b61023f6107d5565b61031a610315366004611907565b61084f565b6040516001600160a01b0390911681526020016101b3565b6101a76103403660046117b9565b61086e565b6101c4610899565b6101e8600081565b6101a761036336600461173a565b6108a8565b6101a761037636600461173a565b610923565b6101e86103893660046117a0565b610931565b6101e8600080516020611c2c83398151915281565b61023f6103b13660046117b9565b610948565b6101e86103c4366004611929565b61096d565b6101e8600080516020611c0c83398151915281565b60006001600160e01b03198216635a05180f60e01b1480610403575061040382610998565b92915050565b606060cc805461041890611953565b80601f016020809104026020016040519081016040528092919081815260200182805461044490611953565b80156104915780601f1061046657610100808354040283529160200191610491565b820191906000526020600020905b81548152906001019060200180831161047457829003601f168201915b5050505050905090565b6000336104a98185856109cd565b5060019392505050565b6000336104c1858285610af1565b6104cc858585610b6b565b506001949350505050565b6000828152606560205260409020600101546104f281610d0f565b6104fc8383610d19565b505050565b6001600160a01b03811633146105765760405162461bcd60e51b815260206004820152602f60248201527f416363657373436f6e74726f6c3a2063616e206f6e6c792072656e6f756e636560448201526e103937b632b9903337b91039b2b63360891b60648201526084015b60405180910390fd5b6105808282610d3b565b5050565b6000336104a9818585610597838361096d565b6105a191906119a3565b6109cd565b6105be600080516020611c0c8339815191523361086e565b61061a5760405162461bcd60e51b81526020600482015260396024820152600080516020611bec83398151915260448201527876652070617573657220726f6c6520746f20756e706175736560381b606482015260840161056d565b610622610d5d565b565b61063c600080516020611c2c8339815191523361086e565b6106955760405162461bcd60e51b81526020600482015260366024820152600080516020611bec8339815191526044820152751d99481b5a5b9d195c881c9bdb19481d1bc81b5a5b9d60521b606482015260840161056d565b6105808282610db0565b6106a93382610e6b565b50565b600054610100900460ff16158080156106cc5750600054600160ff909116105b806106e65750303b1580156106e6575060005460ff166001145b6107495760405162461bcd60e51b815260206004820152602e60248201527f496e697469616c697a61626c653a20636f6e747261637420697320616c72656160448201526d191e481a5b9a5d1a585b1a5e995960921b606482015260840161056d565b6000805460ff19166001179055801561076c576000805461ff0019166101001790555b6107768383610f99565b80156104fc576000805461ff0019169055604051600181527f7f26b83ff96e1f2b6a682f133852f6798a09c465da95921460cefb38474024989060200160405180910390a1505050565b6107cb823383610af1565b6105808282610e6b565b6107ed600080516020611c0c8339815191523361086e565b6108475760405162461bcd60e51b81526020600482015260376024820152600080516020611bec83398151915260448201527676652070617573657220726f6c6520746f20706175736560481b606482015260840161056d565b610622610fdc565b6000828152609760205260408120610867908361101a565b9392505050565b60009182526065602090815260408084206001600160a01b0393909316845291905290205460ff1690565b606060cd805461041890611953565b600033816108b6828661096d565b9050838110156109165760405162461bcd60e51b815260206004820152602560248201527f45524332303a2064656372656173656420616c6c6f77616e63652062656c6f77604482015264207a65726f60d81b606482015260840161056d565b6104cc82868684036109cd565b6000336104a9818585610b6b565b600081815260976020526040812061040390611026565b60008281526065602052604090206001015461096381610d0f565b6104fc8383610d3b565b6001600160a01b03918216600090815260ca6020908152604080832093909416825291909152205490565b60006001600160e01b03198216637965db0b60e01b148061040357506301ffc9a760e01b6001600160e01b0319831614610403565b6001600160a01b038316610a2f5760405162461bcd60e51b8152602060048201526024808201527f45524332303a20617070726f76652066726f6d20746865207a65726f206164646044820152637265737360e01b606482015260840161056d565b6001600160a01b038216610a905760405162461bcd60e51b815260206004820152602260248201527f45524332303a20617070726f766520746f20746865207a65726f206164647265604482015261737360f01b606482015260840161056d565b6001600160a01b03838116600081815260ca602090815260408083209487168084529482529182902085905590518481527f8c5be1e5ebec7d5bd14f71427d1e84f3dd0314c0f7b2291e5b200ac8c7c3b925910160405180910390a3505050565b6000610afd848461096d565b90506000198114610b655781811015610b585760405162461bcd60e51b815260206004820152601d60248201527f45524332303a20696e73756666696369656e7420616c6c6f77616e6365000000604482015260640161056d565b610b6584848484036109cd565b50505050565b6001600160a01b038316610bcf5760405162461bcd60e51b815260206004820152602560248201527f45524332303a207472616e736665722066726f6d20746865207a65726f206164604482015264647265737360d81b606482015260840161056d565b6001600160a01b038216610c315760405162461bcd60e51b815260206004820152602360248201527f45524332303a207472616e7366657220746f20746865207a65726f206164647260448201526265737360e81b606482015260840161056d565b610c3c838383611030565b6001600160a01b038316600090815260c9602052604090205481811015610cb45760405162461bcd60e51b815260206004820152602660248201527f45524332303a207472616e7366657220616d6f756e7420657863656564732062604482015265616c616e636560d01b606482015260840161056d565b6001600160a01b03808516600081815260c960205260408082208686039055928616808252908390208054860190559151600080516020611c4c83398151915290610d029086815260200190565b60405180910390a3610b65565b6106a9813361103b565b610d238282611094565b60008281526097602052604090206104fc908261111a565b610d45828261112f565b60008281526097602052604090206104fc9082611196565b610d656111ab565b61012d805460ff191690557f5db9ee0a495bf2e6ff9c91a7834c1ba4fdd244a5e8aa4e537bd38aeae4b073aa335b6040516001600160a01b03909116815260200160405180910390a1565b6001600160a01b038216610e065760405162461bcd60e51b815260206004820152601f60248201527f45524332303a206d696e7420746f20746865207a65726f206164647265737300604482015260640161056d565b610e1260008383611030565b8060cb6000828254610e2491906119a3565b90915550506001600160a01b038216600081815260c96020908152604080832080548601905551848152600080516020611c4c833981519152910160405180910390a35050565b6001600160a01b038216610ecb5760405162461bcd60e51b815260206004820152602160248201527f45524332303a206275726e2066726f6d20746865207a65726f206164647265736044820152607360f81b606482015260840161056d565b610ed782600083611030565b6001600160a01b038216600090815260c9602052604090205481811015610f4b5760405162461bcd60e51b815260206004820152602260248201527f45524332303a206275726e20616d6f756e7420657863656564732062616c616e604482015261636560f01b606482015260840161056d565b6001600160a01b038316600081815260c960209081526040808320868603905560cb8054879003905551858152919291600080516020611c4c833981519152910160405180910390a3505050565b600054610100900460ff16610fc05760405162461bcd60e51b815260040161056d906119b6565b610fca82826111f5565b610fd2611235565b6105808282611269565b610fe46112cb565b61012d805460ff191660011790557f62e78cea01bee320cd4e420270b5ea74000d11b0c9f74754ebdbfc544b05a258610d933390565b60006108678383611312565b6000610403825490565b6104fc83838361133c565b611045828261086e565b61058057611052816113a3565b61105d8360206113b5565b60405160200161106e929190611a01565b60408051601f198184030181529082905262461bcd60e51b825261056d916004016116eb565b61109e828261086e565b6105805760008281526065602090815260408083206001600160a01b03851684529091529020805460ff191660011790556110d63390565b6001600160a01b0316816001600160a01b0316837f2f8788117e7eff1d82e926ec794901d17c78024a50270940304540a733656f0d60405160405180910390a45050565b6000610867836001600160a01b038416611551565b611139828261086e565b156105805760008281526065602090815260408083206001600160a01b0385168085529252808320805460ff1916905551339285917ff6391f5c32d9c69d2a47ea670b442974b53935d1edc7fd64eb21e047a839171b9190a45050565b6000610867836001600160a01b0384166115a0565b61012d5460ff166106225760405162461bcd60e51b815260206004820152601460248201527314185d5cd8589b194e881b9bdd081c185d5cd95960621b604482015260640161056d565b600054610100900460ff1661121c5760405162461bcd60e51b815260040161056d906119b6565b60cc6112288382611abe565b5060cd6104fc8282611abe565b600054610100900460ff1661125c5760405162461bcd60e51b815260040161056d906119b6565b61012d805460ff19169055565b600054610100900460ff166112905760405162461bcd60e51b815260040161056d906119b6565b61129b600033611693565b6112b3600080516020611c2c83398151915233611693565b610580600080516020611c0c83398151915233611693565b61012d5460ff16156106225760405162461bcd60e51b815260206004820152601060248201526f14185d5cd8589b194e881c185d5cd95960821b604482015260640161056d565b600082600001828154811061132957611329611b7e565b9060005260206000200154905092915050565b61012d5460ff16156104fc5760405162461bcd60e51b815260206004820152602a60248201527f45524332305061757361626c653a20746f6b656e207472616e736665722077686044820152691a5b19481c185d5cd95960b21b606482015260840161056d565b60606104036001600160a01b03831660145b606060006113c4836002611b94565b6113cf9060026119a3565b67ffffffffffffffff8111156113e7576113e76117e5565b6040519080825280601f01601f191660200182016040528015611411576020820181803683370190505b509050600360fc1b8160008151811061142c5761142c611b7e565b60200101906001600160f81b031916908160001a905350600f60fb1b8160018151811061145b5761145b611b7e565b60200101906001600160f81b031916908160001a905350600061147f846002611b94565b61148a9060016119a3565b90505b6001811115611502576f181899199a1a9b1b9c1cb0b131b232b360811b85600f16601081106114be576114be611b7e565b1a60f81b8282815181106114d4576114d4611b7e565b60200101906001600160f81b031916908160001a90535060049490941c936114fb81611bab565b905061148d565b5083156108675760405162461bcd60e51b815260206004820181905260248201527f537472696e67733a20686578206c656e67746820696e73756666696369656e74604482015260640161056d565b600081815260018301602052604081205461159857508154600181810184556000848152602080822090930184905584548482528286019093526040902091909155610403565b506000610403565b600081815260018301602052604081205480156116895760006115c4600183611bc2565b85549091506000906115d890600190611bc2565b905081811461163d5760008660000182815481106115f8576115f8611b7e565b906000526020600020015490508087600001848154811061161b5761161b611b7e565b6000918252602080832090910192909255918252600188019052604090208390555b855486908061164e5761164e611bd5565b600190038181906000526020600020016000905590558560010160008681526020019081526020016000206000905560019350505050610403565b6000915050610403565b6105808282610d19565b6000602082840312156116af57600080fd5b81356001600160e01b03198116811461086757600080fd5b60005b838110156116e25781810151838201526020016116ca565b50506000910152565b602081526000825180602084015261170a8160408501602087016116c7565b601f01601f19169190910160400192915050565b80356001600160a01b038116811461173557600080fd5b919050565b6000806040838503121561174d57600080fd5b6117568361171e565b946020939093013593505050565b60008060006060848603121561177957600080fd5b6117828461171e565b92506117906020850161171e565b9150604084013590509250925092565b6000602082840312156117b257600080fd5b5035919050565b600080604083850312156117cc57600080fd5b823591506117dc6020840161171e565b90509250929050565b634e487b7160e01b600052604160045260246000fd5b600082601f83011261180c57600080fd5b813567ffffffffffffffff80821115611827576118276117e5565b604051601f8301601f19908116603f0116810190828211818310171561184f5761184f6117e5565b8160405283815286602085880101111561186857600080fd5b836020870160208301376000602085830101528094505050505092915050565b6000806040838503121561189b57600080fd5b823567ffffffffffffffff808211156118b357600080fd5b6118bf868387016117fb565b935060208501359150808211156118d557600080fd5b506118e2858286016117fb565b9150509250929050565b6000602082840312156118fe57600080fd5b6108678261171e565b6000806040838503121561191a57600080fd5b50508035926020909101359150565b6000806040838503121561193c57600080fd5b6119458361171e565b91506117dc6020840161171e565b600181811c9082168061196757607f821691505b60208210810361198757634e487b7160e01b600052602260045260246000fd5b50919050565b634e487b7160e01b600052601160045260246000fd5b808201808211156104035761040361198d565b6020808252602b908201527f496e697469616c697a61626c653a20636f6e7472616374206973206e6f74206960408201526a6e697469616c697a696e6760a81b606082015260800190565b76020b1b1b2b9b9a1b7b73a3937b61d1030b1b1b7bab73a1604d1b815260008351611a338160178501602088016116c7565b7001034b99036b4b9b9b4b733903937b6329607d1b6017918401918201528351611a648160288401602088016116c7565b01602801949350505050565b601f8211156104fc57600081815260208120601f850160051c81016020861015611a975750805b601f850160051c820191505b81811015611ab657828155600101611aa3565b505050505050565b815167ffffffffffffffff811115611ad857611ad86117e5565b611aec81611ae68454611953565b84611a70565b602080601f831160018114611b215760008415611b095750858301515b600019600386901b1c1916600185901b178555611ab6565b600085815260208120601f198616915b82811015611b5057888601518255948401946001909101908401611b31565b5085821015611b6e5787850151600019600388901b60f8161c191681555b5050505050600190811b01905550565b634e487b7160e01b600052603260045260246000fd5b80820281158282048414176104035761040361198d565b600081611bba57611bba61198d565b506000190190565b818103818111156104035761040361198d565b634e487b7160e01b600052603160045260246000fdfe45524332305072657365744d696e7465725061757365723a206d75737420686165d7a28e3265b37a6474929f336521b332c1681b933f6cb9f3376673440d862a9f2df0fed2c77648de5860a4cc508cd0818c85b8b8a1ab4ceeef8d981c8956a6ddf252ad1be2c89b69c2b068fc378daa952ba7f163c4a11628f55a4df523b3efa2646970667358221220a363d836967c123dc242e6494a570e7c74027b70935cf1c09ef52cf6412e2ecd64736f6c63430008130033496e697469616c697a61626c653a20636f6e7472616374206973206e6f742069",
  "devdoc": {
    "events": {
      "Approval(address,address,uint256)": {
        "details": "Emitted when the allowance of a `spender` for an `owner` is set by a call to {approve}. `value` is the new allowance."
      },
      "Initialized(uint8)": {
        "details": "Triggered when the contract has been initialized or reinitialized."
      },
      "Paused(address)": {
        "details": "Emitted when the pause is triggered by `account`."
      },
      "RoleAdminChanged(bytes32,bytes32,bytes32)": {
        "details": "Emitted when `newAdminRole` is set as ``role``'s admin role, replacing `previousAdminRole` `DEFAULT_ADMIN_ROLE` is the starting admin for all roles, despite {RoleAdminChanged} not being emitted signaling this. _Available since v3.1._"
      },
      "RoleGranted(bytes32,address,address)": {
        "details": "Emitted when `account` is granted `role`. `sender` is the account that originated the contract call, an admin role bearer except when using {AccessControl-_setupRole}."
      },
      "RoleRevoked(bytes32,address,address)": {
        "details": "Emitted when `account` is revoked `role`. `sender` is the account that originated the contract call:   - if using `revokeRole`, it is the admin role bearer   - if using `renounceRole`, it is the role bearer (i.e. `account`)"
      },
      "Transfer(address,address,uint256)": {
        "details": "Emitted when `value` tokens are moved from one account (`from`) to another (`to`). Note that `value` may be zero."
      },
      "Unpaused(address)": {
        "details": "Emitted when the pause is lifted by `account`."
      }
    },
    "kind": "dev",
    "methods": {
      "allowance(address,address)": {
        "details": "See {IERC20-allowance}."
      },
      "approve(address,uint256)": {
        "details": "See {IERC20-approve}. NOTE: If `amount` is the maximum `uint256`, the allowance is not updated on `transferFrom`. This is semantically equivalent to an infinite approval. Requirements: - `spender` cannot be the zero address."
      },
      "balanceOf(address)": {
        "details": "See {IERC20-balanceOf}."
      },
      "burn(uint256)": {
        "details": "Destroys `amount` tokens from the caller. See {ERC20-_burn}."
      },
      "burnFrom(address,uint256)": {
        "details": "Destroys `amount` tokens from `account`, deducting from the caller's allowance. See {ERC20-_burn} and {ERC20-allowance}. Requirements: - the caller must have allowance for ``accounts``'s tokens of at least `amount`."
      },
      "decimals()": {
        "details": "Returns the number of decimals used to get its user representation. For example, if `decimals` equals `2`, a balance of `505` tokens should be displayed to a user as `5.05` (`505 / 10 ** 2`). Tokens usually opt for a value of 18, imitating the relationship between Ether and Wei. This is the value {ERC20} uses, unless this function is overridden; NOTE: This information is only used for _display_ purposes: it in no way affects any of the arithmetic of the contract, including {IERC20-balanceOf} and {IERC20-transfer}."
      },
      "decreaseAllowance(address,uint256)": {
        "details": "Atomically decreases the allowance granted to `spender` by the caller. This is an alternative to {approve} that can be used as a mitigation for problems described in {IERC20-approve}. Emits an {Approval} event indicating the updated allowance. Requirements: - `spender` cannot be the zero address. - `spender` must have allowance for the caller of at least `subtractedValue`."
      },
      "getRoleAdmin(bytes32)": {
        "details": "Returns the admin role that controls `role`. See {grantRole} and {revokeRole}. To change a role's admin, use {_setRoleAdmin}."
      },
      "getRoleMember(bytes32,uint256)": {
        "details": "Returns one of the accounts that have `role`. `index` must be a value between 0 and {getRoleMemberCount}, non-inclusive. Role bearers are not sorted in any particular way, and their ordering may change at any point. WARNING: When using {getRoleMember} and {getRoleMemberCount}, make sure you perform all queries on the same block. See the following https://forum.openzeppelin.com/t/iterating-over-elements-on-enumerableset-in-openzeppelin-contracts/2296[forum post] for more information."
      },
      "getRoleMemberCount(bytes32)": {
        "details": "Returns the number of accounts that have `role`. Can be used together with {getRoleMember} to enumerate all bearers of a role."
      },
      "grantRole(bytes32,address)": {
        "details": "Grants `role` to `account`. If `account` had not been already granted `role`, emits a {RoleGranted} event. Requirements: - the caller must have ``role``'s admin role. May emit a {RoleGranted} event."
      },
      "hasRole(bytes32,address)": {
        "details": "Returns `true` if `account` has been granted `role`."
      },
      "increaseAllowance(address,uint256)": {
        "details": "Atomically increases the allowance granted to `spender` by the caller. This is an alternative to {approve} that can be used as a mitigation for problems described in {IERC20-approve}. Emits an {Approval} event indicating the updated allowance. Requirements: - `spender` cannot be the zero address."
      },
      "mint(address,uint256)": {
        "details": "Creates `amount` new tokens for `to`. See {ERC20-_mint}. Requirements: - the caller must have the `MINTER_ROLE`."
      },
      "name()": {
        "details": "Returns the name of the token."
      },
      "pause()": {
        "details": "Pauses all token transfers. See {ERC20Pausable} and {Pausable-_pause}. Requirements: - the caller must have the `PAUSER_ROLE`."
      },
      "paused()": {
        "details": "Returns true if the contract is paused, and false otherwise."
      },
      "renounceRole(bytes32,address)": {
        "details": "Revokes `role` from the calling account. Roles are often managed via {grantRole} and {revokeRole}: this function's purpose is to provide a mechanism for accounts to lose their privileges if they are compromised (such as when a trusted device is misplaced). If the calling account had been revoked `role`, emits a {RoleRevoked} event. Requirements: - the caller must be `account`. May emit a {RoleRevoked} event."
      },
      "revokeRole(bytes32,address)": {
        "details": "Revokes `role` from `account`. If `account` had been granted `role`, emits a {RoleRevoked} event. Requirements: - the caller must have ``role``'s admin role. May emit a {RoleRevoked} event."
      },
      "supportsInterface(bytes4)": {
        "details": "See {IERC165-supportsInterface}."
      },
      "symbol()": {
        "details": "Returns the symbol of the token, usually a shorter version of the name."
      },
      "totalSupply()": {
        "details": "See {IERC20-totalSupply}."
      },
      "transfer(address,uint256)": {
        "details": "See {IERC20-transfer}. Requirements: - `to` cannot be the zero address. - the caller must have a balance of at least `amount`."
      },
      "transferFrom(address,address,uint256)": {
        "details": "See {IERC20-transferFrom}. Emits an {Approval} event indicating the updated allowance. This is not required by the EIP. See the note at the beginning of {ERC20}. NOTE: Does not update the allowance if the current allowance is the maximum `uint256`. Requirements: - `from` and `to` cannot be the zero address. - `from` must have a balance of at least `amount`. - the caller must have allowance for ``from``'s tokens of at least `amount`."
      },
      "unpause()": {
        "details": "Unpauses all token transfers. See {ERC20Pausable} and {Pausable-_unpause}. Requirements: - the caller must have the `PAUSER_ROLE`."
      }
    },
    "version": 1
  },
  "userdoc": {
    "kind": "user",
    "methods": {},
    "version": 1
  },
  "storageLayout": {
    "storage": [
      {
        "astId": 816,
        "contract": "contracts/TestCash.sol:TestCash",
        "label": "_initialized",
        "offset": 0,
        "slot": "0",
        "type": "t_uint8"
      },
      {
        "astId": 819,
        "contract": "contracts/TestCash.sol:TestCash",
        "label": "_initializing",
        "offset": 1,
        "slot": "0",
        "type": "t_bool"
      },
      {
        "astId": 3562,
        "contract": "contracts/TestCash.sol:TestCash",
        "label": "__gap",
        "offset": 0,
        "slot": "1",
        "type": "t_array(t_uint256)50_storage"
      },
      {
        "astId": 3855,
        "contract": "contracts/TestCash.sol:TestCash",
        "label": "__gap",
        "offset": 0,
        "slot": "51",
        "type": "t_array(t_uint256)50_storage"
      },
      {
        "astId": 184,
        "contract": "contracts/TestCash.sol:TestCash",
        "label": "_roles",
        "offset": 0,
        "slot": "101",
        "type": "t_mapping(t_bytes32,t_struct(RoleData)179_storage)"
      },
      {
        "astId": 479,
        "contract": "contracts/TestCash.sol:TestCash",
        "label": "__gap",
        "offset": 0,
        "slot": "102",
        "type": "t_array(t_uint256)49_storage"
      },
      {
        "astId": 33,
        "contract": "contracts/TestCash.sol:TestCash",
        "label": "_roleMembers",
        "offset": 0,
        "slot": "151",
        "type": "t_mapping(t_bytes32,t_struct(AddressSet)5059_storage)"
      },
      {
        "astId": 143,
        "contract": "contracts/TestCash.sol:TestCash",
        "label": "__gap",
        "offset": 0,
        "slot": "152",
        "type": "t_array(t_uint256)49_storage"
      },
      {
        "astId": 1124,
        "contract": "contracts/TestCash.sol:TestCash",
        "label": "_balances",
        "offset": 0,
        "slot": "201",
        "type": "t_mapping(t_address,t_uint256)"
      },
      {
        "astId": 1130,
        "contract": "contracts/TestCash.sol:TestCash",
        "label": "_allowances",
        "offset": 0,
        "slot": "202",
        "type": "t_mapping(t_address,t_mapping(t_address,t_uint256))"
      },
      {
        "astId": 1132,
        "contract": "contracts/TestCash.sol:TestCash",
        "label": "_totalSupply",
        "offset": 0,
        "slot": "203",
        "type": "t_uint256"
      },
      {
        "astId": 1134,
        "contract": "contracts/TestCash.sol:TestCash",
        "label": "_name",
        "offset": 0,
        "slot": "204",
        "type": "t_string_storage"
      },
      {
        "astId": 1136,
        "contract": "contracts/TestCash.sol:TestCash",
        "label": "_symbol",
        "offset": 0,
        "slot": "205",
        "type": "t_string_storage"
      },
      {
        "astId": 1716,
        "contract": "contracts/TestCash.sol:TestCash",
        "label": "__gap",
        "offset": 0,
        "slot": "206",
        "type": "t_array(t_uint256)45_storage"
      },
      {
        "astId": 1858,
        "contract": "contracts/TestCash.sol:TestCash",
        "label": "__gap",
        "offset": 0,
        "slot": "251",
        "type": "t_array(t_uint256)50_storage"
      },
      {
        "astId": 999,
        "contract": "contracts/TestCash.sol:TestCash",
        "label": "_paused",
        "offset": 0,
        "slot": "301",
        "type": "t_bool"
      },
      {
        "astId": 1104,
        "contract": "contracts/TestCash.sol:TestCash",
        "label": "__gap",
        "offset": 0,
        "slot": "302",
        "type": "t_array(t_uint256)49_storage"
      },
      {
        "astId": 1918,
        "contract": "contracts/TestCash.sol:TestCash",
        "label": "__gap",
        "offset": 0,
        "slot": "351",
        "type": "t_array(t_uint256)50_storage"
      },
      {
        "astId": 2123,
        "contract": "contracts/TestCash.sol:TestCash",
        "label": "__gap",
        "offset": 0,
        "slot": "401",
        "type": "t_array(t_uint256)50_storage"
      }
    ],
    "types": {
      "t_address": {
        "encoding": "inplace",
        "label": "address",
        "numberOfBytes": "20"
      },
      "t_array(t_bytes32)dyn_storage": {
        "base": "t_bytes32",
        "encoding": "dynamic_array",
        "label": "bytes32[]",
        "numberOfBytes": "32"
      },
      "t_array(t_uint256)45_storage": {
        "base": "t_uint256",
        "encoding": "inplace",
        "label": "uint256[45]",
        "numberOfBytes": "1440"
      },
      "t_array(t_uint256)49_storage": {
        "base": "t_uint256",
        "encoding": "inplace",
        "label": "uint256[49]",
        "numberOfBytes": "1568"
      },
      "t_array(t_uint256)50_storage": {
        "base": "t_uint256",
        "encoding": "inplace",
        "label": "uint256[50]",
        "numberOfBytes": "1600"
      },
      "t_bool": {
        "encoding": "inplace",
        "label": "bool",
        "numberOfBytes": "1"
      },
      "t_bytes32": {
        "encoding": "inplace",
        "label": "bytes32",
        "numberOfBytes": "32"
      },
      "t_mapping(t_address,t_bool)": {
        "encoding": "mapping",
        "key": "t_address",
        "label": "mapping(address => bool)",
        "numberOfBytes": "32",
        "value": "t_bool"
      },
      "t_mapping(t_address,t_mapping(t_address,t_uint256))": {
        "encoding": "mapping",
        "key": "t_address",
        "label": "mapping(address => mapping(address => uint256))",
        "numberOfBytes": "32",
        "value": "t_mapping(t_address,t_uint256)"
      },
      "t_mapping(t_address,t_uint256)": {
        "encoding": "mapping",
        "key": "t_address",
        "label": "mapping(address => uint256)",
        "numberOfBytes": "32",
        "value": "t_uint256"
      },
      "t_mapping(t_bytes32,t_struct(AddressSet)5059_storage)": {
        "encoding": "mapping",
        "key": "t_bytes32",
        "label": "mapping(bytes32 => struct EnumerableSetUpgradeable.AddressSet)",
        "numberOfBytes": "32",
        "value": "t_struct(AddressSet)5059_storage"
      },
      "t_mapping(t_bytes32,t_struct(RoleData)179_storage)": {
        "encoding": "mapping",
        "key": "t_bytes32",
        "label": "mapping(bytes32 => struct AccessControlUpgradeable.RoleData)",
        "numberOfBytes": "32",
        "value": "t_struct(RoleData)179_storage"
      },
      "t_mapping(t_bytes32,t_uint256)": {
        "encoding": "mapping",
        "key": "t_bytes32",
        "label": "mapping(bytes32 => uint256)",
        "numberOfBytes": "32",
        "value": "t_uint256"
      },
      "t_string_storage": {
        "encoding": "bytes",
        "label": "string",
        "numberOfBytes": "32"
      },
      "t_struct(AddressSet)5059_storage": {
        "encoding": "inplace",
        "label": "struct EnumerableSetUpgradeable.AddressSet",
        "members": [
          {
            "astId": 5058,
            "contract": "contracts/TestCash.sol:TestCash",
            "label": "_inner",
            "offset": 0,
            "slot": "0",
            "type": "t_struct(Set)4744_storage"
          }
        ],
        "numberOfBytes": "64"
      },
      "t_struct(RoleData)179_storage": {
        "encoding": "inplace",
        "label": "struct AccessControlUpgradeable.RoleData",
        "members": [
          {
            "astId": 176,
            "contract": "contracts/TestCash.sol:TestCash",
            "label": "members",
            "offset": 0,
            "slot": "0",
            "type": "t_mapping(t_address,t_bool)"
          },
          {
            "astId": 178,
            "contract": "contracts/TestCash.sol:TestCash",
            "label": "adminRole",
            "offset": 0,
            "slot": "1",
            "type": "t_bytes32"
          }
        ],
        "numberOfBytes": "64"
      },
      "t_struct(Set)4744_storage": {
        "encoding": "inplace",
        "label": "struct EnumerableSetUpgradeable.Set",
        "members": [
          {
            "astId": 4739,
            "contract": "contracts/TestCash.sol:TestCash",
            "label": "_values",
            "offset": 0,
            "slot": "0",
            "type": "t_array(t_bytes32)dyn_storage"
          },
          {
            "astId": 4743,
            "contract": "contracts/TestCash.sol:TestCash",
            "label": "_indexes",
            "offset": 0,
            "slot": "1",
            "type": "t_mapping(t_bytes32,t_uint256)"
          }
        ],
        "numberOfBytes": "64"
      },
      "t_uint256": {
        "encoding": "inplace",
        "label": "uint256",
        "numberOfBytes": "32"
      },
      "t_uint8": {
        "encoding": "inplace",
        "label": "uint8",
        "numberOfBytes": "1"
      }
    }
  }
}